:020000040800F2
:10000000000002202527000879210008812100082E
:1000100083210008852100088721000800000000D6
:10002000000000000000000000000000C1AA00085D
:10003000892100080000000061AB000805A8000845
:100040007527000875270008752700087527000820
:100050007527000875270008752700087527000810
:100060007527000875270008752700088D210008EE
:100070009D210008752700087527000875270008CE
:100080007527000875270008AD21000875270008AE
:10009000C521000875270008752700087527000886
:1000A0007527000875270008D52100087527000866
:1000B00075270008752700087527000875270008B0
:1000C00075270008752700087527000875270008A0
:1000D000752700087527000875270008E521000826
:1000E0007527000875270008752700087527000880
:1000F0007527000875270008752700087527000870
:10010000752700087527000875270008752700085F
:100110007527000875270008F521000875270008D5
:10012000752700087527000875270008752700083F
:10013000752700087527000875270008752700082F
:10014000752700087527000875270008752700081F
:10015000752700087527000875270008752700080F
:1001600075270008752700087527000875270008FF
:100170007527000875270008052200087527000864
:1001800075270008752700087527000875270008DF
:100190007527000800000000752700087527000873
:1001A00075270008752700087527000875270008BF
:1001B00075270008752700087527000875270008AF
:1001C000752700087527000875270008752700089F
:0801D0007527000875270008DF
:1002000010B5054C237833B9044B13B10448AFF350
:1002100000800123237010BD900B0020000000001F
:10022000A083010808B5034B1BB103490348AFF392
:10023000008008BD00000000940B0020A08301088E
:1002400081F0004102E000BF83F0004330B54FEA87
:1002500041044FEA430594EA050F08BF90EA020FF4
:100260001FBF54EA000C55EA020C7FEA645C7FEA87
:10027000655C00F0E2804FEA5454D4EB5555B8BFAA
:100280006D420CDD2C4480EA020281EA030382EA1B
:10029000000083EA010180EA020281EA0303362DAD
:1002A00088BF30BD11F0004F4FEA01314FF4801C80
:1002B0004CEA113102D0404261EB410113F0004F92
:1002C0004FEA03334CEA133302D0524263EB430349
:1002D00094EA050F00F0A780A4F10104D5F1200EE7
:1002E0000DDB02FA0EFC22FA05F2801841F1000142
:1002F00003FA0EF2801843FA05F359410EE0A5F116
:1003000020050EF1200E012A03FA0EFC28BF4CF046
:10031000020C43FA05F3C01851EBE37101F00045FC
:1003200007D54FF0000EDCF1000C7EEB00006EEB09
:100330000101B1F5801F1BD3B1F5001F0CD3490893
:100340005FEA30004FEA3C0C04F101044FEA4452EA
:1003500012F5800F80F09A80BCF1004F08BF5FEA71
:10036000500C50F1000041EB045141EA050130BD51
:100370005FEA4C0C404141EB0101013C28BFB1F563
:10038000801FE9D291F0000F04BF01460020B1FAAE
:1003900081F308BF2033A3F10B03B3F120020CDA81
:1003A0000C3208DD02F1140CC2F10C0201FA0CF05F
:1003B00021FA02F10CE002F11402D8BFC2F1200CC4
:1003C00001FA02F120FA0CFCDCBF41EA0C0190407A
:1003D000E41AA2BF01EB0451294330BD6FEA0404C3
:1003E0001F3C1CDA0C340EDC04F11404C4F12002AE
:1003F00020FA04F001FA02F340EA030021FA04F3C0
:1004000045EA030130BDC4F10C04C4F1200220FA16
:1004100002F001FA04F340EA0300294630BD21FA54
:1004200004F0294630BD94F0000F83F4801306BF1A
:1004300081F480110134013D4EE77FEA645C18BF0E
:100440007FEA655C29D094EA050F08BF90EA020FA5
:1004500005D054EA000C04BF1946104630BD91EA9D
:10046000030F1EBF0021002030BD5FEA545C05D1A0
:100470004000494128BF41F0004130BD14F58004DF
:100480003CBF01F5801130BD01F0004545F0FE4153
:1004900041F470014FF0000030BD7FEA645C1ABF88
:1004A000194610467FEA655C1CBF0B46024650EABF
:1004B000013406BF52EA033591EA030F41F40021EB
:1004C00030BD00BF90F0000F04BF0021704730B571
:1004D0004FF4806404F132044FF000054FF0000146
:1004E00050E700BF90F0000F04BF0021704730B507
:1004F0004FF4806404F1320410F0004548BF4042DC
:100500004FF000013EE700BF42004FEAE2014FEA30
:1005100031014FEA02701FBF12F07F4393F07F4F0B
:1005200081F06051704732F07F4208BF704793F00E
:100530007F4F04BF41F40021704730B54FF4607421
:1005400001F0004521F000411CE700BF50EA010224
:1005500008BF704730B54FF000050AE050EA0102CD
:1005600008BF704730B511F0004502D5404261EB3D
:1005700041014FF4806404F132045FEA915C3FF47E
:10058000D8AE4FF003025FEADC0C18BF03325FEA1B
:10059000DC0C18BF033202EBDC02C2F1200300FACC
:1005A00003FC20FA02F001FA03FE40EA0E0021FAF1
:1005B00002F11444BDE600BF4FEA410212F50012F9
:1005C00015D211D56FF47873B3EB625212D94FEA9A
:1005D000C12343F0004343EA505311F0004F23FA84
:1005E00002F018BF404270474FF00000704750EAD9
:1005F000013005D111F0004008BF6FF00040704796
:100600004FF00000704700BF4FEA4102B2F1E043F3
:1006100024BFB3F5001CDCF1FE5C0DD901F0004CE9
:100620004FEAC0024CEA5070B2F1004F40EB830039
:1006300008BF20F00100704711F0804F21D113F165
:100640003872BCBF01F00040704741F480114FEA9E
:100650005252C2F11802C2F1200C10FA0CF320FA27
:1006600002F018BF40F001004FEAC1234FEAD32344
:1006700003FA0CFC40EA0C0023FA02F34FEA4303AE
:10068000CCE77FEA625307D150EA01331EBF4FF037
:10069000FE4040F44000704701F0004040F0FE4052
:1006A00040F40000704700BF80F0004002E000BF4F
:1006B00081F0004142001FBF5FEA410392EA030F4D
:1006C0007FEA226C7FEA236C6AD04FEA1262D2EB97
:1006D0001363C1BFD218414048404140B8BF5B429C
:1006E000192B88BF704710F0004F40F4000020F035
:1006F0007F4018BF404211F0004F41F4000121F04B
:100700007F4118BF494292EA030F3FD0A2F1010294
:1007100041FA03FC10EB0C00C3F1200301FA03F1D2
:1007200000F0004302D5494260EB4000B0F5000FF5
:1007300013D3B0F1807F06D340084FEA310102F1B4
:100740000102FE2A51D2B1F1004F40EBC25008BF66
:1007500020F0010040EA03007047490040EB000030
:10076000013A28BFB0F5000FEDD2B0FA80FCACF131
:10077000080CB2EB0C0200FA0CF0AABF00EBC2505E
:1007800052421843BCBFD0401843704792F0000F4C
:1007900081F4000106BF80F400000132013BB5E79F
:1007A0004FEA41037FEA226C18BF7FEA236C21D015
:1007B00092EA030F04D092F0000F08BF084670477A
:1007C00090EA010F1CBF0020704712F07F4F04D148
:1007D000400028BF40F00040704712F100723CBF5B
:1007E00000F50000704700F0004343F0FE4040F485
:1007F000000070477FEA226216BF08467FEA236343
:100800000146420206BF5FEA412390EA010F40F42D
:10081000800070474FF0000304E000BF10F0004379
:1008200048BF40425FEA000C08BF704743F0964360
:1008300001464FF000001CE050EA010208BF70477B
:100840004FF000030AE000BF50EA010208BF704702
:1008500011F0004302D5404261EB41015FEA010C17
:1008600002BF84460146002043F0B64308BFA3F10F
:100870008053A3F50003BCFA8CF2083AA3EBC253F1
:1008800010DB01FA02FC634400FA02FCC2F1200210
:10089000BCF1004F20FA02F243EB020008BF20F047
:1008A0000100704702F1200201FA02FCC2F12002AD
:1008B00050EA4C0021FA02F243EB020008BF20EAA2
:1008C000DC7070477BB972B90029BEBF00204FF0C1
:1008D000004106E008BF00281CBF6FF000414FF048
:1008E000FF3000F0BFB9ADF1080C6DE904CE00296E
:1008F00009DB002B1ADB00F04DF8DDF804E0DDE940
:10090000022304B07047404261EB4101002B1BDB26
:1009100000F040F8DDF804E0DDE9022304B04042D5
:1009200061EB4101524263EB43037047524263EB78
:10093000430300F02FF8DDF804E0DDE9022304B002
:10094000404261EB41017047524263EB430300F0C8
:1009500021F8DDF804E0DDE9022304B0524263EB44
:100960004303704753B94AB9002908BF00281CBF88
:100970004FF0FF314FF0FF3000F074B9ADF1080CCB
:100980006DE904CE00F006F8DDF804E0DDE90223AD
:1009900004B070472DE9F047089D04468E46002BB1
:1009A0004DD18A42944669D9B2FA82F252B101FA23
:1009B00002F3C2F1200120FA01F10CFA02FC41EA33
:1009C000030E94404FEA1C48210CBEFBF8F61FFAB8
:1009D0008CF708FB16E341EA034306FB07F1994253
:1009E0000AD91CEB030306F1FF3080F01F81994206
:1009F00040F21C81023E63445B1AA4B2B3FBF8F0E0
:100A000008FB103344EA034400FB07F7A7420AD966
:100A10001CEB040400F1FF3380F00A81A74240F28E
:100A200007816444023840EA0640E41B00261DB1F9
:100A3000D4400023C5E900433146BDE8F0878B422E
:100A400009D9002D00F0EF800026C5E900013046ED
:100A50003146BDE8F087B3FA83F6002E4AD18B42C7
:100A600002D3824200F2F980841A61EB0303012071
:100A70009E46002DE0D0C5E9004EDDE702B9FFDE5D
:100A8000B2FA82F2002A40F09280A1EB0C014FEA08
:100A90001C471FFA8CFE0126200CB1FBF7F307FB65
:100AA000131140EA01410EFB03F0884208D91CEB08
:100AB000010103F1FF3802D2884200F2CB804346A5
:100AC000091AA4B2B1FBF7F007FB101144EA014484
:100AD0000EFB00FEA64508D91CEB040400F1FF3113
:100AE00002D2A64500F2BB800846A4EB0E0440EA01
:100AF00003409CE7C6F12007B34022FA07FC4CEA0A
:100B0000030C20FA07F401FA06F31C43F9404FEAFC
:100B10001C4900FA06F3B1FBF9F8200C1FFA8CFE11
:100B200009FB181140EA014108FB0EF0884202FA65
:100B300006F20BD91CEB010108F1FF3A80F0888026
:100B4000884240F28580A8F102086144091AA4B2E3
:100B5000B1FBF9F009FB101144EA014100FB0EFE64
:100B60008E4508D91CEB010100F1FF346CD28E4593
:100B70006AD90238614440EA0840A0FB0294A1EB24
:100B80000E01A142C846A64656D353D05DB1B3EB81
:100B9000080261EB0E0101FA07F722FA06F3F140B1
:100BA0001F43C5E9007100263146BDE8F087C2F158
:100BB0002003D8400CFA02FC21FA03F391400143D0
:100BC0004FEA1C471FFA8CFEB3FBF7F007FB103609
:100BD0000B0C43EA064300FB0EF69E4204FA02F4B5
:100BE00008D91CEB030300F1FF382FD29E422DD908
:100BF000023863449B1B89B2B3FBF7F607FB16333D
:100C000041EA034106FB0EF38B4208D91CEB0101BC
:100C100006F1FF3816D28B4214D9023E6144C91A3C
:100C200046EA004638E72E46284605E70646E3E64C
:100C30001846F8E64B45A9D2B9EB020864EB0C0E56
:100C40000138A3E74646EAE7204694E74046D1E765
:100C5000D0467BE7023B614432E7304609E7644413
:100C6000023842E7704700BF844641EA000313F0B0
:100C700003036DD1403A41D351F8043B40F8043BA3
:100C800051F8043B40F8043B51F8043B40F8043B66
:100C900051F8043B40F8043B51F8043B40F8043B56
:100CA00051F8043B40F8043B51F8043B40F8043B46
:100CB00051F8043B40F8043B51F8043B40F8043B36
:100CC00051F8043B40F8043B51F8043B40F8043B26
:100CD00051F8043B40F8043B51F8043B40F8043B16
:100CE00051F8043B40F8043B51F8043B40F8043B06
:100CF00051F8043B40F8043B403ABDD2303211D3A6
:100D000051F8043B40F8043B51F8043B40F8043BE5
:100D100051F8043B40F8043B51F8043B40F8043BD5
:100D2000103AEDD20C3205D351F8043B40F8043BA5
:100D3000043AF9D2043208D0D2071CBF11F8013BA3
:100D400000F8013B01D30B8803806046704700BF69
:100D5000082A13D38B078DD010F003038AD0C3F178
:100D60000403D21ADB071CBF11F8013B00F8013B5A
:100D700080D331F8023B20F8023B7BE7043AD9D319
:100D8000013A11F8013B00F8013BF9D20B780370EE
:100D90004B7843708B78837060467047000000008A
:100DA0000000000000000000000000000000000043
:100DB0000000000000000000000000000000000033
:100DC00090F800F06DE9024520F007016FF0000C8B
:100DD00010F0070491F820F040F049804FF0000433
:100DE0006FF00700D1E9002391F840F000F108000E
:100DF00082FA4CF2A4FA8CF283FA4CF3A2FA8CF346
:100E00004BBBD1E9022382FA4CF200F10800A4FAAC
:100E10008CF283FA4CF3A2FA8CF3E3B9D1E9042300
:100E200082FA4CF200F10800A4FA8CF283FA4CF337
:100E3000A2FA8CF37BB9D1E9062301F1200182FAF1
:100E40004CF200F10800A4FA8CF283FA4CF3A2FAF7
:100E50008CF3002BC6D0002A04BF04301A4612BA05
:100E6000B2FA82F2FDE8024500EBD2007047D1E908
:100E7000002304F00305C4F100004FEAC50514F097
:100E8000040F91F840F00CFA05F562EA05021CBF68
:100E900063EA050362464FF00004A9E70000000082
:100EA00001F0FF01102A2BDB10F0070F08D010F81B
:100EB000013B013A8B422DD010F0070F42B3F6D11F
:100EC000F0B441EA012141EA014122F007047FF038
:100ED00000070023F0E80256083C85EA010586EA8F
:100EE000010685FA47F5A3FA87F586FA47F6A5FACB
:100EF00087F68EB9EED1F0BC01F0FF0102F00702D7
:100F000032B110F8013B013A83EA010313B1F8D181
:100F10000020704701387047002D06BF3546033862
:100F2000073815F0010F07D1013015F4807F02BF9B
:100F3000013015F4C03F0130F0BC0138704700BFEC
:100F400070B54FF0FF0C4CF4E06C1CEA11541DBF5F
:100F50001CEA135594EA0C0F95EA0C0F00F0DEF82A
:100F60002C4481EA030621EA4C5123EA4C5350EA0F
:100F7000013518BF52EA033541F4801143F4801360
:100F800038D0A0FB02CE4FF00005E1FB02E506F0F1
:100F90000042E0FB03E54FF00006E1FB03569CF046
:100FA000000F18BF4EF0010EA4F1FF04B6F5007F4C
:100FB00064F5407404D25FEA4E0E6D4146EB0606BE
:100FC00042EAC62141EA55514FEAC52040EA5E5047
:100FD0004FEACE2EB4F1FD0C88BFBCF5E06F1ED8F1
:100FE000BEF1004F08BF5FEA500E50F1000041EB28
:100FF000045170BD06F0004646EA010140EA0200D5
:1010000081EA0301B4EB5C04C2BFD4EB0C0541EAF6
:10101000045170BD41F480114FF0000E013C00F30B
:10102000AB8014F1360FDEBF002001F0004170BD2F
:10103000C4F10004203C35DA0C341BDC04F1140448
:10104000C4F1200500FA05F320FA04F001FA05F2D4
:1010500040EA020001F0004221F0004110EBD370A1
:1010600021FA04F642EB06015EEA430E08BF20EACD
:10107000D37070BDC4F10C04C4F1200500FA04F370
:1010800020FA05F001FA04F240EA020001F0004102
:1010900010EBD37041F100015EEA430E08BF20EA75
:1010A000D37070BDC4F1200500FA05F24EEA020EBD
:1010B00020FA04F301FA05F243EA020321FA04F0EC
:1010C00001F0004121FA04F220EA020000EBD370A3
:1010D0005EEA430E08BF20EAD37070BD94F0000FA3
:1010E0000FD101F00046400041EB010111F4801FD7
:1010F00008BF013CF7D041EA060195F0000F18BF88
:10110000704703F00046520043EB030313F4801FC3
:1011100008BF013DF7D043EA0603704794EA0C0F7D
:101120000CEA135518BF95EA0C0F0CD050EA410693
:1011300018BF52EA4306D1D181EA030101F0004110
:101140004FF0000070BD50EA410606BF1046194638
:1011500052EA430619D094EA0C0F02D150EA013644
:1011600013D195EA0C0F05D152EA03361CBF104685
:1011700019460AD181EA030101F0004141F0FE4124
:1011800041F470014FF0000070BD41F0FE4141F4A8
:10119000780170BD70B54FF0FF0C4CF4E06C1CEAA8
:1011A00011541DBF1CEA135594EA0C0F95EA0C0F5D
:1011B00000F0A7F8A4EB050481EA030E52EA033518
:1011C0004FEA013100F088804FEA03334FF0805539
:1011D00045EA131343EA12634FEA022245EA111566
:1011E00045EA10654FEA00260EF000419D4208BF17
:1011F000964244F1FD0404F5407402D25B084FEAC4
:101200003202B61A65EB03055B084FEA32024FF46F
:1012100080104FF4002CB6EB020E75EB030E22BFCC
:10122000B61A754640EA0C005B084FEA3202B6EB8C
:10123000020E75EB030E22BFB61A754640EA5C003B
:101240005B084FEA3202B6EB020E75EB030E22BFCB
:10125000B61A754640EA9C005B084FEA3202B6EBCC
:10126000020E75EB030E22BFB61A754640EADC008B
:1012700055EA060E18D04FEA051545EA16754FEAED
:1012800006164FEAC30343EA52734FEAC2025FEA0B
:101290001C1CC0D111F4801F0BD141EA00014FF09A
:1012A00000004FF0004CB6E711F4801F04BF01436B
:1012B0000020B4F1FD0C88BFBCF5E06F3FF6AFAE87
:1012C000B5EB030C04BFB6EB020C5FEA500C50F117
:1012D000000041EB045170BD0EF0004E4EEA11319A
:1012E00014EB5C04C2BFD4EB0C0541EA045170BDA1
:1012F00041F480114FF0000E013C90E645EA060EE5
:101300008DE60CEA135594EA0C0F08BF95EA0C0F12
:101310003FF43BAF94EA0C0F0AD150EA01347FF45A
:1013200034AF95EA0C0F7FF425AF104619462CE731
:1013300095EA0C0F06D152EA03353FF4FDAE104694
:10134000194622E750EA410618BF52EA43067FF4E5
:10135000C5AE50EA41047FF40DAF52EA43057FF475
:10136000EBAE12E74FF0FF3C06E000BF4FF0010C80
:1013700002E000BF4FF0010C4DF804CD4FEA410CE4
:101380007FEA6C5C4FEA430C18BF7FEA6C5C1BD0B1
:1013900001B050EA410C0CBF52EA430C91EA030F32
:1013A00002BF90EA020F0020704710F1000F91EA8F
:1013B000030F58BF994208BF90422CBFD8176FEA5D
:1013C000E37040F0010070474FEA410C7FEA6C5C2B
:1013D00002D150EA013C07D14FEA430C7FEA6C5C32
:1013E000D6D152EA033CD3D05DF8040B704700BF5E
:1013F0008446104662468C461946634600E000BFAC
:1014000001B5FFF7B7FF002848BF10F1000F01BD7D
:101410004DF808EDFFF7F4FF0CBF012000205DF848
:1014200008FB00BF4DF808EDFFF7EAFF34BF0120CD
:1014300000205DF808FB00BF4DF808EDFFF7E0FF66
:1014400094BF012000205DF808FB00BF4DF808EDB7
:10145000FFF7CEFF94BF012000205DF808FB00BF1E
:101460004DF808EDFFF7C4FF34BF012000205DF800
:1014700008FB00BF4FEA410C7FEA6C5C02D150EAE6
:10148000013C0AD14FEA430C7FEA6C5C02D152EA7C
:10149000033C02D14FF0000070474FF0010070474D
:1014A0004A0011D212F5001211D20DD56FF47873E3
:1014B000B3EB62520ED44FEAC12343F0004343EA38
:1014C000505323FA02F070474FF00000704750EA83
:1014D000013002D14FF0FF3070474FF000007047ED
:1014E00038B50022002304460D46FFF79BFF28B9BC
:1014F00020462946BDE8384000F00AB8204605F1EC
:10150000004100F005F8404261EB410138BD00BFE9
:10151000D0B50C4B002206460F46FFF711FDFFF732
:10152000BFFF0446FEF7CEFF074B0022FFF708FD82
:1015300002460B4630463946FEF786FEFFF7B0FFFF
:101540002146D0BD0000F03D0000F04110B592B042
:1015500000240F94109411943C22214668460EF00A
:1015600055FF39484FF0A04303604FF40023436018
:101570008460C460046101234361042282610477B2
:101580004477036280F8244080F83840C46380F8D0
:10159000404001F025F9002844D100230F930FA902
:1015A000294802F039FC00283FD1284B0093092339
:1015B0000193002302937F22039204220492059355
:1015C00008928DF824308DF825308DF8263084224D
:1015D0000A9280220B928DF8303069461A4802F048
:1015E000E3F828BB1A4B009340F20F1301936946AE
:1015F000154802F0D9F8F0B9164B009340F21523C4
:1016000001936946104802F0CFF8B8B9124B009325
:1016100040F21B33019369460B4802F0C5F880B9CC
:1016200012B010BD00F036FCB7E700F033FCBCE7A9
:1016300000F030FCD6E700F02DFCDDE700F02AFCDE
:10164000E4E700F027FCEBE7B00B00200800900C6B
:1016500004006008020030041000C01000B589B01A
:101660002022002168460EF0D1FE1B481B4B036070
:101670004FF40023436000238360C3600361436130
:1016800004228261037701224277026280F82430CB
:10169000C362036380F83830C36380F8403001F0E0
:1016A0009FF898B90E4B00930623019301230293F0
:1016B0007F2303930423049300230593694606487C
:1016C00001F054FB28B909B05DF804FB00F0E2FB1F
:1016D000E8E700F0DFFBF6E71C0C002000010050FB
:1016E0000008302E10B59EB00446002119911A91C1
:1016F0001B911C911D91542204A80EF087FE2368B3
:10170000B3F1A04F04D03E4A93423DD01EB010BD6D
:101710004FF4004304934FF00053159304A804F0D2
:1017200033FE18BB374A136801331360012B20D0F6
:10173000354BDA6C42F00102DA64DB6C03F0010332
:101740000193019B0F23199303231A9300241B94E5
:1017500019A94FF0904003F063F8224605211220AA
:1017600002F056FC122002F08BFCCFE700F092FB57
:10177000D8E7254BDA6C42F40052DA64DB6C03F4F0
:1017800000530093009BD3E74FF4004304934FF0C2
:101790000053159304A804F0F7FD10BB194A136811
:1017A00001331360012B1FD0174BDA6C42F0040297
:1017B000DA64DB6C03F004030393039B2023199387
:1017C00003231A9300241B9419A9104803F028F846
:1017D00022460521122002F01BFC122002F050FCD0
:1017E00094E700F057FBD9E7074BDA6C42F400525C
:1017F000DA64DB6C03F400530293029BD4E700BF6E
:1018000000010050AC0B002000100240000800480E
:1018100008B50CF0C9FF012009F08DF8F9E708B50B
:10182000012009F088F8FBE700B58DB00023049390
:10183000059306930793089309930A930B93AA229F
:101840008DF80F2002931BE0104C02AB0093002395
:1018500001220DF10F0120460EF090FA0299204668
:101860000EF067FA10220DEB020120460EF017FA77
:1018700010210DEB01000DF0E9FA012009F05BF8F1
:1018800002480EF0F6F90F28DED8F6E7A40C002087
:1018900010B504460846FFF793FA20440EF0C8FA44
:1018A00051EC100BFEF7B0FE00EE100A10BD000068
:1018B00008B54FF480522C492C480EF069F94FF4CA
:1018C00080622B492B4807F00DF90DF0A3FD00288D
:1018D0003ED129480EF05AFE4FF4FA7000F06CFF2A
:1018E0000DF050FE002839D1244B01221A702448F3
:1018F0000EF04CFE4FF4FA7000F05EFF0CF098FD15
:101900000CF024FA0CF082FF0CF022F80BF07AFDB8
:101910001C4805F08DFB4FF4FA7000F04DFF0120DC
:101920000CF0AEFD184A0021184808F0A5FF184B2E
:101930001860184A0021184808F09EFF174B1860DD
:10194000174A0021174808F097FF174B186008BD89
:101950000DF0AAFC15480EF019FEBDE70DF0B4FD20
:1019600013480EF013FEC5E7BC0C0020A40C0020A9
:10197000BC1C00202C230020CC83010840810020C7
:101980000084010820220020B884010811180008F2
:10199000980C0020DC8401081F1800089C0C002013
:1019A0000085010829180008A00C0020DC8301082C
:1019B0001484010810B504460268094B9A4204D009
:1019C0002268084B9A4203D010BD00F0E3FEF7E70F
:1019D0000CF0B2FE044A136801331360F4E700BF51
:1019E0000050014000100040880C002038B504462B
:1019F0000368B3F1A04F04D02368B3F1A04F44D0E3
:101A000038BD5A4B1B78002BF6D1594D0921284679
:101A100001F0AAFE574A13680344136040F20F1105
:101A2000284601F0A1FE544A13680344136040F2B3
:101A30001521284601F098FE504B1A681044186092
:101A40004F4A1368013B1360002BD5DC494B1B68E0
:101A5000002B13DB9B114B4A1380474B1B68002B59
:101A60000EDB9B11484A1380034600280ADB9B11BA
:101A7000464A13803D4B01221A70BDE73F33E9E728
:101A80003F33EEE700F13F03F1E7384B1B78002BC3
:101A9000B6D00CF06FFD3E4AD1683E4B196011691B
:101AA000596091689960D16AD960D1691961526BA6
:101AB0005A61394A526A9A61384BD3F88830012BFF
:101AC00031D0374A334BDA61314AD2ED147AF8EE2D
:101AD000E77AC3ED087A334B5B6813F4802F25D186
:101AE000304B5B6813F4803F25D12E4B5B6813F4B9
:101AF000003F25D12B4B5B6813F0010F24D1294BFC
:101B00005B6813F0020F24D1264B5B68C3F38D038F
:101B1000012B22D0234B5B68DB0C012B21D01D4B0A
:101B200000225A626CE74FF07E52CBE7194B4FF020
:101B30007E525A6264E7174B4FF080425A625FE769
:101B4000144B194A5A625BE7124B4FF081425A62BA
:101B500056E7104B154A5A6252E70E4B144A5A6226
:101B60004EE70C4B134A5A624AE700BFB80C0020FC
:101B7000B00B00208C0C0020900C0020940C002056
:101B800000000020728200207482002076820020F3
:101B9000FC81002004000020B0810020C0820020D1
:101BA000000080BF50820020000040400000A040A4
:101BB0000000C0400000E04008B50268334B9A4284
:101BC00000D008BD324933480EF0C0FE48B10320B2
:101BD0000CF056FC4FF480622E492F4806F082FF2D
:101BE000EFE72E492B480EF0B1FE80B12B49294872
:101BF000FFF74EFEB5EEC00AF1EE10FA03DD02204B
:101C00000CF03EFCE6E701200CF03AFCE2E7244948
:101C100020480EF09BFE18B104200CF031FCD9E7EF
:101C200020491C480EF092FE10B10CF015FCD1E7D3
:101C30001D4918480EF08AFE48B11C491548FFF7A7
:101C400027FE1B4B83ED050A0BF08EFBC2E71949FB
:101C500010480EF07BFE48B117490E48FFF718FEFA
:101C6000134B83ED040A0BF07FFBB3E713490948DC
:101C70000EF06CFE0028ADD011490648FFF708FEB3
:101C80000B4B83ED030A0BF06FFBA3E7004800400A
:101C90003C840108BC1C00202C2300204484010843
:101CA0004C840108548401085C84010864840108A0
:101CB000788100206C840108708401087884010810
:101CC0007C84010800B583B0124B9A6C42F0040288
:101CD0009A649A6C02F004020092009A9A6C42F0A4
:101CE00001029A649B6C03F001030193019B0022A3
:101CF00005210B2002F08CF90B2002F0C1F9002223
:101D000005210C2002F084F90C2002F0B9F903B08F
:101D10005DF804FB001002402DE9F0438DB0002473
:101D20000794089409940A940B94554BDA6C42F08A
:101D30000402DA64DA6C02F004020192019ADA6CAD
:101D400042F02002DA64DA6C02F020020292029A77
:101D5000DA6C42F04002DA64DA6C02F0400203927C
:101D6000039ADA6C42F00102DA64DA6C02F00102E2
:101D70000492049ADA6C42F00202DA64DA6C02F03D
:101D800002020592059ADA6C42F00802DA64DB6C12
:101D900003F008030693069B3A4E22464EF60801CE
:101DA000304602F027FE224648F220014FF09040D4
:101DB00002F020FEDFF8D49022460421484602F0CB
:101DC00019FEDFF8CC802246C021404602F012FE08
:101DD0004EF6080307930125089509940A9407A96C
:101DE000304602F01DFD4FF48063079303270897E8
:101DF000099407A9244802F013FD172307930897B5
:101E0000099407A9304602F00BFDD02307930897E9
:101E1000099407A94FF0904002F002FD48F2200318
:101E20000793089509940A9407A94FF0904002F08F
:101E3000F7FC41F2073307930897099407A9404636
:101E400002F0EEFC4FF4707307930894099407A90D
:101E5000304602F0E5FC04230793089509940A94A0
:101E600007A9484602F0DCFCC023079308950994B3
:101E70000A9407A9404602F0D3FC0DB0BDE8F083F8
:101E8000001002400008004800180048000C0048FC
:101E90000004004872B6FEE700B595B03822002174
:101EA00006A80EF0B3FA002001900290039004906F
:101EB000059003F09BFD212306934FF48033079395
:101EC00001230C9302230D9303220E920F935422AD
:101ED0001092119306221292139306A803F040FE6B
:101EE00090B90F23019303230293002303930493D8
:101EF000059304210DEB010004F0E8F830B904F07B
:101F000029FA15B05DF804FBFFF7C4FFFFF7C2FF25
:101F100008B500F030FCFFF7BFFFFFF7FDFEFFF74D
:101F2000D1FEFFF713FBFFF799FB00F087FA00F0F3
:101F30000FF800F035F800F029FB0AF0FDFA00F088
:101F4000D1F908F06BFCFFF7B3FC08F079FCFEE771
:101F500008B51148114B03604FF4827343600023AE
:101F600083604FF47062C26002220261012242610A
:101F70004FF4007282612022C26103624362836275
:101F80000722C2620363436304F0CFFC00B908BDBB
:101F9000FFF780FFFBE700BFBC20002000300140BE
:101FA00008B51048104B03604FF482734360002360
:101FB00083604FF4E062C260036143614FF40072DA
:101FC00082610822C2610362436283620721C162A7
:101FD0000363426304F0A9FC00B908BDFFF75AFF90
:101FE000FBE700BF20210020003C004000B58BB083
:101FF0000023059306930793089309930368234AE4
:10200000934205D0224A934220D00BB05DF804FBE6
:10201000204B1A6E42F480521A661A6E02F48052F5
:102020000192019ADA6C42F00202DA64DB6C03F08E
:1020300002030293029B3823059302230693052390
:10204000099305A9144802F0EBFBDEE7114B9A6DEA
:1020500042F400429A659A6D02F400420392039A98
:10206000DA6C42F00402DA64DB6C03F004030493DC
:10207000049B4FF4A0530593022306930623099370
:1020800005A9064802F0CCFBBFE700BF00300140C5
:10209000003C0040001002400004004800080048D6
:1020A00000B583B00E4B1A6E42F001021A661A6E2A
:1020B00002F001020092009A9A6D42F080529A65F5
:1020C0009B6D03F080530193019B00220F216FF061
:1020D000010001F09DFF03F00FFD03B05DF804FB6C
:1020E0000010024030B589B004461E4B1A6E42F40F
:1020F00080121A661B6E03F480130193019B02A9E0
:1021000003A804F009F904F0F5F803461648A0FB0B
:1021100003239B0C013B1548154A026040F2E7324D
:10212000C260436000230361836005F03DF905460A
:1021300010B1284609B030BD0C4804F079FF0546BF
:102140000028F6D14E2001F09BFF0F2C01D901256C
:10215000EFE7002221464E2001F05AFF054B1C609C
:10216000E7E700BF0010024083DE1B43842100200C
:10217000005001403800002008B504F0F5F8FEE7F3
:10218000FEE7FEE7FEE7FEE77047000008B50248FD
:1021900002F009F908BD00BFCC22002008B50248B2
:1021A00002F001F908BD00BF6C22002008B5034809
:1021B00000F06AFC024800F067FC08BDB00B00208C
:1021C0001C0C002008B5024803F0C9F908BD00BF87
:1021D000447C002008B5024804F079FF08BD00BF28
:1021E000D421002008B5024805F018FE08BD00BF44
:1021F0002C23002008B5024804F069FF08BD00BF89
:102200002022002008B5024804F061FF08BD00BF8D
:10221000842100200120704708B50DF00DFE162323
:1022200003604FF0FF3008BD08B54FF0FF31FFF7F6
:10223000F3FFFEE770B50C461646002506E0AFF347
:102240000080214601F8010B01350C46B542F6DB52
:10225000304670BD70B50C461646002504E014F8F3
:10226000010B00F04FFA0135B542F8DB304670BD86
:102270004FF0FF3070474FF400534B600020704721
:10228000012070470020704710B503460C4A0D49E5
:102290000D48006840B10C4800680344521A93424C
:1022A00006D8094A136010BD0748084C0460F2E7DD
:1022B0000DF0C2FD0C2303604FF0FF30F3E700BFC9
:1022C0000000022000100000D0210020A085002086
:1022D000034AD2F8883043F47003C2F8883070475C
:1022E00000ED00E000B585B0002301930293039355
:1022F0000E480F4A0260A7224260836040F2E73234
:10230000C260836105F050F850B900230193039334
:1023100001A9064805F040FC28B905B05DF804FBAA
:10232000FFF7B8FDF1E7FFF7B5FDF6E72022002043
:102330000010004000B583B00368174A934205D0EF
:10234000164A934215D003B05DF804FB144B1A6E85
:1023500042F400621A661B6E03F400630093009B54
:10236000002205211A2001F053FE1A2001F088FEF8
:10237000E9E70B4B9A6D42F010029A659B6D03F0F2
:1023800010030193019B00220521362001F040FE3D
:10239000362001F075FED6E7002C01400010004009
:1023A00000100240F0B589B0002303930493059315
:1023B0000693079302681F4B9A4201D009B0F0BD03
:1023C00003F56443DA6C42F00202DA64DA6C02F07C
:1023D00002020192019ADA6C42F00102DA64DB6CCB
:1023E00003F001030293029B4FF4C04303930225C1
:1023F000049506260796104F03A9384602F010FAF6
:102400004FF4004303930495002405940694042399
:10241000079303A9384602F003FA4FF4E0630393ED
:10242000049505940694079603A94FF0904002F096
:10243000F7F9C3E7002C01400004004810B59CB038
:102440000024189419941A941B94159416941794B4
:102450000E940F94109411941294139414943422A3
:10246000214601A80DF0D2FF4648474B0360446067
:102470002023836041F26803C3604FF480730361DB
:1024800001234361846104F08FFF00285ED14FF483
:102490008053189318A93B4805F0DEF8002858D15E
:1024A000384804F0B1FF002856D17023159300235B
:1024B0001693179315A9334805F06EFB00284ED1EB
:1024C00060230E9300220F92109211921292139297
:1024D00014920EA92B4805F015F8002842D10422C9
:1024E0000EA9284805F00EF800283ED108220EA9B2
:1024F000244805F007F800283AD170230E9341F2E2
:102500005E030F930C220EA91E4804F0FBFF002867
:1025100031D1002301930293039314220492059373
:102520004FF4005206920793089309934FF00072FC
:102530000A920B930C930D9301A9124805F082FBAC
:10254000E0B91048FFF72EFF1CB010BDFFF7A2FC4A
:102550009DE7FFF79FFCA3E7FFF79CFCA5E7FFF7CC
:1025600099FCADE7FFF796FCB9E7FFF793FCBDE7F1
:10257000FFF790FCC1E7FFF78DFCCAE7FFF78AFC85
:10258000DFE700BFD4210020002C014008B5174828
:10259000174B0360174B436000238360C3600361E4
:1025A0000C2242618361C36103624362836206F06D
:1025B0007BF970B900210D4806F04AFA60B9002194
:1025C0000A4806F06AFA50B9084806F022FA48B9F3
:1025D00008BDFFF75FFCEDE7FFF75CFCEFE7FFF7F7
:1025E00059FCF1E7FFF756FCF2E700BF2C2300206F
:1025F0000048004080841E0030B59DB00446002194
:102600001791189119911A911B91542202A80DF05B
:10261000FDFE2268344B9A4201D01DB030BD042328
:10262000029302A803F0B0FE002853D12F4B9A6DFD
:1026300042F480229A659A6D02F480220092009AF8
:10264000DA6C42F00202DA64DB6C03F002030193FD
:10265000019B4FF4406317930223189300251995AB
:1026600003231A9307231B9317A9214802F0D8F8D4
:102670002048214B03601D23436010238360C56005
:102680008023036145618561C561056201F060FDDC
:1026900018BB184BE3679C621848194B03601C2356
:1026A000436000238360C3608022026143618361D1
:1026B000C361036201F04CFD90B9104BC4F8803047
:1026C0009C6200220521272001F0A2FC272001F0B6
:1026D000D7FCA2E7FFF7DEFBA8E7FFF7DBFBD8E7B5
:1026E000FFF7D8FBE9E700BF0048004000100240B8
:1026F00000040048CC220020080002406C22002088
:102700001C00024000B583B001904FF6FF73012218
:1027100001A9034805F0FAFF019803B05DF804FB36
:102720002C2300200D488546FFF7D2FD0C480D49AB
:102730000D4A002302E0D458C4500433C4188C421C
:10274000F9D30A4A0A4C002301E013600432A24282
:10275000FBD30DF077FBFFF7DBFBFEE70000022069
:10276000000000208C0B0020B4980108900B002082
:10277000A0850020FEE710B5032001F037FC0F20F4
:10278000FFF7B0FC10B10124204610BD0446FFF74E
:1027900087FCF9E7034A1368034909680B4413608F
:1027A000704700BFC023002034000020014B186890
:1027B000704700BFC023002038B50446FFF7F6FF7E
:1027C0000546B4F1FF3F02D0044B1B681C44FFF7E1
:1027D000EDFF401BA042FAD338BD00BF34000020FB
:1027E00030B583B000230193002800F03281044605
:1027F000C36D13B323689A6812F0005F05D09A681E
:1028000022F0204222F03F029A602268936813F07F
:10281000805F1FD1936823F0104323F03F0343F000
:10282000805393608C4B1B689B098C4AA2FB03234B
:102830009B0901335B00019309E0FEF753FF00237E
:10284000236684F85830D5E7019B013B0193019B37
:10285000002BF9D12268936813F0805F3DD1E36DBE
:1028600043F01003E365236E43F001032366012068
:10287000936813F0040300D00123E16D11F0100FF1
:1028800040F0E080002B40F0DD80E36D23F48173A5
:1028900043F00203E365936813F0010F3ED1B2F1F8
:1028A000A04F1CD06E4B9A4219D06E4B996811F014
:1028B000010100D001216C4B9B6813F0010300D093
:1028C00001230B436949896811F0010100D00121FE
:1028D0000B430CBF0123002312E00020C8E74FF098
:1028E000A0439B6813F0010300D001235C49896871
:1028F00011F0010100D001210B430CBF0123002383
:1029000063B1B2F1A04F6CD0554B9A4267D0584991
:1029100063688A6822F47C1213438B60627FE36BE6
:1029200043EA4233E2681343A268134394F8242035
:1029300043EA0243012A56D0E26A22B102F47872D5
:10294000216B0A4313432168CD684A4A2A40134346
:10295000CB602268136923F04063616B0B43136102
:102960002268936813F0080300D0012343BB217F42
:1029700094F838305B0043EA8131D36823F4804314
:1029800023F002030B43D3602369002B30D022686D
:10299000136943F4803313612268D2F8C03023F402
:1029A0007F5323F03F0321690B43C2F8C03094F8F2
:1029B0004030012B2BD02268136923F001031361EF
:1029C0006369012B35D02268136B23F00F03136367
:1029D000E36D23F0030343F00103E36537E0264989
:1029E00096E7254994E7A26A013A43EA4243A3E7FE
:1029F0002268136923F4803313612268D2F8C0304F
:102A000023F47F5323F03F03C2F8C030CFE721689F
:102A10000B6923F4FF6323F00403626CA56C2A4363
:102A2000E56C2A43256D2A43134343F001030B61F0
:102A3000C6E721680B6B23F00F03226A013A1343A8
:102A40000B63C5E7E36D43F01003E365012003B0BA
:102A500030BD0120FBE700BF30000020632D3E05A4
:102A60000001005000040050000500500006005016
:102A7000000700500740F0FF000300500368186C87
:102A80007047704770477047F8B5044603681E6882
:102A90005F68B3F1A04F46D0974A934241D0974B1D
:102AA0009D6805F01F0516F0020F10D017F0020FF9
:102AB0000DD0E36D13F0100F03D1E36D43F4006309
:102AC000E365204600F06FFE236802221A6016F0CC
:102AD000040F02D017F0040F05D116F0080F55D0DF
:102AE00017F0080F52D0E36D13F0100F03D1E36D10
:102AF00043F40073E3652368DA6812F4406F3FD152
:102B00007D4A934214D002F5806293420DD01A465A
:102B1000934210D07DB1052D0DD0092D0BD0D26878
:102B20000AE0774BBCE7764BBAE7A2F58072EFE795
:102B30004FF0A042ECE7DA6812F4005F20D11A6887
:102B400012F0080F1CD09A6812F0040F10D15A68C6
:102B500022F00C025A60E36D23F48073E365E36DA9
:102B600013F4805F0CD1E36D43F00103E36507E0EC
:102B7000E36D43F01003E365236E43F00103236626
:102B80002046FFF77EFF23680C221A6016F0200F04
:102B900002D017F0200F05D116F0400F63D017F0C8
:102BA000400F60D0E36D13F0100F03D1E36D43F4D9
:102BB0000053E3652368DA6C12F4C07F16D101215B
:102BC000DA6812F4406F13D101204B4A934214D0BB
:102BD00002F5806293420DD01A46934210D07DB127
:102BE000062D0DD0072D0BD0D2680AE00021E7E7B3
:102BF0000020EAE7A2F58072EFE74FF0A042ECE791
:102C0000DA6851B312F0007F03D030B312F4005FE2
:102C100023D1196811F0400F1FD012F4001F1CD1EE
:102C20009A6812F0080F10D15A6822F060025A60B8
:102C3000E36D23F48053E365E36D13F4807F0CD1DF
:102C4000E36D43F00103E36507E0E36D43F0100338
:102C5000E365236E43F0010323662046FEF7C6FEBC
:102C6000236860221A6016F0800F02D017F0800FE0
:102C700036D116F4807F02D017F4807F42D116F44B
:102C8000007F02D017F4007F48D116F0100F20D03B
:102C900017F0100F1DD0E36B6BB1002D4ED02368E1
:102CA000B3F1A04F48D0144A934243D0134B9B68D2
:102CB00013F4604F0AD0E36D43F48063E365236E41
:102CC00043F0020323662046FFF7DDFE236810224F
:102CD0001A6016F4806F02D017F4806F34D1F8BDFB
:102CE000E36D43F48033E3652046FFF7CBFE2368B2
:102CF00080221A60BDE700BF0001005000070050AD
:102D000000030050E36D43F40033E365204600F018
:102D100048FD23684FF480721A60B0E7E36D43F416
:102D20008023E365204600F03DFD23684FF40072E8
:102D30001A60AAE70C4BBAE70B4BB8E72368DB68CD
:102D400013F0010FC2D0B6E7E36D43F48043E365AF
:102D5000236E43F00803236623684FF480621A60F1
:102D6000204600F01DFDBAE700030050F0B583B027
:102D70000022019290F85820012A00F08482034634
:102D8000012280F858200568A86810F0040F09D0C7
:102D9000DA6D42F02002DA650120002283F8582023
:102DA00003B0F0BD4C683035220A920002F00C02EC
:102DB000A85804F01F0E1F2404FA0EF420EA0400A1
:102DC0000C68C4F3846C0CFA0EFC40EA0C00A850AA
:102DD0001868826812F0040200D00122846814F09E
:102DE000080400D00124002A50D1002C4ED18F6855
:102DF000B7F1004F00F08B800E681430720E920015
:102E000002F004028558C6F3045E4FF0070C0CFA7A
:102E10000EFC25EA0C0C07FA0EF54CEA0505855068
:102E20001868426922F0004242614D691868C26820
:102E3000C2F3C102520005FA02F20E69042E7ED0DE
:102E4000603050F82670AD4D3D400F6807F0F847F0
:102E50003A43154345F0004540F826501A680E697C
:102E60008869603252F8265025F08075284342F870
:102E700026001A680D69087F01285DD0603252F87B
:102E8000250020F00070044342F82540186882684D
:102E900012F0010F17D10A68CD68D0F8B040C2F324
:102EA000120C24EA0C0405F0180C954D25FA0CF5CB
:102EB0002A40C2F312022243C0F8B020C868914AE7
:102EC000904200F0A4800A688F490A4200F0D58140
:102ED0001968B1F1A04F00F06E818C48814200F07A
:102EE00067818B48806800F0E0748A4DAA4200F048
:102EF0006481894DAA4200F06081884DAA4200F0A9
:102F00008F81874DAA4200F0A381002045E70D681C
:102F100014306A0E920002F004028658C5F304557C
:102F2000072707FA05F526EA05058550186842695E
:102F300042F00042426178E74FF000749EE7026E73
:102F4000046EC4F384640A68C2F3120585BBC2F33D
:102F50008462944234D01C68626E606EC0F38460F8
:102F60000A68C2F3120585BBC2F38462904234D072
:102F70001C68A26EA06EC0F384600A68C2F31205DA
:102F800085BBC2F38462904234D01C68E26EE06E6E
:102F9000C0F384600A68C2F3120585BBC2F3846281
:102FA00090427FF473AFE26E22F00042E2666DE77A
:102FB00092FAA2F212B1B2FA82F2CAE72022C8E76C
:102FC000026E22F000420266C5E792FAA2F212B146
:102FD000B2FA82F2CAE72022C8E7626E22F000420B
:102FE0006266C5E792FAA2F212B1B2FA82F2CAE7B9
:102FF0002022C8E7A26E22F00042A266C5E792FA3C
:10300000A2F212B1B2FA82F2CAE72022C8E71C6823
:103010000A68C2F31205002D38D1900E013000F07D
:103020001F0009288CBF0020012000287AD0002D25
:103030003BD1900E0130800600F0F840002D40D1C9
:10304000960E013606F01F070126BE403043002DC4
:1030500045D1920E013202F01F0202EB420212052C
:103060000243886804F11406550EAD0005F004050E
:103070007459C2F304524FF0070C0CFA02FC24EA14
:103080000C0C90404CEA000070511CE792FAA2F040
:1030900048B1B0FA80F0013000F01F0009288CBF61
:1030A00000200120C1E72020F5E792FAA2F030B11C
:1030B000B0FA80F00130800600F0F840BEE7202032
:1030C000F8E792FAA2F646B1B6FA86F6013606F0AD
:1030D0001F06012707FA06F6B8E72026F6E792FA58
:1030E000A2F242B1B2FA82F2013202F01F0202EB06
:1030F00042021205B4E72022F6E700BF00F0FF030A
:10310000FFFF070000007F40000008800001005022
:1031100000070050000021C31000C090000052C7FB
:10312000000084CBCDB9900E0130800600F0F8404D
:10313000FDB9960E013606F01F070126BE4030434A
:103140002DBB920E013202F01F0202EB42021E3A28
:10315000120542F00072024383E792FAA2F030B106
:10316000B0FA80F00130800600F0F840E0E720205F
:10317000F8E792FAA2F646B1B6FA86F6013606F0FC
:103180001F06012707FA06F6D9E72026F6E792FA86
:10319000A2F25AB1B2FA82F2013202F01F0202EB3D
:1031A00042021E3A120542F00072D4E72022F3E7F1
:1031B00000F5007096E6354894E610F4000F7FF4B1
:1031C0009CAEB1F1A04F04D0314A914201D0002011
:1031D000E3E5B1F1A04F19D02E4A914214D02E4907
:1031E00044F400048A6822F0E07214438C602B4A95
:1031F000126892092A49A1FB02129209013202EBDC
:1032000042029200019206E02049E9E71F49E7E700
:10321000019A013A0192019A002AF9D10020BCE5F5
:1032200010F0807F7FF46DAEB1F1A04F0ED0194A3F
:10323000914209D0184944F080748A6822F0E07203
:1032400014438C600020A8E51049F4E70F49F2E729
:1032500010F4800F13D10F4A914212D0B1F1A04F58
:1032600009D00D4844F48002816821F0E0710A43DE
:103270008260002091E50548F4E700208DE50020FC
:103280008BE5002089E502208AE500BF000300509D
:1032900000060050000100500007005030000020E0
:1032A000632D3E0530B583B00023019303689A680F
:1032B00012F0010F63D104469968324A114220D1BD
:1032C0009A6822F0004222F03F0242F001029A6026
:1032D0000368B3F1A04F20D02B4A93421BD02B4B55
:1032E0009B6813F4000F20D0294B1B689B09294AC7
:1032F000A2FB03239B09013303EB43039B000193D0
:1033000010E0C36D43F01003C365036E43F0010387
:103310000366012034E0204BE2E71F4BE0E7019B0E
:10332000013B0193019B002BF9D1FFF73FFA0546C2
:1033300023681A6812F0010F1FD19A6812F0010F6A
:1033400007D19A6822F0004222F03F0242F00102C7
:103350009A60FFF72BFA431B022BE9D923681B68FD
:1033600013F0010FE4D1E36D43F01003E365236E26
:1033700043F001032366012002E0002000E000206A
:1033800003B030BD3F000080000100500007005036
:1033900030000020632D3E050003005038B5044680
:1033A0000368B3F1A04F5DD0444A934257D0444ADA
:1033B000956805F01F059B6813F0040F7AD194F807
:1033C0005830012B78D0012384F858302046FFF77D
:1033D00069FF00286AD1E36D23F4706323F00103D1
:1033E00043F48073E3652368344A93423FD002F587
:1033F0008062934238D01A46934200D01DB9E26DE4
:1034000022F48012E265E26D12F4805F32D0226E07
:1034100022F0060222661C221A60002384F858302B
:103420002268264B9A422BD003F580639A4224D01F
:1034300013469A4227D035B3052D24D0092D22D02A
:10344000E26D42F48012E265DB6813F0007F32D057
:10345000E36D23F4405343F48053E3652BE002F51E
:103460000072A5E7174AA3E7A2F58072C4E74FF000
:10347000A042C1E700222266CDE7A3F58073D8E71A
:103480004FF0A043D5E7D36813F0007F05D0E36D7C
:1034900023F4405343F48053E365936823F00043DF
:1034A00023F03F0343F00403936004E0002384F817
:1034B000583000E0022038BD0220FCE70001005037
:1034C000000700500003005038B5044602689368B6
:1034D00013F0020300D00123916811F0010F39D0DD
:1034E000002B39D1936803F00D03012B09D0E36D54
:1034F00043F01003E365236E43F0010323660120CC
:1035000029E0936823F0004323F03F0343F00203D4
:103510009360236803221A60FFF748F90546236881
:103520009B6813F0010F13D0FFF740F9401B0228EE
:10353000F5D923689B6813F0010FF0D0E36D43F0D9
:103540001003E365236E43F001032366012002E0CC
:10355000002000E0002038BD0020FCE730B583B03B
:103560000023019390F85830012B41D004460D46BA
:10357000012380F85830FFF7A7FF80BBE36D23F4E9
:10358000885323F0020343F00203E3652268936843
:1035900023F0404323F03F0305F080452B4343F0E5
:1035A0000043936023689B68002B06DBE36D23F0E8
:1035B000030343F00103E36515E0019B013301932D
:1035C000019A0C4B9A42EDD9E36D23F0120343F0BC
:1035D0001003E365002384F85830012006E0E36D12
:1035E00043F01003E365002384F8583003B030BD86
:1035F0000220FBE701DE040038B504460368B3F19E
:10360000A04F73D0554A93426DD0554A956805F046
:103610001F059A6812F0080F40F09B80DA68DB6C97
:1036200013F4C07F01D1002A62DA94F85830012BDC
:1036300000F09180012384F858302046FFF732FED5
:10364000002840F08280E36D13F4807F56D0236E13
:1036500023F008032366E36D23F4405323F00103B2
:1036600043F48053E36523683C4A93424CD002F50F
:103670008062934245D01A46934200D01DB9E26D54
:1036800022F48012E26560221A60002384F8583028
:103690002368DA6812F4001F03D05A6842F480628B
:1036A0005A60A369082B32D02268536823F0400384
:1036B00053602268536843F0200353602368274A0D
:1036C000934232D002F5806293422BD01A46934245
:1036D0002ED06DB3062D2BD0072D29D0E36D43F4EA
:1036E0008013E36536E002F500728FE71D4A8DE72F
:1036F000E36D43F02003E36501202BE00023236604
:10370000A9E7A2F58072B7E74FF0A042B4E72268BC
:10371000536823F0200353602268536843F040034A
:103720005360CBE7A2F58072D1E74FF0A042CEE71D
:10373000DA6812F0007F0DD19A6822F0004222F080
:103740003F0242F008029A6004E0002384F85830F7
:1037500000E0022038BD0220FCE700BF000100505D
:10376000000700500003005040F2152399420FD08B
:1037700040F21B33994207D040F20F1399420BD00D
:103780000368D3F8800070470368D3F88C00704753
:103790000368D3F8880070470368D3F88400704743
:1037A0007047704770477047F0B583B003460022FA
:1037B0000192406993F85820012A00F01F830122EA
:1037C00083F85820A8B10A6A012A12D0986E0028FE
:1037D00040F0CD809A6600225A668C6A002C00F078
:1037E000C3800A6A013A04F07C042243CC6A144381
:1037F000BEE04A68092A00F097801A68906810F0C5
:10380000080F10D191F82500002840F0D080D06832
:1038100020F4401091F8265091F82440240544EA01
:1038200045542043D0601C68A26812F0040200D006
:103830000122A56815F0080500D00125002A40F0F6
:103840006181002D40F0B6818A6A1AB1CA6A002AE5
:1038500040F0BC8091F82520012A00F0B180E26898
:1038600022F00072E260002091F83020012A00F07E
:10387000BC801C68226922F0020222618A68B2F1CF
:10388000004F00F0BE801C680E6804F1140C770E27
:10389000BF0007F004075CF80740C6F304564FF07A
:1038A000070E0EFA06FE24EA0E04B24022434CF83C
:1038B00007201C68626922F0004262614C691E6840
:1038C000F268C2F3C102520004FA02F2D1F810C049
:1038D000BCF1040F00F0AF80603656F82C40AB4FBF
:1038E00027400C6804F0F8442243174347F0004790
:1038F00046F82C701A680F698C69603252F827609C
:1039000026F08076344342F827401A680E690C7F0F
:10391000012C00F08D80603252F8264024F00074B3
:10392000254342F82650EEE08C6ABCB10868820E4E
:10393000520202F4785204F07C042243C86A024323
:103940001C68E06C20F07B4020F46F0020F43F40C6
:1039500020F0FF001043E0645A664EE70A68920EBA
:10396000520202F47852EBE70A6A541E00E0002487
:103970000868C0F384604A6802F01F0200FA02F28D
:103980002243986E013898665C6E22435A6600287E
:103990007FF433AF1C68E06C20F07B4020F46F00B4
:1039A00020F43F4020F0FF000243E26425E7D068A6
:1039B00020F4401091F8264040EA4450D06032E7AD
:1039C000E26842F00072E26000204DE791F82500C5
:1039D000012805D0E26822F00072E260002043E78F
:1039E000DA6D42F02002DA653EE71E68326922F4A1
:1039F000FF724C6B8F6B3C43224342F002023261F8
:103A00003CE71C680E681434720E920002F0040247
:103A1000A758C6F304564FF0070C0CFA06F627EA2F
:103A20000606A6501C68626942F00042626145E7E2
:103A30004FF000756FE7326E346EC4F384640A6829
:103A4000C2F312057DBBC2F38462944233D01D6879
:103A50006A6E6C6EC4F384640A68C2F312067EBB9D
:103A6000C2F38462944233D01D68AA6EAC6EC4F374
:103A700084640A68C2F312067EBBC2F38462944275
:103A800033D01D68EA6EEC6EC4F384640A68C2F336
:103A900012067EBBC2F38462944234D1EA6E22F0F5
:103AA0000042EA662FE092FAA2F212B1B2FA82F272
:103AB000CBE72022C9E7326E22F000423266C6E729
:103AC00092FAA2F212B1B2FA82F2CBE72022C9E74F
:103AD0006A6E22F000426A66C6E792FAA2F212B15A
:103AE000B2FA82F2CBE72022C9E7AA6E22F00042A6
:103AF000AA66C6E792FAA2F212B1B2FA82F2CBE754
:103B00002022C9E700201D68AA6812F0010F17D112
:103B10000A68CE68D5F8B040C2F3120724EA070459
:103B200006F0180C1A4E26FA0CFC02EA0C02C2F33C
:103B300012022243C5F8B020CC68164A94423BD00A
:103B40000A6815490A421CD01968B1F1A04F00F06B
:103B5000F480124CA14200F0ED80114CA46804F0F6
:103B6000E075104EB24200F0EA800F4EB24200F013
:103B7000E6800E4EB24200F013810D4EB24200F0CC
:103B80002681002283F8582003B0F0BD00F0FF0327
:103B9000FFFF070000007F40000008800001005088
:103BA00000070050000021C31000C090000052C761
:103BB000000084CB0020A6E71D680A68C2F3120645
:103BC000002E37D1940E013404F01F04092C8CBF51
:103BD00000240124002C65D0002E3AD1940E01342B
:103BE000A40604F0F844002E3FD1970E013707F0E9
:103BF0001F0C012707FA0CF73C43002E44D1920E0C
:103C0000013202F01F0202EB4202120522438C68CD
:103C10001435560EB60006F00406AF59C2F304522E
:103C20004FF0070C0CFA02FC27EA0C0794403C43C7
:103C3000AC5185E792FAA2F44CB1B4FA84F40134A1
:103C400004F01F04092C8CBF00240124C2E72024A7
:103C5000F5E792FAA2F434B1B4FA84F40134A4067C
:103C600004F0F844BFE72024F8E792FAA2F74FB136
:103C7000B7FA87F7013707F01F074FF0010C0CFA6E
:103C800007F7B9E72027F5E792FAA2F242B1B2FAB4
:103C900082F2013202F01F0202EB42021205B5E786
:103CA0002022F6E7D6B9940E0134A40604F0F844B5
:103CB00006BB970E013707F01F0C012707FA0CF718
:103CC0003C4336BB920E013202F01F0202EB42026D
:103CD0001E3A120542F00072224398E792FAA2F4CB
:103CE00034B1B4FA84F40134A40604F0F844DFE7F4
:103CF0002024F8E792FAA2F74FB1B7FA87F7013715
:103D000007F01F074FF0010C0CFA07F7D8E7202740
:103D1000F5E792FAA2F25AB1B2FA82F2013202F057
:103D20001F0202EB42021E3A120542F00072D3E774
:103D30002022F3E704F5007410E7314C0EE714F489
:103D4000000F7FF416AFB1F1A04F03D02D4A91427E
:103D50007FF417AFB1F1A04F19D02B4A914214D084
:103D60002A4945F400058A6822F0E07215438D6007
:103D7000274A126892092749A1FB0212920902EB15
:103D8000420292001832019206E01D49E9E71C49FF
:103D9000E7E7019A013A0192019A002AF9D1F0E687
:103DA00014F0807F7FF4E9AEB1F1A04F0DD0164A38
:103DB000914208D0154945F080758A6822F0E0727A
:103DC00015438D60DDE60E49F5E70D49F3E714F480
:103DD000800F7FF4D6AE0C4A91423FF4D2AEB1F1DF
:103DE000A04F08D0094945F480058A6822F0E072A6
:103DF00015438D60C5E601F54071F4E70220C3E686
:103E00000003005000060050000100500007005061
:103E100030000020632D3E0590F85820012A00F064
:103E2000D68010B49DB00346012280F858200022AD
:103E3000189219920068B0F1A04F47D0654A90429D
:103E400047D000220192019A002A46D0926812F0CF
:103E5000040200D00122846814F0040F40F0A7800F
:103E6000002A40F0A480B0F1A04F42D05A4A9042BC
:103E70003CD05A4A086800285CD0906820F4604022
:103E80004C6893F838C044EA4C342043906018687A
:103E9000B0F1A04F2FD0504CA0422CD04D48846898
:103EA00014F0010400D001244D48806810F0010096
:103EB00000D0012020434B4CA46814F0010400D032
:103EC000012420430CBF0120002025E0424A01923A
:103ED000B9E702F580720192B5E7DA6D42F020028F
:103EE000DA65002283F85820012068E002F50072AC
:103EF000C0E73D4ABEE74FF0A040806810F00100E7
:103F000000D00120344CA46814F0010400D0012436
:103F100020430CBF01200020002854D0906820F4DA
:103F2000716020F00F000C6889682143084390609D
:103F3000002041E0916821F4604191601968B1F17D
:103F4000A04F1AD02448814217D02249886810F027
:103F5000010000D001202249896811F0010100D040
:103F6000012101431F48806810F0010000D00120AA
:103F700001430CBF0121002110E04FF0A0418968EE
:103F800011F0010100D001211348806810F00100F8
:103F900000D0012001430CBF01210021A9B191688B
:103FA00021F4716121F00F019160002004E0DA6DCD
:103FB00042F02002DA650120002283F858201DB06B
:103FC0005DF8044B70470020F6E70020F4E702207C
:103FD000704700BF0004005000010050000700506F
:103FE000000500500006005000030050074AD36847
:103FF00023F4E0631B041B0C000200F4E0600343A5
:1040000043F0BF6343F40033D360704700ED00E03A
:1040100000B5194BDB68C3F30223C3F1070CBCF1F5
:10402000040F28BF4FF0040C03F1040EBEF1060F7D
:1040300018D9033B4FF0FF3E0EFA0CFC21EA0C01AD
:1040400099400EFA03F322EA0303194300280BDB1D
:104050000901C9B200F1604000F5614080F8001329
:104060005DF804FB0023E5E700F00F000901C9B289
:10407000024B1954F4E700BF00ED00E014ED00E03E
:10408000002807DB00F01F02400901239340024A89
:1040900042F82030704700BF00E100E030B4C46C4B
:1040A000056D6560446D14B1846DC56D6560446CCB
:1040B00004F01F0C012404FA0CF4056C6C60046815
:1040C00063608368102B05D0036899600368DA6029
:1040D00030BC704703689A600368D960F8E7000055
:1040E00003680C4A934213D80B49DBB2083B0B4AD6
:1040F000A2FB0323426C22F003020A448264084AB2
:10410000C264C3F30413012202FA03F30365704788
:104110000449EAE70704024000080240CDCCCCCCB9
:1041200080080240200802400379074A1A4492009E
:104130004265064A8265013B03F01F03012202FA31
:1041400003F3C365704700BF3F820010400902407F
:1041500000285BD010B5044601682D4B99423DD82C
:104160002C4B0B442C4AA2FB03231B099B004364EA
:104170002A4B0364022384F825300A6822F4FF42A4
:1041800022F07002A368E06803432069034360697A
:104190000343A0690343E0690343206A03431343D5
:1041A0000B602046FFF79CFFA368B3F5804F20D03B
:1041B000A36C22791A60E36C226D5A606368013B3C
:1041C000032B19D900236365A365E3650020E06331
:1041D000012384F8253084F8240010BD104B0B44D3
:1041E0000D4AA2FB03231B099B0043640D4B036490
:1041F000C0E700236360DBE72046FFF795FF636DB0
:1042000000221A60A36DE26D5A60DFE7012070475B
:1042100007040240F8FFFDBFCDCCCCCC000002402B
:10422000F8FBFDBF0004024038B5044690F82400B6
:10423000012841D0012084F8240094F82500C0B260
:10424000012804D0002384F82430022038BD022045
:1042500084F825000020E0632568286820F001002C
:1042600028602046FFF71AFF236BD3B1226813683A
:1042700043F00E031360A36C1A6812F4803F03D05E
:104280001A6842F480721A60636D1BB11A6842F4B6
:1042900080721A602268136843F0010313600020E3
:1042A000D4E72268136823F00403136022681368BC
:1042B00043F00A031360DEE70220C7E7034690F8E5
:1042C0002520D2B2022A09D00422C2630120012291
:1042D00083F82520002283F82420704701680A68AB
:1042E00022F00E020A60816C0A6822F480720A6071
:1042F00001680A6822F001020A60426C02F01F01A4
:10430000006C01228A404260DA6C196D51605A6D6E
:1043100042B1116821F4807111609A6DD96D5160BC
:104320000020D4E70020D2E708B590F82530DBB2B2
:10433000022B09D00423C363012380F82530002217
:1043400080F82420184608BD0268136823F00E0385
:1043500013600268136823F001031360826C136812
:1043600023F480731360436C03F01F02016C01237C
:1043700093404B60C36C026D5A60436D33B11A6851
:1043800022F480721A60836DC26D5A60012380F836
:104390002530002380F82430836B13B19847002028
:1043A000D1E70020CFE738B5036C196804682568A9
:1043B000436C03F01F0304229A400A4215D015F003
:1043C000040F12D0236813F0200F03D1236823F0C9
:1043D00004032360436C03F01F02016C0423934029
:1043E0004B60036B03B1984738BD02229A400A42E2
:1043F0001CD015F0020F19D0236813F0200F06D13E
:10440000236823F00A032360012380F82530436CDE
:1044100003F01F02016C022393404B60002380F8DD
:104420002430C36A002BDFD09847DDE7082202FA68
:1044300003F30B42D8D015F0080FD5D0236823F032
:104440000E032360436C03F01F03016C012202FA88
:1044500003F34B60C26380F82520002380F82430EA
:10446000436B002BC0D09847BEE7000010B4064C49
:10447000616941F0010161610260BFF36F8F4360C8
:104480005DF8044B704700BF00200240094A5369A1
:1044900043F480235361EFF3108C72B6402351F83C
:1044A000042B40F8042B013B13F0FF03F7D18CF3EE
:1044B0001088704700200240094B5B69002B01DB2C
:1044C00000207047064B074A9A6002F188329A60D2
:1044D0005B69002B01DB002070470120704700BFA3
:1044E0000020024023016745054B5A6942F0004213
:1044F0005A615B69002B01DB012070470020704787
:1045000000200240014B5868704700BF3C0000206B
:1045100038B50546FEF74AF90446134B1B6913F4F8
:10452000803F06D0FEF742F9001BA842F5D90320D0
:1045300038BD0D4B1B694CF2FA32134009D10A4BBE
:104540001B6913F0010F0CD0074B01221A610020E8
:10455000EEE706494A681A434A60034A136101209C
:10456000E6E70020E4E700BF002002403C00002016
:104570002DE9F0411646284A1278012A49D004460E
:104580000D469846244B01221A704FF47A70FFF7BB
:10459000BFFF074608BB204B00225A601F4B1B6819
:1045A00013F4806F1FD01D4A136823F480631360D7
:1045B000194B02221A77D4B1631E012B1ED9002495
:1045C0004FF47A70FFF7A4FF074624B1134A5369EA
:1045D00023EA0404546100F077F80F4B00221A70AC
:1045E0003846BDE8F0810C4B00221A77E3E73246EB
:1045F00043462846FFF73AFF0124E1E731462846C3
:10460000FFF744FF022C01D00024D9E74FF48024A7
:10461000D6E70227E4E700BF3C000020002002406C
:10462000114B1B6A13F4800F10D010F0010F04D04F
:104630000D4A536943F00403536110F0020F0CD08C
:10464000094A536943F40043536106E0064A53693B
:1046500043F4004343F004035361034A536943F4B2
:1046600080335361704700BF00200240154B1B6A26
:1046700013F4800F16D1134A536923F40063536176
:10468000104B5A6922F47E72C00000F4FF601043A0
:1046900058615A6942F002025A615A6942F4803202
:1046A0005A61704711F0010F05D0064A536923F48F
:1046B00000635361E4E7034A536943F400635361C1
:1046C000DEE700BF00200240164B1B7FDBB2012B50
:1046D00001D0032B10D1144A116821F4007111602C
:1046E000116841F400611160116821F400611160EA
:1046F000116841F400711160023BDBB2012B03D958
:10470000084B00221A777047074B1A6842F4805210
:104710001A601A6822F480521A601A6842F48062A1
:104720001A60EDE73C00002000200240F8B53A4B4B
:104730001B78012B6DD004460E46374B01221A70B0
:104740004FF47A70FFF7E4FE074600285CD1324B45
:1047500000225A60314B1B6813F4007F2FD02F4B7F
:104760001B6813F4806F26D02C4A136823F48063EF
:104770001360294B03221A772368012B31D04FF0A5
:10478000FF333360A568A368E2681344AB4239D9AC
:1047900061682846FFF76AFF4FF47A70FFF7B8FEAA
:1047A0001E4A536923F47E7323F0020353610746C4
:1047B00038BB0135E7E7184B01221A77DCE7174BC6
:1047C0001B6813F4806F08D0144A136823F48063C5
:1047D0001360114B02221A77CEE70F4B00221A7793
:1047E000CAE76068FFF71CFF4FF47A70FFF790FE8E
:1047F00007460A4A536923F4004323F00403536134
:1048000000E03560FFF760FF034B00221A70384666
:10481000F8BD0227FBE700BF3C000020002002405B
:10482000F0B583B0002362E085685E000324B440E5
:1048300025EA0405CC68B4402C438460446824EA2B
:104840000C0C4C68C4F300149C4044EA0C04446013
:104850005EE0DD08083550F8256003F007044FEAF4
:10486000840C0F2404FA0CF426EA040E0C6904FAF2
:104870000CF444EA0E0440F8254060E0052400E012
:10488000002404FA0EF42C430CF1020C554D45F8AB
:104890002C40554CA568D44325EA02064F6817F40E
:1048A000801F01D042EA05064F4DAE60ED6804EA74
:1048B00005064F6817F4001F01D042EA05064A4D6D
:1048C000EE606D6804EA05064F6817F4003F01D0FA
:1048D00042EA0506444D6E602D682C404E6816F481
:1048E000803F01D042EA05043F4A146001330A6860
:1048F00032FA03F474D04FF0010C0CFA03FC1CEAFA
:104900000202F3D04C6804F00304013C012C8BD963
:104910004C6804F00304032C0CD0C4685D004FF015
:10492000030C0CFA05FC24EA0C0C8C68AC4044EA3D
:104930000C04C4604C6804F00304022C89D00468A1
:104940004FEA430E4FF0030C0CFA0EFC24EA0C0C59
:104950004C6804F0030404FA0EF444EA0C04046006
:104960004C6814F4403FC1D0204C256E45F0010541
:104970002566246E04F001040194019C4FEA930C17
:104980000CF10205174C54F8255003F003044FEACC
:10499000840E0F2404FA0EF425EA0405B0F1904FBA
:1049A0003FF46EAF124CA04212D004F58064A042D6
:1049B00010D004F58064A0420ED004F58064A042BB
:1049C0000CD004F58064A0423FF458AF062458E7A9
:1049D000012456E7022454E7032452E7042450E755
:1049E00003B0F0BD0000014000040140001002408F
:1049F000000400480AB1816170478162704738B590
:104A000012F4804F43D00468B4F8503091F800C0DD
:104A10004FEACC0E1EFA83F32344B3F80244C4F3E6
:104A200009048B69A34228D31B1B8B618B697BB95B
:104A3000056835F82C309BB223F4804323F07003D3
:104A400083F4005343F4004343F0800325F82C30F3
:104A500012F0400F0ED002680D7832F825309BB26C
:104A600023F4E04323F0700343F4004343F0C00316
:104A700022F8253024B9204638BD00238B61D5E7C4
:104A800023460A894969006804F0D0FFF3E7046807
:104A9000B4F8503091F800C04FEACC0E1EFA83F300
:104AA0002344B3F80644C4F309048B69A3422FD30B
:104AB0001B1B8B618B697BB9056835F82C309BB269
:104AC00023F4804323F0700383F4005343F4004342
:104AD00043F0800325F82C3012F0400F0FD102680C
:104AE00091F800C032F82C309BB223F4E04323F05D
:104AF000700343F4004343F0C00322F82C30002C31
:104B0000B9D023464A894969006804F08FFFB2E7AB
:104B100000238B61CEE7002856D010B5044690F8EC
:104B200091323BB1032384F89132206804F00BF8F2
:104B3000002315E080F8903207F016FEF2E703EB51
:104B4000830204EBC2020121517413740021D17459
:104B500011625162013303EB8302D200A150DBB238
:104B600020799842EBD8002316E003EB830204EB94
:104B7000C202002182F8511182F8503182F853119B
:104B8000C2F86011C2F8641103EB830204EBC202A5
:104B9000C2F868110133DBB29842E6D8234653F8D5
:104BA000040B93E8060003F0D8FF002323730123CE
:104BB00084F89132A37A012B01D0002010BD204649
:104BC00000F0FEFE0020F9E70120704790F89032D7
:104BD000012B0ED010B50446012380F890320068F6
:104BE00003F0A8FF206804F017FB002084F890026F
:104BF00010BD0220704770B505460C46164612F0EF
:104C0000400F00F00A810268B2F850300978C800FD
:104C100010FA83F31344B3F80224C2F30902A36920
:104C200093424DD99B1AA361A369002B64D1637889
:104C3000002B48D12A68B2F8503012FA83F30344AB
:104C4000B3F80224C2F30902A3F80224B3F8022441
:104C50006FEA42426FEA524292B2A3F802242968F4
:104C60006278002A3BD1B1F8503011FA83F32278F0
:104C700003EBC203B3F80624C2F30902A3F8062427
:104C8000B3F806246FEA42426FEA524292B2A3F8A6
:104C900006242178284607F0ABFD16F4804F40D05B
:104CA0002A68217832F821309BB223F4E04323F0C4
:104CB000700343F4404343F0800322F8213030E096
:104CC0000023A361B0E7012BC9D12A68B2F85030A4
:104CD00012FA83F303440022A3F80224BFE7012A57
:104CE000D7D1B1F8503011FA83F3217803EBC10327
:104CF0000022A3F80624CCE716F4804F0DD02868D4
:104D000030F821309BB223F4E04323F0700343F4E6
:104D1000404343F0800320F8213094F82430012BE5
:104D200012D02A68217832F821309BB223F4E04374
:104D300023F0400383F0300343F4004343F0800347
:104D400022F82130002070BD636913446361E36978
:104D50001344E361216A2369994224D3C91A216269
:104D60006278002A44D12968B1F8502011FA82F201
:104D7000217802EBC102B2F80214C1F30901A2F8D2
:104D800002143E2B1BD9580913F01F0F00D1013814
:104D9000B2F8021489B2800280B2014341F40041AA
:104DA000A2F8021426E021B9002384F82430134627
:104DB000D6E7002384F8243023620B46D0E74BB9B2
:104DC000B2F802146FEA41416FEA514189B2A2F888
:104DD00002140FE0590813F0010F00D00131B2F8AE
:104DE000020480B2890289B20143A2F8021401E0F0
:104DF000012A06D09BB222896169286804F01BFA57
:104E00008FE72968B1F8502011FA82F2217802EB7D
:104E1000C10299B2A2F80214ECE70268B2F850306D
:104E20000978C80010FA83F31344B3F80624C2F3D8
:104E30000902A36993424ED39B1AA361A369002B75
:104E400065D16378002B49D12A68B2F8503012FA44
:104E500083F31844B0F80234C3F30903A0F8023412
:104E6000B0F802346FEA43436FEA53439BB2A0F8B1
:104E7000023429686278002A3CD1B1F8503011FA26
:104E800083F3227803EBC203B3F80624C2F30902CA
:104E9000A3F80624B3F806246FEA42426FEA5242AE
:104EA00092B2A3F806242178284607F0A1FC16F454
:104EB000804F7FF436AF2A68217832F821309BB2D8
:104EC00023F4E04323F0700343F4404343F08003B2
:104ED00022F8213025E70023A361AFE7012BC8D1D9
:104EE0002A68B2F8503012FA83F318440023A0F86D
:104EF0000234BEE7012AD6D1B1F8503011FA83F35B
:104F0000217803EBC1030022A3F80624CBE716F4B3
:104F1000804F0DD1286830F821309BB223F4E04354
:104F200023F0700343F4404343F0800320F8213022
:104F300094F82430012B7FF4F4AE63691344636169
:104F4000E3691344E361216A2369994224D3C91AAE
:104F5000216229686278002A43D1B1F8502011FA01
:104F600082F2217802EBC102B2F80614C1F3090102
:104F7000A2F806143E2B1BD9580913F01F0F00D1BD
:104F80000138B2F8061489B2800280B2014341F4BC
:104F90000041A2F8061426E021B9002384F8243049
:104FA0001346D6E70023236284F824300B46D0E76B
:104FB0004BB9B2F806146FEA41416FEA514189B228
:104FC000A2F806140FE0590813F0010F00D00131C8
:104FD000B2F8060480B2890289B20143A2F806142D
:104FE00001E0012A06D09BB262896169286804F059
:104FF00022F996E6B1F8502011FA82F2217802EBFC
:10500000C10299B2A2F80614EDE72DE9F041054678
:105010002868B0F8443013F4004F00F08A82B0F8EA
:105020004440A3B214F00F0440F0D88013F0100FE6
:1050300069D003889AB213F4006F40F0958012F49F
:10504000004FE5D0038823F070031B051B0D43F0D0
:10505000800303802868B0F8503095F85021D200C2
:1050600012FA83F30344B3F80634C3F30903C5F813
:105070006C318BB1D5F8641171B1B5F8562104F0DB
:10508000D5FCD5F86C21D5F864311344C5F86431EA
:105090000021284607F0A0FB2A68138899B213F470
:1050A000006FB5D101F44051B1F5405FB0D0B2F816
:1050B000503012FA83F2B2F80634C3F30903A2F8AF
:1050C0000634D5F860313E2B6FD9590913F01F0F04
:1050D00000D10139B2F806349BB2890289B20B4380
:1050E00043F40043A2F806342A6813889BB223F4E1
:1050F000804323F0700383F4405343F4004343F0B0
:105100008003138084E703889BB223F4E14323F0F8
:1051100070036FEA43436FEA53439BB203802968ED
:10512000B1F850302A7CD20012FA83F30B44B3F862
:105130000234C3F30903EB626A6A13446B62002111
:10514000284607F055FB2B7B002B3FF461AFAB6A81
:10515000002B7FF45DAF2B7B2A6843F08003A2F81D
:105160004C3000232B7353E7B0F8503095F85021A2
:10517000D20012FA83F30344B3F80634C3F30903ED
:10518000C5F86C31B5F8562105F5267104F04EFCD2
:105190002A68138823F070031B051B0D43F080035E
:1051A0001380284607F010FB32E74BB9B2F80634FB
:1051B0006FEA43436FEA53439BB2A2F8063493E786
:1051C000590813F0010F00D00131B2F8063498B23B
:1051D0008B029BB20343A2F8063485E730F82430F3
:1051E0009EB213F4004F4ED116F0800F3FF410AF73
:1051F00004EB8401C900103129442A6832F82430B4
:105200009BB223F4E14323F070036FEA43436FEA58
:1052100053439BB222F8243004EB840305EBC30311
:10522000DB7C012B00F0E98016F4807F40F07C816C
:105230002868B0F8503004EB840205EBC202167CFB
:10524000F20012FA83F30344B3F80234C3F3090300
:10525000621C02EB820255F832209A4240F24B81E6
:10526000671C07EB8707D21A45F83720621C02EB50
:10527000820255F83220002A40F044813146284607
:1052800007F0B6FAC4E630F8243023F070031B05AB
:105290001B0D43F0800320F8243004EB8401C90087
:1052A00001F5A87105EB010804EB840305EBC303CA
:1052B00093F85C31002B40D12868B0F8503004EBF3
:1052C000840205EBC20292F85021D20012FA83F355
:1052D0000344B3F80674C7F3090717BB04EB840350
:1052E00005EBC303D3F86C213A44C3F86C21D3F81F
:1052F00064213A44C3F86421D3F868313BB104EB2C
:10530000840305EBC303D3F860319F4270D204EBF2
:10531000840305EBC30393F85011284607F05CFAA9
:1053200062E704EB840105EBC1013B46B1F856216D
:10533000D1F8641104F07AFBD0E704EB840305EBA9
:10534000C30393F85331022B33D0296804EB840252
:1053500005EBC20292F8500131F820309BB223F4E1
:10536000E04323F0700343F4004343F0C00321F80B
:105370002030286892F8503130F8232012F4804F02
:105380001ED0B0F85020DB0013FA82F30344B3F8C8
:105390000274C7F30907002FA0D004EB840105EBCA
:1053A000C1013B46B1F85821D1F8641104F03EFB2D
:1053B00094E7324641462846FFF721FB07468DE732
:1053C000B0F85020DB0013FA82F30344B3F80674FC
:1053D000C7F30907002F81D004EB840105EBC1015D
:1053E0003B46B1F85A21D1F8641104F01FFB75E770
:1053F0004146286803F033FFF6E6631C03EB8303A2
:10540000DB000022EA5004EB840305EBC3031B7F9F
:105410001BB316F0400F3BD004EB840305EBC30332
:105420005B7C1BBB2A68B2F8503012FA83F304EBA2
:10543000840205EBC202127C03EBC203B3F8022420
:10544000C2F30902A3F80224B3F802246FEA42422D
:105450006FEA524292B2A3F8022404EB840405EBF3
:10546000C404217C284607F0C3F9D1E5012BF4D10F
:105470002A68B2F8503012FA83F304EB840205EB89
:10548000C202127C03EBC2030022A3F80224E4E769
:105490002A6804EB840305EBC3035B7CD3B9B2F841
:1054A000503012FA83F304EB840205EBC202127C43
:1054B00003EBC203B3F80624C2F30902A3F80624DF
:1054C000B3F806246FEA42426FEA524292B2A3F85E
:1054D0000624C2E7012BC0D1B2F8503012FA83F390
:1054E00004EB840205EBC202127C03EBC203002230
:1054F000A3F80624B1E7621C02EB8202D200002767
:10550000AF50B3E604EB840205EBC202566A1E44B8
:105510005662013404EB840205EBC2025468234452
:10552000536003F09CFE73E532462846FFF763FBA9
:105530006EE50020BDE8F08190F89032012B0CD090
:1055400010B50446012380F890320173006803F01F
:105550005DFE002084F8900210BD0220704710B557
:105560000446006803F063FE10F4004F23D110F4EA
:10557000806F24D110F4804F32D110F4005F39D104
:1055800010F4805F40D110F4006F67D110F0800FED
:1055900040F0818010F4007F40F0AD8010F4807FF7
:1055A00027D02268B2F844309BB223F480739BB2B8
:1055B000A2F844301DE02046FFF727FD19E02268DD
:1055C000B2F844309BB223F480639BB2A2F844301B
:1055D000204607F01EF900212046FFF7ADFF08E046
:1055E0002268B2F844309BB223F480439BB2A2F805
:1055F000443010BD2268B2F844309BB223F400530B
:105600009BB2A2F84430F4E72268B2F840309BB273
:1056100023F004039BB2A2F840302268B2F8403075
:105620009BB223F008039BB2A2F8403094F8C83232
:10563000012B0CD0204607F00FF92268B2F8443055
:105640009BB223F480539BB2A2F84430D1E70021EF
:1056500084F8C812204607F0B7F9EBE72268B2F8E1
:1056600040309BB243F00803A2F840302268B2F801
:1056700044309BB223F400639BB2A2F8443022680A
:10568000B2F840309BB243F00403A2F84030204609
:1056900007F0D2F8ADE72268B2F844309BB223F0AD
:1056A00080039BB2A2F8443094F8C832FBB9226858
:1056B000B2F840309BB243F00403A2F840302268B5
:1056C000B2F840309BB243F00803A2F84030012109
:1056D00084F8C8122368B3F85430C3F38D0303F081
:1056E0003C03C4F8CC32204607F06EF981E720462F
:1056F00007F0A2F87DE72268B2F844309BB223F4A9
:1057000000739BB2A2F84430204607F07CF870E7A3
:1057100010B50446084611F0800F26D101F0070CA1
:105720000CEB8C0E4FEACE0E0EF5A87E04EB0E01AC
:105730000CEB8C0C04EBCC0C4FF0000E8CF851E110
:1057400000F0070008700A61CB70022B1DD094F89E
:105750009032012B1CD0012384F89032206803F092
:105760000DFA002084F8900210BD01F0070C0CEB3C
:105770008C01C900103121440CEB8C0C04EBCC0CD7
:105780004FF0010E8CF811E0DAE700230B71DEE731
:105790000220E9E710B504460A4611F0800F1FD138
:1057A00001F0070000EB8003DB0003F5A873E118AC
:1057B00000EB800004EBC000002380F8513102F0C0
:1057C00007020A7094F89032012B17D0012384F855
:1057D0009032206803F0B9FB002084F8900210BDDD
:1057E00001F0070000EB8003DB001033E11800EB51
:1057F000800004EBC00001234374E0E70220EEE7E1
:1058000010B501F0070C0CEB8C01C90001F5A87173
:105810000CEB8C0E00EBCE0ECEF86421CEF8683186
:105820000024CEF86C418EF851418EF850C10144ED
:10583000006803F014FD204610BD01F0070101EBE4
:10584000810100EBC101D1F86C01704738B501F05E
:10585000070C0CEB8C01C90010310CEB8C0E00EB2B
:10586000CE0ECEF824200CF1010202EB820440F8A7
:10587000343001258EF83450CEF8303000EBC402BD
:10588000002454608EF811508EF810C00144006856
:1058900003F0E5FC204638BD0B4601F00702017914
:1058A00091422ED310B5044613F0800F1DD103EBA7
:1058B0008301C90001F5A871014403EB830300EBE8
:1058C000C303002083F8510101238B700A7094F800
:1058D0009032012B17D0012384F89032206803F016
:1058E0001FFC002084F8900210BD02EB8201C90069
:1058F0001031014402EB820300EBC3030120587412
:10590000E2E7012070470220EEE70B46017903F041
:105910000F02914234D310B5044613F0800F21D109
:1059200003F0070202EB8201C90001F5A8710144EE
:1059300002EB820200EBC202002082F85101002239
:105940008A7003F007030B7094F89032012B19D082
:10595000012384F89032206803F007FC002084F8CB
:10596000900210BD03F0070202EB8201C900103162
:10597000014402EB820200EBC20201205074DEE718
:10598000012070470220ECE711F0800F0BD001F0EE
:10599000070101EB8101C9001031014452B90A73BA
:1059A000CB800020704701EB8101C90001F5A8718F
:1059B0000144F3E701220A730B811B0C4B81F0E7D2
:1059C000034602680121C0F8D012002083F8C80203
:1059D000B2F854309BB20B43A2F85430B2F85430B2
:1059E0009BB243F00203A2F854307047002836D12E
:1059F0003E4B1B6803F4C063B3F5806F08D03B4A8D
:105A0000D2F8803023F48073C2F8803000207047D1
:105A1000364AD2F8803023F48073C2F8803013689D
:105A200023F4C06343F400731360314B1B683222CC
:105A300002FB03F32F4AA2FB03239B0C013300E07C
:105A4000013B2A4A526912F4806F01D0002BF7D132
:105A5000264B5B6913F4806F44D100207047B0F58A
:105A6000007F08D0214A136823F4C06343F48063A5
:105A70001360002070471D4B1B6803F4C063B3F52F
:105A8000806F08D0194AD2F8803043F48073C2F88E
:105A9000803000207047154AD2F8803043F480737C
:105AA000C2F88030136823F4C06343F400731360BA
:105AB0000F4B1B68322202FB03F30E4AA2FB0323A7
:105AC0009B0C013300E0013B084A526912F4806FDD
:105AD00001D0002BF7D1054B5B6913F4806F03D124
:105AE000002070470320704703207047007000407B
:105AF0003000002083DE1B43024A936843F4804356
:105B00009360704700700040124BDA6802F00302A5
:105B1000D868C0F30310431C032A11D00E48B0FB11
:105B2000F3F00C4BDB68C3F3062303FB00F0094BD7
:105B3000DB68C3F3416301335B00B0FBF3F07047F4
:105B40000648B0FBF3F0034BDB68C3F3062303FB0B
:105B500000F0ECE7001002400024F40000127A008C
:105B6000002800F04F8270B582B00446036813F03D
:105B7000010F37D0A44A936803F00C03D26802F0F7
:105B800003020C2B23D0082B23D06368B3F5803F8E
:105B90004ED0B3F5A02F51D09B4B1A6822F480321F
:105BA0001A601A6822F480221A606368002B52D0AF
:105BB000FCF7FCFD0546944B1B6813F4003F11D124
:105BC000FCF7F4FD401B6428F5D9032023E2032AE7
:105BD000D9D18D4B1B6813F4003F03D06368002BB1
:105BE00000F01282236813F0020F5DD0864A93689A
:105BF00003F00C03D26802F003020C2B3AD0042B02
:105C00003AD0E368002B75D07F4A136843F4807361
:105C10001360FCF7CBFD05467B4B1B6813F4806FCC
:105C20005FD1FCF7C3FD401B0228F5D90320F2E148
:105C3000754A136843F480331360B6E703F1804379
:105C4000A3F53C331A6842F480221A601A6842F4C1
:105C500080321A60A9E7FCF7A9FD05466A4B1B686C
:105C600013F4003FBED0FCF7A1FD401B6428F5D91A
:105C70000320D0E1022AC2D1634B1B6813F4806F6A
:105C800003D0E368002B00F0C1815F4A536823F022
:105C9000FE43216943EA016353605C4B1868FCF7DB
:105CA00021FA002840F0B481236813F0080F4CD08B
:105CB00063699BB3544AD2F8943043F00103C2F8AD
:105CC0009430FCF773FD05464F4BD3F8943013F036
:105CD000020F3AD1FCF76AFD401B0228F4D90320D9
:105CE00099E1494A536823F0FE43216943EA01637D
:105CF0005360D9E7444A136823F480731360FCF7B8
:105D000055FD0546404B1B6813F4806FCCD0FCF763
:105D10004DFD401B0228F5D903207CE13A4AD2F818
:105D2000943023F00103C2F89430FCF73FFD0546A0
:105D3000354BD3F8943013F0020F06D0FCF736FD44
:105D4000401B0228F4D9032065E1236813F0040FF7
:105D500000F081802C4B9B6D13F0805F36D12A4B75
:105D60009A6D42F080529A659B6D03F080530193C7
:105D7000019B0125264B1B6813F4807F28D0A36864
:105D8000012B39D0052B45D01F4BD3F8902022F0A2
:105D90000102C3F89020D3F8902022F00402C3F847
:105DA0009020A368002B43D0FCF700FD0646164B5D
:105DB000D3F8903013F0020F4CD1FCF7F7FC801BA6
:105DC00041F288339842F2D9032024E10025D1E73B
:105DD0000F4A136843F480731360FCF7E7FC064630
:105DE0000B4B1B6813F4807FC9D1FCF7DFFC801BD1
:105DF0000228F5D903200EE1034AD2F8903043F08F
:105E00000103C2F89030CCE70010024038000020B7
:105E100000700040884BD3F8902042F00402C3F891
:105E20009020D3F8902042F00102C3F89020B8E708
:105E3000FCF7BCFC0646804BD3F8903013F0020F01
:105E400008D0FCF7B3FC801B41F288339842F2D9AA
:105E50000320E0E0E5B9236813F0200F35D0A369F3
:105E6000E3B1754AD2F8983043F00103C2F8983094
:105E7000FCF79CFC0546704BD3F8983013F0020FEA
:105E800023D1FCF793FC401B0228F4D90320C2E085
:105E9000694A936D23F080539365DCE7664AD2F834
:105EA000983023F00103C2F89830FCF77FFC0546D8
:105EB000614BD3F8983013F0020F06D0FCF776FC54
:105EC000401B0228F4D90320A5E0E369002B00F071
:105ED000A180594A926802F00C020C2A64D0022B6D
:105EE00013D0554A136823F080731360FCF75EFCEF
:105EF0000446514B1B6813F0007F4ED0FCF756FC54
:105F0000001B0228F5D9032085E04B4A136823F0D3
:105F100080731360FCF74AFC0546474B1B6813F07F
:105F2000007F06D0FCF742FC401B0228F5D9032075
:105F300071E0414AD36841491940236A606A0138D7
:105F400043EA0013A06A43EA0023206B40080138AB
:105F500043EA4053606B4008013843EA4063E06A1B
:105F600043EAC0630B43D360136843F0807313604C
:105F7000D36843F08073D360FCF718FC04462E4BC3
:105F80001B6813F0007F06D1FCF710FC001B0228F1
:105F9000F5D903203FE000203DE0274AD168284B97
:105FA0000B40D360002036E0012B36D0224BDB685B
:105FB00003F00301226A914231D103F0F002616AD9
:105FC0000139B2EB011F2CD103F4FE42A16AB2EBFE
:105FD000012F28D103F07842E16AB2EBC16F24D1DE
:105FE00003F4C001226B5208013AB1EB425F1ED1AB
:105FF00003F0C063626B5208013AB3EB426F18D1F1
:10600000002008E001207047012004E0012002E0A8
:10601000012000E0002002B070BD0120FBE701205C
:10602000F9E70120F7E70120F5E70120F3E7012078
:10603000F1E70120EFE700BF001002400C809F0154
:10604000FCFFEEFE1E4B9B6803F00C03042B33D0C9
:106050001B4B9B6803F00C03082B2FD0184B9B683D
:1060600003F00C030C2B01D000207047144BDA68AE
:1060700002F00302D868C0F30310431C032A11D0B6
:106080001048B0FBF3F00E4BDB68C3F3062303FBB1
:1060900000F00B4BDB68C3F3416301335B00B0FBE3
:1060A000F3F070470848B0FBF3F0054BDB68C3F32F
:1060B000062303FB00F0ECE70248704702487047F4
:1060C000001002400024F40000127A00002800F0C2
:1060D000E680F8B50C460546744B1B6803F00F03C9
:1060E0008B420BD2714A136823F00F030B431360EA
:1060F000136803F00F038B4240F0D3802E6816F034
:1061000001065FD06B68032B2FD0022B4DD0684B5C
:106110001B6813F4806F00F0C680FFF793FF654B98
:1061200098424DD9624A936823F0F00343F080030C
:10613000936080265E4A936823F0030369680B43EB
:106140009360FCF733FB0746594B9B6803F00C0345
:106150006A68B3EB820F35D0FCF728FBC01B41F215
:1061600088339842F0D9032078E0514B1B6813F034
:10617000007F01D1012071E0FFF7C6FC4D4B984232
:106180001AD94B4B9B6813F0F00F05D02E6816F010
:106190000206CFD0AB688BB9454A936823F0F00371
:1061A00043F0800393608026C4E7414B1B6813F4DF
:1061B000003FB2D1012051E00026BBE70026B9E73D
:1061C0000026B7E72B6813F0020F48D013F0040F36
:1061D00004D0374A936843F4E06393602B6813F06C
:1061E000080F06D0324A936823F47C5343F4E063EB
:1061F00093602F4A936823F0F003A9680B439360E0
:106200002A4B1B6803F00F03A34230D82B6813F00E
:10621000040F06D0264A936823F4E063E9680B4331
:1062200093602B6813F0080F07D0214A936823F47A
:106230006053296943EAC1039360FFF703FF1C4BD6
:106240009B68C3F303131C4AD35C03F01F03D840BD
:106250001A4B18601A4B1868FBF744FFF8BD802EE4
:10626000CED1134A936823F0F0039360C8E70F4A36
:10627000136823F00F0323431360FCF797FA0646D5
:106280000A4B1B6803F00F03A342BFD0FCF78EFA42
:10629000801B41F288339842F2D90320DEE70120C7
:1062A00070470120DAE70120D8E700BF0020024054
:1062B0000010024000B4C40424850108300000200E
:1062C00038000020014B1868704700BF30000020E4
:1062D00008B5FFF7F7FF054B9B68C3F30223044A99
:1062E000D35C03F01F03D84008BD00BF001002407C
:1062F0003485010808B5FFF7E5FF054B9B68C3F33C
:10630000C223044AD35C03F01F03D84008BD00BF7A
:1063100000100240348501080F2303600B4B9A687C
:1063200002F0030242609A6802F0F00282609A680A
:1063300002F4E062C2609B68DB0803F4E06303617F
:10634000034B1B6803F00F030B6070470010024003
:1063500000200240024A136843F400231360704790
:10636000001002407047000008B5064BDB6913F4CB
:10637000807F00D108BDFFF7F5FF024B4FF480721C
:106380001A62F7E700100240F0B583B004460368D4
:1063900013F4002F6ED0354B9B6D13F0805F1ED130
:1063A000324B9A6D42F080529A659B6D03F0805398
:1063B0000193019B01262E4A136843F480731360F6
:1063C000FCF7F4F905462A4B1B6813F4807F08D1CB
:1063D000FCF7ECF9401B0228F5D9032502E0002662
:1063E000E9E7002545BB214BD3F8903013F4407307
:1063F00015D0226D9A4212D01C4AD2F8903023F464
:106400004073D2F8901041F48031C2F89010D2F865
:10641000901021F48031C2F89010C2F8903013F03F
:10642000010F10D145B9114AD2F8903023F44073CE
:10643000216D0B43C2F89030EEB10C4A936D23F0FE
:106440008053936517E0FCF7B1F90746074BD3F883
:10645000903013F0020FE5D1FCF7A8F9C01B41F210
:1064600088339842F2D90325DCE700BF00100240D0
:10647000007000400025236813F0010F08D09F4AE8
:10648000D2F8883023F0030361680B43C2F88830E8
:10649000236813F0020F08D0984AD2F8883023F00E
:1064A0000C03A1680B43C2F88830236813F0040F73
:1064B00008D0924AD2F8883023F03003E1680B43C9
:1064C000C2F88830236813F0080F08D08B4AD2F83E
:1064D000883023F0C00321690B43C2F88830236859
:1064E00013F0100F08D0854AD2F8883023F4407397
:1064F00061690B43C2F88830236813F0200F08D07D
:106500007E4AD2F8883023F44063A1690B43C2F875
:106510008830236813F0400F08D0784AD2F88830CA
:1065200023F44053E1690B43C2F88830236813F029
:10653000800F08D0714AD2F8883023F44043216A92
:106540000B43C2F88830236813F4807F08D06B4A6D
:10655000D2F8883023F44033616A0B43C2F88830A4
:10656000236813F4003F08D0644AD2F89C3023F02B
:106570000303A16A0B43C2F89C30236813F4007F25
:1065800008D05E4AD2F8883023F44023E16A0B43F6
:10659000C2F88830236813F4806F0CD0574AD2F8C1
:1065A000883023F44013216B0B43C2F88830236BEF
:1065B000B3F5801F79D0236813F4006F0CD04F4AD5
:1065C000D2F8883023F44003616B0B43C2F8883063
:1065D000636BB3F5800F6DD0236813F4805F0CD02C
:1065E000464AD2F8883023F04073A16B0B43C2F8BF
:1065F0008830A36BB3F1807F61D0236813F4005F10
:106600000CD03E4AD2F8883023F04063E16B0B4354
:10661000C2F88830E36BB3F1006F55D0236813F4F0
:10662000804F0CD0354AD2F8883023F04063216C7B
:106630000B43C2F88830236CB3F1006F49D0236854
:1066400013F4004F0CD02D4AD2F8883023F0405379
:10665000616C0B43C2F88830636CB3F1805F3DD04E
:10666000236813F4803F0CD0244AD2F8883023F0FA
:106670004043A16C0B43C2F88830A36CB3F1804F48
:1066800031D0236813F4802F0CD01C4AD2F89C30F0
:1066900023F44013E16C0B43C2F89C30E36CB3F578
:1066A000001F25D0284603B0F0BDD36843F4801303
:1066B000D36080E7D36843F48013D3608CE7D3685A
:1066C00043F48013D36098E7D36843F48013D36016
:1066D000A4E7D36843F48013D360B0E7D36843F4EE
:1066E0008033D360BCE7D36843F48033D360C8E71A
:1066F000D36843F48013D360D4E700BF0010024096
:106700002DE9F04782B00546884617461E46FCF73D
:106710004DF80A9B1B1A03EB0609FCF747F8824663
:106720002B4B1B68C3F3CB3309FB03F301932B689B
:106730009C6838EA04030CBF4FF0010C4FF0000CCA
:10674000BC4540D0B6F1FF3FF1D0FCF72FF8A0EBED
:106750000A0048450AD2B9F1000F07D0019A02B1E8
:106760004A46019B013B01939146E0E72A68536842
:1067700023F0E00353606B68B3F5827F0BD0AB6A04
:10678000B3F5005F14D0012385F85D30002385F850
:106790005C30032018E0AB68B3F5004F02D0B3F5CE
:1067A000806FECD12A68136823F040031360E6E79A
:1067B0002A68136823F4005313602A68136843F4AB
:1067C00000531360DFE7002002B0BDE8F08700BF90
:1067D000300000202DE9F04782B006460C461546F1
:1067E0001F4600238DF80330FBF7E0FF0A9B1B1ABE
:1067F00003EB0708FBF7DAFF8146D6F800A0314B20
:106800001B6803EB8303C3EBC3031B0D08FB03F3FC
:10681000019302E0B7F1FF3F12D133689B6803EAAE
:10682000040CAC454AD0B4F5C06FF3D1002DF1D1C2
:106830009AF80C30DBB28DF803309DF80330E9E7AD
:10684000FBF7B4FFA0EB090040450AD2B8F1000FF6
:1068500007D0019A02B14246019B013B0193904649
:10686000DBE73268536823F0E00353607368B3F5E5
:10687000827F0BD0B36AB3F5005F14D0012386F892
:106880005D30002386F85C30032018E0B368B3F570
:10689000004F02D0B3F5806FECD13268136823F05B
:1068A00040031360E6E73268136823F40053136073
:1068B0003268136843F400531360DFE7002002B02E
:1068C000BDE8F0873000002070B582B004460D4668
:1068D000164600920B4600224FF4C051FFF77AFF94
:1068E000B0B900962B46002280212046FFF708FF12
:1068F000A8B900962B4600224FF4C0612046FFF74E
:1069000069FF50B1236E43F020032366032004E0A7
:10691000236E43F020032366032002B070BD236E74
:1069200043F0200323660320F7E700286FD010B55B
:106930000446436A33B94368B3F5827F05D0002328
:10694000C36102E00023036143610023A36294F862
:106950005D30002B52D0022384F85D30226813682A
:1069600023F040031360E368B3F5E06F4CD90022D5
:10697000B3F5706F04D0B3F5E06F01D00023A362CC
:10698000636803F48273A16801F404410B43216935
:1069900001F002010B43616901F001010B43A169A0
:1069A00001F400710B43E16901F038010B43216AE6
:1069B00001F080010B43A16A01F4005120680B43F0
:1069C0000360638B03F00403616A01F010010B4361
:1069D000616B01F008010B43E16801F470610B4346
:1069E000216813434B602268D36923F40063D361A9
:1069F00000202066012384F85D3010BD84F85C30EF
:106A00002046FBF7F3FAA6E74FF48052B0E70120E7
:106A100070472DE9F8431F46089D90F85C30012B24
:106A200000F06B81044688469146012380F85C3073
:106A3000FBF7BCFE064694F85D30DBB26268012BC2
:106A40000AD0B2F5827F40F04681A268002A40F069
:106A50004881042B40F04781B8F1000F00F04581D8
:106A6000B9F1000F00F04381002F00F0428194F84B
:106A70005D30DBB2042B02D0052384F85D300023A7
:106A80002366C4F84090A4F84670A4F84470C4F893
:106A90003880E787A787E3642365E368B3F5E06F91
:106AA00001D8012F23D92268536823F480535360FF
:106AB00023681A6812F0400F03D11A6842F04002AE
:106AC0001A60E368B3F5E06F5CD963680BB1012F1E
:106AD0000BD1A26B23681288DA60A36B0233A36325
:106AE000E38F9BB2013B9BB2E387012730E0226832
:106AF000536843F480535360DAE7A26B1288DA607C
:106B0000A36B0233A363E38F9BB2013B9BB2E3878A
:106B1000002723689A6812F0010F11D0B4F84620BC
:106B200092B26AB1DA68236C1A80236C0233236450
:106B3000B4F846309BB2013B9BB2A4F84630012723
:106B4000FBF734FE831BAB4202D3B5F1FF3F14D1F8
:106B5000E38F9BB22BB9B4F846309BB2002B00F008
:106B6000AB8023689A6812F0020FD2D0E28F92B203
:106B7000002ACED0002FCCD0BFE7012384F85D30AF
:106B80000320A9E063680BB1012F0FD1E38F9BB203
:106B9000012B0DD9A26B23681288DA60A36B023334
:106BA000A363E38F9BB2023B9BB2E387012749E0DB
:106BB000A26B236812781A73A36B0133A363E38F6C
:106BC0009BB2013B9BB2E387F0E7E28F92B2012ACE
:106BD0000CD9A26B1288DA60A36B0233A363E38F34
:106BE0009BB2023B9BB2E38700273DE0A26B127889
:106BF0001A73A36B0133A363E38F9BB2013B9BB278
:106C0000E387002730E02268536843F480535360E1
:106C100001270DE0226C1B7B1370236C013323646E
:106C2000B4F846309BB2013B9BB2A4F84630012732
:106C3000FBF7BCFD801BA84202D3B5F1FF3F36D164
:106C4000002D34D0E38F9BB223B9B4F846309BB209
:106C5000002B31D023689A6812F0020F04D0E28F23
:106C600092B20AB1002FB0D123689A6812F0010FD6
:106C7000DED0B4F8462092B2002AD9D0B4F846202B
:106C800092B2012AC6D9DA68236C1A80236C0233C7
:106C90002364B4F846309BB2023B9BB2A4F8463062
:106CA000B4F846309BB2012BADD90127C0E70123D0
:106CB00084F85D3003200FE0324629462046FFF776
:106CC00003FE10B1202323660120236E9BB901230C
:106CD00084F85D3000E00220002384F85C30BDE8D9
:106CE000F8830220F8E70220F6E70120F4E701200C
:106CF000F2E70120F0E70120EEE70220EFE70000D5
:106D000030B4036A026A22F00102026245688269B5
:106D100022F4803222F073020C68224323F0020333
:106D20008C682343214CA04213D004F50064A04298
:106D30000FD004F54064A0420BD004F58064A0425B
:106D400007D004F58064A04203D004F50064A0429B
:106D500005D123F00803CC68234323F00403134C2C
:106D6000A04213D004F50064A0420FD004F54064A3
:106D7000A0420BD004F58064A04207D004F58064E3
:106D8000A04203D004F50064A04207D125F4407C62
:106D90004C6944EA0C0C8D6945EA0C05456082613A
:106DA0004A684263036230BC704700BF002C014058
:106DB00030B4036A026A22F4807202624468C269D3
:106DC00022F4803222F073020D682A4323F4007308
:106DD0008D6843EA05231C4DA84207D005F50065E0
:106DE000A84203D005F5E055A84206D123F400637C
:106DF000CD6843EA052323F48063134DA84213D0E2
:106E000005F50065A8420FD005F54065A8420BD0F6
:106E100005F58065A84207D005F58065A84203D036
:106E200005F50065A84207D124F4405C4C694CEAA2
:106E3000041C8C694CEA04144460C2614A68C26351
:106E4000036230BC704700BF002C014030B4036ABD
:106E5000026A22F4805202624468C26922F080729F
:106E600022F4E6420D6842EA052223F400538D68BD
:106E700043EA05331B4DA84207D005F50065A8423B
:106E800003D005F5E055A84206D123F40043CD68B0
:106E900043EA053323F48043124DA84213D005F58D
:106EA0000065A8420FD005F54065A8420BD005F556
:106EB0008065A84207D005F58065A84203D005F596
:106EC0000065A84207D124F4404C4C694CEA841C6C
:106ED0008C694CEA84144460C2614A6802640362AB
:106EE00030BC7047002C014030B4036A026A22F4BF
:106EF000803202624468026D22F4803222F0700215
:106F00000D682A4323F400338D6843EA0543114D8D
:106F1000A84213D005F50065A8420FD005F54065DD
:106F2000A8420BD005F58065A84207D005F580651D
:106F3000A84203D005F50065A84204D124F48034AA
:106F40004D6944EA0524446002654A68826403622C
:106F500030BC7047002C014030B4036A026A22F44E
:106F6000801202624468026D22F0807222F4E042D4
:106F70000D6842EA052223F400138D6843EA0553A5
:106F8000114DA84213D005F50065A8420FD005F5B4
:106F90004065A8420BD005F58065A84207D005F5ED
:106FA0008065A84203D005F50065A84204D124F409
:106FB00080244D6944EA8524446002654A68C264BD
:106FC000036230BC704700BF002C014010B4036A5C
:106FD000046A24F001040462846924F0F00C4CEA91
:106FE000021223F00A030B43826103625DF8044B33
:106FF000704710B4036A046A24F0100404628469C0
:1070000024F4704C4CEA023223F0A00343EA01134B
:10701000826103625DF8044B7047836823F4401378
:1070200023F070030B4343F00703836070470000B5
:1070300090F83D30DBB2012B3AD1022380F83D308D
:107040000268D36843F00103D36003681B4A93428C
:1070500020D0B3F1804F1DD0A2F59432934219D0C5
:1070600002F58062934215D002F58062934211D0FE
:1070700002F5943293420DD002F54062934209D05A
:1070800002F58052934205D01A6842F001021A605C
:107090000020704799680A4A0A40062A0AD0B2F5C9
:1070A000803F09D01A6842F001021A600020704740
:1070B000012070470020704700207047002C0140DD
:1070C000070001007047704770477047704770B500
:1070D00005460368DE681C6914F0020F10D016F034
:1070E000020F0DD06FF002021A61012303770368CB
:1070F0009B6913F0030F7CD0FFF7E6FF00232B778B
:1071000014F0040F12D016F0040F0FD02B686FF09C
:1071100004021A6102232B772B689B6913F4407FCA
:107120006DD02846FFF7D0FF00232B7714F0080F0F
:1071300012D016F0080F0FD02B686FF008021A61FA
:1071400004232B772B68DB6913F0030F5ED02846EE
:10715000FFF7BAFF00232B7714F0100F12D016F0B0
:10716000100F0FD02B686FF010021A6108232B77D5
:107170002B68DB6913F4407F4FD02846FFF7A4FF4C
:1071800000232B7714F0010F02D016F0010F4BD122
:1071900014F4025F02D016F0800F4DD114F4807FFA
:1071A00002D016F0800F4FD114F0400F02D016F02D
:1071B000400F51D114F0200F02D016F0200F53D100
:1071C00014F4801F02D016F4801F55D114F4001F50
:1071D00002D016F4001F57D114F4800F02D016F419
:1071E000800F59D114F4000F02D016F4000F5BD1B8
:1071F00070BDFFF768FF2846FFF767FF7EE7284668
:10720000FFF761FF2846FFF760FF8DE72846FFF78D
:107210005AFF2846FFF759FF9CE72846FFF753FF20
:107220002846FFF752FFABE72B686FF001021A61A7
:107230002846FAF7BFFBABE72B686FF402521A61DE
:10724000284600F054FDA9E72B686FF480721A619C
:10725000284600F04DFDA7E72B686FF040021A6149
:107260002846FFF733FFA5E72B686FF020021A616D
:10727000284600F03BFDA3E72B686FF480121A61EB
:10728000284600F036FDA1E72B686FF400121A6162
:10729000284600F02FFD9FE72B686FF480021A61EB
:1072A000284600F028FD9DE72B686FF400021A6164
:1072B000284600F021FD9BE703683A4A904216D029
:1072C000B0F1804F13D0A2F5943290420FD002F566
:1072D000806290420BD002F58062904207D002F5A6
:1072E0009432904203D002F5E052904203D123F051
:1072F00070034A6813432B4A904222D0B0F1804F6A
:107300001FD0A2F5943290421BD002F580629042C9
:1073100017D002F58062904213D002F59432904269
:107320000FD002F5406290420BD002F5806290428D
:1073300007D002F58062904203D002F500629042CD
:1073400003D123F44073CA68134323F080034A69CE
:10735000134303608B68C3620B688362114B9842CE
:1073600013D003F5006398420FD003F540639842B1
:107370000BD003F58063984207D003F580639842F1
:1073800003D003F50063984201D10B690363012325
:107390004361036913F0010F03D0036923F0010374
:1073A00003617047002C014060B310B5044690F8AB
:1073B0003D3013B3022384F83D30214651F8040BCD
:1073C000FFF77AFF012384F8483084F83E3084F8D0
:1073D0003F3084F8403084F8413084F8423084F8FB
:1073E000433084F8443084F8453084F8463084F8DB
:1073F000473084F83D30002010BD80F83C30FAF76B
:1074000099FFD7E70120704760B310B5044690F8A4
:107410003D3013B3022384F83D30214651F8040B6C
:10742000FFF74AFF012384F8483084F83E3084F89F
:107430003F3084F8403084F8413084F8423084F89A
:10744000433084F8443084F8453084F8463084F87A
:10745000473084F83D30002010BD80F83C30FFF705
:1074600031FED7E70120704730B4036A026A22F088
:10747000100202624468826922F0807222F4E642BD
:107480000D6842EA052223F020038D6843EA0513C4
:107490001B4DA84207D005F50065A84203D005F5AD
:1074A000E055A84206D123F08003CD6843EA0513D6
:1074B00023F04003124DA84213D005F50065A84201
:1074C0000FD005F54065A8420BD005F58065A842B0
:1074D00007D005F58065A84203D005F50065A842F0
:1074E00007D124F4406C4C694CEA840C8C694CEA5A
:1074F0008404446082614A688263036230BC7047DE
:10750000002C014038B590F83C30012B00F09580FC
:1075100004460D46012380F83C30142A00F288808E
:10752000DFE802F00B8686861F868686348686868E
:10753000488686865D86868671000068FFF7E0FBD8
:107540002268936943F0080393612268936923F0EA
:10755000040393612268936929690B4393610020B6
:1075600067E00068FFF780FF2268936943F40063D7
:1075700093612268936923F480639361226893691D
:10758000296943EA01239361002052E00068FFF774
:107590000FFC2268D36943F00803D3612268D369E2
:1075A00023F00403D3612268D36929690B43D361B3
:1075B00000203EE00068FFF749FC2268D36943F4ED
:1075C0000063D3612268D36923F48063D3612268A6
:1075D000D369296943EA0123D361002029E00068C7
:1075E000FFF782FC2268136D43F0080313652268DD
:1075F000136D23F0040313652268136D29690B438F
:107600001365002015E00068FFF7A6FC2268136DE3
:1076100043F4006313652268136D23F480631365DC
:107620002268136D296943EA01231365002000E0F5
:107630000120002384F83C3038BD0220FCE710B460
:10764000846824F47F4C42EA03220A4342EA0C0293
:1076500082605DF8044B704790F83C30012B00F0DD
:107660009B8010B50446012380F83C30022380F84B
:107670003D3002689068494B034093600B68702B63
:1076800061D031D8502B78D00CD9602B2AD1CA6860
:1076900049682068FFF7ADFC60212068FFF7BDFC5A
:1076A000002038E0402B0AD1CA6849682068FFF7FB
:1076B0008DFC40212068FFF7B0FC00202BE067D84C
:1076C000202B07D003D9302B04D0012023E00BB1AD
:1076D000102B05D119462068FFF79FFC00201AE007
:1076E000012018E0012016E0B3F5005F38D00ED974
:1076F0002B4A9342EED015D92A4A9342EAD010324F
:107700009342E7D0203A9342E4D0012003E0B3F55E
:10771000805F3FD10020012384F83D30002384F8AE
:107720003C3010BD203A9342D4D004D91E4A934233
:10773000D0D00120EFE7B3F5801FCBD0B3F1101FFD
:10774000C8D00120E7E7CB684A6889682068FFF75E
:1077500076FF2268936843F0770393600020DAE7AE
:10776000CB684A6889682068FFF769FF22689368D8
:1077700043F4804393600020CDE7CA6849682068DD
:10778000FFF724FC50212068FFF747FC0020C2E7E8
:107790000120C0E70120BEE7022070478800CEFF2D
:1077A00040001000600010003000100001F01F01C8
:1077B000012303FA01FC036A23EA0C030362036A50
:1077C00002FA01F10B4303627047000010B5044652
:1077D0000846002953D194F83E30DBB2013B18BF74
:1077E0000123002B40F0A080002873D1022384F8ED
:1077F0003E30012201462068FFF7D8FF23684D4A3A
:10780000934213D002F5006293420FD002F540621A
:1078100093420BD002F58062934207D002F580625A
:10782000934203D002F50062934203D15A6C42F4B2
:1078300000425A6423683F4A934267D0B3F1804FB5
:1078400064D0A2F59432934260D002F580629342F4
:107850005CD002F58062934258D002F59432934294
:1078600054D002F54062934250D002F580529342C8
:107870004CD01A6842F001021A60002055E0042939
:107880000CD0082911D00C2916D010291BD094F83F
:107890004330DBB2013B18BF0123A2E794F83F302D
:1078A000DBB2013B18BF01239BE794F84030DBB209
:1078B000013B18BF012394E794F84130DBB2013B50
:1078C00018BF01238DE794F84230DBB2013B18BFAB
:1078D000012386E7042809D008280BD00C280DD0F6
:1078E00010280FD0022384F8433082E7022384F863
:1078F0003F307EE7022384F840307AE7022384F8A1
:10790000413076E7022384F8423072E799680A4AE8
:107910000A40062A0AD0B2F5803F09D01A6842F020
:1079200001021A60002000E0012010BD0020FCE7E9
:107930000020FAE7002C01400700010038B504469A
:107940000D4600220068FFF731FF23682A4A934260
:1079500013D002F5006293420FD002F540629342C9
:107960000BD002F58062934207D002F58062934209
:1079700003D002F5006293420DD1196A41F211124F
:10798000114208D1196A44F24442114203D15A6C9F
:1079900022F400425A642368196A41F2111211421A
:1079A00008D1196A44F24442114203D11A6822F004
:1079B00001021A6025B9012384F83E30002038BD49
:1079C000042D09D0082D0BD00C2D0DD0102D0FD06B
:1079D000012384F84330F1E7012384F83F30EDE7D9
:1079E000012384F84030E9E7012384F84130E5E7DA
:1079F000012384F84230E1E7002C014001F00F013F
:107A0000042303FA01FC036A23EA0C030362036AFA
:107A100002FA01F10B4303627047000010B50446FF
:107A2000084600293BD194F84430DBB2013B18BF33
:107A30000123002B6AD100284AD1022384F8443064
:107A4000042201462068FFF7D9FF2268536C43F4F3
:107A5000004353642368304A934249D0B3F1804FC6
:107A600046D0A2F59432934242D002F5806293420E
:107A70003ED002F5806293423AD002F594329342AE
:107A800036D002F54062934232D002F580529342E2
:107A90002ED01A6842F001021A60002037E0042953
:107AA00008D008290DD094F84730DBB2013B18BF4D
:107AB0000123BEE794F84530DBB2013B18BF012338
:107AC000B7E794F84630DBB2013B18BF0123B0E7BB
:107AD000042805D0082807D0022384F84730AFE7F0
:107AE000022384F84530ABE7022384F84630A7E749
:107AF00099680A4A0A40062A0AD0B2F5803F09D09E
:107B00001A6842F001021A60002000E0012010BD56
:107B10000020FCE70020FAE7002C014007000100EC
:107B200038B504460D4600220068FFF767FF23685A
:107B3000196A41F21112114208D1196A44F2444201
:107B4000114203D15A6C22F400425A642368196A24
:107B500041F21112114208D1196A44F24442114211
:107B600003D11A6822F001021A6025B9012384F8B2
:107B70004430002038BD042D05D0082D07D0012346
:107B800084F84730F5E7012384F84530F1E7012315
:107B900084F84630EDE7000090F83C30012B4CD0E3
:107BA00030B4012380F83C30022380F83D30026875
:107BB00053689468224DAA4207D005F50065AA4291
:107BC00003D005F5E055AA4203D123F470034D68B4
:107BD0002B4323F0007323F070030D682B43536095
:107BE0000368174A93421AD0B3F1804F17D0A2F519
:107BF0009432934213D002F5806293420FD002F583
:107C0000806293420BD002F59432934207D002F582
:107C10004062934203D002F58052934204D124F093
:107C200080048A6814439C60012380F83D3000235F
:107C300080F83C30184630BC70470220704700BFC7
:107C4000002C014090F83C30012B4AD010B40123A5
:107C500080F83C30CB6823F440738A68134323F4E4
:107C600080634A68134323F400630A68134323F4D0
:107C700080530A69134323F400534A69134323F4DE
:107C800080430A6B134323F470238A6943EA024357
:107C900023F08053CA6913430268134CA24207D0F1
:107CA00004F50064A24203D004F5E054A24210D1CE
:107CB00023F470038C6A43EA045323F080730C6A44
:107CC000234323F000734C6A234323F00053C96A13
:107CD0000B435364002380F83C3018465DF8044B96
:107CE00070470220704700BF002C0140704770476A
:107CF00070477047704770477047026852E8003F0E
:107D000023F0C00342E800310029F6D1026802F1F5
:107D1000080353E8003F23F40003083242E800312F
:107D20000029F3D12023C0F888307047026852E858
:107D3000003F23F4907342E800310029F6D1026835
:107D400002F1080353E8003F23F0805323F00103BE
:107D5000083242E800310029F1D1C36E012B06D070
:107D60002023C0F88C300023C36643677047026845
:107D700052E8003F23F0100342E800310029F6D119
:107D8000EEE7704708B5026852E8003F23F0400371
:107D900042E800310029F6D12023C0F888300023C2
:107DA0008367FFF7EEFF08BD70477047704738B52F
:107DB000846AD4F88820D4F88C5023689B6813F028
:107DC000800F01D0212A10D023689B6813F0400F48
:107DD00001D0222D10D0D4F8903043F01003C4F815
:107DE00090302046FFF7E2FF38BD0023A4F856305C
:107DF0002046FFF782FFE7E70023A4F85E30204625
:107E0000FFF794FFE7E708B5806A0023A0F85E302B
:107E1000A0F85630FFF7CAFF08BD000070B5044651
:107E20000168CB6908688D6840F60F021A4008D1D6
:107E300013F0200F05D010F0200F34D115F0805F23
:107E400031D12AB1994A2A4033D1994E304230D1AA
:107E5000E26E012A00F0C68013F4801F03D015F4EF
:107E6000800F40F0658113F0800F07D010F0800F75
:107E700040F0658115F4000F40F0618113F0400F70
:107E800003D010F0400F40F0618113F4000F03D0D5
:107E900010F0804F40F05E8113F0807F02D0002808
:107EA000C0F25C8170BD636F002BFBD02046984709
:107EB000F8E713F0010F09D010F4807F06D00126F7
:107EC0000E62D4F890103143C4F8901013F0020FF2
:107ED0000BD015F0010F08D0216802260E62D4F8ED
:107EE000901041F00401C4F8901013F0040F0BD06F
:107EF00015F0010F08D0216804260E62D4F8901006
:107F000041F00201C4F8901013F0080F0BD010F0EC
:107F1000200F00D13AB1226808211162D4F89020D4
:107F20000A43C4F8902013F4006F0CD010F0806F57
:107F300009D022684FF400611162D4F8902042F019
:107F40002002C4F89020D4F89020002AAAD013F080
:107F5000200F09D010F0200F02D115F0805F03D060
:107F6000636F0BB120469847D4F8902023689B6834
:107F700013F0400F02D112F0280F2CD02046FFF74B
:107F8000D5FE23689B6813F0400F20D0226802F1D1
:107F9000080353E8003F23F04003083242E8003171
:107FA0000029F3D1D4F880306BB1424A9A63D4F8F7
:107FB0008000FCF7B9F900283FF474AFD4F88000D2
:107FC000836B98476EE72046FFF7F0FE6AE720468E
:107FD000FFF7ECFE66E72046FFF7E8FE0023C4F853
:107FE00090305FE713F0100F3FF436AF10F0100F32
:107FF0003FF432AF10230B6223689B6813F0400FED
:108000005AD0D4F8802013685B689BB2002B3FF4F1
:1080100049AFB4F85C1099427FF644AFA4F85E30E3
:1080200013681B6813F0200F32D1226852E8003F1A
:1080300023F4807342E800310029F6D1226802F16E
:10804000080353E8003F23F00103083242E80031FF
:108050000029F3D1226802F1080353E8003F23F01E
:108060004003083242E800310029F3D12023C4F84C
:108070008C300023E366226852E8003F23F01003AF
:1080800042E800310029F6D1D4F88000FCF716F957
:1080900002232367B4F85C10B4F85E309BB2C91AAF
:1080A00089B22046F9F788FDFCE600BF0100001008
:1080B00020010004077E0008B4F85C10B4F85E30BC
:1080C0009BB2C91A89B2B4F85E309BB2002B3FF460
:1080D000E9AE00293FF4E6AE226852E8003F23F4FF
:1080E000907342E800300028F6D1226802F10803BC
:1080F00053E8003F23F0805323F00103083242E8A5
:1081000000300028F1D12023C4F88C300023E3662E
:108110006367226852E8003F23F0100342E8003012
:108120000028F6D1022323672046F9F745FDB9E67A
:108130004FF480130B62204600F068FCB2E6A36F98
:10814000002B3FF4AFAE20469847ABE62046FFF742
:1081500019FEA7E6204600F05BFCA3E6204600F0EF
:1081600056FC9FE608B5806A01230367C36E012BA6
:1081700002D0FFF71AFE08BDB0F85C104908F9F705
:108180001BFDF8E708B50346806A1B681B6813F0FF
:10819000200F29D10023A0F85E30026852E8003F8A
:1081A00023F4807342E800310029F6D1026802F11D
:1081B000080353E8003F23F00103083242E800318E
:1081C0000029F3D1026802F1080353E8003F23F0CD
:1081D0004003083242E800310029F3D12023C0F8DF
:1081E0008C30C36E012B07D000230367C36E012BB5
:1081F0000CD0FFF7D9FD08BD026852E8003F23F01C
:10820000100342E800310029F6D1EDE7B0F85C1028
:10821000F9F7D2FCEFE7000070B504460168836807
:108220000269134342691343C26913430868964ABB
:10823000024013430B602268536823F44053E16803
:108240000B435360A1692268904B9A4201D0236A84
:108250001943936823F06E4323F430630B43936018
:108260002268D36A23F00F03616A0B43D362236849
:10827000874A934210D0874A934221D0864A93423C
:1082800037D0864A93425CD0854A93426BD07F4A6E
:1082900093427DD010223AE002F55842D2F888206D
:1082A00002F00302032A09D8DFE802F0020487067D
:1082B00001222CE004222AE0082228E0102226E0F5
:1082C00002F5E632D2F8882002F00C020C2A0ED811
:1082D000DFE802F0070D0D0D090D0D0D750D0D0DEB
:1082E0000B00002213E0042211E008220FE010220C
:1082F0000DE002F5E432D2F8882002F03002202AA4
:108300005FD01AD8002A5ED0102A5ED104225F49BD
:108310008B4276D0E069B0F5004F00F0C980082AA2
:1083200000F23481DFE812F0F7001901F5003201A4
:108330001C013201320132011F01302A47D10822CB
:10834000E5E702F5E232D2F8882002F0C002802A86
:108350003FD004D8FAB3402A3FD10422D7E7C02A3D
:108360003DD10822D3E702F5E032D2F8882002F4AA
:108370004072B2F5007F34D005D8A2B3B2F5807F49
:1083800033D10422C3E7B2F5407F30D10822BEE7E3
:1083900002F5C832D2F8882002F44062B2F5006FCC
:1083A00027D005D83AB3B2F5806F26D10422AEE7C4
:1083B000B2F5406F23D10822A9E70222A7E70222E3
:1083C000A5E70222A3E70022A1E710229FE71022DF
:1083D0009DE702229BE7002299E7102297E71022EF
:1083E00095E7022293E7002291E710228FE71022FF
:1083F0008DE702228BE7002289E7102287E710220F
:1084000085E7082A00F2B280DFE802F008B03BB04E
:1084100038B0B0B005004FF4004004E0FDF758FF5D
:10842000002800F0A580626A1E4B33F81220B0FBD2
:10843000F2F3656805EB4501994200F29B80B3EBCE
:10844000053F00F29980002633463146F8F78AFA54
:10845000090241EA106100026B08C0182A4633463F
:1084600041F10001F8F77EFAA0F540720E4B9A42F6
:1084700000F284802368D860304665E0FDF7E2FDB5
:10848000CEE70A48CFE700BFF369FFCF0080004086
:10849000003801400044004000480040004C0040CB
:1084A000005000403C850108FFFC0F000024F40050
:1084B000082A65D8DFE802F0072705642A646464A7
:1084C0000B00354803E0FDF703FF00285AD0626A2D
:1084D000324B33F81230B0FBF3F06268530803EB11
:1084E0004000B0FBF2F0A0F110024FF6EF739A4299
:1084F0004AD883B223F00F03C0F342001843236825
:10850000D860002020E0FDF7F5FEDEE7FDF79AFDDC
:10851000DBE7214803E0FDF7DBFE002838D0626A84
:108520001E4B33F81230B0FBF3F0636800EB5300DE
:10853000B0FBF3F0A0F110024FF6EF739A4229D886
:10854000236880B2D86000200123A4F86A30A4F820
:10855000683000236367A36770BDFDF7CBFEDCE7DF
:10856000FDF770FDD9E74FF40040D8E70120EBE7B5
:108570000020E9E70120E7E70120E5E70120E3E744
:108580000120E1E70020DFE70120DDE70120DBE754
:108590000020D9E70120D7E70024F4003C8501083A
:1085A000836A13F0080F06D00268536823F400436F
:1085B000816B0B435360836A13F0010F06D002688E
:1085C000536823F40033C16A0B435360836A13F08A
:1085D000020F06D00268536823F48033016B0B430B
:1085E0005360836A13F0040F06D00268536823F4C3
:1085F0008023416B0B435360836A13F0100F06D046
:108600000268936823F48053C16B0B439360836AC1
:1086100013F0200F06D00268936823F40053016C16
:108620000B439360836A13F0400F0AD002685368CB
:1086300023F48013416C0B435360436CB3F5801FEC
:108640000BD0836A13F0800F06D00268536823F4BE
:108650000023C16C0B43536070470268536823F4D6
:10866000C003816C0B435360EBE72DE9F8430546EB
:108670000E4617469946DDF820802C68E46936EAF4
:1086800004030CBF4FF0010C4FF0000CBC4536D179
:10869000B8F1FF3FF1D0FAF789F8A0EB09004045A7
:1086A00030D8B8F1000F2FD02B681A6812F0040FE1
:1086B000E3D0802EE1D0402EDFD0DA6912F0080F2F
:1086C00011D1DA6912F4006FD7D04FF400621A6248
:1086D0002846FFF72BFB2023C5F89030002385F8B0
:1086E000843003200CE008241C622846FFF71EFBA0
:1086F000C5F89040002385F88430012000E0002078
:10870000BDE8F8830320FBE70320F9E72DE9F041FA
:1087100082B01E46D0F88830202B5AD104460D4630
:108720009046002959D00AB9012053E00023C0F82F
:1087300090302123C0F88830FAF738F80746A4F8BB
:108740005480A4F85680A368B3F5805F02D04FF040
:10875000000816E0236943B34FF0000811E020231E
:10876000C4F88830032035E038F8023B2268C3F3B0
:1087700008039362B4F8562092B2013A92B2A4F878
:108780005620B4F856309BB293B100963B46002277
:1087900080212046FFF769FF0028E0D1002DE3D0BB
:1087A00015F8012B23689A62E4E7A8460025E8E75C
:1087B00000963B46002240212046FFF756FF18B99D
:1087C0002023C4F8883005E02023C4F88830032033
:1087D00000E0022002B0BDE8F0810120FAE730B5E8
:1087E00083B004460023C0F89030F9F7DFFF054658
:1087F0002268126812F0080F10D123681B6813F06A
:10880000040F28D12023C4F88830C4F88C3000200D
:10881000E066206784F8840003B030BD6FF07E43CB
:108820000093034600224FF400112046FFF71DFF7E
:108830000028E2D0226852E8003F23F0800342E89B
:1088400000310029F6D12023C4F88830002384F8B1
:1088500084300320E0E76FF07E4300932B46002234
:108860004FF480012046FFF700FF0028CAD022689D
:1088700052E8003F23F4907342E800310029F6D11A
:10888000226802F1080353E8003F23F00103083295
:1088900042E800310029F3D12023C4F88C300023B2
:1088A00084F884300320B7E778B310B50446D0F8D5
:1088B00088300BB32423C4F888302268136823F06F
:1088C00001031360A36AE3B92046FFF7A5FC012862
:1088D00011D02268536823F4904353602268936850
:1088E00023F02A0393602268136843F001031360A6
:1088F0002046FFF774FF10BD80F88430F9F77CFE46
:10890000D8E72046FFF74CFEDEE701207047000065
:1089100010B5044613468165A0F85C200022C0F81B
:1089200090202222C0F88C20D0F88020AAB12149C2
:10893000D162D0F8802020491163D0F880201F49EF
:108940005163D0F88020002191630168826D243149
:10895000D0F88000FBF768FC20BB236943B1226894
:1089600052E8003F43F4807342E800310029F6D119
:10897000226802F1080353E8003F43F00103083284
:1089800042E800310029F3D1226802F1080353E8DC
:10899000003F43F04003083242E800310029F3D1A0
:1089A000002010BD1023C4F890302023C4F88C3070
:1089B0000120F6E78581000865810008AF7D000889
:1089C000436E2BB90123A0F86A30A0F868307047D5
:1089D00030B403689A68C2F342629968490F094D3E
:1089E0006B5CDB00084C615C93FBF1F3A0F86A3030
:1089F000AB5CDB00A25C93FBF2F3A0F8683030BC08
:108A0000704700BF5C8501085485010870477047B6
:108A1000704790F88430012B18D0012380F88430FF
:108A20002423C0F8883003681A68196821F001010E
:108A3000196022F000520023436601680A60202278
:108A4000C0F8882080F884301846704702207047AC
:108A500038B590F88430012B1DD00446012380F8EE
:108A600084302423C0F8883003681D681A6822F017
:108A700001021A600268936823F060431943916011
:108A8000FFF79EFF23681D602023C4F88830002074
:108A900084F8840038BD0220FCE738B590F88430B3
:108AA000012B1DD00446012380F884302423C0F814
:108AB000883003681D681A6822F001021A60026893
:108AC000936823F0606319439160FFF779FF23688F
:108AD0001D602023C4F88830002084F8840038BD4D
:108AE0000220FCE7D0F88C30202B1FD110B50446B3
:108AF000F1B10AB9012010BD0123C3660023036749
:108B0000FFF706FF0028F6D1E36E012B01D001200C
:108B1000F1E7236810221A62226852E8003F43F00E
:108B2000100342E800310029F6D1E4E70220704743
:108B30000120E0E703460020A3F844004BF68072D2
:108B4000A3F840207047B0F8403023F47E535B0414
:108B50005B0CA0F840300020704782B0034602A8AA
:108B600000E906000122A3F840200020A3F84000FD
:108B7000A3F84400A3F8500002B0704710B50346B4
:108B80000A7830F822C01FFA8CFC2CF4EC4C2CF044
:108B9000700C1FFA8CFCC878032862D8DFE800F05C
:108BA000565D0259002048F2800E4CEA0E0C23F864
:108BB00022C091F800C033F82C2012B222F4E04217
:108BC00022F070024CEA020292B242EA0E0223F84C
:108BD0002C200A7B002A40F0DC804A78002A51D001
:108BE000B3F8502013FA82F20C7802EBC402B1F809
:108BF00006C04FEA5C0C4FEA4C0CA2F800C40C789B
:108C000033F8242012F0400F0CD033F8242092B215
:108C100022F4E04222F0700242F4004242F0C0022C
:108C200023F82420CA78012A1DD0097833F821209E
:108C300092B222F4E04222F0400282F0200242F49A
:108C4000004242F0800223F8212017E14CF4007C1E
:108C5000A9E74CF4C06C0020A5E74CF4806C002020
:108C6000A1E701209FE7097833F8212092B222F48E
:108C7000E04222F0400242F4004242F0800223F837
:108C80002120FBE0B3F8502013FA82F20C7802EBBB
:108C9000C402B1F806C04FEA5C0C4FEA4C0CA2F8D3
:108CA00004C4B3F8502013FA82F20C7802EBC40229
:108CB000B2F806C4CCF3090CA2F806C40C693E2C29
:108CC00039D94FEA541E14F01F0F01D10EF1FF3EA7
:108CD000B2F806C41FFA8CFC4FEA8E2E1FFA8EFEE5
:108CE0004CEA0E0C4CF4004CA2F806C40C7833F895
:108CF000242012F4804F0CD033F8242092B222F4B6
:108D0000E04222F0700242F4404242F0800223F836
:108D10002420097869BB33F8212092B222F48042E2
:108D200022F0700282F4405242F4004242F080028B
:108D300023F82120A2E04CB9B2F806446FEA44447B
:108D40006FEA5444A4B2A2F80644CFE74FEA540CA9
:108D500014F0010F01D00CF1010CB2F80644A4B2DA
:108D60004FEA8C2C1FFA8CFC44EA0C0CA2F806C4C7
:108D7000BCE733F8212092B222F4804222F0700244
:108D800082F4005242F4004242F0800223F8212093
:108D900074E0CA78022A72D00C7833F8242092B298
:108DA00022F4E24222F0700242F4004242F08002D9
:108DB00023F82420B3F8502013FA82F291F800C06F
:108DC00002EBCC02B1F808C04FEA5C0C4FEA4C0C45
:108DD000A2F800C4B3F8502013FA82F291F800C050
:108DE00002EBCC02B1F80AC04FEA5C0C4FEA4C0C23
:108DF000A2F804C44A78002A50D10C7833F8242011
:108E000012F4804F0CD033F8242092B222F4E042C6
:108E100022F0700242F4404242F0800223F8242003
:108E20000C7833F8242012F0400F0CD033F82420B3
:108E300092B222F4E04222F0700242F4004242F088
:108E4000C00223F8242091F800C033F82C2092B2FD
:108E500022F4804222F0700282F4405248F28004F0
:108E6000224323F82C20097833F8212092B222F4EF
:108E7000E04222F04002224323F8212010BD0C786A
:108E800033F8242092B222F4E04222F0700242F43D
:108E9000014242F0800223F824208BE70C7833F85B
:108EA000242012F4804F0CD033F8242092B222F404
:108EB000E04222F0700242F4404242F0800223F885
:108EC00024200C7833F8242012F0400F0CD033F813
:108ED000242092B222F4E04222F0700242F40042D6
:108EE00042F0C00223F82420CA78012A1ED00C7850
:108EF00033F8242092B222F4E04222F0400282F0C1
:108F0000200242F4004242F0800223F82420097833
:108F100033F8212092B222F4804222F0700242F40F
:108F2000004242F0800223F82120A7E70C7833F8B2
:108F3000242092B222F4E04222F0400242F40042A5
:108F400042F0800223F82420E1E70B7B002B46D17E
:108F50004B7813B30A7830F8223013F0400F0CD05E
:108F600030F822309BB223F4E04323F0700343F443
:108F7000004343F0C00320F822300A7830F8223052
:108F80009BB223F4E04323F0400343F4004343F057
:108F9000800320F82230002070470A7830F8223011
:108FA00013F4804F0CD030F822309BB223F4E0430E
:108FB00023F0700343F4404343F0800320F8223051
:108FC0000A7830F822309BB223F4804323F07003F8
:108FD00043F4004343F0800320F82230DBE74B7872
:108FE000002B4ED10A7830F8223013F4804F0CD089
:108FF00030F822309BB223F4E04323F0700343F4B3
:10900000404343F0800320F822300A7830F82230C1
:1090100013F0400F0CD030F822309BB223F4E04321
:1090200023F0700343F4004343F0C00320F82230E0
:109030000A7830F822309BB223F4E04323F0700327
:1090400043F4004343F0C00320F822300B7830F89B
:10905000232092B222F4804222F0700248F2800C67
:1090600042EA0C0220F823200A7830F822309BB222
:1090700023F4E04323F0400343EA0C0320F82230BA
:1090800089E70A7830F8223013F4804F0CD030F89A
:1090900022309BB223F4E04323F0700343F44043B7
:1090A00043F0800320F822300A7830F8223013F0A1
:1090B000400F0CD030F822309BB223F4E04323F071
:1090C000700343F4004343F0C00320F822300A78D1
:1090D00030F822309BB223F4E04323F0700343F4D2
:1090E000404343F0800320F822300B7830F82320EF
:1090F00092B222F4E04222F0400248F2800C42EAAE
:109100000C0220F823200A7830F822309BB223F496
:10911000804323F0700343EA0C0320F822303AE73F
:109120004B788BB10A7830F822309BB223F4E043BD
:1091300023F0400383F0100343F4004343F0800323
:1091400020F82230002070470A7830F822309BB295
:1091500023F4804323F0700383F4805343F40043EB
:1091600043F0800320F82230ECE70B7B002B4BD13F
:109170004B7833B30A7830F8223013F0400F0CD01C
:1091800030F822309BB223F4E04323F0700343F421
:10919000004343F0C00320F82230CB78012B33D0BA
:1091A0000A7830F822309BB223F4E04323F04003E6
:1091B00083F0200343F4004343F0800320F822307F
:1091C00022E00A7830F8223013F4804F0CD030F8C7
:1091D00022309BB223F4E04323F0700343F4404376
:1091E00043F0800320F822300A7830F822309BB216
:1091F00023F4804323F0700383F4405343F400438B
:1092000043F0800320F822300020704711B98023FA
:10921000A0F84C3000207047B0F858306FEA434354
:109220006FEA53439BB2A0F8583000207047B0F863
:10923000440080B2704710B45C1C6408024402F51C
:10924000806207E00B78487843EA002322F8023B6B
:109250000231013C002CF5D15DF8044B704770B52C
:1092600005460C464A78012A3BD00B7B002B40F088
:10927000A6828B690A69934240F284829B1A8B61B1
:10928000B5F8503015FA83F3217803EBC103B3F836
:109290000614C1F30901A3F806143E2A40F27682AF
:1092A000510912F01F0F00D10139B3F8062492B210
:1092B000890289B20A4342F40042A3F806242278C4
:1092C00035F822309BB223F4804323F0700383F4FB
:1092D000405343F4004343F0800325F8223000203C
:1092E00070BD8E6909698E4200D90E46237B73B327
:1092F000E378022B4DD0236A9B1B2362237835F839
:10930000231011F0400F00F0F581002A40F0E281B7
:10931000B5F8502015FA82F202EBC303B3F8062425
:10932000C2F30902A3F806243E2E40F2BA81710965
:1093300016F01F0F00D10139B3F8062492B289024A
:1093400089B20A4342F40042A3F80624CBE1B6B244
:109350003346E28861692846FFF76DFFB5F8503063
:1093600015FA83F3227803EBC203A3F80264227890
:1093700035F822309BB223F4E04323F0400383F01E
:10938000300343F4004343F0800325F822300020EB
:10939000A6E7236A994280F06681227835F8223068
:1093A0009BB223F4E04323F0700343F4014343F002
:1093B000800325F82230236A9B1B2362237835F82B
:1093C000232012F0400F00F0A7806278B2BBB5F8FE
:1093D000502015FA82F202EBC303B3F80624C2F35D
:1093E0000902A3F806243E2E0FD9710916F01F0FAB
:1093F00000D10139B3F8062492B2890289B20A4336
:1094000042F40042A3F806241AE04EB9B3F8062449
:109410006FEA42426FEA524292B2A3F806240FE08A
:10942000720816F0010F00D00132B3F8061489B2A9
:10943000920292B20A43A3F8062401E0012A30D036
:10944000B3B2628961692846FFF7F5FE6369334468
:109450006361236A226993422DD99B1B236263783F
:10946000002B45D1B5F8503015FA83F3227803EB81
:10947000C203B3F80224C2F30902A3F802243E2E69
:109480001DD9710916F01F0F00D10139B3F802245C
:1094900092B2890289B20A4342F40042A3F802243C
:1094A00028E0B5F8502015FA82F202EBC303B2B2FD
:1094B000A3F80624C4E7002222621E46CFE74EB975
:1094C000B3F802246FEA42426FEA524292B2A3F822
:1094D00002240FE0720816F0010F00D00132B3F839
:1094E000021489B2920292B20A43A3F8022401E064
:1094F000012B06D0B3B2228961692846FFF79BFE93
:1095000035E7B5F8503015FA83F3227803EBC20340
:10951000B2B2A3F80224EDE76278B2BBB5F85020EE
:1095200015FA82F202EBC303B3F80224C2F3090274
:10953000A3F802243E2E0FD9710916F01F0F00D197
:109540000139B3F8022492B2890289B20A4342F483
:109550000042A3F802241AE04EB9B3F802246FEADD
:1095600042426FEA524292B2A3F802240FE072081C
:1095700016F0010F00D00132B3F8021489B2920242
:1095800092B20A43A3F8022401E0012A30D0B3B218
:10959000228961692846FFF74EFE6369334463619F
:1095A000236A226993422DD99B1B23626378002B87
:1095B00045D1B5F8503015FA83F3227803EBC20396
:1095C000B3F80624C2F30902A3F806243E2E1DD9DF
:1095D000710916F01F0F00D10139B3F8062492B2B9
:1095E000890289B20A4342F40042A3F8062428E023
:1095F000B5F8502015FA82F202EBC303B2B2A3F819
:109600000224C4E7002222621E46CFE74EB9B3F817
:1096100006246FEA42426FEA524292B2A3F806244D
:109620000FE0720816F0010F00D00132B3F80614F3
:1096300089B2920292B20A43A3F8062401E0012BF8
:1096400006D0B3B2628961692846FFF7F4FD8EE661
:10965000B5F8503015FA83F3227803EBC203B2B2A7
:10966000A3F80624EDE7217835F8212092B222F400
:10967000E24222F0700242F4004242F0800225F8F9
:109680002120B5F8502015FA82F2217802EBC102B0
:109690009BB2A2F80234228961692846FFF7CBFD0C
:1096A00065E64EB9B3F806246FEA42426FEA5242C9
:1096B00092B2A3F8062416E0720816F0010F00D04B
:1096C0000132B3F8061489B2920292B20A43A3F8A7
:1096D000062408E0B5F8502015FA82F202EBC30325
:1096E000B2B2A3F80624B3B2628961692846FFF7D3
:1096F000A2FD3CE6B2BBB5F8502015FA82F202EBAF
:10970000C303B3F80224C2F30902A3F802243E2ED5
:109710000FD9710916F01F0F00D10139B3F80224D7
:1097200092B2890289B20A4342F40042A3F80224A9
:1097300021E04EB9B3F802246FEA42426FEA524286
:1097400092B2A3F8022416E0720816F0010F00D0BE
:109750000132B3F8021489B2920292B20A43A3F81A
:10976000022408E0B5F8502015FA82F202EBC30398
:10977000B2B2A3F80224B3B2228961692846FFF786
:109780005AFDF4E500228A611A4679E54AB9B3F830
:1097900006246FEA42426FEA524292B2A3F80624CC
:1097A0008DE5510812F0010F00D00131B3F8062405
:1097B00092B2890289B21143A3F806147FE5CB78EF
:1097C000022B4DD0012B40F02F81896923699942EA
:1097D00040F2E680C91AA161F2B9B5F8502015FA35
:1097E00082F2217802EBC102B2F80214C1F309013E
:1097F000A2F802143E2B40F2D780580913F01F0F35
:1098000000D10138B2F8021489B2800280B201435B
:1098100041F40041A2F802146278002A40F0F68078
:10982000B5F8502015FA82F2217802EBC102B2F8A5
:109830000614C1F30901A2F806143E2B40F2CD80B4
:10984000590913F01F0F00D10139B2F806349BB249
:10985000890289B20B4343F40043A2F806342EE593
:10986000F2B9B0F8503010FA83F30A7803EBC20370
:10987000B3F80224C2F30902A3F802240A693E2ABB
:1098800031D9510912F01F0F00D10139B3F8022468
:1098900092B2890289B20A4342F40042A3F8022438
:1098A0006378002B51D1B5F8503015FA83F3227844
:1098B00003EBC203B3F80624C2F30902A3F806249B
:1098C00022693E2A28D9510912F01F0F00D101390F
:1098D000B3F8062492B2890289B20A4342F40042E4
:1098E000A3F8062433E04AB9B3F802246FEA4242EF
:1098F0006FEA524292B2A3F80224D1E7510812F063
:10990000010F00D00131B3F8022490B28A0292B262
:109910000243A3F80224C3E74AB9B3F806246FEA66
:1099200042426FEA524292B2A3F806240FE0510875
:1099300012F0010F00D00131B3F8062490B28A0270
:1099400092B20243A3F8062401E0012B1DD0E36983
:10995000002B3FF4B4AC227835F8221044F24003D7
:1099600003EA01008B4302D000287FF4A8AC35F84D
:1099700022309BB223F4E04323F0700343F400430E
:1099800043F0C00325F8223099E4B5F8503015FAB9
:1099900083F3227803EBC203228AA3F80624D6E7D6
:1099A0000023A3610B4617E74BB9B2F802146FEA24
:1099B00041416FEA514189B2A2F802142CE75908DB
:1099C00013F0010F00D00131B2F8020480B2890215
:1099D00089B20143A2F802141EE74BB9B2F806346B
:1099E0006FEA43436FEA53439BB2A2F8063466E43E
:1099F000590813F0010F00D00131B2F8063498B2C3
:109A00008B029BB20343A2F8063458E4012A7FF488
:109A100056ACB5F8502015FA82F2217802EBC1025B
:109A20009BB2A2F806344AE4012059E410B45C0861
:109A3000104400F5806007E030F8022B0A70C2F392
:109A400007224A700231013C002CF5D113F0010FBE
:109A500001D003880B705DF8044B704710B5D0F847
:109A6000BC4284B1D0F8C0327BB194F80002FF2828
:109A70000DD09B6894F8012221469847FF2384F873
:109A80000032002010BD0320FCE70020FAE7002090
:109A9000F8E700004323038000487047940000204B
:109AA0004323038000487047D800002043230380ED
:109AB00000487047280100200A23038000487047AF
:109AC0001C01002038B5D0F8BC5275B1044602F034
:109AD00074FFC5F80C02D4F8C032DB6805F50371D9
:109AE000D5F804029847002038BD0320FCE710B5E4
:109AF000D0F8C442D0F8BC3253B301EB810200EB82
:109B0000820292694AB101EB810C04EBCC04246A15
:109B1000B2FBF4FC04FB1C2272B10022C3F8142235
:109B2000D0F8C0221469ACB10A4603F50471D3F829
:109B30000802A047002010BD01EB810300EB830366
:109B400000249C612346224602F027FF2046F2E7CC
:109B50000320F0E70020EEE7F0B583B0D0F8BC6258
:109B600000238DF80730ADF80430002E6CD0074686
:109B70000C460B7813F060052AD0202D5ED1CA88E0
:109B8000F2B113F0800F0FD0D0F8C0329B6831468D
:109B900060789847E288072A28BF0722314638466E
:109BA00000F0EEFD00254CE04B7886F800328B7912
:109BB00086F80132CA88314600F0F7FD002540E002
:109BC000D0F8C0329B68002248789847002538E0DA
:109BD0004E780B2E2ED8DFE806F006342D2D2D2DD5
:109BE0002D2D2D2D152490F89C32DBB2032B03D0A4
:109BF00000F08CFA032524E0022201A900F0C0FD48
:109C000035461EE090F89C32DBB2032B03D000F007
:109C10007DFA032515E001220DF1070100F0B0FDEA
:109C20000FE090F89C32DBB2032B0AD000F06EFA02
:109C3000032506E000F06AFA032502E000F066FA68
:109C40000325284603B0F0BD0325FAE738B50446DE
:109C5000812102F06CFE002525870121204602F0BB
:109C600066FEA4F878518221204602F060FEA4F836
:109C70004C50A4F84E50D4F8BC324BB1D4F8C0329A
:109C80005B689847D4F8BC0202F0C6FEC4F8BC5228
:109C9000002038BD70B504464FF4077002F0B8FEDE
:109CA000B8B30646C4F8BC02237CBBBB4FF40073B8
:109CB00002228121204602F02FFE012525874FF444
:109CC000007302222946204602F026FEA4F87851AD
:109CD0001023A4F84E30082303228221204602F0EC
:109CE0001BFE0123A4F84C30D4F8C0321B689847FF
:109CF0000023C6F81432C6F81832257C15BB4FF481
:109D00000073D6F804220121204602F04EFE2846B8
:109D100070BD0023C4F8BC320225F8E740230222BC
:109D20008121204602F0F8FD0125258740230222EB
:109D30002946204602F0F0FDA4F878511023A4F83B
:109D40004E30C8E74023D6F804220121204602F015
:109D50002CFE0025DBE719B1C0F8C01200207047C7
:109D600003207047D0F8BC322BB1C3F80812C3F8F7
:109D700010220020704703207047D0F8BC321BB17E
:109D8000C3F804120020704703207047D0F8BC22AB
:109D9000A2B108B5D2F814320BB1012008BD0123DD
:109DA000C2F81432D2F81032C362D2F81032D2F8AC
:109DB0000822812102F0F1FD0020EFE70320704727
:109DC00010B5D0F8BC2292B1047C44B94FF40073B2
:109DD000D2F80422012102F0E8FD204610BD402304
:109DE000D2F80422012102F0E0FD0024F5E703246B
:109DF000F3E798B108B503460020C3F8B802C3F8EA
:109E0000C002C3F8CC0209B1C3F8B412012183F82F
:109E10009C121A70184602F033FD08BD03207047EB
:109E200010B582B00023ADF8063061B10446C0F829
:109E3000B812CB6A4BB10DF106009847C4F8CC02BA
:109E4000002002B010BD0320FBE70020F9E708B5B1
:109E500002F05AFD08BD08B5D0F8B83213B11B683E
:109E6000984708BD0320FCE708B5D0F8B8320BB11D
:109E70005B689847002008BD38B5044600F2AA2563
:109E8000284600F02FF90123C4F89432B4F8B03218
:109E9000C4F8983294F8AA1201F01F03012B0DD0D8
:109EA000022B10D02BB101F08001204602F047FDBB
:109EB00003E02946204600F0E4FA38BD2946204652
:109EC00000F017FBF9E72946204600F046FBF4E7CF
:109ED00038B504460D4641BB1346D0F89422032AF8
:109EE00001D0084638BDD0F85C11D0F8602191420D
:109EF00009D890F89C32DBB2032B0FD0204600F03B
:109F00006BFC2846EEE7891AC0F85C118A4228BF2C
:109F10000A46194600F058FC2846E3E7D0F8B83264
:109F20001B69002BEAD09847E8E790F89C32DBB237
:109F3000032B01D00020D5E7D0F8B8329B690BB1D4
:109F40009847CFE70020CDE738B504460D460029F5
:109F50004AD11346D0F89422022A05D094F8A032B0
:109F6000012B3CD0284638BDC269016A8A420ED80E
:109F70008A4218D094F89C32DBB2032B27D0802180
:109F8000204602F0DCFC204600F031FCE6E7521AE5
:109F9000C261194600F001FC00231A46194620460A
:109FA00002F003FDDAE783699942E3D8D0F89822FA
:109FB0009342DFD20022114600F0EFFB0021C4F8EB
:109FC00098120B460A46204602F0EFFCC6E7D4F88A
:109FD000B832DB68002BD2D020469847CFE7002369
:109FE00084F8A0322846BEE790F89C32DBB2032BFF
:109FF00001D00020B7E7D0F8B8325B690BB19847C1
:10A00000B1E70020AFE7012380F89C320023C0F8BD
:10A0100094324360C0F8A432D0F8B832F3B170B5CE
:10A020000446D0F8BC221AB15B680BB100219847F6
:10A03000402300221146204602F06EFC0126A4F8BF
:10A0400064614025C4F860512B46002280212046DF
:10A0500002F062FCA6842562002070BD03207047D8
:10A0600001740020704790F89C32DBB280F89D327A
:10A07000042380F89C320020704790F89C32DBB2B9
:10A08000042B01D00020704790F89D32DBB280F89D
:10A090009C32F7E7D0F8B82262B108B590F89C324C
:10A0A000DBB2032B01D0002008BDD36923B1984750
:10A0B0000020F9E7032070470020F5E70346002061
:10A0C00002E00130C0B201331A78002AF9D170479A
:10A0D00008B54B88012B00D008BDC0F8A43200F0B1
:10A0E0007BFBF9E70B7803704B7843708B78CA7869
:10A0F00043EA022343800B794A7943EA02238380AF
:10A100008B79CA7943EA0223C380704710B50446AD
:10A11000802102F014FC0021204602F010FC10BD4A
:10A1200030B583B004460D460023ADF806304A88AA
:10A13000130A013B0E2B00F2BC80DFE803F0153060
:10A1400044BABA9EABBABABABABABABA0800D0F828
:10A15000B432DB6923B10DF10601007C98470AE0B7
:10A160002946FFF7D3FF18E0D0F8B4321B680DF191
:10A170000601007C9847EA88002A00F0A380BDF819
:10A180000630002B00F099809A4228BF1A46ADF89D
:10A1900006200146204600F0F3FA03B030BD037CF0
:10A1A00043B9D0F8B8329B6A0DF1060098470223F4
:10A1B0004370E0E7D0F8B832DB6A0DF1060098474B
:10A1C00002234370D7E7D2B2052A52D8DFE802F063
:10A1D00003101D2A3744D0F8B4325B6823B10DF167
:10A1E0000601007C9847C6E72946FFF78FFFD4E7B2
:10A1F000D0F8B4329B6823B10DF10601007C98477A
:10A20000B9E72946FFF782FFC7E7D0F8B432DB6829
:10A2100023B10DF10601007C9847ACE72946FFF712
:10A2200075FFBAE7D0F8B4321B6923B10DF106010E
:10A23000007C98479FE72946FFF768FFADE7D0F815
:10A24000B4325B6923B10DF10601007C984792E7B7
:10A250002946FFF75BFFA0E7D0F8B4329B6923B132
:10A260000DF10601007C984785E72946FFF74EFF70
:10A2700093E72946FFF74AFF8FE7037C33B9D0F80D
:10A28000B8325B6B0DF10600984774E72946FFF77B
:10A290003DFF82E7037C43B9D0F8B8321B6B0DF168
:10A2A000060098470723437065E72946FFF72EFF0E
:10A2B00073E72946FFF72AFF6FE729462046FFF795
:10A2C00025FF6AE7204600F087FA66E738B50446BE
:10A2D0008B88FBB9CB88EBB94B887F2B1AD803F05E
:10A2E0007F0590F89C32DBB2032B0CD080F89E5295
:10A2F000294602F04AFB204600F06EFA35B10223EF
:10A3000084F89C3209E0FFF701FF06E0012384F89E
:10A310009C3202E02046FFF7F9FE38BD70B50446D6
:10A320000E468D782E4B1D70012D10D890F89C3262
:10A33000DBB2022B0FD0032B23D0FFF7E7FE284B15
:10A3400019782046FFF790FD0325284670BDFFF7DA
:10A35000DDFE0325F9E78DB145602946FFF77BFD5A
:10A36000054620B131462046FFF7D0FEEDE72046F6
:10A3700000F032FA032384F89C32E6E700F02CFA6E
:10A38000E3E7CDB141688D4225D0C9B2FFF76CFD3E
:10A39000134B197861602046FFF75DFD0546B0B1AB
:10A3A00031462046FFF7B2FE21792046FFF75CFDDB
:10A3B000022384F89C32C8E7022380F89C3245606F
:10A3C0002946FFF751FD204600F006FABDE720467A
:10A3D00000F002FAB9E700F0FFF90025B5E700BF89
:10A3E000C423002008B5CB88012B0BD190F89C32F8
:10A3F000DBB2022B09D9032B09D10122011D00F088
:10A40000BFF901E0FFF782FE08BD5BB213B9FFF7A9
:10A410007DFEF9E70146002341F8083F012200F0E4
:10A42000AFF9F1E708B590F89C32013B022B12D846
:10A43000CB88022B0CD10123C360D0F8A4320BB11E
:10A440000323C360022200F10C0100F099F908BD5A
:10A45000FFF75CFEFBE7FFF759FEF8E708B590F859
:10A460009C32013B022B09D84B88012B00D008BD40
:10A470000023C0F8A43200F0AFF9F8E7FFF746FE7A
:10A48000F5E738B50C7804F06004202C06D0402C99
:10A4900004D054B1FFF73AFE002404E0D0F8B832FB
:10A4A0009B6898470446204638BD4D78092D1DD835
:10A4B000DFE805F012191C161C08051C0F0BFFF72E
:10A4C0002FFEF0E7FFF702FFEDE7FFF727FF044657
:10A4D000E9E7FFF787FFE6E7FFF7A4FF2C46E2E78F
:10A4E000FFF7F6FDDFE7FFF7B9FFDCE7FFF70EFE4A
:10A4F000D9E770B505460C460B7803F06003202BB6
:10A5000007D0402B05D023B1FFF700FE00263046D0
:10A5100070BD95F89C32013B022B18D82379012B92
:10A520000FD8D5F8B8329B6821462846984706468A
:10A53000E388002BEBD10028E9D1284600F04CF944
:10A54000E5E721462846FFF7E1FD0026DFE7214643
:10A550002846FFF7DBFD0026D9E7F8B506460D468D
:10A560008B880C7804F06004202C08D0D9B2402CE1
:10A5700005D06CB12946FFF7C9FD002406E0D6F8E6
:10A58000B8329B6829463046984704462046F8BDB5
:10A590006F78012F2FD0032F05D0002F59D02946D7
:10A5A000FFF7B4FDF2E790F89C32DBB2022B05D046
:10A5B000032B12D02946FFF7A9FDE7E709B180294F
:10A5C00004D129463046FFF7A1FDDFE702F0B7F9D5
:10A5D0008021304602F0B3F9D8E76B8823B919B16E
:10A5E000802901D0EB881BB1304600F0F5F8CDE7AB
:10A5F00002F0A5F9F8E790F89C32DBB2022B05D007
:10A60000032B12D02946FFF781FDBFE709B180294E
:10A6100004D129463046FFF779FDB7E702F08FF9FC
:10A620008021304602F08BF9B0E76B88002BADD16A
:10A6300011F07F0F0AD1304600F0CEF8D6F8B832CC
:10A640009B6829463046984704469FE702F07FF909
:10A65000F1E790F89C22D2B2022A06D0032A29D030
:10A660002946FFF753FD3C4690E709B1802913D1F5
:10A6700013F0800F15D101F07F0101EB81018900FA
:10A6800001F5A8713144043100230B6002223046E9
:10A6900000F076F83C4679E72946FFF737FD3C465F
:10A6A00074E701F07F0101EB810189001031314431
:10A6B0000431E9E75BB2002B1FDB01F00F0202EB74
:10A6C000820200EB8202B2F8642122B3002B27DB66
:10A6D00001F07F0303EB83039C0004F5A87434446A
:10A6E000043409B1802924D10023236002222146A9
:10A6F000304600F045F83C4648E701F00F0202EB17
:10A70000820200EB8202928C002ADFD12946FFF7F9
:10A71000FDFC3C463AE72946FFF7F8FC3C4635E7A6
:10A7200001F07F0303EB83039C00103434440434B2
:10A73000D7E7304602F013F910B101232360D5E7C3
:10A7400000232360D2E7D0B170B50D46164604460B
:10A75000FFF7B4FC431C5B009BB233802B700323D8
:10A760006B70022307E0EA5401345A1CD2B2002174
:10A77000A9540233DBB22278002AF4D170BD7047AD
:10A7800008B513460222C0F894228361C3610A46C9
:10A79000002102F002F9002008BD08B513460A4660
:10A7A000002102F0FAF8002008BD08B51346032284
:10A7B000C0F89422C0F85831C0F85C310A46002134
:10A7C00002F0F3F8002008BD08B513460A46002140
:10A7D00002F0EBF8002008BD08B50422C0F894226E
:10A7E00000231A46194602F0D8F8002008BD08B523
:10A7F0000522C0F8942200231A46194602F0D5F823
:10A80000002008BD08B54FF0E0231B6901F012FCE1
:10A81000012800D108BD00F0D5F9FBE7EFF305836F
:10A820002BB9064B186828B901221A6070476FF0DF
:10A83000050070474FF0FF30704700BF502C0020DC
:10A84000EFF3058373B90A4B1B68012B0DD110B5CB
:10A850000024084BDC77064B02221A6001F03AF91B
:10A86000204610BD6FF0050070474FF0FF30704775
:10A87000502C002000ED00E0F0B587B000240594D6
:10A88000EFF305847CBB70B32AB31568936903B9F1
:10A8900018235C1E372C4AD8546814F0010F48D195
:10A8A000566976B14FEA960C946834B1D768B7F51B
:10A8B000916F02D3176907B1C6B92CB14FF0FF34BD
:10A8C0000EE04FF4807CEFE7D4688CB9146994B142
:10A8D0004FF0FF3404E01546002418234FF4807C29
:10A8E000012C0AD0ACB1059807B0F0BD0124F7E700
:10A8F0004FF0FF34F4E70024F2E714699268029203
:10A90000019400930B466246294601F071F80590C8
:10A91000E9E705AA019200930B461FFA8CF229463B
:10A9200001F0A3F80128DED000230593DBE7002027
:10A93000DAE70020D8E708B5EFF3058333B908B9A3
:10A94000002008BD01F032FA0020FAE76FF00500A0
:10A95000F7E70000034B0360034B0B604FF4807379
:10A9600013607047C8270020C8230020034B0360F2
:10A97000034B0B604FF40073136070475834002092
:10A98000542C002000F1080343604FF0FF32826036
:10A99000C3600361002303607047002303617047B5
:10A9A00043684B609A688A605160996008610368E7
:10A9B00001330360704730B40D68B5F1FF3F11D02B
:10A9C00000F108031C465B681A68AA42FAD963685A
:10A9D0004B6099608C6061600861036801330360BB
:10A9E00030BC70470469F2E70369416882688A6095
:10A9F000416851605A68824206D0002202611A689A
:10AA0000013A1A601868704782685A60F5E70000DA
:10AA100082B0002301930D4B1B68B3F1FF3F08D0B8
:10AA20004FF0500383F31188BFF36F8FBFF34F8F45
:10AA3000FEE74FF0500383F31188BFF36F8FBFF32E
:10AA40004F8F019B002BFCD002B070476C0100209F
:10AA500008480068006880F308884FF0000080F321
:10AA6000148862B661B6BFF34F8FBFF36F8F00DFFC
:10AA700000BF000008ED00E0DFF80C00016841F4C1
:10AA8000700101607047000088ED00E04FF08073B6
:10AA900040F8043C21F0010140F8081C054B40F847
:10AAA0000C3C40F8202C6FF0020340F8243C443862
:10AAB000704700BF11AA000800000000000000005D
:10AAC000074B19680868B0E8F04F80F30988BFF3B6
:10AAD0006F8F4FF0000080F311887047AFF3008054
:10AAE000486100204FF0500383F31188BFF36F8F4C
:10AAF000BFF34F8F0B4A136801331360012B00D053
:10AB000070474FF0E023D3F8043D13F0FF0FF7D068
:10AB10004FF0500383F31188BFF36F8FBFF34F8F54
:10AB2000FEE700BF6C010020094B1B6843B94FF0E2
:10AB3000500383F31188BFF36F8FBFF34F8FFEE78E
:10AB4000013B034A13600BB983F31188704700BFC0
:10AB50006C01002000000000000000000000000068
:10AB6000EFF30980BFF36F8F154B1A681EF0100FBB
:10AB700008BF20ED108A20E9F04F10602DE9090090
:10AB80004FF0500080F31188BFF34F8FBFF36F8FEA
:10AB900001F032F94FF0000080F3118809BC196808
:10ABA0000868B0E8F04F1EF0100F08BFB0EC108A34
:10ABB00080F30988BFF36F8F704700BFAFF3008049
:10ABC0004861002008B54FF0500383F31188BFF3AC
:10ABD0006F8FBFF34F8F00F0E1FF28B14FF0E023FC
:10ABE0004FF08052C3F8042D002383F3118808BD71
:10ABF0004FF0E022002313619361054B1B68054968
:10AC0000A1FB03139B09013B5361072313617047A9
:10AC100030000020D34D62104FF0E023D3F8002D18
:10AC20003D4B9A421CD04FF0E023D3F8002D3B4B14
:10AC30009A421ED030B583B0394B1A78D2B2019205
:10AC4000FF221A701B78DBB28DF803309DF80330B9
:10AC500003F05003334A1370334B07221A601BE092
:10AC60004FF0500383F31188BFF36F8FBFF34F8F03
:10AC7000FEE74FF0500383F31188BFF36F8FBFF3EC
:10AC80004F8FFEE7284A1368013B13609DF803309D
:10AC90005B00DBB28DF803309DF8033013F0800FBA
:10ACA000F0D1214B1B68032B08D04FF0500383F3E6
:10ACB0001188BFF36F8FBFF34F8FFEE71B021A4A55
:10ACC000136003F4E0631360019BDBB2144A13705A
:10ACD0004FF0E024D4F8203D43F47003C4F8203D45
:10ACE000D4F8203D43F07043C4F8203DFFF780FFC7
:10ACF00000250E4B1D60FFF7BFFED4F8343F43F034
:10AD00004043C4F8343FFFF7A3FE01F075F8FFF7A6
:10AD10007FFE284603B030BD71C20F4170C20F41A3
:10AD200000E400E0E0380020E43800206C0100205E
:10AD3000EFF305830F2B0FD9114A9B5CDBB2114A4D
:10AD400012789A4208D94FF0500383F31188BFF369
:10AD50006F8FBFF34F8FFEE74FF0E023D3F80C3D2A
:10AD600003F4E063084A1268934208D94FF0500395
:10AD700083F31188BFF36F8FBFF34F8FFEE77047E8
:10AD8000F0E300E0E0380020E4380020124A12F03E
:10AD9000070F1ED0D11D21F00701C1F52053134428
:10ADA0000A460E480260002141601344083B23F02C
:10ADB00007030B48036059601960991A51601360CA
:10ADC000084B1960084B1960084B4FF000421A609D
:10ADD00070474FF42053E4E7EC3800200061002076
:10ADE000E8380020F4600020F0600020EC600020D3
:10ADF000164B1A461B688342FBD3516802EB010CC9
:10AE0000844509D0416800EB010C634509D003601B
:10AE1000904219D01060704740680144516010465C
:10AE2000F0E710B40A4C2468A3420BD05B681944C5
:10AE3000416013681B680360904200D010605DF8A9
:10AE4000044B70470460F7E7704700BF00610020C3
:10AE5000E838002070B5054600F092FE364B1B68BE
:10AE6000A3B1364B1B681D424ED135B1083515F0E4
:10AE7000070F02D025F007050835002D46D0304BCE
:10AE80001B68AB4251D32F4A146804E0FFF77EFFE2
:10AE9000E7E722461C466368AB4202D22368002BD8
:10AEA000F7D1254B1B68A34241D0166808362368AA
:10AEB000136063685B1B102B10D9601910F0070F2B
:10AEC00008D04FF0500383F31188BFF36F8FBFF3A7
:10AED0004F8FFEE743606560FFF78AFF626818499D
:10AEE0000B689B1A0B60184909688B4201D21649FE
:10AEF0000B60124B1B681343636000232360134AEB
:10AF000013680133136002E0002600E0002600F021
:10AF1000D1FE16F0070F0CD04FF0500383F31188C9
:10AF2000BFF36F8FBFF34F8FFEE70026EFE70026DA
:10AF3000EDE7304670BD00BFE8380020EC6000202F
:10AF4000F060002000610020F4600020F860002024
:10AF5000002834D038B50446A0F1080550F8043C68
:10AF6000174A1268134208D14FF0500383F3118837
:10AF7000BFF36F8FBFF34F8FFEE750F8081C41B14E
:10AF80004FF0500383F31188BFF36F8FBFF34F8FE0
:10AF9000FEE723EA020340F8043C00F0F1FD54F818
:10AFA000041C084A13680B4413602846FFF720FF6F
:10AFB000054A13680133136000F07CFE38BD70470A
:10AFC000EC600020F0600020FC60002010B504461A
:10AFD000FFF788FDA26BE36B9A4204D00024FFF7D1
:10AFE000A3FD204610BD0124F9E710B50446FFF784
:10AFF00079FDA36B23B90124FFF796FD204610BD10
:10B000000024F9E770B504461546866B026C5AB900
:10B0100003681BB100200136A66370BD806801F093
:10B0200019F80023A360F6E76DB94068F5F71CFE38
:10B03000226C636813446360A268934219D3236847
:10B0400063602846E7E7C068F5F70EFE226C5142C0
:10B05000E3689B1AE3602268934202D2A3680B4420
:10B06000E360022D01D00020D5E726B1013E00208B
:10B07000D1E72846CFE70020CDE70346026C6AB14E
:10B0800010B50846D9681144D9609C68A14201D323
:10B090001968D960D968F5F7E7FD10BD704738B574
:10B0A0000546FFF71FFD95F8454064B201E0013CFD
:10B0B00064B2002C0ADD6B6A43B105F1240000F094
:10B0C0001FFF0028F3D000F0AFFFF0E7FF2385F863
:10B0D0004530FFF729FDFFF705FD95F8444064B2C0
:10B0E00001E0013C64B2002C0ADD2B6943B105F19B
:10B0F000100000F005FF0028F3D000F095FFF0E706
:10B10000FF2385F84430FFF70FFD38BD38B5E0B1B7
:10B110000D460446FFF7E6FC2368E26B216C01FB59
:10B120000230A0600020A0636360013A02FB01339B
:10B13000E360FF2384F8443084F84530FDB9236987
:10B1400063B9FFF7F1FC012038BD4FF0500383F3E2
:10B150001188BFF36F8FBFF34F8FFEE704F110002C
:10B1600000F0CEFE0028ECD04FF0E0234FF08052EC
:10B17000C3F8042DBFF34F8FBFF36F8FE1E704F1E6
:10B180001000FFF7FFFB04F12400FFF7FBFBD8E7FB
:10B1900038B51D46049C0B4649B92460E06323641E
:10B1A00001212046FFF7B2FF84F84C5038BD2260E1
:10B1B000F4E740B94FF0500383F31188BFF36F8F6A
:10B1C000BFF34F8FFEE710B584B01C46844653B1E1
:10B1D00092B189B94FF0500383F31188BFF36F8F99
:10B1E000BFF34F8FFEE74FF0500383F31188BFF397
:10B1F0006F8FBFF34F8FFEE76AB150230393039B1A
:10B20000502B13D04FF0500383F31188BFF36F8F8F
:10B21000BFF34F8FFEE70029EFD04FF0500383F3C9
:10B220001188BFF36F8FBFF34F8FFEE7039B01239E
:10B2300084F8463000949DF818306046FFF7A8FF68
:10B24000204604B010BDF0B585B0019288B10F461C
:10B250001D460446B1B1022D20D1E36B012B1DD058
:10B260004FF0500383F31188BFF36F8FBFF34F8FFD
:10B27000FEE74FF0500383F31188BFF36F8FBFF3E6
:10B280004F8FFEE7036C002BE5D04FF0500383F3A4
:10B290001188BFF36F8FBFF34F8FFEE700F0CAFE38
:10B2A000064658B9019B002B48D04FF0500383F35A
:10B2B0001188BFF36F8FBFF34F8FFEE700263DE08D
:10B2C0002A4639462046FFF79DFE636A7BB948B19E
:10B2D0004FF0E0234FF08052C3F8042DBFF34F8F9F
:10B2E000BFF36F8FFFF720FC012005B0F0BD04F124
:10B2F000240000F005FE0028F4D04FF0E0234FF0CA
:10B300008052C3F8042DBFF34F8FBFF36F8FE9E76F
:10B31000FFF70AFC0020E8E702A800F037FE01264C
:10B3200019E0002384F8443021E0002384F84530FC
:10B3300023E02046FFF7B3FE00F0BCFCFFF7D2FB92
:10B34000A26BE36B9A42BBD3022DB9D0019B002BB9
:10B35000DED0002EE0D0FFF7E7FB00F011FCFFF796
:10B36000C1FB94F8442052B2B2F1FF3FD9D094F817
:10B37000452052B2B2F1FF3FD7D0FFF7D5FB01A96C
:10B3800002A800F00FFED8B92046FFF71FFE0028E4
:10B39000CFD0019904F1100000F07EFD2046FFF7A8
:10B3A0007EFE00F087FC0028C8D14FF0E0234FF06C
:10B3B0008052C3F8042DBFF34F8FBFF36F8FBDE7EB
:10B3C0002046FFF76CFE00F075FC00208DE72DE9AC
:10B3D000F84390B10F4616461C460546B1B1022C03
:10B3E00020D1EB6B012B1DD04FF0500383F311885C
:10B3F000BFF36F8FBFF34F8FFEE74FF0500383F320
:10B400001188BFF36F8FBFF34F8FFEE7036C002BE4
:10B41000E5D04FF0500383F31188BFF36F8FBFF374
:10B420004F8FFEE7FFF784FCEFF311894FF05003D5
:10B4300083F31188BFF36F8FBFF34F8FAA6BEB6B52
:10B440009A4206D3022C04D0002089F31188BDE86B
:10B45000F88395F845804FFA88F8AB6B2246394659
:10B460002846FFF7CFFDB8F1FF3F06D008F10103F2
:10B470005BB285F845300120E7E76B6A0BB9012024
:10B48000E3E705F1240000F03BFD18B126B10120EF
:10B490003060DAE70120D8E70120D6E7F0B585B0C3
:10B4A000019290B10F460446C1B100F0C3FD0646BB
:10B4B00000BB019B002B5ED04FF0500383F311883B
:10B4C000BFF36F8FBFF34F8FFEE74FF0500383F34F
:10B4D0001188BFF36F8FBFF34F8FFEE7036C002B14
:10B4E000E3D04FF0500383F31188BFF36F8FBFF3A6
:10B4F0004F8FFEE700263EE039462046FFF7BDFDB0
:10B50000013DA563236923B9FFF70EFB012005B0B8
:10B51000F0BD04F1100000F0F3FC0028F4D04FF06F
:10B52000E0234FF08052C3F8042DBFF34F8FBFF3D9
:10B530006F8FE9E7FFF7F8FA0020E8E702A800F0CC
:10B5400025FD012621E0002384F8443029E0002372
:10B5500084F845302BE02046FFF7A1FD00F0AAFB60
:10B5600009E02046FFF79BFD00F0A4FB2046FFF713
:10B570003CFD00283FD1FFF7B5FAA56B002DBBD1EC
:10B58000019B002BD6D0002ED8D0FFF7CDFA00F0CB
:10B59000F7FAFFF7A7FA94F844305BB2B3F1FF3F34
:10B5A000D1D094F845305BB2B3F1FF3FCFD0FFF775
:10B5B000BBFA01A902A800F0F5FC0028D1D1204671
:10B5C000FFF713FD0028C6D0019904F1240000F014
:10B5D00063FC2046FFF763FD00F06CFB0028CAD136
:10B5E0004FF0E0234FF08052C3F8042DBFF34F8F8C
:10B5F000BFF36F8FBFE7002089E700000023072B10
:10B600000CD8074A52F833200AB10133F7E7044A4D
:10B6100042F8331002EBC30358607047704700BF15
:10B620000861002070B504460D461646FFF75AFA29
:10B6300094F844305BB2B3F1FF3F0DD094F845303D
:10B640005BB2B3F1FF3F0BD0FFF76EFAA36B5BB1B8
:10B650002046FFF724FD70BD002384F84430EDE759
:10B66000002384F84530EFE73246294604F12400F0
:10B6700000F02AFCECE70000084B1B681B6823B9AC
:10B68000074B4FF0FF321A607047044B1B68DB68B2
:10B69000DB685A68024B1A60704700BF4C6100209B
:10B6A000F46500202DE9F04780460D46174699467F
:10B6B000089EDDF824A00A9C9200A521206B04F0CE
:10B6C000A5FE236B07F18042013A03EB820727F0C6
:10B6D0000707002D65D04FF0000CBCF10F0F0BD801
:10B6E00015F80C2004EB0C0383F8342015F80C300B
:10B6F00013B10CF1010CF0E7002384F84330372E2E
:10B7000000D93726E662E66400252565201DFFF78F
:10B7100044F904F11800FFF740F92461C6F1380636
:10B72000A6616462C4F8805484F884544FF485623E
:10B73000294604F1580004F069FE04F55173E365ED
:10B7400004F56B73236604F214436366012200233D
:10B75000C4E9402343F20E33A4F808314AF6CD334E
:10B76000A4F80A3141F23423A4F80C314EF26D638F
:10B77000A4F80E314DF6EC63A4F810310523A4F8BB
:10B7800012310B23A4F814314A4641463846FFF7DC
:10B790007DF92060BAF1000F01D0CAF80040BDE881
:10B7A000F087002384F83430A9E7000038B500247E
:10B7B00007E004EB840293000E481844FFF7E2F818
:10B7C0000134372CF5D90C4D2846FFF7DBF80B4C2C
:10B7D0002046FFF7D7F80A48FFF7D4F80948FFF7E3
:10B7E000D1F80948FFF7CEF8084B1D60084B1C60E4
:10B7F00038BD00BF54610020C8650020DC65002012
:10B80000006600202C660020186600204C61002095
:10B810005061002010B50446FFF764F9224A13680E
:10B8200001331360214B1B685BB1214B1B686BB963
:10B830001E4B1B68DA6AE36A9A4207D81B4B1C60EE
:10B8400004E01A4B1C601368012B29D0194A1368B5
:10B85000013313606364E06A174B1B68984201D997
:10B86000154B186000EB8000211D144B03EB80008A
:10B87000FFF796F8FFF758F90D4B1B687BB10B4BA0
:10B880001B68DA6AE36A9A4209D24FF0E0234FF06C
:10B890008052C3F8042DBFF34F8FBFF36F8F10BDDD
:10B8A000FFF784FFD2E700BFB465002048610020A5
:10B8B00014660020C0650020C4650020546100208B
:10B8C00010B50446583004F08DFE94F8853463B109
:10B8D000012B11D0022B0ED04FF0500383F31188AF
:10B8E000BFF36F8FBFF34F8FFEE7206BFFF730FB87
:10B8F0002046FFF72DFB10BD2046FFF729FBFAE796
:10B900000F4B1B68D3B110B5FFF7ECF80D4BDB689C
:10B91000DC68201DFFF768F80B4A1368013B1360D1
:10B92000074A1368013B1360FFF7FEF82046FFF754
:10B93000C7FF034B1B68002BE6D110BD704700BF4B
:10B94000B86500202C660020B465002008B5FFF71C
:10B95000D7FF074B1B68012BF9D94FF0E0234FF0BD
:10B960008052C3F8042DBFF34F8FBFF36F8FEEE704
:10B970005461002070B504460D46174B1E68174BE6
:10B9800018680430FFF730F8B4F1FF3F0DD03444AD
:10B99000124B1B685C60A64210D9114B18680F4B04
:10B9A00019680431FFF707F870BD002DEFD00B4B7D
:10B9B000196804310B48FEF7F3FFF5E70A4B1868E6
:10B9C000064B19680431FEF7F6FF084B1B68A342CB
:10B9D000EAD9064B1C60E7E740660020486100207A
:10B9E00050610020186600204C610020F4650020A2
:10B9F00030B587B00B9C8CB10C9DC5B14FF49165EF
:10BA00000495049DB5F5916F1AD04FF0500383F360
:10BA10001188BFF36F8FBFF34F8FFEE74FF05003D6
:10BA200083F31188BFF36F8FBFF34F8FFEE74FF0A3
:10BA3000500383F31188BFF36F8FBFF34F8FFEE77F
:10BA4000049D0C9D2C63022485F8854400240394F6
:10BA5000029505AC01940A9C0094FFF723FE0C9814
:10BA6000FFF7D8FE059807B030BD2DE9F04385B04B
:10BA70000746884614461E469000FFF7EBF908B3C8
:10BA800081464FF49160FFF7E5F90546B0B1C0F883
:10BA90003090E5B1002385F88534039302950D9B22
:10BAA00001930C9B00933346224641463846FFF7EC
:10BAB000F9FD2846FFF7AEFE012005E04846FFF7F6
:10BAC00047FAE6E74FF0FF3005B0BDE8F0834FF0EE
:10BAD000FF30F9E710B588B000240594069407AA52
:10BAE00006A905A8FEF736FF059B0293069B019366
:10BAF00000942346079A1A491A48FFF779FF1A4B10
:10BB0000186040B100F05AFB012806D0B0F1FF3FA9
:10BB10001DD008B010BD0020F6E74FF0500383F3AE
:10BB20001188BFF36F8FBFF34F8F104B1B685833D3
:10BB30000F4A13600F4B4FF0FF321A600E4B012279
:10BB40001A600E4B00221A60FFF766F8E1E74FF02B
:10BB5000500383F31188BFF36F8FBFF34F8FFEE75E
:10BB6000648501084DB90008F06500204861002097
:10BB7000D8010020F46500201466002040660020F3
:10BB8000024A136801331360704700BFBC65002090
:10BB9000014B1868704700BF40660020F8B53A4B6B
:10BBA0001B68002B69D1394B1D6801351D60C5B973
:10BBB000374B1B681B6843B14FF0500383F3118868
:10BBC000BFF36F8FBFF34F8FFEE7314A1168314BE0
:10BBD000186810601960304A136801331360FFF76A
:10BBE0004BFD2E4B1B68AB423DD900272C4B1B68ED
:10BBF000DB6A03EB83039A002A4B9B58012B00D985
:10BC00000127294B1B68002B3CD001273AE0012774
:10BC10001F4B1B681B6843B31D4B1B68DB68DC684C
:10BC200063689D4226D3261D3046FEF7DDFEA36ADB
:10BC30001BB104F11800FEF7D7FEE36A1B4A126835
:10BC4000934201D9194A136003EB83039A003146EA
:10BC500014481044FEF7A4FEE26A114B1B68DB6A2D
:10BC60009A42D4D2D4E70027D2E70C4B4FF0FF32F0
:10BC70001A60BBE7094A1360B8E70D4A136801333D
:10BC8000136000273846F8BDBC65002040660020E0
:10BC90004C61002050610020F8650020F465002010
:10BCA000486100205461002044660020C4650020E3
:10BCB000FC65002038B5354B1B6843B94FF0500385
:10BCC00083F31188BFF36F8FBFF34F8FFEE7FEF74B
:10BCD00009FF2E4B1A68013A1A601B68002B4FD1DE
:10BCE0002B4B1B680BB900244BE00024294B1B682D
:10BCF0001BB3284BDB68DC6804F11800FEF774FE08
:10BD0000251D2846FEF770FEE06A234B1B6898420B
:10BD100001D9214B186000EB800029461F4B03EB33
:10BD20008000FEF73DFEE26A1D4B1B68DB6A9A420B
:10BD3000DCD31C4B01221A60D8E70CB1FFF79CFC46
:10BD4000194B1C6884B9174B1C68D4B14FF0E02321
:10BD50004FF08052C3F8042DBFF34F8FBFF36F8FA6
:10BD600001240EE0013C07D0FFF718FF0028F9D0AE
:10BD70000C4B01221A60F5E70B4B00221A60E2E738
:10BD80000024FEF7D1FE204638BD00BFBC65002070
:10BD9000B465002000660020C465002054610020C6
:10BDA0004861002044660020FC65002010B5A8B161
:10BDB0000446104B1B6843B14FF0500383F31188C6
:10BDC000BFF36F8FBFF34F8FFEE7FFF7D9FE002160
:10BDD0002046FFF7CFFDFFF76DFF48B94FF0E02396
:10BDE0004FF08052C3F8042DBFF34F8FBFF36F8F16
:10BDF00010BD00BFBC650020214B1B681BB1214B4F
:10BE000001221A6070471F4B00221A601E4B1B68EC
:10BE100003EB83018A001D498A585AB90BB1013BD3
:10BE2000F6E74FF0500383F31188BFF36F8FBFF332
:10BE30004F8FFEE703EB830082000A44506840689E
:10BE4000506003EB830C4FEA8C02083211448842A5
:10BE50000FD003EB830291000C4A0A445268D16868
:10BE60000B4A116008490B6013685833094A136084
:10BE70007047406862469100044A0A445060E8E70F
:10BE8000BC65002044660020C46500205461002089
:10BE900048610020D801002058B110B50C46094A6D
:10BEA00011681831FEF787FD01212046FFF762FD7A
:10BEB00010BD4FF0500383F31188BFF36F8FBFF3B2
:10BEC0004F8FFEE74861002038B570B10D4614462B
:10BED0000A4A11681831FEF763FD0CB14FF0FF35C7
:10BEE00021462846FFF746FD38BD4FF0500383F347
:10BEF0001188BFF36F8FBFF34F8FFEE748610020BB
:10BF000038B5C368DC6824B304F118052846FEF789
:10BF10006BFD184B1B682BBB251D2846FEF764FDE7
:10BF2000E06A154B1B68984201D9134B186000EB6F
:10BF300080002946114B03EB8000FEF731FDE26AD9
:10BF40000F4B1B68DB6A9A4211D901200D4B186018
:10BF500038BD4FF0500383F31188BFF36F8FBFF3E9
:10BF60004F8FFEE729460848FEF71AFDE7E7002055
:10BF7000EEE700BFBC650020C465002054610020CE
:10BF8000486100204466002000660020034B1B68C7
:10BF90000360034B1B684360704700BFF8650020D7
:10BFA00040660020F8B5C8B10C460546F9B1FEF769
:10BFB00099FD1B4B19686B68C81A2268B2F1FF3FE4
:10BFC00026D0184E36682F68B74201D08B4224D94C
:10BFD000824215D80023236001241AE04FF0500359
:10BFE00083F31188BFF36F8FBFF34F8FFEE74FF0DE
:10BFF000500383F31188BFF36F8FBFF34F8FFEE7BA
:10C000005B1A134423602846FFF7C0FF002400E0BA
:10C010000024FEF789FD2046F8BD0124F9E700BFA2
:10C0200040660020F8650020014B01221A6070472D
:10C0300044660020054B1B6833B1054B1B680BB1F0
:10C0400000207047022070470120704714660020CE
:10C05000BC65002000283BD038B504461E4B1B6849
:10C06000834208D04FF0500383F31188BFF36F8FE2
:10C07000BFF34F8FFEE7036D43B94FF0500383F3D7
:10C080001188BFF36F8FBFF34F8FFEE7013B03654E
:10C09000C16AC26C91421DD00BB1002038BD051D94
:10C0A0002846FEF7A1FCE06CE062C0F13803A36112
:10C0B0000A4B1B68984201D9084B186000EB8000BE
:10C0C0002946074B03EB8000FEF76AFC0120E5E7F9
:10C0D000002070470020E1E748610020C46500208F
:10C0E00054610020064B1A6813682BB901230360C2
:10C0F00023B9D368186870470023F8E70020704719
:10C100004866002008B54160006191420CD8D21AFF
:10C1100083699A4201D3012008BD011D094B1868AB
:10C12000FEF749FC0020F7E79A4201D2994206D275
:10C13000011D054B1868FEF73EFC0020ECE70120CE
:10C14000EAE700BF4C6600204866002030B583B0A7
:10C15000FEF7C8FC114B1B681BB1FEF7E5FC03B0F2
:10C1600030BD0F4D2846FEF70DFC0E4C2046FEF765
:10C1700009FC0D4B1D600D4B1C60002300930C4B04
:10C180000C4A10210A20FFF714F8044B186000280D
:10C19000E3D00949FFF732FADFE700BF6C67002000
:10C1A000F066002004670020486600204C660020EE
:10C1B0001C670020506600206C85010810B588B00F
:10C1C000FFF7C4FF124B1B68CBB100240594069403
:10C1D00007AA06A905A8FEF7C9FB059B0293069BC3
:10C1E0000193022300932346079A0A490A48FFF75E
:10C1F000FFFB0A4B186010B1012008B010BD4FF0D2
:10C20000500383F31188BFF36F8FBFF34F8FFEE7A7
:10C210006C6700207485010821C500087067002044
:10C22000B8B19C4603461848006858B300B585B0BD
:10C2300000910192029305291CDCFFF7FBFE022806
:10C2400010D000231A4669460F480068FEF7FBFF2E
:10C2500015E04FF0500383F31188BFF36F8FBFF3E6
:10C260004F8FFEE70023069A694607480068FEF7ED
:10C27000EAFF04E0002362466946FFF7A8F805B02C
:10C280005DF804FB002070476C67002070B582B039
:10C290001B4B1B681A6862B3DB681E68DC68251DCF
:10C2A0002846FEF7A1FB236A2046984794F82830D9
:10C2B00013F0040FECD0A36933449E4207D26360AD
:10C2C000246129460E4B1868FEF775FBE0E7002154
:10C2D00000910B4632462046FFF7A2FF0028D7D137
:10C2E0004FF0500383F31188BFF36F8FBFF34F8F6D
:10C2F000FEE7044A106802490860136002B070BD8E
:10C30000486600204C66002038B50546FFF740FC23
:10C310000446074B1B68834205D800232B60044B5F
:10C320001C60204638BDFFF7B1FF01232B60F6E704
:10C330001867002070B582B006460D461749096897
:10C34000C968CC68201DFEF74FFB94F828C01CF08C
:10C35000040F08D12CF0010C84F828C0236A204671
:10C36000984702B070BDA16933462A463144204641
:10C37000FFF7C8FE0028F1D0002100910B4632469D
:10C380002046FFF74DFF0028E8D14FF0500383F31C
:10C390001188BFF36F8FBFF34F8FFEE74866002011
:10C3A00070B582B006460C46FFF7EAFB01A8FFF71E
:10C3B000ABFF019B33BB05460CB9B04219D224B187
:10C3C000124A12681268DAB901242246711B104B16
:10C3D0001868FFF727F9FFF76DFCA8B94FF0E023C5
:10C3E0004FF08052C3F8042DBFF34F8FBFF36F8F10
:10C3F0000AE0FFF75FFC29463046FFF79BFF03E0AA
:10C400001C46E2E7FFF756FC02B070BD4C66002008
:10C410006C67002010B588B002E0049B002B0FDA97
:10C42000002204A93D4B1868FFF738F8002873D0A4
:10C43000049B002BF1DA07990698059B9847ECE7D7
:10C44000069C636913B1201DFEF7CEFA03A8FFF71F
:10C450005BFF049B092BE3D8DFE803F005050530FB
:10C4600037500505303794F8283043F0010384F83D
:10C470002830059BA169024619442046FFF742FE79
:10C480000028CDD0236A2046984794F8283013F02E
:10C49000040FC5D0A269002100910B460598024403
:10C4A0002046FFF7BDFE0028BAD14FF0500383F3BA
:10C4B0001188BFF36F8FBFF34F8FFEE794F82830DA
:10C4C00023F0010384F82830AAE794F8283043F0D9
:10C4D000010384F828300599A16131B10346024671
:10C4E00001442046FFF70EFE9AE74FF0500383F316
:10C4F0001188BFF36F8FBFF34F8FFEE794F828309A
:10C5000013F0020F04D023F0010384F8283087E7EA
:10C510002046FEF71DFD83E708B010BD6C670020C4
:10C5200000B583B001A8FFF7DDFD0199FFF738FFE3
:10C53000FFF770FFF6E7000008B500220F4910482A
:10C54000FDF757FC70B90F490D48FDF769FC60B95C
:10C550000D490B48FDF7FFFB50B90948FDF777FC83
:10C5600048B908BDF5F796FCEDE7F5F793FCEFE762
:10C57000F5F790FCF1E7F5F78DFCF2E78401002078
:10C58000746700205C0000207001002000207047CC
:10C59000002070470020704770B504460D46074ED6
:10C5A00001463046FDF7E9FB3046FDF709FC2A68F5
:10C5B0002146034803F013FB002070BD7467002080
:10C5C000A40C002010B5064C002206492046FDF7B9
:10C5D000C9FB05492046FDF7D0FB002010BD00BF78
:10C5E0007467002044720020446A0020094BD3F88D
:10C5F000BC32D3F814320BB10120704710B5054C92
:10C600000A4601462046FDF7ADFB2046FDF7BEFB7E
:10C6100010BD00BF7467002012230B8000487047D4
:10C62000A401002004230B8000487047B8010020BB
:10C63000002393421ED200B510E00CF1370C01F834
:10C6400013C000014FEA430C0CF1010C4FF0000E37
:10C6500001F80CE00133DBB2934209D24FEA107CBF
:10C66000B0F1204FE9D20CF1300C01F813C0E8E72B
:10C670005DF804FB7047000038B50B4BD3F890050C
:10C68000D3F89445D3F89835C01800D138BD074D7C
:10C690000822A91CFFF7CCFF042205F11201204655
:10C6A000FFF7C6FFF2E700BF0070FF1FBC010020CC
:10C6B00008B51A230B80FFF7DFFF014808BD00BF54
:10C6C000BC01002008B50A4628B905490548FEF70F
:10C6D0003AF8034808BD02490248FEF734F8F8E783
:10C6E000447A00207C85010810B50A46034C214697
:10C6F0000348FEF728F8204610BD00BF447A00200A
:10C700009085010808B50A4628B905490548FEF78D
:10C710001AF8034808BD02490248FEF714F8F8E782
:10C72000447A0020AC85010808B50A4628B90549B5
:10C730000548FEF708F8034808BD02490248FEF71D
:10C7400002F8F8E7447A0020B8850108032805D8E4
:10C75000DFE800F005040205012070470320704760
:10C7600008B5F5F799FB08BD10B596B004465422FC
:10C77000002101A803F04AFE2268114B9A4201D021
:10C7800016B010BD4FF40053019301A8F9F7FCFD5A
:10C7900090B90C4B9A6D42F400029A659B6D03F4BC
:10C7A00000030093009B002205211420F7F730FCC2
:10C7B0001420F7F765FCE3E7F5F76CFBE9E700BF4A
:10C7C000005C00400010024008B500F52671D0F86A
:10C7D000D802FDF751FB08BD08B501EB810300EB62
:10C7E000C303D3F86421D0F8D802FDF771FB08BD6C
:10C7F00008B501EB810300EBC3035A6AD0F8D802F5
:10C80000FDF7A2FB08BD08B5D0F8D802FDF742FC41
:10C8100008BD10B504464379022B09D10121D4F893
:10C82000D802FDF71DFCD4F8D802FDF7ECFB10BDD3
:10C83000F5F730FBF2E7000010B50446D0F8D80257
:10C84000FDF711FC637A23B1024A136943F0060332
:10C85000136110BD00ED00E010B50446437A23B922
:10C86000D4F8D802FDF709FC10BD044A136923F07F
:10C8700006031361FFF774FFF2E700BF00ED00E06D
:10C8800010B504461E48C0F8D842C4F8C4021D4B77
:10C8900003600823037102234371C37100230372F1
:10C8A00043728372C372F8F736F930BB1823002243
:10C8B0001146D4F8C402F9F767F858230022802102
:10C8C000D4F8C402F9F760F8C02300228121D4F81B
:10C8D000C402F9F759F84FF4887300220121D4F803
:10C8E000C402F9F751F84FF4807300228221D4F882
:10C8F000C402F9F749F8002010BDF5F7CBFAD5E7E7
:10C90000447C0020005C004008B5D0F8C402F8F771
:10C910005DF9FFF71BFF08BD08B594461A4663464C
:10C92000D0F8C402F8F7F4FEFFF710FF08BD08B511
:10C93000D0F8C402F8F72EFFFFF708FF08BD08B5CE
:10C94000D0F8C402F8F7A8FFFFF700FF08BD08B54C
:10C95000D0F8C402F8F7D9FFFFF7F8FE08BDD0F809
:10C96000C43211F0800F08D101F07F0101EB810189
:10C9700003EBC10191F85201704701F07F0101EB17
:10C98000810103EBC101887C704708B5D0F8C4026F
:10C99000F8F7D2FDFFF7DAFE08BD08B5D0F8C402FB
:10C9A000F8F754FFFFF7D2FE08BD08B5D0F8C4026F
:10C9B000F8F726FFFFF7CAFE08BD08B5D0F8C40295
:10C9C000F8F73BFF08BD000010B5044611B101297E
:10C9D0000FD010BD437A23B9D4F8D802FDF74DFB30
:10C9E000F7E7FFF7BDFE094A136923F00603136159
:10C9F000F2E7D0F8D802FDF736FB637A002BE8D0D7
:10CA0000024A136943F006031361E2E700ED00E018
:10CA100000487047207F00207047000008B50023C1
:10CA2000044A1360044A1360044A137002F04CFD78
:10CA300008BD00BF488100204481002040810020C3
:10CA400008B501F0B1F9034B1B7803B108BD02F042
:10CA50003BFDFBE7408100206E4A13680133136001
:10CA6000B3F5FA7FC0F2D580134600221A606A4AF5
:10CA7000136801331360642B13DC684BD3ED007A29
:10CA80009FED677A77EE877AB7EE007AF4EEC77A91
:10CA9000F1EE10FA01DD77EEC77A604BC3ED007A54
:10CAA000704710B582B041F2EC32934242D85D4BF0
:10CAB000D3ED077A5C4B93ED027A67EE877A9FEDB0
:10CAC0005B7A67EE877AFDEEE77A17EE903A1CB252
:10CAD000524B93ED000A20EE070A0BF0DBFBFDEE54
:10CAE000C07ACDED017ABDF90400BDF8043041F201
:10CAF0008732934200D900204D4B1A6822F810402B
:10CB00001B6833F9101002F00BFA444BD3ED007A96
:10CB10009FED437A77EE877AB7EE007AF4EEC77A24
:10CB2000F1EE10FA01DD77EEC77A3C4BC3ED007AE7
:10CB300002B010BD41F25042934214D8374BD3EDAE
:10CB4000007A9FED377A77EEC77AF5EEC07AF1EE8C
:10CB500010FA03D4314BC3ED007AE9E7B7EE007A5F
:10CB600077EE877AF6E742F2D872934246D82D4B99
:10CB7000D3ED077A2C4B93ED027A67EE877A9FED1F
:10CB80002B7A67EE877AFDEEE77A17EE903A1CB2C1
:10CB9000224B93ED000A20EE070A0BF07BFBFDEE23
:10CBA000C07ACDED017ABDF90400BDF8043041F240
:10CBB0008732934200D900201D4B1A6832F9103099
:10CBC000234403EBD3735B1022F81030214602F0AC
:10CBD000A7F9124BD3ED007A9FED117A77EEC77A61
:10CBE000F5EEC07AF1EE10FA03D40C4BC3ED007AE7
:10CBF0009EE7B7EE007A77EE877AF6E7002141F2FA
:10CC0000883002F08DF901200A4B187001F038FCD1
:10CC10008EE7704744810020488100207881002001
:10CC200017B75139FC810020C082002000409C458C
:10CC3000548500204081002010B50F4B186830B19A
:10CC400000240E4B1C7003F029F90B4B1C600C4B9D
:10CC50001B684BB10B4A0123C2F888300021C2F88F
:10CC60008410094A137010BD4FF4705003F00EF990
:10CC7000034B1860EEE700BF548500204081002080
:10CC800060810020C08200205881002008B501F09A
:10CC90008BF8064B00221A70054B186820B103F080
:10CCA000FDF8034B00221A6008BD00BF5881002028
:10CCB00060810020F0B52DED028B83B0BD4B1B6869
:10CCC00007EE903AB8EE678ADFEDBB7A28EE278A46
:10CCD000BA4AD2ED087A92ED040A27EE800AB0EE45
:10CCE000087A20EE070AB6EE007A20EE070AB44A68
:10CCF0001278013A0D2A00F29982DFE812F00E0054
:10CD000018003B00540070009600C300E300FE00D2
:10CD10004C017D01DA0150029F02A64B00221A60ED
:10CD2000A84B00221A60A64B02221A707EE2A64B84
:10CD300093ED030A37EEC00ADFEDA47A20EE270A4E
:10CD4000A04BD3ED007A30EE270A83ED000ADFED29
:10CD5000A00AB0EE601A01F03DF8964B1A6849F649
:10CD60003F439A4240F2628201F0ACFD944B0322B1
:10CD70001A705BE2934BD3ED006A86EEA77A37EE2A
:10CD8000077AF0EE087A87EE270A8C4B83ED040AC7
:10CD900001A802F0CBFE01A9012002F09FF8884B08
:10CDA00004221A7042E2834B00221A60894BDFEDA5
:10CDB000880AC3ED000AC3ED010A804BD3ED097A5E
:10CDC000B1EE670A7F4B83ED000AC3ED017AB0EE46
:10CDD000601A00F0FFFF7A4B05221A7026E203F07A
:10CDE0000103794A92ED037A7A4A02EB8302D2ED8B
:10CDF000007A77EE877AC2ED007ADFED750A714A24
:10CE000002EB8303B0EE601A93ED000A00F0E2FF3C
:10CE1000684B1A6844F61F639A4240F2078201F099
:10CE200051FD674B06221A7000E26A4BD3ED017A7E
:10CE300093ED007A77EEC77A77EEA77A5F4CD4ED60
:10CE4000096A86EEA77A37EE077AF0EE086AC7EE2F
:10CE5000267AC4ED057A94ED0E0A00F059FF01A878
:10CE600094ED050A02F062FE01A9022002F036F8F4
:10CE7000594B00221A604F4B00221A60504B072278
:10CE80001A70D3E128EE000A534B93ED001ADFED40
:10CE9000500AF6EE007A20EE270A00F09BFFF0EE33
:10CEA000007AB4EEE78AF1EE10FAC0F2BF814B4B84
:10CEB000D3E90401F3F7C8FC494B1860404B082242
:10CEC0001A70B3E1444C94ED001ADFED467A31EE6E
:10CED000271A84ED001ADFED3E0A00F07BFF94ED87
:10CEE000007ADFED417AB4EEE77AF1EE10FAC0F2A3
:10CEF0009D81334B09221A7098E1384BD3E9040124
:10CF0000F3F7A2FC07EE900A354B93ED007A77EE2B
:10CF1000C77AFDEEE77A17EE903A002B32DD274B09
:10CF20000122C3F88820F8EEE77A9FED307A67EEA9
:10CF3000877AF5EEC07AF1EE10FA29DDB1EE007ACB
:10CF4000C7EE277A17EE900AF3F7DEFA41EC100BE2
:10CF50000BF050F951EC100BF3F72EFB174CE0607F
:10CF600001A900B202F0DCFD0DF10601B4F9880060
:10CF700002F0D6FD01A9032001F0B0FF104B0A22F8
:10CF80001A7053E10D4B4FF0FF32C3F88820CAE707
:10CF9000F1EE677AD2E700230F4A136000220549B9
:10CFA0000A6013490A80134A1360054B0B221A705A
:10CFB0003CE100BF5481002017B75138C0820020E7
:10CFC0005881002070810020FC81002017B7D138E3
:10CFD000000000004C81002064810020B08100200E
:10CFE0006C810020BEB52439DB0FC94100008038B8
:10CFF000688100205C810020A84BB3F90030A84A6A
:10D00000D268B3EBC21F3ED2A649D1ED007AF4EE4E
:10D01000C87AF1EE10FA28D59FEDA37A77EE877AD9
:10D02000C1ED007AA149D1ED006ADFEDA17A66EE8B
:10D03000A76A07EE902AF8EEE77A9FED9E7A67EEF0
:10D04000877A86EEA77AFDEEC77A17EE902A9A497C
:10D050000968891A4A1402F480420A449749096807
:10D0600041F8232001338D4A1380904B93ED001A31
:10D07000DFED937A31EE271A83ED001ADFED910A86
:10D0800000F0A8FED2E0894AD2ED007A9FED8C7ABA
:10D0900077EEC77AC2ED007A8B4A00211160013B1E
:10D0A0007E4A13807F4B00221A60884B0C221A7034
:10D0B000BCE07A4BB3F90010002945DB794BD3ED86
:10D0C000007AF4EEC87AF1EE10FA2FD59FED767A59
:10D0D00077EE877AC3ED007A744BD3ED006ADFED0B
:10D0E000747A66EEA76A6E4BD3ED037AF8EEE77AB0
:10D0F0009FED707A67EE877A86EEA77AFDEEC77AA3
:10D1000017EE903A6C4A1068C31A5A1402F480421F
:10D110001A446A4B186850F82130134403EBD37358
:10D120005B1040F821304B1E5C4A13805F4B93ED3F
:10D13000001ADFED637A31EE671A83ED001ADFED36
:10D14000610A00F047FE71E001F0BCFB5F4B0D226D
:10D150001A706BE0594A126852F82320101841EBFC
:10D16000E27101334E4AD468E201B3EBC41FF1D33C
:10D1700000242346F3F7A6FB494BC3F88C0001A912
:10D1800002F0C2FC01A9052001F0A8FE4B4BD3F828
:10D1900000C0DCF80030C3F3D11E204630E000238D
:10D1A00018461946DEE703EBC1145CF824309A18E0
:10D1B00045EBE37501363F2E0FDC394BD96800FB98
:10D1C00001F323F07E4333441C46002BEBDBC90103
:10D1D0004F1EBB42E9D95C1AE7E72946002D16DB52
:10D1E000D30943EA416300EB0E027F2A00D9803A5B
:10D1F0002B49D1F88C401B1B243241F822300130DE
:10D200007F2808D86FF03F0600221546D3E77F320B
:10D2100045F10001E4E700232B4A13601F4A138005
:10D22000204B00221A60294B0E221A70264A1368DE
:10D230000133136003B0BDEC028BF0BD174BB3F9A3
:10D2400000309AB27F2A1FD8164AD2ED007AF4EE47
:10D25000C87AF1EE10FAE9D59FED1D7A77EE877A5C
:10D26000C2ED007A243301A90D4A52F8230002F0DE
:10D270004BFC0A4CB4F9000001A90A3001F02EFE63
:10D28000238801332380D1E7104B00221A7001203C
:10D29000034BC3F8840001F0F3F8C7E7688100206E
:10D2A000C08200205C8100200000803C648100205E
:10D2B00000008046DB0FC940B08100206081002063
:10D2C000BEB52439000000005481002058810020A0
:10D2D0006F12833A08B501F0CDF8012805D11F4B34
:10D2E00000200021C3E9040108BD01F0C3F80228B1
:10D2F0002DD11A4BD3ED097AF5EEC07AF1EE10FA82
:10D300001BDDB6EE007AF4EEC77AF1EE10FA11D515
:10D31000134B93F83C30EBB172B6124A0023136002
:10D32000D36093610D4A00200021C2E90401136219
:10D3300062B6D9E74FF0FF30D6E7BEEE007AF4EEE2
:10D34000C77AF1EE10FAE3DC4FF0FF30CCE74FF094
:10D35000FF30C9E74FF0FF30C6E700BFB0810020C3
:10D36000808200207881002008B501F083F802282F
:10D3700014D1124B9B6A032B06D8DFE803F002108E
:10D3800014180F4B5A699A600E4B1A686FF34102DA
:10D390001A600D4B1A686FF341021A6008BD084B02
:10D3A0001A695A60F0E7064BDA681A60ECE7044B3A
:10D3B000DA681A60012283F82420E5E7C0820020A1
:10D3C000788100205082002058820020DFED0B7A07
:10D3D000B4EEE70AF1EE10FA01D4B0EE670A30EECF
:10D3E000000A074B83ED0B0A20EE000AF5EE007AE7
:10D3F00020EE270A83ED0A0A704700BF00409C45D3
:10D400007881002008B5034B93ED150AFFF7DEFF86
:10D4100008BD00BFC082002008B52DED028B154B62
:10D4200093ED088A01F026F8042818D0124B83EDFA
:10D43000008A00225A609A6083ED038A1A615A6159
:10D4400083ED068ADA611A621A63002283F82420C7
:10D450000A4B012283F83C20BDEC028B08BD054B32
:10D4600093ED018AB8EEC88ADFED057A28EE278AA7
:10D47000DCE700BFB081002078810020808200209E
:10D480000000803810B52DED068B82B0BB4B93EDBC
:10D49000088A93ED09AA93ED0A9AD3ED0B9A00F04E
:10D4A000E9FF022800F0A180B54BD3ED006AB34B31
:10D4B000D3ED017AF8EEE77A9FEDB27A67EE877ADC
:10D4C00036EEE77AF6EE007AB4EEE77AF1EE10FA8D
:10D4D00003DDF7EE007A37EE677AFEEE007AB4EEFF
:10D4E000E77AF1EE10FA03D5F7EE007A37EE277AF5
:10D4F000A54BD3ED0B7A67EE877AA34B93ED077AB2
:10D50000F1EE476AF4EEE76AF1EE10FA01D4F0EEBC
:10D51000667AB4EEE77AF1EE10FA01D5F0EE477ACA
:10D52000974B93ED088A984B9C6A002C40F38881B6
:10D5300077EECA8AD3ED0C7A67EEA87A37EE888A3E
:10D540008F4BD3ED0C7A37EE888A002C40F37B8129
:10D550008D4BDB6B6BB38D4B1B7853B3874B5B6889
:10D5600041F2883202FB03F307EE903AF8EE677A55
:10D570009FED840A27EE800A0AF08CFEFDEEC07A49
:10D58000CDED017ABDF90420BDF8043041F28731B8
:10D590008B4200D900227E4B1B6833F9123007EE14
:10D5A000903AF8EEE77ADFED7B6A87EEA67A38EEFE
:10D5B000078A754BD3ED067AD3ED020A67EEA07A9F
:10D5C000B4EEE78AF1EE10FA00F35A810022B1EED0
:10D5D000677AB4EEC87AF1EE10FA00F35581002AAA
:10D5E00000F06581B0EE487A4FE1674B9B6A032BF0
:10D5F0002BD8DFE803F0024295D5634BD3ED137AC5
:10D600009FED657A67EE877AF5EEC07AF1EE10FA53
:10D6100030DD5B4B93ED026A93ED087A36EE476A94
:10D62000F1EE676AF4EEC66AF1EE10FA01D5F0EE9B
:10D63000466AF4EEE67AF1EE10FA01D5F0EE676A8A
:10D6400037EE267A4E4B83ED087A4D4BD3ED077AB1
:10D650004D4B9B6A012B7FF750AF494B93ED067AF8
:10D6600037EE487A484B93ED0B8A28EE078A77EE1F
:10D67000887A42E7F1EE677ACBE7434BD3ED147A31
:10D680009FED457A67EE877AF5EEC07AF1EE10FAF3
:10D6900040DD3B4B93ED016AD3ED076A76EE665AA7
:10D6A000B1EE677AB4EEE57AF1EE10FA01D5B0EE9C
:10D6B000657AF4EEC77AF1EE10FA01D5B0EE677A2A
:10D6C0002F4B76EE876AC3ED076ADFED336AC7EE4C
:10D6D000267A2D4A92ED017A67EE877AC3ED087AB1
:10D6E0002E4B1B6813F0020FAFD136EE4A6AB5EE2F
:10D6F000C06AF1EE10FA10DD234BD3ED117AF4EE8F
:10D70000C67AF1EE10FAA0DD244A136843F0020352
:10D7100013609AE7F1EE677ABBE7B1EE466AEBE792
:10D72000174BD3ED007AD3ED066A37EEE65A93ED48
:10D73000016A93ED077A76EE475AD3ED0A7A67EEDF
:10D74000857A93ED0B6A26EE256A77EE867A0E4A85
:10D7500092ED016A26EE276A83ED086A9FED0E6A54
:10D7600067EE867A77EE277AC3ED077A67EE867AD8
:10D7700076EEA77AC3ED067A67E700BFB081002096
:10D780007881002000008038C08200204081002085
:10D790005485002000409C4517B751385082002026
:10D7A000634B93F8243013BB624B93F83C30ABB31C
:10D7B000614B1B6813F0020F7FF447AF5C4BD3ED56
:10D7C000007A77EEC87AF5EEC07AF1EE10FA22DD33
:10D7D0005A4B93ED127AB4EEE77AF1EE10FA7FF736
:10D7E00034AF554A136843F0020313602DE7504BE2
:10D7F000002283F82420514AD2ED182A92ED172AEC
:10D80000D2ED161A93ED071AD3ED060A93ED000A2E
:10D8100001F0B6FBC8E7F1EE677AD9E701F0BEFC8C
:10D82000444A1168424B99615168D961D2ED027A3C
:10D83000424A92ED017A67EE877AC3ED087A04E7EF
:10D84000DFED3F8A81E637EE4A7A3C4BD3ED0C7A26
:10D8500027EE277A76EECA6A67EEA66AB4EEE68A03
:10D86000F1EE10FA01DDF0EE486AF4EEC76AF1EE6F
:10D8700010FA02DDB0EE478A6AE6B0EE668A67E625
:10D88000B0EE678A0122A2E601222B490B6843F021
:10D8900004030B60002C28DDC2B3254BD3ED0C7ABA
:10D8A000DFED286A67EEA67AC3ED0C7A20E0B5EECC
:10D8B000C08AF1EE10FA12DDF0EE486A9FED227A8E
:10D8C00067EE877AF4EEE67AF1EE10FA0ADD1A4B8B
:10D8D00019686FF382011960B0EE487ADAE7F1EE69
:10D8E000486AEBE7B0EE487AD4E7114B00221A639E
:10D8F000F0EE691AB0EE491AC7EE200A9FED100A41
:10D9000000F014FB02B0BDEC068B10BD0B4BD3ED49
:10D910000D7ADFED0E6A67EEA67A67EEA87A044B01
:10D92000D3ED0C8A78EEA77AC3ED0C7AE0E700BF5E
:10D93000788100208082002050820020C082002058
:10D9400000000000A4707D3F6666663F17B751383F
:10D950000B4B00221A605A609A6000200021C3E934
:10D96000040100229A61DA611A625A629A62DA62EA
:10D970009A63044A1A63044A5A63044ADA63704792
:10D98000B081002000007A450024744A0000C8429B
:10D99000F0B585B01D4B1B680393002502951C4C08
:10D9A0002A4604212046F7F725F81A4E64270097E7
:10D9B000012302AA03A93046F9F72BF8012204211A
:10D9C0002046F7F717F82A4604212046F7F712F801
:10D9D000009701230DF10A020DF10E013046F9F70F
:10D9E00018F8012204212046F7F704F8BDF80820B2
:10D9F000BDF80A309B0843EA8213074A5360537A02
:10DA00000BB1013B5372012005B0F0BDB883010892
:10DA1000000C0048BC200020F081002010B52DED46
:10DA2000028BFFF7B5FF50B1AF4BD3F88830012B15
:10DA300021D0AE4B5B68C3F58043AD4A1360AC4B5D
:10DA40001B68DA12A84C02F1240154F821100132AB
:10DA5000504202F07F0200F07F0058BF4242243261
:10DA600054F82220521AC3F30A0000FB02F201EB21
:10DA7000E2229B1A06E09D4B5A689D4B1A60DEE736
:10DA8000A3F58043B3F5804FFADC01E003F5804352
:10DA9000002BFBDB964A53609168A3EB010C93606B
:10DAA00001E0ACF5804CBCF5005FFADC01E00CF560
:10DAB000804C1CF5005FFADB8D4A106951691CEB44
:10DAC000000041EBEC711061516192ED076ADFEDEE
:10DAD000896A66EE266AD2ED067A76EEA76AC2ED0C
:10DAE000066AFDEEE67A17EE902A9A1A07EE902A59
:10DAF000F8EEE77A03E09FED807A77EEC77A9FED44
:10DB00007F7AF4EEC77AF1EE10FAF4DC03E09FEDD1
:10DB10007A7A77EE877A9FED7A7AF4EEC77AF1EE29
:10DB200010FAF4D4724A92ED0C7ADFED725A27EEB5
:10DB3000257A27EE277A76EE876AC2ED066A06E036
:10DB4000DFED6D6A37EE667A694A82ED067A684AD9
:10DB500092ED067ADFED686AB4EEE67AF1EE10FA3D
:10DB6000EEDC06E0DFED646A37EE267A604A82ED8D
:10DB7000067A5F4A92ED067AB5EEC07AF1EE10FAB7
:10DB8000F0D492ED0D7ADFED5B6A27EE267A67EE30
:10DB9000277A76EE277AC2ED077AF5EEC07AF1EEB3
:10DBA00010FA10DDF0EE676A514A92ED0F7AB4EE8A
:10DBB000E67AF1EE10FA09DCBCF1000F1ADD4C4AEE
:10DBC0000024946308E0F1EE676AEDE7484A002418
:10DBD000D4614FF07C549463434AD2F88C209B1A52
:10DBE00008EE103AB8EEC88A414BD3ED0E7A38EE03
:10DBF000278A2AE0BCF1000F1EDB9FED3E7A67EE1C
:10DC0000877A3B4A92ED0E7A77EE877AC2ED0E7AEA
:10DC1000B7EE007AF4EEC77AF1EE10FA01DD82ED8C
:10DC20000E7A334AD2ED0E7AF5EEC07AF1EE10FAA2
:10DC3000D2D500249463CFE72D4A4FF07E549463ED
:10DC4000CAE7DFED2D7A38EE678ADFED2B7AB4EE86
:10DC5000E78AF1EE10FAF4DC03E0DFED277A38EE24
:10DC6000278AB5EEC08AF1EE10FAF6D4F2F7ECFD91
:10DC700007EE900ADFED236A27EEA66A9FED1E7A73
:10DC800026EE077A77EEC77A67EEA67A77EE867A7F
:10DC9000174BC3ED087AD3ED097A93ED077A27EE97
:10DCA000267A37EEC77A9FED186A27EE067A77EE66
:10DCB000C77AC3ED097A9FED156A28EE068A0A4AEB
:10DCC00092ED037AB8EEC77A28EE078A28EE268A04
:10DCD00083ED0A8A67EE867A67EE277AC3ED0B7AC0
:10DCE000BDEC028B10BD00BFC0820020F08100207F
:10DCF000B081002017B75138000080460000004670
:10DD0000000000C600008038ABAAAA3EDB0FC94065
:10DD1000DFED0B7AB4EEE70AF1EE10FA01D4B0EEC3
:10DD2000670A084AD2ED057A67EE807A064BC3EDA2
:10DD3000107AD2ED047A27EE800A83ED110A70473B
:10DD400000409C45C0820020FC81002008B5084BA3
:10DD500000225A609A609A61DA619A62DA621A6302
:10DD600000221A70034B93ED0E0AFFF7D1FF08BD96
:10DD7000FC810020C08200200A4B1B7803B1704751
:10DD800010B572B6074C0023A361E361A362E3629E
:10DD90002363A364E36400F095FD0123237062B65E
:10DDA00010BD00BFFC810020094B1B7803B97047F0
:10DDB00010B572B6064C0023A361E361A362E3626F
:10DDC000236300F061FD0023237062B610BD00BF25
:10DDD000FC81002010B52DED068B86B0F0EE408A58
:10DDE000F0EE609AB0EE419A4B4C04A905A894ED70
:10DDF000051AD4ED040A94ED030A01F047FC02A9C8
:10DE000003A8B0EE491ADDED040A9DED050A01F004
:10DE100007FEDDED027AC4ED067AD4ED076A36EE30
:10DE2000E77A9FED3E6A27EE067A36EEC77A84EDF2
:10DE3000077ADDED037AC4ED087A94ED097A77EE7E
:10DE4000677A67EE867A77EE677AC4ED097AD4ED61
:10DE5000027A77EEA77AF0EE086A87EEA67AB7EE36
:10DE600000AA8AEE078A68EE288A28EE298A28EE18
:10DE7000A80A68EE087A30EE270A0AF06BFA9FEDDE
:10DE8000287AC7EE007AF4EECA7AF1EE10FA3DD4A1
:10DE9000694601A8B0EE491AF0EE480AB0EE680AE9
:10DEA00001F0E6FD1C4800F13C0200F1380134307D
:10DEB000DDED000A9DED010A01F0F6FB10BB1649ED
:10DEC00091ED0D7ADFED176A27EE267ABCEEC77A60
:10DED00017EE103A9BB2144A1268536391ED0E7A12
:10DEE00027EE267ABCEEC77A17EE103A9BB2936300
:10DEF000D1ED0F7A67EEA67AFCEEE77A17EE903A4C
:10DF00009BB2D36306B0BDEC068B10BD68EEA78A4A
:10DF100028EE278ABCE700BFFC8100200AD7233CFB
:10DF20004188473F00408345D421002010B52DEDA6
:10DF3000088B86B0B0EE409AF0EE609AF0EE41AAFF
:10DF4000B0EE61AA774C04A905A894ED051AD4EDAA
:10DF5000040A94ED030A01F099FB02A903A8B0EEAC
:10DF60006A1ADDED040A9DED050A01F059FDD4EDB4
:10DF7000027A77EEA77AF0EE086A87EEA67AB7EE15
:10DF800000BACBEE076A9DED030A39EE409ADDED4B
:10DF9000020A79EEE09AD4ED127A94ED107A67EEE7
:10DFA000098A77EEA87A67EEA68A94ED138A27EE9F
:10DFB000297A38EE077A27EE268A28EEA80A68EE34
:10DFC000087A30EE270A0AF0C5F99FED577AC7EEB6
:10DFD000007AF4EECB7AF1EE10FA00F19080514B1A
:10DFE000D3ED117A9FED517A67EE877A27EE899A01
:10DFF00093ED127A37EE099A83ED129A67EEA97AB9
:10E00000D3ED139A79EEA77AC3ED137A9FED471AF1
:10E010002AEE011A694601A831EE2A1AF0EE480AE2
:10E02000B0EE680A01F024FD9DED027A3D4C84EDCE
:10E03000067AD4ED076A76EEC77A9FED3D6A67EE01
:10E04000867A76EEE76AC4ED076ADDED037AC4ED01
:10E05000087AD4ED096A76EEE75A65EE865A76EECE
:10E06000E56AC4ED096A67EEA87A27EE087A77EECA
:10E07000877AC4ED0A7A94ED0B7A77EE677A67EEC9
:10E08000867A77EE677AC4ED0B7A94ED027A67EEC2
:10E09000877AC4ED0C7A04F13C0204F1380104F1F2
:10E0A0003400DDED000A9DED010A01F0FDFA206566
:10E0B00008BB94ED0D7ADFED1F6A27EE267ABCEEE1
:10E0C000C77A17EE103A9BB21B4A1268536394ED5D
:10E0D0000E7A27EE267ABCEEC77A17EE103A9BB27C
:10E0E0009363D4ED0F7A67EEA67AFCEEE77A17EE2B
:10E0F000903A9BB2D36306B0BDEC088B10BD68EEBE
:10E10000A78A28EE278A94ED127ADFED0C6A27EEB3
:10E11000267A84ED127AD4ED137A67EEA67AC4EDEE
:10E12000137A73E7FC8100204188473F17B75138C5
:10E130000AD7233C00408345D4210020A4707D3FB2
:10E1400010B5214C2178214802F0BEF92378DBB2CA
:10E15000042B0BD8DFE803F0030B162C320000F081
:10E1600083FC00F08BFC184B01229A7010BD184BF9
:10E170001B881BB1013B164A1380F7E7124B0122A3
:10E180009A70F3E7FFF710FE124B1A686FF3000264
:10E190001A601A686FF341021A601A686FF38202FC
:10E1A0001A601A680C4B1A60074B01229A70DDE75F
:10E1B000FEF76CFD044B01229A70D7E7FEF740FC96
:10E1C000014B01229A70D1E764820020C8850108C2
:10E1D00060820020508200205882002010B5144C2C
:10E1E0002178144802F070F92378DBB2032B17D0A2
:10E1F000042B18D0022B00D010BDFFF70DF90E4BE9
:10E200001A6842F001021A601A6842F002021A60AB
:10E210001A686FF382021A601A68084B1A60EBE7FB
:10E22000FEF70AFDE8E7FFF7F7F8FEF7F7FBE3E78D
:10E2300064820020E085010850820020588200207E
:10E2400008B5764B1A68764B1B689B1A132B22D99C
:10E25000734B1A68714B1A60724B1B78013B032B8E
:10E2600015D8DFE803F002204C8A6F4B1B8843B1BE
:10E270000A2B11D0642B0AD96B4B4FF6FF721A8010
:10E2800005E001224FF400516848F6F7B3FB664AF7
:10E2900013880133138008BD00224FF400516348F6
:10E2A000F6F7A8FBF3E7604B1B8863B10A2B11D08C
:10E2B000142B16D01E2B1BD0642BE8D95A4B4FF6CB
:10E2C000FF721A80E3E701224FF400515748F6F736
:10E2D00091FBDCE700224FF400515448F6F78AFB2B
:10E2E000D5E701224FF400515048F6F783FBCEE703
:10E2F00000224FF400514D48F6F77CFBC7E74A4B2C
:10E300001B8883B10A2B15D0142B1AD01E2B1FD0BB
:10E31000282B24D0322B29D0962BB8D9424B4FF63C
:10E32000FF721A80B3E701224FF400513F48F6F71D
:10E3300061FBACE700224FF400513C48F6F75AFB72
:10E34000A5E701224FF400513848F6F753FB9EE74A
:10E3500000224FF400513548F6F74CFB97E70122B5
:10E360004FF400513148F6F745FB90E700224FF497
:10E3700000512E48F6F73EFB89E72B4B1B88ABB1CB
:10E380000A2B1AD0142B1FD01E2B24D0282B29D0B7
:10E39000322B2ED03C2B33D0462B38D0C82B7FF6D7
:10E3A00076AF214B4FF6FF721A8070E701224FF4CF
:10E3B00000511E48F6F71EFB69E700224FF400519A
:10E3C0001A48F6F717FB62E701224FF4005117488D
:10E3D000F6F710FB5BE700224FF400511348F6F705
:10E3E00009FB54E701224FF400511048F6F702FBF5
:10E3F0004DE700224FF400510C48F6F7FBFA46E7D0
:10E4000001224FF400510948F6F7F4FA3FE70022E1
:10E410004FF400510548F6F7EDFA38E76C8200201A
:10E42000880C0020648200206882002000080048D8
:10E43000064A0023137053709370054A13605360AB
:10E44000044B92E8030083E80300704764820020D5
:10E450005082002058820020044A53689BB25360C7
:10E46000034A53689BB25360704700BF508200203C
:10E4700058820020014B1878704700BF648200204A
:10E4800008B5384B1B7853B103F0FF02012A10D0B6
:10E49000012863D1334B01225A70002005E0012886
:10E4A00047D1304B01225A7000202E4B00229A7027
:10E4B00008BD013803283FD8DFE800F0020B1D2A11
:10E4C000FFF772FC0020284B1880264B01225A705F
:10E4D000EBE7264B5B68002B31D1254BD3F884301A
:10E4E00083B3FFF749FC204BC8221A801D4B022240
:10E4F0005A700020D9E71D4B5B6833BBFFF73CFC2B
:10E50000194BC8221A80174B03225A700020CCE7FF
:10E51000164B5B68E3B9164BD3F88430DBB1FFF7D9
:10E520002BFC114BC8221A800E4B04225A7000207B
:10E53000BBE74FF0FF30B8E74FF0FF30B5E76FF0C3
:10E540000100B2E76FF00200AFE76FF00100ACE747
:10E550006FF00100A9E76FF00200A6E74FF0FF306F
:10E56000A3E700BF64820020608200205082002068
:10E57000C082002038B52DED028B614B5A78D2B2A3
:10E580001B78DBB29A4266D1FFF748FA5D4C204611
:10E59000F4F704FF2046F4F771FA80B25A4B188062
:10E5A00007EE900AF8EE677A9FED587A67EE877A61
:10E5B000574CC4ED017A94ED027A77EE677ADFED7D
:10E5C000556A67EEA67A77EE677AC4ED027A524D05
:10E5D00009212846F5F7C8F880B2504BB3F900304E
:10E5E000C31A07EE903AF8EEE77A9FED4D8A67EE90
:10E5F000887AC4ED037A40F20F112846F5F7B4F893
:10E6000080B2484BB3F90030C31A07EE903AF8EEE7
:10E61000E77A67EE887AC4ED047A40F2152128463D
:10E62000F5F7A2F880B2404BB3F90030C31A07EEF9
:10E63000903AF8EEE77A67EE887AC4ED057A304BC7
:10E640001B78DBB2032B13D0042B14D0022B14D075
:10E65000BDEC028B38BDFFF773FD294B9B78002B77
:10E6600092D0274A5378DBB21370FFF7B7FD8BE7E0
:10E67000FEF720FBECE7FEF7EFF9FEF703FF244B74
:10E68000D3ED037A67EEA77A93ED047A27EE077A43
:10E6900077EE877A93ED057A27EE077A77EE877A19
:10E6A0009FED227A67EE877A214B93ED1B7A27EE56
:10E6B000077AB4EEE77AF1EE10FA15D4144B93ED25
:10E6C0000A7A1B4BD3ED1C7AB4EEE77AF1EE10FA1E
:10E6D000BEDDFFF769FB0120FFF7D2FE154A536844
:10E6E00043F480235360B3E7FFF75EFB0120FFF79D
:10E6F000C7FE104A536843F480235360DEE700BF2F
:10E70000648200201C0C0020708200206740533C73
:10E71000FC810020CDCC4C3DB00B0020728200204B
:10E720004108043C7482002076820020ABAA2A3F74
:10E73000C082002050820020164B1B784BB3164B32
:10E74000D3ED017A154B93ED1A7AF4EEC77AF1EE18
:10E7500010FA04DD124A536843F4803353600F4BC0
:10E7600093ED197AF4EEC77AF1EE10FA04D50C4A5B
:10E77000536843F4003353600A4B5B7A322B03D85F
:10E78000084B1B7A322B04D9054A536843F0020325
:10E790005360704764820020FC810020C08200200A
:10E7A00050820020F081002008B5164B1A68164BE5
:10E7B0001B689A421BD0144B1A68124B1A60012135
:10E7C000104B5A68104B5B689A4218D00E4B5B682E
:10E7D0007BB90D4B5A680B4B5A600B4B93E8030007
:10E7E00000F048FBFFF72CFD00F05AF908BD0021AE
:10E7F000E6E7FFF7D9FA0120FFF742FEE9E7002933
:10E80000F0D0EAE7588200205082002010B50120A5
:10E81000F3F7D2FF194C7F212046F4F79FFE2046E4
:10E82000F4F7EAFE0120F3F7C7FF7F211448F4F75D
:10E8300095FE144C236840F634025A639A63DA63F7
:10E8400000212046F9F77AF804212046F9F776F8F6
:10E8500008212046F9F772F800212046F9F760F9FF
:10E8600004212046F9F75CF908212046F9F758F908
:10E870000C212046F8F7AAFF10BD00BFB00B002006
:10E880001C0C0020D421002010B50D4C0021204686
:10E89000F9F754F804212046F9F750F808212046EA
:10E8A000F9F74CF800212046F9F73AF904212046FF
:10E8B000F9F736F908212046F9F732F910BD00BF03
:10E8C000D421002038B50F4C236800255D639D637B
:10E8D000DD6329462046F8F779FF04212046F8F742
:10E8E00075FF08212046F8F771FF29462046F9F701
:10E8F00095F804212046F9F791F808212046F9F708
:10E900008DF838BDD4210020102A01D00020704796
:10E9100008B5F2F7A9F9012008BD000008B50628DE
:10E920005FD8DFE800F0041F3245585F6600344BC3
:10E930001B685BB1334B93ED070A314BD3ED027A81
:10E94000084620EE670A01F0F1F84AE02D4B93EDFE
:10E95000070A2B4BD3ED027A084620EE270A01F076
:10E96000E5F83EE0264B1B6843B1274B93ED090ABF
:10E970000846B1EE400A01F0D9F832E00846224BD1
:10E9800093ED090A01F0D2F82BE01D4B1B6843B14F
:10E990001D4B93ED080A0846B1EE400A01F0C6F897
:10E9A0001FE00846184B93ED080A01F0BFF818E085
:10E9B000134B1B6843B1134B93ED070A0846B1EEA6
:10E9C000400A01F0B3F80CE008460E4B93ED070A3D
:10E9D00001F0ACF805E008460A4B93ED020A01F09D
:10E9E000A5F808BD0846074B93ED0B0A01F09EF809
:10E9F000F7E70846034B93ED0C0A01F097F8F0E7B0
:10EA0000C0820020FC810020B081002070B5054646
:10EA10000E4601F09CF8441E2146114801F054FDB9
:10EA2000202C05DC0F4B6EB953F824306B6070BDA1
:10EA300029464FF0FF3001F067F8291D002001F052
:10EA400063F8F4E76A6843F824201C4693ED0E0A45
:10EA5000FFF75EF994ED150AFEF7B8FCE7E700BF93
:10EA6000F8850108C0820020024B1A68024B1A6028
:10EA7000704700BF880C002078820020024B1A6883
:10EA8000024B1A60704700BF880C00207C82002077
:10EA900008B51021FDF7AAFDFFF7F0FF012008BD22
:10EAA00000B585B0174BDB6F3BB1174A1168174AA9
:10EAB0001268521AB3EB520F0ED3124BD3F88030B8
:10EAC0003BB1134A1168114A1268521AB3EB520F44
:10EAD00006D305B05DF804FB0120FFF7D1FCECE79D
:10EAE000AA238DF800300B4B1A7840F2164343EA04
:10EAF0004213ADF8013000238DF803306846FFF76C
:10EB0000C7FFE6E7C082002078820020880C002042
:10EB10007C820020D601002038B5B0F8013013F413
:10EB2000806F00D038BD044603F01F0543F48063B6
:10EB3000A0F80130FFF798FF1C2DF3D801A353F87C
:10EB400025F000BFB9EB0008E1EB0008F9EB000885
:10EB500031EC00086DEC0008A9EC000825EB00087A
:10EB6000C3EC0008DDEC000825EB0008F7EC00081A
:10EB700011ED000829ED000843ED000825EB000821
:10EB800065ED00087BED000891ED0008A7ED000899
:10EB9000BDED0008DDED000809EE000825EB0008DA
:10EBA00025EB000825EB000825EB000825EB000805
:10EBB00025EB000821EE0008E378002BB2D10120FC
:10EBC000FFF75EFC211D00F09FFF0423E370082186
:10EBD000201D00F075FFE0602046FFF759FFA1E718
:10EBE000E378002B9ED10220FFF74AFC211D00F0A4
:10EBF0008BFF0423E370EAE7E378042B92D1904B78
:10EC00001B6873B1201D00F0B2FFF1EE407A8D4B0E
:10EC1000C3ED057A8A4B1B6C002B83D1FEF7A4FB56
:10EC200080E7201D00F0A3FF864B83ED050AF1E786
:10EC3000E378042B7FF476AF814B1B687BB1201DFA
:10EC400000F095FFF1EE407A7E4BC3ED047A7C4BE9
:10EC50001B6C002B7FF466AFFEF786FB62E7201D7E
:10EC600000F085FF774B83ED040AF0E7E378042B8F
:10EC70007FF458AF724B1B687BB1201D00F077FF0B
:10EC8000F1EE407A6F4BC3ED037A6D4B1B6C002B9A
:10EC90007FF448AFFEF768FB44E7201D00F067FFF4
:10ECA000684B83ED030AF0E7E378002B7FF43AAF7B
:10ECB0000320FFF7E5FB211D00F026FF0423E3708E
:10ECC00085E7E378002B7FF42DAF0120FFF7D8FB19
:10ECD000211D00F019FF0423E37078E7E378002B8F
:10ECE0007FF420AF0420FFF7CBFB211D00F00CFFC9
:10ECF0000423E3706BE7E378002B7FF413AF01206C
:10ED0000FFF7BEFB211D00F0FFFE0423E3705EE76A
:10ED1000E378002B7FF406AFFEF7DCFA211D00F04C
:10ED2000F3FE0423E37052E7E378002B7FF4FAAE9E
:10ED3000FFF792FB211D002000F0E6FE0423E370A4
:10ED400045E7E378002B7FF4EDAE3F4D2868211DA9
:10ED500000F0CEFE686804F1080100F0C9FE082347
:10ED6000E37034E7E378012B7FF4DCAE211D2079DA
:10ED7000FFF7D4FD0423E37029E7E378012B7FF448
:10ED8000D1AE211D2079FFF7C9FD0423E3701EE7F2
:10ED9000E378082B7FF4C6AE0121201DFFF736FE75
:10EDA0000823E37013E7E378042B7FF4BBAE002164
:10EDB000201DFFF72BFE0823E37008E7E378002B04
:10EDC0007FF4B0AE00F040FB054600F009FC211DC9
:10EDD000284400F099FE0423E370F8E6E378002B62
:10EDE0007FF4A0AEFFF746FB012807D04FF0FF30BD
:10EDF000211D00F089FE0423E370E8E600F054FAD8
:10EE000000F062FB0020F3E7E378002B7FF48AAE8A
:10EE10000B4B1B6C002B3FF485AEFEF7A5FA81E689
:10EE2000E378002B7FF47EAE211D032000F06CFE02
:10EE300004F10801022000F067FE0823E370C6E633
:10EE4000C0820020788100205082002000B585B06B
:10EE50000A460023009301930293039301466846F8
:10EE6000FFF752FD10B905B05DF804FB6846FFF7E7
:10EE700053FEF8E700B587B06B4683E80300AA238A
:10EE80008DF80830144B1A7840F20E4343EA4213CF
:10EE9000ADF8093000238DF80B3003A900F028FEEF
:10EEA0009DF80B100144C9B28DF80B1002AB194448
:10EEB0000431019800F01CFE9DF80B3003448DF8DE
:10EEC0000B30082103A800F0FBFD059002A8FFF716
:10EED000DFFD07B05DF804FBD601002030B585B03A
:10EEE0000C46AA238DF800300C4B1A7840F20643EA
:10EEF00043EA4213ADF8013008258DF8035001A90B
:10EF000000F002FE23680293294601A800F0D8FD14
:10EF100003906846FFF7BCFD05B030BDD601002068
:10EF200010B584B00C46AA238DF80030134B1A7824
:10EF300040F2094343EA4213ADF8013000238DF853
:10EF4000033001A900F0E0FD9DF803300344DBB27B
:10EF50008DF803306B44191D204600F0D5FD9DF857
:10EF6000033003448DF80330082101A800F0A8FD08
:10EF700003906846FFF78CFD04B010BDD601002059
:10EF800038B52DED0A8BF0EE409AB0EE609AB0EEF7
:10EF9000418AF0EE618AB0EE42CAB0EE62AA30EE6B
:10EFA00060BA61EE01BA72EEA27ACBEEA77A17EEE2
:10EFB000900AF1F7A9FA04460D4618EE100AF1F787
:10EFC000A3FA224625F0004401F0004144EA01037F
:10EFD00010461946F1F718FB07EE900A7BEE677AA8
:10EFE00017EE903A002B76DAFFEE00AA6CEE2A7A42
:10EFF000694BC3ED067AB1EE6A2A2AEECAAA83EDFE
:10F0000008AA68EEAA1AC3ED071A68EE2A7A21EE5A
:10F01000AA7AF4EEC77AF1EE10FA03DD22EE0C2A9A
:10F0200083ED062A31EEC87A5B4BD3ED062AC7EE94
:10F03000227AC3ED0A7AF1EE616A86EE8A7A83ED6E
:10F040000C7AF6EE006A67EEA67A31EE886A67EE11
:10F05000867A27EE267A21EE877A77EE877A2BEE6C
:10F060002A7A67EEAA6AB4EEE67AF1EE10FA35D49F
:10F070007BEE677A87EEA17A474B83ED0B7A464B9E
:10F08000D3ED0A7A93ED0B7A37EE877AD3ED0C6ADB
:10F0900037EE267A83ED0D7A83ED039A83ED048AA9
:10F0A000C3ED059A27EE888A38EE098A93ED067A31
:10F0B000F6EE006A27EE267A67EEA77A67EE277AE1
:10F0C00038EE278A83ED098A00229A6383F83C2070
:10F0D000BDEC0A8B38BDF7EE00AA87E76BEE8ABA63
:10F0E00072EEA27A6AEE277A27EE8BBA7BEE8BBAA3
:10F0F0003AEE62AA9FED26CBCBEE8A7A17EE900A03
:10F10000F1F702FAB0EE4C1AF0EE6C1A41EC100B6B
:10F1100009F01EF851EC100BF1F776FA00EE100A28
:10F1200009F018F960EE2AAA1B4CC4ED07AA3AEEC2
:10F13000C87AD4ED067AC7EE277A17EE900AF1F76F
:10F14000E3F941EC110BB0EE4C0AF0EE6C0A08F05A
:10F15000FFFF51EC100BF1F757FAA062F1EE6AAA2B
:10F16000D4ED087ACAEEA77A17EE900AF1F7CCF937
:10F1700041EC110BB0EE4C0AF0EE6C0A08F0E8FF1F
:10F1800051EC100BF1F740FA20630023E36276E7BD
:10F19000000000000000000080820020404B93F837
:10F1A0003C30002B7BD13E4A936B0133936307EED7
:10F1B000903AF8EE677A9FED3B7A67EE877A92EDA8
:10F1C0000A7AB4EEE77AF1EE10FA1EDD92ED037AD8
:10F1D00092ED046A66EE276A37EE267AD2ED065A79
:10F1E000F6EE006A65EEA66A27EEA75A66EE856A15
:10F1F00037EE267A82ED007A65EEA77A76EE277AE8
:10F20000C2ED017AC2ED025A7047254BD3ED0B6A6D
:10F2100077EE266AF4EEE76AF1EE10FA10DDD3ED30
:10F22000096A93ED076A77EEC77A66EE277A76EE7B
:10F23000A77AC3ED007A83ED016A00229A607047D5
:10F24000174B93ED0D7AB4EEE77AF1EE10FA18DD74
:10F2500077EEC77A93ED056AD3ED086AB6EE007AC9
:10F2600026EE877A67EEA75A27EE257A36EE077ADA
:10F2700083ED007A66EEA77AC3ED017AC3ED026AE8
:10F280007047B4EEE77AF1EE10FA08D8044B5A69E9
:10F290001A6000225A609A60012283F83C2070476D
:10F2A0008082002017B7513800B52D4B00221A601C
:10F2B0002C4959602C4999600721D9602B49196163
:10F2C0002B4959614FF0824199612A49D9612A49F4
:10F2D00019622A485862DA6301219962DFF8A0C0F6
:10F2E000C3F82CC0DFF89CC0C3F830C0DFF898C06A
:10F2F000C3F834C0DFF894E0C3F838E01A644FF084
:10F300007C5EC3F844E0C3F848C0DFF884C0C3F8AB
:10F310004CC0DFF880C0C3F850C04FF0804CC3F839
:10F3200054C0DFF874C0C3F858C0DFF870C0C3F829
:10F330005CC0C3F860C0DFF868C0C3F864C0DFF821
:10F3400064E0C3F868E0C3F86CC018675967996750
:10F35000DA67C3F88020C3F884205DF804FB00BF9F
:10F36000C082002017B7D138B004523DCF58E63DD7
:10F37000427CBB37000070420000A04000004040CB
:10F380000000A0428FC2F53C0AD7233C0000FA449B
:10F39000CDCCCC3D0000C8420000F0410000484206
:10F3A000000020410000604110B586B0F5F784F8F8
:10F3B00000BB154B02AC0FCB84E80F00F5F77CF8CF
:10F3C00001A92046F5F7B2F960B9F5F78DF8A0B9B3
:10F3D0000E4B0F4A93420AD21A68B2F1FF3F0FD187
:10F3E0000433F6E7F5F780F86FF001000AE0F5F76F
:10F3F00089F807E04FF0FF3004E06FF0020001E011
:10F400006FF0030006B010BDBC83010800D00208F5
:10F4100000F8020810B50A4C4FF42572094920463D
:10F42000F1F722FC4FF42471204600F049FBD4F898
:10F430009032834201D1002010BD4FF0FF30FBE736
:10F44000C082002000D0020870B5FFF7ADFF88BB76
:10F450000646F5F731F880BB194C4FF4247120466D
:10F4600000F02EFBC4F89002354600E00135522D25
:10F4700019D8E900124B081D53F835201B5801F12B
:10F48000006101F534310020F5F772F804460146B9
:10F490000C4801F019F8002CE8D0F5F725F86FF0CA
:10F4A0000206304670BDF5F71FF80028F9D06FF05E
:10F4B0000306F6E74FF0FF36F3E76FF00106F0E7DB
:10F4C000C08200201486010808B50F4B1B680BB1E1
:10F4D000002313E042F2147000F0D8FC0A4A1060D6
:10F4E0000028F5D1094801F051F8F1E7064908680C
:10F4F000002220F8132009680A60013341F28732A4
:10F500009342F3D908BD00BF548500204886010806
:10F5100010B586B0F4F7D0FF50BB642400E001348E
:10F52000722C12D8002302930123039304940593B1
:10F53000F4F7C2FF01A902A8F5F7F8F80028EED009
:10F54000F4F7D2FF6FF001000EE0F4F7CDFF90B9B1
:10F550000A4B00E004330A4A934207D21A68B2F118
:10F56000FF3FF7D06FF0030006B010BD0020FBE7AF
:10F570004FF0FF30F8E76FF00200F5E700200308D6
:10F580000098030810B5134B1B68A3B1114C42F24D
:10F59000147211492068F1F767FB42F2107120687C
:10F5A00000F08EFA236803F50053D3F81037834236
:10F5B0000DD1002010BD42F2147000F067FC054B25
:10F5C00018600028E2D1054800F0E0FFDEE74FF0C8
:10F5D000FF30EFE7548500200020030880860108F3
:10F5E0002DE9F047FFF794FF00283DD180462348DE
:10F5F00000F0CCFFF4F760FF0646C0BB204D2C683E
:10F6000042F21071204600F05BFA04F50054C4F891
:10F6100010072F68454640F2E2439D421DD8EC009A
:10F6200057F835A0231D57F803903146154800F0D0
:10F630004BFF52464B4604F1006101F54831002072
:10F64000F4F796FF064608B90135E4E7F4F74CFFF6
:10F650006FF001084046BDE8F087F4F745FF48B970
:10F66000094800F093FFF5E74FF0FF38F2E76FF03D
:10F670000108EFE76FF00308ECE700BFA886010878
:10F6800054850020D08601080C87010880ED000A0F
:10F6900070EEC10A9FED031A60EE810AC1ED000A07
:10F6A000704700BF3ACD133FF5EEC00AF1EE10FAF5
:10F6B00053DBB5EEC00AF1EE10FA24DBDFED8A7AF7
:10F6C00060EEA77AF4EEC07AF1EE10FA00F39780BC
:10F6D00030EE670ADFED857A60EEA70AF7EE007A72
:10F6E00077EEC07A77EEE07AB6EE007A67EE877A48
:10F6F000C0ED007A37EE800A81ED000A30EE200A74
:10F7000082ED000A97E0DFED7A7A60EEA77AF4EEF8
:10F71000C07AF1EE10FA72DDDFED747A20EEA77A8E
:10F72000B1EE400ADFED707A60EEA70A70EE600A73
:10F73000F7EE007A77EEC77A77EEE07AF6EE006AB7
:10F7400067EEA67AC1ED007A77EE877AC2ED007A8D
:10F7500077EEA00AC0ED000A6DE0B5EEC00AF1EE4A
:10F7600010FA28DBDFED627A60EEA77AF4EEC07A59
:10F77000F1EE10FA00F387809FED5E7A20EE877A33
:10F78000DFED597A60EEA77A77EE800AF7EE007A1D
:10F7900077EEC77A77EEE07AF6EE006A67EEA67A41
:10F7A000C0ED007A77EEA00AC2ED000A70EE870A7B
:10F7B000C1ED000A3FE0DFED4C7A60EEA77AF4EE8F
:10F7C000C07AF1EE10FA5EDD37EEC00ADFED497A5D
:10F7D00060EEA70AF7EE007A77EEC07A77EEE07A6D
:10F7E000B6EE007A67EE877AC2ED007A77EEA00A6D
:10F7F000C1ED000A70EE800AC0ED000A1BE0DFEDEB
:10F800003A7A60EEA70A70EE807A70EEC00AB7EE20
:10F81000000A30EE670A30EE600AB6EE007A20EE9B
:10F82000070A81ED000A70EE200AC0ED000A70EEB2
:10F83000A70AC2ED000AD0ED007AF5EEC07AF1EE2B
:10F8400010FA42DBB7EE007AF4EEC77AF1EE10FA66
:10F850003ED8D1ED007AF5EEC07AF1EE10FA3ADB3F
:10F86000F4EEC77AF1EE10FA38D8D2ED007AF5EE60
:10F87000C07AF1EE10FA34DBF4EEC77AF1EE10FA4A
:10F8800020D800207047B1EE407ADFED177A60EEA5
:10F89000A77A37EE677A70EE670AF7EE007A77EEAE
:10F8A000C77A77EEE07AF6EE006A67EEA67AC2EDE6
:10F8B000007A77EE877AC0ED007A77EEA07AC1ED14
:10F8C000007AB8E74FF0FF3070474FF0FF307047D5
:10F8D0004FF0FF3070474FF0FF3070474FF0FF3070
:10F8E00070474FF0FF3070473ACD133F3ACD933F0A
:10F8F0003ACD13BF3ACD93BFDFED207A60EE277A81
:10F90000BDEEE77AB5EEC00AF1EE10FA2FD4B8EEEC
:10F91000C70A37EEC00ADFED1A7A20EE270AFCEE9E
:10F92000C07A17EE903A9BB2B3F5007F04D3DFEDB7
:10F93000147A30EE670A002307EE903AF8EE677A01
:10F9400030EE670A0F4A02EB8301D1ED006A013302
:10F9500002EB830393ED007AF7EE007A77EEC07A3C
:10F9600067EEA67A20EE070A37EE800A704717EE98
:10F97000103A013B07EE103AC9E700BF83F9223E77
:10F98000000000442C8B0108DFED227A20EE270ACC
:10F99000F5EE007A30EE270AFDEEC07AB5EEC00A29
:10F9A000F1EE10FA2FD4F8EEE77A30EE670ADFEDC9
:10F9B0001A7A20EE270AFCEEC07A17EE903A9BB234
:10F9C000B3F5007F04D3DFED147A30EE670A00232D
:10F9D00007EE903AF8EE677A30EE670A0F4A02EBCC
:10F9E0008301D1ED006A013302EB830393ED007ACA
:10F9F000F7EE007A77EEC07A67EEA67A20EE070A75
:10FA000037EE800A704717EE903A013B07EE903AC6
:10FA1000C9E700BF83F9223E000000442C8B010897
:10FA200038B52DED048BB0EE408AF0EE608AF0EE32
:10FA3000419A05460C46B0EE410AFFF75DFFB0EE75
:10FA4000409AB0EE690AFFF79FFF60EE087A29EE50
:10FA5000287A77EE877AC5ED007A28EE498A20EE7B
:10FA6000280A38EE008A84ED008ABDEC048B38BD8C
:10FA700038B52DED048BB0EE409AF0EE608AF0EED2
:10FA8000419A05460C46B0EE410AFFF735FFB0EE4D
:10FA9000408AB0EE690AFFF777FF60EE097A28EE38
:10FAA000287A77EEC77AC5ED007A28EE098A20EE2B
:10FAB000280A38EE008A84ED008ABDEC048B38BD3C
:10FAC0008446002318468B420FD210B41CF8032042
:10FAD00082EA1062054C54F8222082EA00200133A9
:10FAE0008B42F3D35DF8044B704770472C870108B5
:10FAF0000870C0F307234B70C0F307438B70C0F34B
:10FB00000760C870042070470870C0F307234B706B
:10FB1000C0F307438B70C0F30760C87004207047C0
:10FB20000870C0F3072048700220704782B08DED46
:10FB3000010A019B0370C3F307224270C3F307421B
:10FB40008270C3F30763C370042002B0704782B0B1
:10FB500003788DF8043043788DF8053083788DF87C
:10FB60000630C3788DF80730019802B0704782B034
:10FB700003788DF8043043788DF8053083788DF85C
:10FB80000630C3788DF807309DED010A02B070474A
:10FB9000034648B151B15AB1002018615A6019604A
:10FBA000D86098600120704700207047002070479F
:10FBB00000207047034670B1026872B1406868B1B6
:10FBC000DA689B689A4201D002D2981A01387047CD
:10FBD0009B1A1844FAE700207047002070472DE96F
:10FBE000F843002839D00E4615460746D0F8008065
:10FBF000B8F1000F35D0446884B3A1B3AAB3FFF7BE
:10FC0000D9FF854228BF05460DB92C4626E0D7F816
:10FC10000C90A4EB0904AC4228BF2C462246314686
:10FC200008EB0900F1F720F809EB0403B5EB040831
:10FC30000CD17A689A4200D80023FB603B69B3B1CB
:10FC40002A460121384698472C4607E0424631199A
:10FC50003868F1F709F84346EBE700242046BDE891
:10FC6000F8830024FAE70024F8E71446F6E72C4668
:10FC7000F4E7034668B102686AB1406870B1DA68B7
:10FC80009B689A4209D001D9D01A7047D21A104401
:10FC900070470020704700207047002070472DE912
:10FCA000F843002839D00E4615460746D0F80080A4
:10FCB000B8F1000F35D0446884B3A1B3AAB3FFF7FD
:10FCC000D8FF854228BF05460DB92C4626E0D7F857
:10FCD0000890A4EB0904AC4228BF2C46224608EB4E
:10FCE00009013046F0F7C0FF09EB0403B5EB040847
:10FCF0000CD17A689A4200D80023BB603B69B3B14B
:10FD00002A460021384698472C4607E04246396883
:10FD10003019F0F7A9FF4346EBE700242046BDE881
:10FD2000F8830024FAE70024F8E71446F6E72C46A7
:10FD3000F4E770B5D0B10C4605460368C3B1466818
:10FD400096B1B9B1FFF795FF844228BF0446AB686E
:10FD500023449E4200D89B1BAB602B6963B12246B3
:10FD60000021284698472646304670BD0026FBE70E
:10FD70000026F9E70E46F7E72646F5E7002847D0C4
:10FD80002DE9F8430F461546984606460368002BB2
:10FD900040D04368002B3FD0002940D0002A40D0FB
:10FDA000089B002B3FD00023089A1360FFF761FFE8
:10FDB000814605EB0803834237D84146002016E010
:10FDC0000EF1010EAE450DD2336813F80C3017F862
:10FDD0000E40A34207D10CF1010C6245F0D84FF060
:10FDE000000CEDE7012008B1089B19600131A0B9B2
:10FDF000A9EB08035B1B8B420FD9B36803EB010C23
:10FE00007268624501D8ACEB020C4FF0000ED9E7E6
:10FE100000207047002000E00020BDE8F8830020AB
:10FE2000FBE70020F9E70020F7E70020F5E70000F6
:10FE3000002101F0E9BD00BF014B1868704700BF09
:10FE4000D801002070B50D4E0D4D761BB61006D0B2
:10FE5000002455F8043B01349847A642F9D1094ED5
:10FE6000094D761B08F09CFAB61006D0002455F810
:10FE7000043B01349847A642F9D170BDA898010807
:10FE8000A8980108B0980108A8980108024B0146FB
:10FE9000186800F00BB800BFD8010020024B0146E3
:10FEA000186804F03BBE00BFD80100202DE9F04FD8
:10FEB00001F10B06162E83B0044624D8102900F257
:10FEC000BA8000F0F5FA102618220220B54F3A4405
:10FED000A2F1080153688B4200F0BA805A68D968D1
:10FEE00022F003021A449D68E9608D60516841F078
:10FEF00001012046516003F1080500F0DFFA2846B1
:10FF000003B0BDE8F08F36F0070600F19480B142EF
:10FF100000F2918000F0CCFAB6F5FC7FC0F09A8137
:10FF2000730A00F08F80042B00F26F81B30903F194
:10FF3000390003F1380CC3009A4F3B44A3F1080584
:10FF40005B689D4206D10CE0002980F22781DB68C6
:10FF50009D4206D05A6822F00302911B0F29F3DD5F
:10FF600060463D69DFF850C265457CD06A6822F082
:10FF70000302931B0F2B00F37B81002BC7E904CCFA
:10FF800080F26C81B2F5007F80F01A81D308796825
:10FF900001334FEA521E012202FA0EF20A4357F8C9
:10FFA00033E0C5F808E007EBC3010839E9607A607F
:10FFB00047F83350CEF80C508310012199409142FC
:10FFC00057D8114206D120F003004900114200F138
:10FFD0000400FAD007EBC0094D468646D5F80C80E0
:10FFE000454508D11DE1002B80F22481D8F80C8012
:10FFF000454500F01681D8F8042022F00302931B37
:020000040801F1
:100000000F2BF0DD2046D8E9025408EB060146F03C
:100010000106C8F80460EC60A56043F00104C7E97C
:100020000411C1E902CC4C6048F8023000F046FAF5
:1000300008F1080502E00C2323600025284603B0E0
:10004000BDE8F08F4FF4007340204FF03F0C73E792
:10005000D3689A4208BF02307FF440AF3D69DFF8B1
:1000600058C1654582D17A68831001219940914237
:10007000A7D9BD686B6823F003094E4503D8A9EBE7
:1000800006030F2B7ADCDFF834B1474BDBF8002096
:100090001B680132334405EB090A00F0338103F594
:1000A00080530F3323F47F6828F00F084146204621
:1000B00000F0E0FA411C024600F0F380824500F2B5
:1000C000EE803A4B196841441960084600F04E81B1
:1000D000DBF80010019301311BBFA2EB0A0A504468
:1000E000CBF80020186012F0070B00F01781CBF15D
:1000F00008010A44CBF5805190440831A1EB080176
:10010000C1F30B0A51462046009200F0B3FA421C9C
:10011000DDE9002300F04F81801A00EB0A0819681E
:10012000BA6048F001005144BD425060196000F0CF
:100130002981B9F10F0F40F227816868A9F10C0CF1
:100140002CF0070C00F0010040EA0C0068604FF052
:10015000050E05EB0C00BCF10F0FC0E901EE00F23B
:10016000328150681546124B1A688A4238BF1960AE
:10017000104B1A688A4238BF196094E0AA1943F0FC
:10018000010346F001066E602046BA60536000F03D
:1001900095F90835284603B0BDE8F08FD9681A44B0
:1001A000A1E600BF080600208885002058850020B1
:1001B000808500208485002010060020100A002081
:1001C000B2F5206F4FEA522363D3142B00F2B780AD
:1001D00003F15C01C9005B3307EB010E7958AEF106
:1001E000080E8E4500F091804B6823F00303934284
:1001F00002D989688E45F7D1D1F80CE07A68C5E953
:10020000021ECEF80850CD60D6E6142B59D9542BD7
:1002100000F29D80330B03F16F0003F16E0CC300FD
:100220008AE60EF1010E1EF0030F05F108057FF4BA
:10023000D5AE51E0424445465368D8F80C1043F01F
:100240000103536055F8083F2046D9608B6000F0E9
:1002500035F9F3E6F00806F1080237E62A442046AD
:10026000536843F001035360083500F027F9E5E6D1
:10027000A919204646F0010643F001046E60C7E963
:100280000411C1E902CC4C60AB5000F017F90835FD
:10029000D4E6930903F13901C90038339CE7BD4224
:1002A0005FD0BD68686820F003084645A8EB0603E8
:1002B00002D80F2B3FF762AF204600F0FFF8002571
:1002C000BCE603F15C0003F15B0CC30034E659F8B3
:1002D00008394B4540F0968010F0030F00F1FF30D5
:1002E000F5D17B6823EA01037B60490099423FF620
:1002F000C0AE19B9BDE649000EF1040E1942FAD09C
:10030000704667E603F11008D0E69A104FF0010836
:100310007B6808FA02F21A437A6070E702EB080180
:100320004942C1F30B0A51462046009200F0A2F95F
:10033000431CDDE900237FF4EFAEDA46EFE6542BF1
:1003400025D8130B03F16F01C9006E3344E7B3F5F1
:10035000AA7F25D8F30B03F1780003F1770CC300D3
:10036000EAE5294B186840441860B1E6CAF30B0C63
:10037000BCF1000F7FF4ACAEBD68C84448F001008A
:100380006860F0E61546EEE60123536094E7B3F5A6
:10039000AA7F23D8D30B03F17801C90077331BE779
:1003A00040F25452934223D8B30C03F17D0003F181
:1003B0007C0CC300C0E5ABF1080BD844A8EB0208E5
:1003C0004FF0000AABE605F108012046009304F067
:1003D000A5FBBD68009B68681968C4E640F25451EB
:1003E0008B420BD8930C03F17D01C9007C33F3E6FB
:1003F0004FF47E737F204FF07E0C9DE54FF47E71AD
:100400007E23E9E67B6870E758850020830730B5D6
:1004100048D0541E002A3FD0CAB2034601E0013C36
:100420003AD303F8012B9D07F9D1032C2DD9CDB276
:1004300045EA05250F2C45EA054536D9A4F11002F9
:1004400022F00F0C03F1200EE6444FEA121C03F1D8
:10045000100242E9045542E9025510327245F8D1C2
:100460000CF1010214F00C0F03EB021204F00F0C5C
:1004700013D0ACF1040323F003030433134442F814
:10048000045B9342FBD10CF003042CB1CAB21C44B0
:1004900003F8012B9C42FBD130BD64461346002C6F
:1004A000F4D1F9E703461446BFE71A46A446E0E74D
:1004B000014805F013BA00BF94850020014805F0FB
:1004C0000FBA00BF948500200FB400B5074983B070
:1004D00004AB086853F8042B8168019301F0A4FA77
:1004E00003B05DF804EB04B0704700BFD8010020F2
:1004F00070B5054688B008460C46F0F761FC224E00
:10050000AA6B059001214318CDE9066104A80221D8
:1005100004940393AC680190029122B3636E13F0CC
:10052000010FB4F90C309AB201D1980525D5910488
:1005300006D4626E43F4005322F40052A381626633
:10054000284601AA214604F0EFFB636E002814BF81
:100550004FF0FF350A25DA0702D4A3899B0506D59B
:10056000284608B070BD284604F0E0F9D6E7A06D33
:1005700005F0B6F9284608B070BDA06D05F0AEF9DB
:10058000B4F90C309AB2D2E734930108024B014619
:100590001868FFF7ADBF00BFD80100202DE9F0417A
:1005A0000E680C460546BEB137688FB1D7F800809B
:1005B000B8F1000F08D0D8F8001009B1FFF7EEFF2E
:1005C0004146284604F0AAFA3946284604F0A6FA1D
:1005D0003146284604F0A2FA21462846BDE8F041FB
:1005E00004F09CBA224B1B68834240D0C16C70B5AA
:1005F000054681B100268C593CB121462468284625
:1006000004F08CFA002CF8D1E96C0436802EF2D17B
:10061000284604F083FA296C11B1284604F07EFACA
:10062000D5F8484154B105F5A676B44206D0214626
:100630002468284604F072FAA642F8D1696D11B117
:10064000284604F06BFAAB6B83B1EB6B28469847F6
:10065000D5F8E04254B1216811B12846FFF79EFF5A
:1006600021462846BDE8704004F058BA70BD704776
:10067000D801002038B5074D0022044608462A60FC
:10068000F1F702FE431C00D038BD2B68002BFBD0D5
:10069000236038BD8C8500202DE9F04F012BADF291
:1006A0001C4D1D4681460F46904640F24581012370
:1006B000002419464FF0FF309C4606E0A3EB000CE7
:1006C0001C46012163189D4210D908EB000218F85E
:1006D0000360525C9642F1D300F082804FF0010C2F
:1006E00020466146644463189D42EED8CDF808C0A8
:1006F0004FF0010C002461464FF0FF36634606E0E0
:10070000A3EB060C1C46012163189D420FD908EB90
:10071000010218F803E0925D9645F1D866D04FF0DB
:10072000010C26466146644463189D42EFD80136A9
:1007300000F1010BB34502D8CDF808C0B34605ABB4
:100740000DF2144243F8045F9342FBD1002D00F0F8
:10075000F8806C1E06AE08F1FF3208EB040001962B
:1007600012F8011FD3432B444344904246F82130F2
:10077000F6D1029B5A4608EB0301404605F038F9D2
:10078000002840F08280029B0BF1FF32EB1A824678
:1007900006460592039309EB060E019A1EF80430F3
:1007A00052F8233043B3BAF1000F04D0029A9342B7
:1007B000039A38BF13461E444FF0000A7B1BB34216
:1007C000E9D209EB070045F4006106F037FA074467
:1007D0007B1BB342DFD200200DF21C4DBDE8F08F31
:1007E0008C4512BF0131644401216BE761450ABFAA
:1007F00064180131012187E7D3455B4638BF534672
:10080000A34211D2591E9A1941444A4402E00133CD
:10081000A34209D212F8010B11F801CF8445F6D09A
:10082000CBF101021644C6E7D345059B40F2828016
:100830000BEB06024A4408EB0B01CDF810B002E0C6
:10084000534516D0034612F8010D11F801CD844529
:1008500003F1010B03F1FF30F2D05B46DDF810B07D
:100860000AF1010A9A450BD8029BDDF80CA01E4440
:10087000A4E753460AF1010A9A45DDF810B0F3D90E
:1008800070460DF21C4DBDE8F08FA5EB0B035B45E8
:1008900038BF5B46013304930BF1FF330293CBF176
:1008A00001030026039345F4006A09EB0601019A4F
:1008B0000B5D52F823306BB11E447B1B9E42F4D972
:1008C00009EB0700514606F0B9F907447B1B9E422D
:1008D000EBD980E7A34514D2029B0BEB060208EB91
:1008E000030C4A445B4602E00133A34209D212F8EA
:1008F000010B1CF801EF8645F6D0039A16441E44FE
:10090000DBE7BBF1000F10D00BEB0600484408EB0F
:100910000B0201E0434508D012F801ED10F801CDBB
:10092000E6451346F6D0049BC6E708460DF21C4D7B
:10093000BDE8F08F5B4693E7012302934FF0000B75
:10094000FDE606AB4FF0FF34019312E72DE9F041CD
:100950000D46097890B00446002953D06A78002AE1
:1009600000F08380AB78002B50D0E878002800F0AE
:1009700083802B79002B57D02846F0F721FA0646C2
:1009800040F40071204606F059F986425CD8FE2EEC
:1009900000F28780801B27184022711C6846FFF7F1
:1009A00035FD7EB16A1E5FFA86FC901912F8013F90
:1009B00003F03F0340336B44A91A6144824203F8B9
:1009C000401CF3D1013CA35D03F03F0340336B4473
:1009D00013F8400C0444A74203D23AE04444A7422F
:1009E00037D314F806C00CF03F0C0CF140030DEBAC
:1009F000030C2046324629461CF8408C04F0F8FFD0
:100A00000028EBD1204610B0BDE8F081007842EA22
:100A1000014200E00C4640EA0343611CA0B19A4247
:100A20006078F7D1013CEDE722786AB1296809BA0C
:100A300001E099421ED042EA0323204614F8012F18
:100A4000002AF6D1994215D00024204610B0BDE806
:100A5000F081BB5DB819002BF6D04FF4006106F0B1
:100A6000EDF80744BC42ADD9EEE710B0BDE8F04167
:100A700006F00CB8C41EC5E7120442EA016242EA5D
:100A800003232178024600E02C4641EA0200651C5F
:100A900002020029D8D0B3EB002F6178F4D1023CD8
:100AA000B0E7014633462A46204610B0BDE8F04183
:100AB000FFF7F2BD000000002DE9F04F1C462DEDC0
:100AC000048B9D4B1B689FB00025824618468846C4
:100AD00007921A950893F0F773F9002183460020D6
:100AE000CDE90401CDF864804246174612F8013B77
:100AF0002D2B2FD8DFE813F0A4002E002E002E009F
:100B00002E002E002E002E002E00B400B400B400E3
:100B1000B400B4002E002E002E002E002E002E0059
:100B20002E002E002E002E002E002E002E002E0055
:100B30002E002E002E002E00B4002E002E002E00BF
:100B40002E002E002E002E002E002E002E000E0451
:100B50002E00040400220992302B00F08380002232
:100B60000C922F2B1C4640F24D854FF00009384661
:100B70004E464D4612E00130082D1990C8BF09EBD2
:100B800089090478C6BF03EB4903A3F13009A2F138
:100B900030062F2C05F10105234674DD06EB860295
:100BA000392C03EB4202E6DD08995A4605F0D4FFE2
:100BB0000346002835D1199A11465A44199211F862
:100BC0000B40002D40F0A985302C40F06185C2F12A
:100BD00001015318013219921478302CF9D0A4F184
:100BE0003102082A00F24383A4F1300E199C03F16C
:100BF000010B0023012527460A9306EB86060EEB20
:100C000046060023621C19926478A4F13001092978
:100C100000F2F18201338E46002940F0D284199C03
:100C2000F0E70023652C0A959B469E4601D0452C93
:100C300036D1002D40F085800C9A1A4340F0808018
:100C4000079B9FED3B8B13B1079BC3F80080B0EE71
:100C5000480AF0EE680A1FB0BDEC048BBDE8F08FC7
:100C6000199242E77B7803F0DF03582B00F08D8464
:100C7000013719973B78302BFAD0002B00F0D38046
:100C800001220C926DE708995A4605F065FF03466C
:100C9000002800F0DB800A954FF0000B5B46DE4633
:100CA00000220D92002D00F098800A9A1346002A27
:100CB00008BF2B4630460A93EFF704FC0B4602466A
:100CC000CDE904230D9B102DA3EB0B032C46A8BFED
:100CD0001024092D0C9314DD184B03EBC40353E9C6
:100CE0001223F0F72DF90246484690468946EFF761
:100CF000E9FB02460B4640464946EFF7A7FACDE925
:100D000004010F2D00F3AB800C9B002B00F034840A
:100D10000C9B40F38283162B40F3F1840C9AC5F1AF
:100D20002503934280F204850C9B2C1B1C449CE001
:100D30000000000000000000CC950108609601084A
:100D40000025DDF8648008F10102199298F801404D
:100D50002B2C00F089822D2C00F01D82002208929D
:100D6000A4F13002092A00F21182302C05D1199A1F
:100D7000013219921478302CFAD0A4F13102082AE9
:100D80008ED819990D914A1C1992A4F130004C7813
:100D90002F2C09DC00F044BC013219929CF8014070
:100DA0002F2CA1F1300006DD00EB8001392C944698
:100DB00004EB4101F0DD0D99521A082A40F330840A
:100DC00044F61F620D92089A002A3FF46BAF0D9A09
:100DD00052420D92002D7FF468AF0C9A134322D13A
:100DE000BEF1000F7FF42CAF692C00F0318400F3CA
:100DF0005283492C00F02C844E2C7FF421AFB8494B
:100E000019A804F06BFC00283FF41AAF199B1B785B
:100E1000282B00F07185B34805F0EAFDB0EE408A5A
:100E2000F0EE608A01E09FEDAA8B079A0AB1199B48
:100E30001360099B002B3FF40AAF18EE901A18EECE
:100E4000102A01F1004343EC182B00E7199A0A9588
:100E500002EB0B01199112F80B409B46D5E60C9B57
:100E60002C1B1C44002C40F31B8314F00F000AD0F1
:100E70009D4901EBC001DDE90423D1E90001F0F750
:100E80005FF8CDE9040134F00F0340F070820023D5
:100E900008930A9A00962B463946504604F0DAFE2B
:100EA0001190002800F06B830D9BABEB03000C9BB3
:100EB000002BB4BF024600224FF0000823EAE37380
:100EC0000D921093C346119C5046616804F03EFE9B
:100ED0008146002800F0478122699DED048B023293
:100EE000920004F10C010C30EFF7BEFEB0EE480AA0
:100EF000F0EE680A1CAA1BA9504605F061FA1A9088
:100F0000002800F01D810121504604F04DFF83466A
:100F1000002800F028811B9B002BC0F217810D9A3E
:100F2000109D9E18089A1C9C9B1A23446F4A013BF3
:100F30009342C4F1360480F2B080D21A1F2AA4EB87
:100F4000020400F31C81012393400A930027089BAD
:100F500025443444A6421D443346A8BF2346AB4231
:100F6000A8BF2B46002B02DDE41AED1AF61A0D9BE2
:100F7000002B00F3C580002C00F3D9800C9B002BC4
:100F800000F3E880002D00F3F080002E08DD5946C4
:100F90003246504605F044F88346002800F0E380CE
:100FA0001A994A46504605F0D5F88046002800F0C8
:100FB000DA800023C268C36059460E9205F0A8F893
:100FC0000028C0F2758400F0E5835946404605F0DC
:100FD0005FFA55EC104B10EE100A00224FF08043E0
:100FE0002946F0F729FA00285BD00E9B002B00F071
:100FF000DD80059B0F933E4B3D4D0022CDE90A233A
:1010000000243C4F0F9A3C4B02EA07069E4200F038
:10101000F880089B8BB1B6F1D46F0ED82EA3D3E91C
:10102000002320462946F0F707FA002840F0878180
:101030000B9B03F1D6639B1B0B93DDE90A01B0EE1A
:10104000480AF0EE680ACDE9040105F029F9DDE966
:10105000040153EC102BEFF773FF53EC182BEFF751
:10106000F5F8CDE904010A91089B2BB9214B0A9AA6
:1010700013409E4200F004811A99504604F08CFD02
:101080004946504604F088FD5946504604F084FD18
:101090004146504604F080FD15E7012300270A93DE
:1010A00055E7164B204629460022EFF749FF0E9BD5
:1010B00004460D46002B76D101F1004312901393A4
:1010C000059B0F93DDE91223CDE90A2399E700BFC1
:1010D00000000000000000000000C0FFFFFFDF4133
:1010E00044930108088701086096010802FCFFFF8D
:1010F0000000F03F0000F07F0000E07F0000E03FD4
:1011000059461A46504604F02BFF834658B3014611
:101110001A9A504604F076FE28B30E901A9950465B
:1011200004F03AFD0E9B1A93002C7FF727AF1A9913
:101130002246504604F074FF1A9000287FF41EAF38
:1011400022239FEDBF8BCAF80030C4E0109A0D9E99
:10115000D51AE7E64946109A504604F001FF814649
:1011600000287FF40FAF1A98EAE749462A4650460E
:1011700004F056FF814600287FF407AFF3E7B84F2D
:10118000FF1A012303FA07F70A93E0E60022CDF8DD
:1011900064800D9286E50122089208F102021992FC
:1011A00098F80240DCE5CDE9124589E7DDE9041253
:1011B000002940F0B280C2F313030F92002B40F0DD
:1011C000B280A84B002220462946F0F72BF90028D0
:1011D00040F0A782A44B204629460022EFF7B0FE3C
:1011E00001F1004304460D4616901793DDE91623DE
:1011F000CDE90A2305E7652C4FF0010E3FF4A1ADC0
:1012000015E5A2F1547305939DED047BDDE90A0118
:10121000B0EE470AF0EE670AB0EE479AF0EE679A32
:10122000CDE9040105F03CF8DDE9040153EC102B95
:10123000EFF786FE53EC192BEFF708F88B4B0F40B6
:101240009F42CDE9040175D918EE902A03F1547339
:101250009A4203D118EE103A013384D0844A4FF0F9
:10126000FF33CDE9043207E70022089295E7652CA9
:1012700000F00A81452C00F007814FF0010EACE52B
:1012800020462946F0F72CF9EFF768F90B4602469D
:1012900029462046EEF7D8FF049C0E9F27430A9C60
:1012A000C4F3130657EA060304460D4600F0AC806B
:1012B00065A3D3E90023F0F7B5F848B964A3D3E9EF
:1012C000002320462946F0F7CBF800283FF4D4AE9F
:1012D0009DED048B1A980146504604F05DFC49468A
:1012E000504604F059FC5946504604F055FC1199FB
:1012F000504604F051FC4146504604F04DFC94E544
:10130000012309937A1C19927B78002B3FF498AC47
:10131000174621E400230993F4E7DDE904120129CB
:1013200000F086810F92534B4E4D0022CDE90A23E7
:10133000002466E601F154730A93059394E6294666
:101340002046F0F7ADF8012838BF0120EFF7BAF8D2
:101350000E9B04460D46002B40F0778101F10043BF
:1013600014901593DDE91423CDE90A2360E6B3F563
:101370009A7F00F304811C11102B3F4B089340F31C
:10138000D7829846DDE904234FF0000CE14614F0C3
:10139000010F104619464FEA640409F1010907D00C
:1013A000D8E90023EFF7CCFD4FF0010C02460B46C5
:1013B000012C08F10808EAD1BCF1000F01D0CDE9F9
:1013C0000423089B03EBC909059BA3F15473059300
:1013D000DDE90423D9E90001EFF7B2FD274BCDE9A0
:1013E00004010B400A4626498B4200F2C880A1F551
:1013F00080118B4240F23B821D4A4FF0FF33CDE912
:1014000004320023089344E513A3D3E90023F0F743
:1014100009F800283FF430AE5AE71633FFF61FAD47
:101420000D9BABEB030A174B03EBCA03DDE9040189
:10143000D3E90023EFF7AEFE41EC180BF5E400BF53
:10144000000000000000F07F9535A094FFFFDF3F13
:1014500035E5AF350000E03F9535A094FFFFCF3F65
:10146000E2FBFFFF0000F03F0000E03FFFFF9F7C3A
:10147000FFFFEF7F0000F0BF389601080000F07F0B
:101480000000A07C6096010800220A9293464FF06B
:10149000010EFFF7D1BB6E2C3FF4B1ACFFF7D0BB10
:1014A0003FF4F5AC644214F00F020AD0B24B03EBE8
:1014B000C203DDE90401D3E90023EFF76BFECDE9B8
:1014C000040124113FF4E3AC1F2C3EDC14F01003A4
:1014D00018BF6A230893DDE90423DFF8B4824FF0D4
:1014E000000C14F0010F1046194607D0D8E900236C
:1014F000EFF726FD4FF0010C02460B46641008F191
:101500000808EED1BCF1000F01D0CDE90423089BFF
:1015100093B1DDE90401C1F30A52C2F16B03002B60
:101520000ADD1F2B40F330820020342B049040F35F
:1015300036824FF05C730593DDE90401002200233D
:10154000EFF766FF00283FF4A4AC22239FED848BC5
:10155000CAF8003069E41C9B04931B9B03F23342DE
:101560001D9B23F4801343EA02530593290742BFCE
:10157000059B43F0004305939DED048B55E4222326
:101580009FED798BCAF800304FE4099B01931AABA9
:1015900002940093794A1BAB19A9504603F0B2FD9F
:1015A00010F0070405463FF43EAC062C73D1079BB0
:1015B0009FED6B8B0137002B3FF449AB1F60FFF7AA
:1015C00046BB6A1C012B199C9B44104615D02B442A
:1015D00003F1FF3C03E0460094450DD001322B4659
:1015E000082B154606EB8600F5D9102ADCBF09EB5F
:1015F00089094FEA4909EFE7981C082D3EDC0546AA
:10160000FFF7FBBA08995A46384605F0A5FA0028B4
:101610006BD000231D460A9399461E46FFF73CBB3C
:1016200044F61F629042A8BF10460D90FFF7CBBB57
:10163000DDE904120F92002A7FF475AE22239FED9C
:10164000488B1A98CAF8003045E6CDE9144589E67A
:101650004B4919A804F042F800283FF4F1AA199B5D
:101660004849013B19A8199304F038F810B9199B9F
:10167000013319939FED3C8BFFF7D7BB1028DCBFDC
:1016800009EB890901EB490905460023FFF7BABABE
:101690000023FFF7A4BA1A9A3AB135211CA804F026
:1016A00025FF1A99504604F077FA013C042C3FF6C6
:1016B0005DAF01A353F824F057150108E1160108A6
:1016C000DB160108CD160108571501084FF0FF334E
:1016D0006FF00040CDE9043048E72B4B059345E718
:1016E0001C9B04931D9B059340E7199A13465A448B
:1016F000199213F80B4006468146FFF765BA0C981D
:101700001D4901EBC001DDE90423D1E90001EFF738
:1017100017FC41EC180BFFF788BB0A958346FFF7CF
:1017200074BA9FED137B194D8DED167B00245DE59A
:10173000114CC5F10F0504EBC501DDE90423D1E926
:101740000001EFF7FDFB0C9B5D1B04EBC504D4E926
:101750000023EFF7F5FB41EC180BFFF766BB00BF6A
:101760000000000000000000000000000000F07F0A
:10177000000000000000E0BF6096010848930108E7
:10178000389301083C9301080000F07F0000E03F1F
:10179000709301080E9B002B70D0DDE90445954B3A
:1017A000C5F3130199422A463FD0002F00F0B880BC
:1017B000DDE904231F421C4623D0B0EE480AF0EEB8
:1017C000680A0E9B002B00F0B68004F069FD089BB0
:1017D00051EC100B6BB1C4F30A54C4F16B04002C30
:1017E00007DD240504F17F53002203F54013EFF7D2
:1017F000A7FB02460B4651EC180BEEF727FD41EC18
:10180000180B089B7BB151EC180B7B4B0022EFF7B8
:1018100097FB41EC180B18EE902A0346134304BFC4
:101820002223CAF800301A9855E5089B0499002B2A
:1018300000F0B280714B2B40B3F1D46F00F2AC805A
:101840001B0DC3F16B034FF0FF3000FA03F3994215
:10185000ABD16B4B9A4200F0C780684B134003F545
:1018600080130593002304939DED048BC9E702F1D7
:101870005473059300230893FFF70BBBDDE90412B3
:10188000C2F313030B4314468FD1089B002B40F087
:10189000A0805A4B2340A3F580136FEA13536FEADD
:1018A000035305934FF0FF3304939DED048BA8E79A
:1018B000DDE904010E9B0343A3D1C1F313030C46DE
:1018C000002B9ED121F000431B0D1B05B3F1D66FF9
:1018D00097D9D8F814301BB9D8F81030012B90DD07
:1018E00041460122504604F09BFB5946804604F0D5
:1018F0000FFC002885DDC8E7424919A81CAA03F09F
:1019000009FF05287FF487AA1D9B43F0FF4343F49A
:10191000E00305931C9B04939DED048BFFF785BAB0
:10192000DDE904010A9B03423FF46BAF0C4644E738
:101930004FF0000945E504F0B3FC089953EC102B77
:10194000B9B3C4F30A54C4F16B04002C0CDD2405B4
:10195000194604F17F530E9A03F5401310EE100A56
:10196000EFF7EEFA02460B4651EC180BEEF76CFC63
:1019700002460B4643EC182B00220023EFF748FDEC
:1019800000283FF440AF59E64FF0FF3202FA03F36C
:10199000049A1A400492CFE54FF0FF3357E74FF017
:1019A000FF33C2F14B0203FA02F202EA010305938C
:1019B000C2E551EC180BEEF747FC02460B4643EC30
:1019C000182B00220023EFF723FD00283FF42BAF54
:1019D00034E60A4B2340B3F1D66F3FF75CAFB3F167
:1019E0005C7F3FF710AF29E601317FF436AFFFF798
:1019F000BABB00BFFFFF0F00000050390000F07FAE
:101A0000FFFFEF7F5C93010810B4054C054B844643
:101A10000A4620685DF8044B6146FFF74DB800BFE9
:101A2000D8010020200A00202DE9F04F2DED0A8B6F
:101A3000CFB01C460AEE101A91460AEE900A0546EF
:101A400003F044FF0368139318460994EFF7B8F9BD
:101A500012901DB1AB6B002B00F048821AEE102AD9
:101A6000536EDB0740F14781B2F90C309AB296040D
:101A700009D41AEE101A43F400538B819AB24B6EBC
:101A800023F400534B66150740F1CC801AEE103A50
:101A90001B69002B00F0C68002F01A030A2B00F02D
:101AA000D2804D469FED9C7B2B78002425AACDE962
:101AB0002344CDE91544CDE917448DED107B1AEE92
:101AC000909A0E942292904614940694002B00F063
:101AD000B081AB4604E01BF8013F002B00F0CD8045
:101AE000252BF8D1BBEB050640F0CB809BF80030EE
:101AF000002B00F09E8100234FF0FF329BF8017015
:101B00008DF86B3005930BF1010B04929A462B2450
:101B100020210BF1010BA7F120035A2B00F20081C9
:101B2000DFE813F00A03FE00FE000503FE00FE00DE
:101B3000FE006A00FE00FE0076029E02FE008102A8
:101B4000A802FE00A3025B005B005B005B005B0081
:101B50005B005B005B005B00FE00FE00FE00FE0021
:101B6000FE00FE00FE008E01FE001602ED018E0159
:101B70008E018E01FE00FE00FE00FE000003FE004E
:101B8000FE004502FE00FE00FE002002FE00C20232
:101B9000FE00FE009907FE00FE00FE00FE00FE00B3
:101BA000FE00FE00FE008E01FE001602EF018E0117
:101BB0008E018E01E602EF01E801FE00F302FE0055
:101BC00086024702D402E801FE0020027D0075076C
:101BD000FE00FE007907FE007D00A7F13003002221
:101BE0001BF8017B02EB820203EB4202A7F13003F8
:101BF000092BF5D905928EE7484603F067FE436846
:101C000017931846EFF7DCF818900646484603F09D
:101C10005DFE836815932021002E40F0E9869BF835
:101C2000007076E71AEE101A1AEE900A1AEE105AA1
