Archive member included to satisfy reference by file (symbol)

d:/sysgcc/arm-eabi/bin/../lib/gcc/arm-none-eabi/10.3.1/thumb/v7e-m+fp/hard\libgcc.a(_arm_addsubdf3.o)
                              CMakeFiles/foc.elf.dir/dgm/calibration.c.obj (__aeabi_f2d)
d:/sysgcc/arm-eabi/bin/../lib/gcc/arm-none-eabi/10.3.1/thumb/v7e-m+fp/hard\libgcc.a(_arm_fixdfsi.o)
                              CMakeFiles/foc.elf.dir/dgm/calibration.c.obj (__aeabi_d2iz)
d:/sysgcc/arm-eabi/bin/../lib/gcc/arm-none-eabi/10.3.1/thumb/v7e-m+fp/hard\libgcc.a(_arm_truncdfsf2.o)
                              CMakeFiles/foc.elf.dir/Core/Src/app_freertos.c.obj (__aeabi_d2f)
d:/sysgcc/arm-eabi/bin/../lib/gcc/arm-none-eabi/10.3.1/thumb/v7e-m+fp/hard\libgcc.a(_arm_addsubsf3.o)
                              CMakeFiles/foc.elf.dir/dgm/calibration.c.obj (__aeabi_l2f)
d:/sysgcc/arm-eabi/bin/../lib/gcc/arm-none-eabi/10.3.1/thumb/v7e-m+fp/hard\libgcc.a(_aeabi_ldivmod.o)
                              CMakeFiles/foc.elf.dir/dgm/calibration.c.obj (__aeabi_ldivmod)
d:/sysgcc/arm-eabi/bin/../lib/gcc/arm-none-eabi/10.3.1/thumb/v7e-m+fp/hard\libgcc.a(_aeabi_uldivmod.o)
                              CMakeFiles/foc.elf.dir/Drivers/STM32G4xx_HAL_Driver/Src/stm32g4xx_hal_uart.c.obj (__aeabi_uldivmod)
d:/sysgcc/arm-eabi/bin/../lib/gcc/arm-none-eabi/10.3.1/thumb/v7e-m+fp/hard\libgcc.a(_udivmoddi4.o)
                              d:/sysgcc/arm-eabi/bin/../lib/gcc/arm-none-eabi/10.3.1/thumb/v7e-m+fp/hard\libgcc.a(_aeabi_ldivmod.o) (__udivmoddi4)
d:/sysgcc/arm-eabi/bin/../lib/gcc/arm-none-eabi/10.3.1/thumb/v7e-m+fp/hard\libgcc.a(_dvmd_tls.o)
                              d:/sysgcc/arm-eabi/bin/../lib/gcc/arm-none-eabi/10.3.1/thumb/v7e-m+fp/hard\libgcc.a(_aeabi_ldivmod.o) (__aeabi_ldiv0)
d:/sysgcc/arm-eabi/bin/../lib/gcc/arm-none-eabi/10.3.1/../../../../arm-none-eabi/lib/thumb/v7e-m+fp/hard\libg.a(lib_a-atof.o)
                              CMakeFiles/foc.elf.dir/Core/Src/app_freertos.c.obj (atof)
d:/sysgcc/arm-eabi/bin/../lib/gcc/arm-none-eabi/10.3.1/../../../../arm-none-eabi/lib/thumb/v7e-m+fp/hard\libg.a(lib_a-errno.o)
                              CMakeFiles/foc.elf.dir/Core/Src/syscalls.c.obj (__errno)
d:/sysgcc/arm-eabi/bin/../lib/gcc/arm-none-eabi/10.3.1/../../../../arm-none-eabi/lib/thumb/v7e-m+fp/hard\libg.a(lib_a-exit.o)
                              d:/sysgcc/arm-eabi/bin/../lib/gcc/arm-none-eabi/10.3.1/../../../../arm-none-eabi/lib/thumb/v7e-m+fp/hard/crt0.o (exit)
d:/sysgcc/arm-eabi/bin/../lib/gcc/arm-none-eabi/10.3.1/../../../../arm-none-eabi/lib/thumb/v7e-m+fp/hard\libg.a(lib_a-impure.o)
                              d:/sysgcc/arm-eabi/bin/../lib/gcc/arm-none-eabi/10.3.1/../../../../arm-none-eabi/lib/thumb/v7e-m+fp/hard\libg.a(lib_a-exit.o) (_global_impure_ptr)
d:/sysgcc/arm-eabi/bin/../lib/gcc/arm-none-eabi/10.3.1/../../../../arm-none-eabi/lib/thumb/v7e-m+fp/hard\libg.a(lib_a-init.o)
                              d:/sysgcc/arm-eabi/bin/../lib/gcc/arm-none-eabi/10.3.1/../../../../arm-none-eabi/lib/thumb/v7e-m+fp/hard/crt0.o (__libc_init_array)
d:/sysgcc/arm-eabi/bin/../lib/gcc/arm-none-eabi/10.3.1/../../../../arm-none-eabi/lib/thumb/v7e-m+fp/hard\libg.a(lib_a-malloc.o)
                              CMakeFiles/foc.elf.dir/dgm/calibration.c.obj (malloc)
d:/sysgcc/arm-eabi/bin/../lib/gcc/arm-none-eabi/10.3.1/../../../../arm-none-eabi/lib/thumb/v7e-m+fp/hard\libg.a(lib_a-mallocr.o)
                              d:/sysgcc/arm-eabi/bin/../lib/gcc/arm-none-eabi/10.3.1/../../../../arm-none-eabi/lib/thumb/v7e-m+fp/hard\libg.a(lib_a-malloc.o) (_malloc_r)
d:/sysgcc/arm-eabi/bin/../lib/gcc/arm-none-eabi/10.3.1/../../../../arm-none-eabi/lib/thumb/v7e-m+fp/hard\libg.a(lib_a-memcpy.o)
                              CMakeFiles/foc.elf.dir/Middlewares/Third_Party/FreeRTOS/Source/CMSIS_RTOS_V2/cmsis_os2.c.obj (memcpy)
d:/sysgcc/arm-eabi/bin/../lib/gcc/arm-none-eabi/10.3.1/../../../../arm-none-eabi/lib/thumb/v7e-m+fp/hard\libg.a(lib_a-memset.o)
                              d:/sysgcc/arm-eabi/bin/../lib/gcc/arm-none-eabi/10.3.1/../../../../arm-none-eabi/lib/thumb/v7e-m+fp/hard/crt0.o (memset)
d:/sysgcc/arm-eabi/bin/../lib/gcc/arm-none-eabi/10.3.1/../../../../arm-none-eabi/lib/thumb/v7e-m+fp/hard\libg.a(lib_a-mlock.o)
                              d:/sysgcc/arm-eabi/bin/../lib/gcc/arm-none-eabi/10.3.1/../../../../arm-none-eabi/lib/thumb/v7e-m+fp/hard\libg.a(lib_a-mallocr.o) (__malloc_lock)
d:/sysgcc/arm-eabi/bin/../lib/gcc/arm-none-eabi/10.3.1/../../../../arm-none-eabi/lib/thumb/v7e-m+fp/hard\libg.a(lib_a-printf.o)
                              CMakeFiles/foc.elf.dir/dgm/mc_task.c.obj (printf)
d:/sysgcc/arm-eabi/bin/../lib/gcc/arm-none-eabi/10.3.1/../../../../arm-none-eabi/lib/thumb/v7e-m+fp/hard\libg.a(lib_a-puts.o)
                              CMakeFiles/foc.elf.dir/Core/Src/app_freertos.c.obj (puts)
d:/sysgcc/arm-eabi/bin/../lib/gcc/arm-none-eabi/10.3.1/../../../../arm-none-eabi/lib/thumb/v7e-m+fp/hard\libg.a(lib_a-reent.o)
                              CMakeFiles/foc.elf.dir/Middlewares/Third_Party/FreeRTOS/Source/tasks.c.obj (_reclaim_reent)
d:/sysgcc/arm-eabi/bin/../lib/gcc/arm-none-eabi/10.3.1/../../../../arm-none-eabi/lib/thumb/v7e-m+fp/hard\libg.a(lib_a-sbrkr.o)
                              d:/sysgcc/arm-eabi/bin/../lib/gcc/arm-none-eabi/10.3.1/../../../../arm-none-eabi/lib/thumb/v7e-m+fp/hard\libg.a(lib_a-mallocr.o) (_sbrk_r)
d:/sysgcc/arm-eabi/bin/../lib/gcc/arm-none-eabi/10.3.1/../../../../arm-none-eabi/lib/thumb/v7e-m+fp/hard\libg.a(lib_a-strlen.o)
                              CMakeFiles/foc.elf.dir/Core/Src/app_freertos.c.obj (strlen)
d:/sysgcc/arm-eabi/bin/../lib/gcc/arm-none-eabi/10.3.1/../../../../arm-none-eabi/lib/thumb/v7e-m+fp/hard\libg.a(lib_a-strstr.o)
                              CMakeFiles/foc.elf.dir/Core/Src/app_freertos.c.obj (strstr)
d:/sysgcc/arm-eabi/bin/../lib/gcc/arm-none-eabi/10.3.1/../../../../arm-none-eabi/lib/thumb/v7e-m+fp/hard\libg.a(lib_a-strtod.o)
                              d:/sysgcc/arm-eabi/bin/../lib/gcc/arm-none-eabi/10.3.1/../../../../arm-none-eabi/lib/thumb/v7e-m+fp/hard\libg.a(lib_a-atof.o) (strtod)
d:/sysgcc/arm-eabi/bin/../lib/gcc/arm-none-eabi/10.3.1/../../../../arm-none-eabi/lib/thumb/v7e-m+fp/hard\libg.a(lib_a-vfprintf.o)
                              d:/sysgcc/arm-eabi/bin/../lib/gcc/arm-none-eabi/10.3.1/../../../../arm-none-eabi/lib/thumb/v7e-m+fp/hard\libg.a(lib_a-printf.o) (_vfprintf_r)
d:/sysgcc/arm-eabi/bin/../lib/gcc/arm-none-eabi/10.3.1/../../../../arm-none-eabi/lib/thumb/v7e-m+fp/hard\libg.a(lib_a-wsetup.o)
                              d:/sysgcc/arm-eabi/bin/../lib/gcc/arm-none-eabi/10.3.1/../../../../arm-none-eabi/lib/thumb/v7e-m+fp/hard\libg.a(lib_a-vfprintf.o) (__swsetup_r)
d:/sysgcc/arm-eabi/bin/../lib/gcc/arm-none-eabi/10.3.1/../../../../arm-none-eabi/lib/thumb/v7e-m+fp/hard\libg.a(lib_a-__call_atexit.o)
                              d:/sysgcc/arm-eabi/bin/../lib/gcc/arm-none-eabi/10.3.1/../../../../arm-none-eabi/lib/thumb/v7e-m+fp/hard\libg.a(lib_a-exit.o) (__call_exitprocs)
d:/sysgcc/arm-eabi/bin/../lib/gcc/arm-none-eabi/10.3.1/../../../../arm-none-eabi/lib/thumb/v7e-m+fp/hard\libg.a(lib_a-atexit.o)
                              d:/sysgcc/arm-eabi/bin/../lib/gcc/arm-none-eabi/10.3.1/../../../../arm-none-eabi/lib/thumb/v7e-m+fp/hard\libg.a(lib_a-__call_atexit.o) (atexit)
d:/sysgcc/arm-eabi/bin/../lib/gcc/arm-none-eabi/10.3.1/../../../../arm-none-eabi/lib/thumb/v7e-m+fp/hard\libg.a(lib_a-dtoa.o)
                              d:/sysgcc/arm-eabi/bin/../lib/gcc/arm-none-eabi/10.3.1/../../../../arm-none-eabi/lib/thumb/v7e-m+fp/hard\libg.a(lib_a-vfprintf.o) (_dtoa_r)
d:/sysgcc/arm-eabi/bin/../lib/gcc/arm-none-eabi/10.3.1/../../../../arm-none-eabi/lib/thumb/v7e-m+fp/hard\libg.a(lib_a-fflush.o)
                              d:/sysgcc/arm-eabi/bin/../lib/gcc/arm-none-eabi/10.3.1/../../../../arm-none-eabi/lib/thumb/v7e-m+fp/hard\libg.a(lib_a-vfprintf.o) (_fflush_r)
d:/sysgcc/arm-eabi/bin/../lib/gcc/arm-none-eabi/10.3.1/../../../../arm-none-eabi/lib/thumb/v7e-m+fp/hard\libg.a(lib_a-findfp.o)
                              d:/sysgcc/arm-eabi/bin/../lib/gcc/arm-none-eabi/10.3.1/../../../../arm-none-eabi/lib/thumb/v7e-m+fp/hard\libg.a(lib_a-puts.o) (__sinit)
d:/sysgcc/arm-eabi/bin/../lib/gcc/arm-none-eabi/10.3.1/../../../../arm-none-eabi/lib/thumb/v7e-m+fp/hard\libg.a(lib_a-fini.o)
                              d:/sysgcc/arm-eabi/bin/../lib/gcc/arm-none-eabi/10.3.1/../../../../arm-none-eabi/lib/thumb/v7e-m+fp/hard\libg.a(lib_a-__call_atexit.o) (__libc_fini_array)
d:/sysgcc/arm-eabi/bin/../lib/gcc/arm-none-eabi/10.3.1/../../../../arm-none-eabi/lib/thumb/v7e-m+fp/hard\libg.a(lib_a-freer.o)
                              d:/sysgcc/arm-eabi/bin/../lib/gcc/arm-none-eabi/10.3.1/../../../../arm-none-eabi/lib/thumb/v7e-m+fp/hard\libg.a(lib_a-malloc.o) (_free_r)
d:/sysgcc/arm-eabi/bin/../lib/gcc/arm-none-eabi/10.3.1/../../../../arm-none-eabi/lib/thumb/v7e-m+fp/hard\libg.a(lib_a-fvwrite.o)
                              d:/sysgcc/arm-eabi/bin/../lib/gcc/arm-none-eabi/10.3.1/../../../../arm-none-eabi/lib/thumb/v7e-m+fp/hard\libg.a(lib_a-puts.o) (__sfvwrite_r)
d:/sysgcc/arm-eabi/bin/../lib/gcc/arm-none-eabi/10.3.1/../../../../arm-none-eabi/lib/thumb/v7e-m+fp/hard\libg.a(lib_a-fwalk.o)
                              d:/sysgcc/arm-eabi/bin/../lib/gcc/arm-none-eabi/10.3.1/../../../../arm-none-eabi/lib/thumb/v7e-m+fp/hard\libg.a(lib_a-findfp.o) (_fwalk)
d:/sysgcc/arm-eabi/bin/../lib/gcc/arm-none-eabi/10.3.1/../../../../arm-none-eabi/lib/thumb/v7e-m+fp/hard\libg.a(lib_a-gdtoa-gethex.o)
                              d:/sysgcc/arm-eabi/bin/../lib/gcc/arm-none-eabi/10.3.1/../../../../arm-none-eabi/lib/thumb/v7e-m+fp/hard\libg.a(lib_a-strtod.o) (__gethex)
d:/sysgcc/arm-eabi/bin/../lib/gcc/arm-none-eabi/10.3.1/../../../../arm-none-eabi/lib/thumb/v7e-m+fp/hard\libg.a(lib_a-gdtoa-hexnan.o)
                              d:/sysgcc/arm-eabi/bin/../lib/gcc/arm-none-eabi/10.3.1/../../../../arm-none-eabi/lib/thumb/v7e-m+fp/hard\libg.a(lib_a-strtod.o) (__match)
d:/sysgcc/arm-eabi/bin/../lib/gcc/arm-none-eabi/10.3.1/../../../../arm-none-eabi/lib/thumb/v7e-m+fp/hard\libg.a(lib_a-lnumeric.o)
                              d:/sysgcc/arm-eabi/bin/../lib/gcc/arm-none-eabi/10.3.1/../../../../arm-none-eabi/lib/thumb/v7e-m+fp/hard\libg.a(lib_a-strtod.o) (_C_numeric_locale)
d:/sysgcc/arm-eabi/bin/../lib/gcc/arm-none-eabi/10.3.1/../../../../arm-none-eabi/lib/thumb/v7e-m+fp/hard\libg.a(lib_a-locale.o)
                              d:/sysgcc/arm-eabi/bin/../lib/gcc/arm-none-eabi/10.3.1/../../../../arm-none-eabi/lib/thumb/v7e-m+fp/hard\libg.a(lib_a-strtod.o) (__global_locale)
d:/sysgcc/arm-eabi/bin/../lib/gcc/arm-none-eabi/10.3.1/../../../../arm-none-eabi/lib/thumb/v7e-m+fp/hard\libg.a(lib_a-localeconv.o)
                              d:/sysgcc/arm-eabi/bin/../lib/gcc/arm-none-eabi/10.3.1/../../../../arm-none-eabi/lib/thumb/v7e-m+fp/hard\libg.a(lib_a-vfprintf.o) (_localeconv_r)
d:/sysgcc/arm-eabi/bin/../lib/gcc/arm-none-eabi/10.3.1/../../../../arm-none-eabi/lib/thumb/v7e-m+fp/hard\libg.a(lib_a-lock.o)
                              d:/sysgcc/arm-eabi/bin/../lib/gcc/arm-none-eabi/10.3.1/../../../../arm-none-eabi/lib/thumb/v7e-m+fp/hard\libg.a(lib_a-vfprintf.o) (__retarget_lock_init_recursive)
d:/sysgcc/arm-eabi/bin/../lib/gcc/arm-none-eabi/10.3.1/../../../../arm-none-eabi/lib/thumb/v7e-m+fp/hard\libg.a(lib_a-makebuf.o)
                              d:/sysgcc/arm-eabi/bin/../lib/gcc/arm-none-eabi/10.3.1/../../../../arm-none-eabi/lib/thumb/v7e-m+fp/hard\libg.a(lib_a-wsetup.o) (__smakebuf_r)
d:/sysgcc/arm-eabi/bin/../lib/gcc/arm-none-eabi/10.3.1/../../../../arm-none-eabi/lib/thumb/v7e-m+fp/hard\libg.a(lib_a-mbtowc_r.o)
                              d:/sysgcc/arm-eabi/bin/../lib/gcc/arm-none-eabi/10.3.1/../../../../arm-none-eabi/lib/thumb/v7e-m+fp/hard\libg.a(lib_a-locale.o) (__ascii_mbtowc)
d:/sysgcc/arm-eabi/bin/../lib/gcc/arm-none-eabi/10.3.1/../../../../arm-none-eabi/lib/thumb/v7e-m+fp/hard\libg.a(lib_a-memchr.o)
                              d:/sysgcc/arm-eabi/bin/../lib/gcc/arm-none-eabi/10.3.1/../../../../arm-none-eabi/lib/thumb/v7e-m+fp/hard\libg.a(lib_a-vfprintf.o) (memchr)
d:/sysgcc/arm-eabi/bin/../lib/gcc/arm-none-eabi/10.3.1/../../../../arm-none-eabi/lib/thumb/v7e-m+fp/hard\libg.a(lib_a-memcmp.o)
                              d:/sysgcc/arm-eabi/bin/../lib/gcc/arm-none-eabi/10.3.1/../../../../arm-none-eabi/lib/thumb/v7e-m+fp/hard\libg.a(lib_a-strstr.o) (memcmp)
d:/sysgcc/arm-eabi/bin/../lib/gcc/arm-none-eabi/10.3.1/../../../../arm-none-eabi/lib/thumb/v7e-m+fp/hard\libg.a(lib_a-memmove.o)
                              d:/sysgcc/arm-eabi/bin/../lib/gcc/arm-none-eabi/10.3.1/../../../../arm-none-eabi/lib/thumb/v7e-m+fp/hard\libg.a(lib_a-fvwrite.o) (memmove)
d:/sysgcc/arm-eabi/bin/../lib/gcc/arm-none-eabi/10.3.1/../../../../arm-none-eabi/lib/thumb/v7e-m+fp/hard\libg.a(lib_a-mprec.o)
                              d:/sysgcc/arm-eabi/bin/../lib/gcc/arm-none-eabi/10.3.1/../../../../arm-none-eabi/lib/thumb/v7e-m+fp/hard\libg.a(lib_a-strtod.o) (_Balloc)
d:/sysgcc/arm-eabi/bin/../lib/gcc/arm-none-eabi/10.3.1/../../../../arm-none-eabi/lib/thumb/v7e-m+fp/hard\libg.a(lib_a-reallocr.o)
                              d:/sysgcc/arm-eabi/bin/../lib/gcc/arm-none-eabi/10.3.1/../../../../arm-none-eabi/lib/thumb/v7e-m+fp/hard\libg.a(lib_a-fvwrite.o) (_realloc_r)
d:/sysgcc/arm-eabi/bin/../lib/gcc/arm-none-eabi/10.3.1/../../../../arm-none-eabi/lib/thumb/v7e-m+fp/hard\libg.a(lib_a-s_frexp.o)
                              d:/sysgcc/arm-eabi/bin/../lib/gcc/arm-none-eabi/10.3.1/../../../../arm-none-eabi/lib/thumb/v7e-m+fp/hard\libg.a(lib_a-vfprintf.o) (frexp)
d:/sysgcc/arm-eabi/bin/../lib/gcc/arm-none-eabi/10.3.1/../../../../arm-none-eabi/lib/thumb/v7e-m+fp/hard\libg.a(lib_a-s_nan.o)
                              d:/sysgcc/arm-eabi/bin/../lib/gcc/arm-none-eabi/10.3.1/../../../../arm-none-eabi/lib/thumb/v7e-m+fp/hard\libg.a(lib_a-strtod.o) (nan)
d:/sysgcc/arm-eabi/bin/../lib/gcc/arm-none-eabi/10.3.1/../../../../arm-none-eabi/lib/thumb/v7e-m+fp/hard\libg.a(lib_a-sf_nan.o)
                              d:/sysgcc/arm-eabi/bin/../lib/gcc/arm-none-eabi/10.3.1/../../../../arm-none-eabi/lib/thumb/v7e-m+fp/hard\libg.a(lib_a-strtod.o) (nanf)
d:/sysgcc/arm-eabi/bin/../lib/gcc/arm-none-eabi/10.3.1/../../../../arm-none-eabi/lib/thumb/v7e-m+fp/hard\libg.a(lib_a-stdio.o)
                              d:/sysgcc/arm-eabi/bin/../lib/gcc/arm-none-eabi/10.3.1/../../../../arm-none-eabi/lib/thumb/v7e-m+fp/hard\libg.a(lib_a-findfp.o) (__sread)
d:/sysgcc/arm-eabi/bin/../lib/gcc/arm-none-eabi/10.3.1/../../../../arm-none-eabi/lib/thumb/v7e-m+fp/hard\libg.a(lib_a-strchr.o)
                              d:/sysgcc/arm-eabi/bin/../lib/gcc/arm-none-eabi/10.3.1/../../../../arm-none-eabi/lib/thumb/v7e-m+fp/hard\libg.a(lib_a-strstr.o) (strchr)
d:/sysgcc/arm-eabi/bin/../lib/gcc/arm-none-eabi/10.3.1/../../../../arm-none-eabi/lib/thumb/v7e-m+fp/hard\libg.a(lib_a-strcmp.o)
                              d:/sysgcc/arm-eabi/bin/../lib/gcc/arm-none-eabi/10.3.1/../../../../arm-none-eabi/lib/thumb/v7e-m+fp/hard\libg.a(lib_a-locale.o) (strcmp)
d:/sysgcc/arm-eabi/bin/../lib/gcc/arm-none-eabi/10.3.1/../../../../arm-none-eabi/lib/thumb/v7e-m+fp/hard\libg.a(lib_a-strncmp.o)
                              d:/sysgcc/arm-eabi/bin/../lib/gcc/arm-none-eabi/10.3.1/../../../../arm-none-eabi/lib/thumb/v7e-m+fp/hard\libg.a(lib_a-strtod.o) (strncmp)
d:/sysgcc/arm-eabi/bin/../lib/gcc/arm-none-eabi/10.3.1/../../../../arm-none-eabi/lib/thumb/v7e-m+fp/hard\libg.a(lib_a-strncpy.o)
                              d:/sysgcc/arm-eabi/bin/../lib/gcc/arm-none-eabi/10.3.1/../../../../arm-none-eabi/lib/thumb/v7e-m+fp/hard\libg.a(lib_a-vfprintf.o) (strncpy)
d:/sysgcc/arm-eabi/bin/../lib/gcc/arm-none-eabi/10.3.1/../../../../arm-none-eabi/lib/thumb/v7e-m+fp/hard\libg.a(lib_a-strnlen.o)
                              d:/sysgcc/arm-eabi/bin/../lib/gcc/arm-none-eabi/10.3.1/../../../../arm-none-eabi/lib/thumb/v7e-m+fp/hard\libg.a(lib_a-strstr.o) (strnlen)
d:/sysgcc/arm-eabi/bin/../lib/gcc/arm-none-eabi/10.3.1/../../../../arm-none-eabi/lib/thumb/v7e-m+fp/hard\libg.a(lib_a-vfiprintf.o)
                              d:/sysgcc/arm-eabi/bin/../lib/gcc/arm-none-eabi/10.3.1/../../../../arm-none-eabi/lib/thumb/v7e-m+fp/hard\libg.a(lib_a-vfprintf.o) (__sprint_r)
d:/sysgcc/arm-eabi/bin/../lib/gcc/arm-none-eabi/10.3.1/../../../../arm-none-eabi/lib/thumb/v7e-m+fp/hard\libg.a(lib_a-wctomb_r.o)
                              d:/sysgcc/arm-eabi/bin/../lib/gcc/arm-none-eabi/10.3.1/../../../../arm-none-eabi/lib/thumb/v7e-m+fp/hard\libg.a(lib_a-locale.o) (__ascii_wctomb)
d:/sysgcc/arm-eabi/bin/../lib/gcc/arm-none-eabi/10.3.1/../../../../arm-none-eabi/lib/thumb/v7e-m+fp/hard\libg.a(lib_a-writer.o)
                              d:/sysgcc/arm-eabi/bin/../lib/gcc/arm-none-eabi/10.3.1/../../../../arm-none-eabi/lib/thumb/v7e-m+fp/hard\libg.a(lib_a-stdio.o) (_write_r)
d:/sysgcc/arm-eabi/bin/../lib/gcc/arm-none-eabi/10.3.1/../../../../arm-none-eabi/lib/thumb/v7e-m+fp/hard\libg.a(lib_a-__atexit.o)
                              d:/sysgcc/arm-eabi/bin/../lib/gcc/arm-none-eabi/10.3.1/../../../../arm-none-eabi/lib/thumb/v7e-m+fp/hard\libg.a(lib_a-atexit.o) (__register_exitproc)
d:/sysgcc/arm-eabi/bin/../lib/gcc/arm-none-eabi/10.3.1/../../../../arm-none-eabi/lib/thumb/v7e-m+fp/hard\libg.a(lib_a-assert.o)
                              d:/sysgcc/arm-eabi/bin/../lib/gcc/arm-none-eabi/10.3.1/../../../../arm-none-eabi/lib/thumb/v7e-m+fp/hard\libg.a(lib_a-dtoa.o) (__assert_func)
d:/sysgcc/arm-eabi/bin/../lib/gcc/arm-none-eabi/10.3.1/../../../../arm-none-eabi/lib/thumb/v7e-m+fp/hard\libg.a(lib_a-callocr.o)
                              d:/sysgcc/arm-eabi/bin/../lib/gcc/arm-none-eabi/10.3.1/../../../../arm-none-eabi/lib/thumb/v7e-m+fp/hard\libg.a(lib_a-mprec.o) (_calloc_r)
d:/sysgcc/arm-eabi/bin/../lib/gcc/arm-none-eabi/10.3.1/../../../../arm-none-eabi/lib/thumb/v7e-m+fp/hard\libg.a(lib_a-closer.o)
                              d:/sysgcc/arm-eabi/bin/../lib/gcc/arm-none-eabi/10.3.1/../../../../arm-none-eabi/lib/thumb/v7e-m+fp/hard\libg.a(lib_a-stdio.o) (_close_r)
d:/sysgcc/arm-eabi/bin/../lib/gcc/arm-none-eabi/10.3.1/../../../../arm-none-eabi/lib/thumb/v7e-m+fp/hard\libg.a(lib_a-ctype_.o)
                              d:/sysgcc/arm-eabi/bin/../lib/gcc/arm-none-eabi/10.3.1/../../../../arm-none-eabi/lib/thumb/v7e-m+fp/hard\libg.a(lib_a-locale.o) (_ctype_)
d:/sysgcc/arm-eabi/bin/../lib/gcc/arm-none-eabi/10.3.1/../../../../arm-none-eabi/lib/thumb/v7e-m+fp/hard\libg.a(lib_a-fclose.o)
                              d:/sysgcc/arm-eabi/bin/../lib/gcc/arm-none-eabi/10.3.1/../../../../arm-none-eabi/lib/thumb/v7e-m+fp/hard\libg.a(lib_a-findfp.o) (_fclose_r)
d:/sysgcc/arm-eabi/bin/../lib/gcc/arm-none-eabi/10.3.1/../../../../arm-none-eabi/lib/thumb/v7e-m+fp/hard\libg.a(lib_a-fiprintf.o)
                              d:/sysgcc/arm-eabi/bin/../lib/gcc/arm-none-eabi/10.3.1/../../../../arm-none-eabi/lib/thumb/v7e-m+fp/hard\libg.a(lib_a-assert.o) (fiprintf)
d:/sysgcc/arm-eabi/bin/../lib/gcc/arm-none-eabi/10.3.1/../../../../arm-none-eabi/lib/thumb/v7e-m+fp/hard\libg.a(lib_a-fputwc.o)
                              d:/sysgcc/arm-eabi/bin/../lib/gcc/arm-none-eabi/10.3.1/../../../../arm-none-eabi/lib/thumb/v7e-m+fp/hard\libg.a(lib_a-vfiprintf.o) (_fputwc_r)
d:/sysgcc/arm-eabi/bin/../lib/gcc/arm-none-eabi/10.3.1/../../../../arm-none-eabi/lib/thumb/v7e-m+fp/hard\libg.a(lib_a-fstatr.o)
                              d:/sysgcc/arm-eabi/bin/../lib/gcc/arm-none-eabi/10.3.1/../../../../arm-none-eabi/lib/thumb/v7e-m+fp/hard\libg.a(lib_a-makebuf.o) (_fstat_r)
d:/sysgcc/arm-eabi/bin/../lib/gcc/arm-none-eabi/10.3.1/../../../../arm-none-eabi/lib/thumb/v7e-m+fp/hard\libg.a(lib_a-isattyr.o)
                              d:/sysgcc/arm-eabi/bin/../lib/gcc/arm-none-eabi/10.3.1/../../../../arm-none-eabi/lib/thumb/v7e-m+fp/hard\libg.a(lib_a-makebuf.o) (_isatty_r)
d:/sysgcc/arm-eabi/bin/../lib/gcc/arm-none-eabi/10.3.1/../../../../arm-none-eabi/lib/thumb/v7e-m+fp/hard\libg.a(lib_a-lseekr.o)
                              d:/sysgcc/arm-eabi/bin/../lib/gcc/arm-none-eabi/10.3.1/../../../../arm-none-eabi/lib/thumb/v7e-m+fp/hard\libg.a(lib_a-stdio.o) (_lseek_r)
d:/sysgcc/arm-eabi/bin/../lib/gcc/arm-none-eabi/10.3.1/../../../../arm-none-eabi/lib/thumb/v7e-m+fp/hard\libg.a(lib_a-readr.o)
                              d:/sysgcc/arm-eabi/bin/../lib/gcc/arm-none-eabi/10.3.1/../../../../arm-none-eabi/lib/thumb/v7e-m+fp/hard\libg.a(lib_a-stdio.o) (_read_r)
d:/sysgcc/arm-eabi/bin/../lib/gcc/arm-none-eabi/10.3.1/../../../../arm-none-eabi/lib/thumb/v7e-m+fp/hard\libg.a(lib_a-wbuf.o)
                              d:/sysgcc/arm-eabi/bin/../lib/gcc/arm-none-eabi/10.3.1/../../../../arm-none-eabi/lib/thumb/v7e-m+fp/hard\libg.a(lib_a-fputwc.o) (__swbuf_r)
d:/sysgcc/arm-eabi/bin/../lib/gcc/arm-none-eabi/10.3.1/../../../../arm-none-eabi/lib/thumb/v7e-m+fp/hard\libg.a(lib_a-wcrtomb.o)
                              d:/sysgcc/arm-eabi/bin/../lib/gcc/arm-none-eabi/10.3.1/../../../../arm-none-eabi/lib/thumb/v7e-m+fp/hard\libg.a(lib_a-fputwc.o) (_wcrtomb_r)
d:/sysgcc/arm-eabi/bin/../lib/gcc/arm-none-eabi/10.3.1/../../../../arm-none-eabi/lib/thumb/v7e-m+fp/hard\libg.a(lib_a-abort.o)
                              d:/sysgcc/arm-eabi/bin/../lib/gcc/arm-none-eabi/10.3.1/../../../../arm-none-eabi/lib/thumb/v7e-m+fp/hard\libg.a(lib_a-assert.o) (abort)
d:/sysgcc/arm-eabi/bin/../lib/gcc/arm-none-eabi/10.3.1/../../../../arm-none-eabi/lib/thumb/v7e-m+fp/hard\libg.a(lib_a-signal.o)
                              d:/sysgcc/arm-eabi/bin/../lib/gcc/arm-none-eabi/10.3.1/../../../../arm-none-eabi/lib/thumb/v7e-m+fp/hard\libg.a(lib_a-abort.o) (raise)
d:/sysgcc/arm-eabi/bin/../lib/gcc/arm-none-eabi/10.3.1/../../../../arm-none-eabi/lib/thumb/v7e-m+fp/hard\libg.a(lib_a-signalr.o)
                              d:/sysgcc/arm-eabi/bin/../lib/gcc/arm-none-eabi/10.3.1/../../../../arm-none-eabi/lib/thumb/v7e-m+fp/hard\libg.a(lib_a-signal.o) (_kill_r)
d:/sysgcc/arm-eabi/bin/../lib/gcc/arm-none-eabi/10.3.1/thumb/v7e-m+fp/hard\libgcc.a(_arm_muldf3.o)
                              d:/sysgcc/arm-eabi/bin/../lib/gcc/arm-none-eabi/10.3.1/../../../../arm-none-eabi/lib/thumb/v7e-m+fp/hard\libg.a(lib_a-strtod.o) (__aeabi_dmul)
d:/sysgcc/arm-eabi/bin/../lib/gcc/arm-none-eabi/10.3.1/thumb/v7e-m+fp/hard\libgcc.a(_arm_muldivdf3.o)
                              d:/sysgcc/arm-eabi/bin/../lib/gcc/arm-none-eabi/10.3.1/../../../../arm-none-eabi/lib/thumb/v7e-m+fp/hard\libg.a(lib_a-strtod.o) (__aeabi_ddiv)
d:/sysgcc/arm-eabi/bin/../lib/gcc/arm-none-eabi/10.3.1/thumb/v7e-m+fp/hard\libgcc.a(_arm_cmpdf2.o)
                              d:/sysgcc/arm-eabi/bin/../lib/gcc/arm-none-eabi/10.3.1/../../../../arm-none-eabi/lib/thumb/v7e-m+fp/hard\libg.a(lib_a-strtod.o) (__aeabi_dcmpeq)
d:/sysgcc/arm-eabi/bin/../lib/gcc/arm-none-eabi/10.3.1/thumb/v7e-m+fp/hard\libgcc.a(_arm_unorddf2.o)
                              d:/sysgcc/arm-eabi/bin/../lib/gcc/arm-none-eabi/10.3.1/../../../../arm-none-eabi/lib/thumb/v7e-m+fp/hard\libg.a(lib_a-strtod.o) (__aeabi_dcmpun)
d:/sysgcc/arm-eabi/bin/../lib/gcc/arm-none-eabi/10.3.1/thumb/v7e-m+fp/hard\libgcc.a(_arm_fixunsdfsi.o)
                              d:/sysgcc/arm-eabi/bin/../lib/gcc/arm-none-eabi/10.3.1/../../../../arm-none-eabi/lib/thumb/v7e-m+fp/hard\libg.a(lib_a-strtod.o) (__aeabi_d2uiz)
d:/sysgcc/arm-eabi/bin/../lib/gcc/arm-none-eabi/10.3.1/thumb/v7e-m+fp/hard\libgcc.a(_fixdfdi.o)
                              d:/sysgcc/arm-eabi/bin/../lib/gcc/arm-none-eabi/10.3.1/../../../../arm-none-eabi/lib/thumb/v7e-m+fp/hard\libg.a(lib_a-strtod.o) (__aeabi_d2lz)
d:/sysgcc/arm-eabi/bin/../lib/gcc/arm-none-eabi/10.3.1/thumb/v7e-m+fp/hard\libgcc.a(_fixunsdfdi.o)
                              d:/sysgcc/arm-eabi/bin/../lib/gcc/arm-none-eabi/10.3.1/thumb/v7e-m+fp/hard\libgcc.a(_fixdfdi.o) (__aeabi_d2ulz)
d:/sysgcc/arm-eabi/bin/../lib/gcc/arm-none-eabi/10.3.1/../../../../arm-none-eabi/lib/thumb/v7e-m+fp/hard\libm.a(lib_a-s_fmax.o)
                              CMakeFiles/foc.elf.dir/dgm/trapTraj.c.obj (fmax)
d:/sysgcc/arm-eabi/bin/../lib/gcc/arm-none-eabi/10.3.1/../../../../arm-none-eabi/lib/thumb/v7e-m+fp/hard\libm.a(lib_a-s_fpclassify.o)
                              d:/sysgcc/arm-eabi/bin/../lib/gcc/arm-none-eabi/10.3.1/../../../../arm-none-eabi/lib/thumb/v7e-m+fp/hard\libm.a(lib_a-s_fmax.o) (__fpclassifyd)
d:/sysgcc/arm-eabi/bin/../lib/gcc/arm-none-eabi/10.3.1/../../../../arm-none-eabi/lib/thumb/v7e-m+fp/hard\libm.a(lib_a-s_round.o)
                              CMakeFiles/foc.elf.dir/dgm/calibration.c.obj (round)
d:/sysgcc/arm-eabi/bin/../lib/gcc/arm-none-eabi/10.3.1/../../../../arm-none-eabi/lib/thumb/v7e-m+fp/hard\libm.a(lib_a-sf_nearbyint.o)
                              CMakeFiles/foc.elf.dir/dgm/anticogging.c.obj (nearbyintf)
d:/sysgcc/arm-eabi/bin/../lib/gcc/arm-none-eabi/10.3.1/../../../../arm-none-eabi/lib/thumb/v7e-m+fp/hard\libm.a(lib_a-sf_rint.o)
                              d:/sysgcc/arm-eabi/bin/../lib/gcc/arm-none-eabi/10.3.1/../../../../arm-none-eabi/lib/thumb/v7e-m+fp/hard\libm.a(lib_a-sf_nearbyint.o) (rintf)
d:/sysgcc/arm-eabi/bin/../lib/gcc/arm-none-eabi/10.3.1/../../../../arm-none-eabi/lib/thumb/v7e-m+fp/hard\libm.a(lib_a-wf_sqrt.o)
                              CMakeFiles/foc.elf.dir/dgm/foc.c.obj (sqrtf)
d:/sysgcc/arm-eabi/bin/../lib/gcc/arm-none-eabi/10.3.1/../../../../arm-none-eabi/lib/thumb/v7e-m+fp/hard\libm.a(lib_a-ef_sqrt.o)
                              d:/sysgcc/arm-eabi/bin/../lib/gcc/arm-none-eabi/10.3.1/../../../../arm-none-eabi/lib/thumb/v7e-m+fp/hard\libm.a(lib_a-wf_sqrt.o) (__ieee754_sqrtf)

Discarded input sections

 .text          0x00000000        0x0 d:/sysgcc/arm-eabi/bin/../lib/gcc/arm-none-eabi/10.3.1/thumb/v7e-m+fp/hard/crti.o
 .data          0x00000000        0x0 d:/sysgcc/arm-eabi/bin/../lib/gcc/arm-none-eabi/10.3.1/thumb/v7e-m+fp/hard/crti.o
 .bss           0x00000000        0x0 d:/sysgcc/arm-eabi/bin/../lib/gcc/arm-none-eabi/10.3.1/thumb/v7e-m+fp/hard/crti.o
 .data          0x00000000        0x4 d:/sysgcc/arm-eabi/bin/../lib/gcc/arm-none-eabi/10.3.1/thumb/v7e-m+fp/hard/crtbegin.o
 .rodata        0x00000000       0x24 d:/sysgcc/arm-eabi/bin/../lib/gcc/arm-none-eabi/10.3.1/thumb/v7e-m+fp/hard/crtbegin.o
 .text          0x00000000       0x7c d:/sysgcc/arm-eabi/bin/../lib/gcc/arm-none-eabi/10.3.1/../../../../arm-none-eabi/lib/thumb/v7e-m+fp/hard/crt0.o
 .data          0x00000000        0x0 d:/sysgcc/arm-eabi/bin/../lib/gcc/arm-none-eabi/10.3.1/../../../../arm-none-eabi/lib/thumb/v7e-m+fp/hard/crt0.o
 .bss           0x00000000        0x0 d:/sysgcc/arm-eabi/bin/../lib/gcc/arm-none-eabi/10.3.1/../../../../arm-none-eabi/lib/thumb/v7e-m+fp/hard/crt0.o
 .ARM.extab     0x00000000        0x0 d:/sysgcc/arm-eabi/bin/../lib/gcc/arm-none-eabi/10.3.1/../../../../arm-none-eabi/lib/thumb/v7e-m+fp/hard/crt0.o
 .ARM.exidx     0x00000000       0x10 d:/sysgcc/arm-eabi/bin/../lib/gcc/arm-none-eabi/10.3.1/../../../../arm-none-eabi/lib/thumb/v7e-m+fp/hard/crt0.o
 .ARM.attributes
                0x00000000       0x1c d:/sysgcc/arm-eabi/bin/../lib/gcc/arm-none-eabi/10.3.1/../../../../arm-none-eabi/lib/thumb/v7e-m+fp/hard/crt0.o
 .text          0x00000000        0x0 CMakeFiles/foc.elf.dir/Core/Src/adc.c.obj
 .data          0x00000000        0x0 CMakeFiles/foc.elf.dir/Core/Src/adc.c.obj
 .bss           0x00000000        0x0 CMakeFiles/foc.elf.dir/Core/Src/adc.c.obj
 .text.HAL_ADC_MspDeInit
                0x00000000       0x60 CMakeFiles/foc.elf.dir/Core/Src/adc.c.obj
 .text          0x00000000        0x0 CMakeFiles/foc.elf.dir/Core/Src/app_freertos.c.obj
Memory Configuration

Name             Origin             Length             Attributes
RAM              0x20000000         0x00020000         xrw
FLASH            0x08000000         0x00080000         xr
*default*        0x00000000         0xffffffff

Linker script and memory map

LOAD d:/sysgcc/arm-eabi/bin/../lib/gcc/arm-none-eabi/10.3.1/thumb/v7e-m+fp/hard/crti.o
LOAD d:/sysgcc/arm-eabi/bin/../lib/gcc/arm-none-eabi/10.3.1/thumb/v7e-m+fp/hard/crtbegin.o
LOAD d:/sysgcc/arm-eabi/bin/../lib/gcc/arm-none-eabi/10.3.1/../../../../arm-none-eabi/lib/thumb/v7e-m+fp/hard/crt0.o
LOAD CMakeFiles/foc.elf.dir/Core/Src/adc.c.obj
LOAD CMakeFiles/foc.elf.dir/Core/Src/app_freertos.c.obj
LOAD CMakeFiles/foc.elf.dir/Core/Src/dma.c.obj
LOAD CMakeFiles/foc.elf.dir/Core/Src/gpio.c.obj
LOAD CMakeFiles/foc.elf.dir/Core/Src/main.c.obj
LOAD CMakeFiles/foc.elf.dir/Core/Src/spi.c.obj
LOAD CMakeFiles/foc.elf.dir/Core/Src/stm32g4xx_hal_msp.c.obj
LOAD CMakeFiles/foc.elf.dir/Core/Src/stm32g4xx_hal_timebase_tim.c.obj
LOAD CMakeFiles/foc.elf.dir/Core/Src/stm32g4xx_it.c.obj
LOAD CMakeFiles/foc.elf.dir/Core/Src/syscalls.c.obj
LOAD CMakeFiles/foc.elf.dir/Core/Src/sysmem.c.obj
LOAD CMakeFiles/foc.elf.dir/Core/Src/system_stm32g4xx.c.obj
LOAD CMakeFiles/foc.elf.dir/Core/Src/tim.c.obj
LOAD CMakeFiles/foc.elf.dir/Core/Src/usart.c.obj
LOAD CMakeFiles/foc.elf.dir/Core/Startup/startup_stm32g474retx.s.obj
LOAD CMakeFiles/foc.elf.dir/Drivers/STM32G4xx_HAL_Driver/Src/stm32g4xx_hal.c.obj
LOAD CMakeFiles/foc.elf.dir/Drivers/STM32G4xx_HAL_Driver/Src/stm32g4xx_hal_adc.c.obj
LOAD CMakeFiles/foc.elf.dir/Drivers/STM32G4xx_HAL_Driver/Src/stm32g4xx_hal_adc_ex.c.obj
LOAD CMakeFiles/foc.elf.dir/Drivers/STM32G4xx_HAL_Driver/Src/stm32g4xx_hal_cortex.c.obj
LOAD CMakeFiles/foc.elf.dir/Drivers/STM32G4xx_HAL_Driver/Src/stm32g4xx_hal_dma.c.obj
LOAD CMakeFiles/foc.elf.dir/Drivers/STM32G4xx_HAL_Driver/Src/stm32g4xx_hal_dma_ex.c.obj
LOAD CMakeFiles/foc.elf.dir/Drivers/STM32G4xx_HAL_Driver/Src/stm32g4xx_hal_exti.c.obj
LOAD CMakeFiles/foc.elf.dir/Drivers/STM32G4xx_HAL_Driver/Src/stm32g4xx_hal_flash.c.obj
LOAD CMakeFiles/foc.elf.dir/Drivers/STM32G4xx_HAL_Driver/Src/stm32g4xx_hal_flash_ex.c.obj
LOAD CMakeFiles/foc.elf.dir/Drivers/STM32G4xx_HAL_Driver/Src/stm32g4xx_hal_flash_ramfunc.c.obj
LOAD CMakeFiles/foc.elf.dir/Drivers/STM32G4xx_HAL_Driver/Src/stm32g4xx_hal_gpio.c.obj
LOAD CMakeFiles/foc.elf.dir/Drivers/STM32G4xx_HAL_Driver/Src/stm32g4xx_hal_pcd.c.obj
LOAD CMakeFiles/foc.elf.dir/Drivers/STM32G4xx_HAL_Driver/Src/stm32g4xx_hal_pcd_ex.c.obj
LOAD CMakeFiles/foc.elf.dir/Drivers/STM32G4xx_HAL_Driver/Src/stm32g4xx_hal_pwr.c.obj
LOAD CMakeFiles/foc.elf.dir/Drivers/STM32G4xx_HAL_Driver/Src/stm32g4xx_hal_pwr_ex.c.obj
LOAD CMakeFiles/foc.elf.dir/Drivers/STM32G4xx_HAL_Driver/Src/stm32g4xx_hal_rcc.c.obj
LOAD CMakeFiles/foc.elf.dir/Drivers/STM32G4xx_HAL_Driver/Src/stm32g4xx_hal_rcc_ex.c.obj
LOAD CMakeFiles/foc.elf.dir/Drivers/STM32G4xx_HAL_Driver/Src/stm32g4xx_hal_spi.c.obj
LOAD CMakeFiles/foc.elf.dir/Drivers/STM32G4xx_HAL_Driver/Src/stm32g4xx_hal_spi_ex.c.obj
LOAD CMakeFiles/foc.elf.dir/Drivers/STM32G4xx_HAL_Driver/Src/stm32g4xx_hal_tim.c.obj
LOAD CMakeFiles/foc.elf.dir/Drivers/STM32G4xx_HAL_Driver/Src/stm32g4xx_hal_tim_ex.c.obj
LOAD CMakeFiles/foc.elf.dir/Drivers/STM32G4xx_HAL_Driver/Src/stm32g4xx_hal_uart.c.obj
LOAD CMakeFiles/foc.elf.dir/Drivers/STM32G4xx_HAL_Driver/Src/stm32g4xx_hal_uart_ex.c.obj
LOAD CMakeFiles/foc.elf.dir/Drivers/STM32G4xx_HAL_Driver/Src/stm32g4xx_ll_adc.c.obj
LOAD CMakeFiles/foc.elf.dir/Drivers/STM32G4xx_HAL_Driver/Src/stm32g4xx_ll_usb.c.obj
LOAD CMakeFiles/foc.elf.dir/Middlewares/ST/STM32_USB_Device_Library/Class/CDC/Src/usbd_cdc.c.obj
LOAD CMakeFiles/foc.elf.dir/Middlewares/ST/STM32_USB_Device_Library/Core/Src/usbd_core.c.obj
LOAD CMakeFiles/foc.elf.dir/Middlewares/ST/STM32_USB_Device_Library/Core/Src/usbd_ctlreq.c.obj
LOAD CMakeFiles/foc.elf.dir/Middlewares/ST/STM32_USB_Device_Library/Core/Src/usbd_ioreq.c.obj
LOAD CMakeFiles/foc.elf.dir/Middlewares/Third_Party/FreeRTOS/Source/CMSIS_RTOS_V2/cmsis_os2.c.obj
LOAD CMakeFiles/foc.elf.dir/Middlewares/Third_Party/FreeRTOS/Source/croutine.c.obj
LOAD CMakeFiles/foc.elf.dir/Middlewares/Third_Party/FreeRTOS/Source/event_groups.c.obj
LOAD CMakeFiles/foc.elf.dir/Middlewares/Third_Party/FreeRTOS/Source/list.c.obj
LOAD CMakeFiles/foc.elf.dir/Middlewares/Third_Party/FreeRTOS/Source/portable/GCC/ARM_CM4F/port.c.obj
LOAD CMakeFiles/foc.elf.dir/Middlewares/Third_Party/FreeRTOS/Source/portable/MemMang/heap_4.c.obj
LOAD CMakeFiles/foc.elf.dir/Middlewares/Third_Party/FreeRTOS/Source/queue.c.obj
LOAD CMakeFiles/foc.elf.dir/Middlewares/Third_Party/FreeRTOS/Source/stream_buffer.c.obj
LOAD CMakeFiles/foc.elf.dir/Middlewares/Third_Party/FreeRTOS/Source/tasks.c.obj
LOAD CMakeFiles/foc.elf.dir/Middlewares/Third_Party/FreeRTOS/Source/timers.c.obj
LOAD CMakeFiles/foc.elf.dir/USB_Device/App/usb_device.c.obj
LOAD CMakeFiles/foc.elf.dir/USB_Device/App/usbd_cdc_if.c.obj
LOAD CMakeFiles/foc.elf.dir/USB_Device/App/usbd_desc.c.obj
LOAD CMakeFiles/foc.elf.dir/USB_Device/Target/usbd_conf.c.obj
LOAD CMakeFiles/foc.elf.dir/dgm/anticogging.c.obj
LOAD CMakeFiles/foc.elf.dir/dgm/calibration.c.obj
LOAD CMakeFiles/foc.elf.dir/dgm/controller.c.obj
LOAD CMakeFiles/foc.elf.dir/dgm/encoder.c.obj
LOAD CMakeFiles/foc.elf.dir/dgm/foc.c.obj
LOAD CMakeFiles/foc.elf.dir/dgm/mc_task.c.obj
LOAD CMakeFiles/foc.elf.dir/dgm/pwm_curr.c.obj
LOAD CMakeFiles/foc.elf.dir/dgm/serial.c.obj
LOAD CMakeFiles/foc.elf.dir/dgm/trapTraj.c.obj
LOAD CMakeFiles/foc.elf.dir/dgm/usr_config.c.obj
LOAD CMakeFiles/foc.elf.dir/dgm/util.c.obj
LOAD CMakeFiles/foc.elf.dir/lwrb/lwrb.c.obj
START GROUP
LOAD d:/sysgcc/arm-eabi/bin/../lib/gcc/arm-none-eabi/10.3.1/thumb/v7e-m+fp/hard\libgcc.a
LOAD d:/sysgcc/arm-eabi/bin/../lib/gcc/arm-none-eabi/10.3.1/../../../../arm-none-eabi/lib/thumb/v7e-m+fp/hard\libg.a
LOAD d:/sysgcc/arm-eabi/bin/../lib/gcc/arm-none-eabi/10.3.1/../../../../arm-none-eabi/lib/thumb/v7e-m+fp/hard\libc.a
END GROUP
LOAD d:/sysgcc/arm-eabi/bin/../lib/gcc/arm-none-eabi/10.3.1/thumb/v7e-m+fp/hard/crtend.o
LOAD d:/sysgcc/arm-eabi/bin/../lib/gcc/arm-none-eabi/10.3.1/thumb/v7e-m+fp/hard/crtn.o
                0x20020000                _estack = (ORIGIN (RAM) + LENGTH (RAM))
                0x00001000                _Min_Heap_Size = 0x1000
                0x00001000                _Min_Stack_Size = 0x1000

.isr_vector     0x08000000      0x1d8
                0x08000000                . = ALIGN (0x4)
 *(.isr_vector)
 .isr_vector    0x08000000      0x1d8 CMakeFiles/foc.elf.dir/Core/Startup/startup_stm32g474retx.s.obj
                0x08000000                g_pfnVectors
                0x080001d8                . = ALIGN (0x4)

.text           0x08000200    0x181b8
                0x08000200                . = ALIGN (0x4)
 *(.text)
 .text          0x08000200       0x40 d:/sysgcc/arm-eabi/bin/../lib/gcc/arm-none-eabi/10.3.1/thumb/v7e-m+fp/hard/crtbegin.o
 .text          0x08000240      0x378 d:/sysgcc/arm-eabi/bin/../lib/gcc/arm-none-eabi/10.3.1/thumb/v7e-m+fp/hard\libgcc.a(_arm_addsubdf3.o)
                0x08000240                __aeabi_drsub
                0x08000248                __aeabi_dsub
                0x08000248                __subdf3
                0x0800024c                __aeabi_dadd
                0x0800024c                __adddf3
                0x080004c4                __floatunsidf
                0x080004c4                __aeabi_ui2d
                0x080004e4                __floatsidf
                0x080004e4                __aeabi_i2d
                0x08000508                __aeabi_f2d
                0x08000508                __extendsfdf2
                0x0800054c                __floatundidf
                0x0800054c                __aeabi_ul2d
                0x0800055c                __floatdidf
                0x0800055c                __aeabi_l2d
 .text          0x080005b8       0x50 d:/sysgcc/arm-eabi/bin/../lib/gcc/arm-none-eabi/10.3.1/thumb/v7e-m+fp/hard\libgcc.a(_arm_fixdfsi.o)
                0x080005b8                __aeabi_d2iz
                0x080005b8                __fixdfsi
 .text          0x08000608       0xa0 d:/sysgcc/arm-eabi/bin/../lib/gcc/arm-none-eabi/10.3.1/thumb/v7e-m+fp/hard\libgcc.a(_arm_truncdfsf2.o)
                0x08000608                __truncdfsf2
                0x08000608                __aeabi_d2f
 .text          0x080006a8      0x21c d:/sysgcc/arm-eabi/bin/../lib/gcc/arm-none-eabi/10.3.1/thumb/v7e-m+fp/hard\libgcc.a(_arm_addsubsf3.o)
                0x080006a8                __aeabi_frsub
                0x080006b0                __subsf3
                0x080006b0                __aeabi_fsub
                0x080006b4                __aeabi_fadd
                0x080006b4                __addsf3
                0x08000814                __aeabi_ui2f
                0x08000814                __floatunsisf
                0x0800081c                __aeabi_i2f
                0x0800081c                __floatsisf
                0x08000838                __aeabi_ul2f
                0x08000838                __floatundisf
                0x08000848                __aeabi_l2f
                0x08000848                __floatdisf
 .text          0x080008c4       0xa0 d:/sysgcc/arm-eabi/bin/../lib/gcc/arm-none-eabi/10.3.1/thumb/v7e-m+fp/hard\libgcc.a(_aeabi_ldivmod.o)
                0x080008c4                __aeabi_ldivmod
 .text          0x08000964       0x30 d:/sysgcc/arm-eabi/bin/../lib/gcc/arm-none-eabi/10.3.1/thumb/v7e-m+fp/hard\libgcc.a(_aeabi_uldivmod.o)
                0x08000964                __aeabi_uldivmod
 .text          0x08000994      0x2d0 d:/sysgcc/arm-eabi/bin/../lib/gcc/arm-none-eabi/10.3.1/thumb/v7e-m+fp/hard\libgcc.a(_udivmoddi4.o)
                0x08000994                __udivmoddi4
 .text          0x08000c64        0x4 d:/sysgcc/arm-eabi/bin/../lib/gcc/arm-none-eabi/10.3.1/thumb/v7e-m+fp/hard\libgcc.a(_dvmd_tls.o)
                0x08000c64                __aeabi_idiv0
                0x08000c64                __aeabi_ldiv0
 .text          0x08000c68      0x134 d:/sysgcc/arm-eabi/bin/../lib/gcc/arm-none-eabi/10.3.1/../../../../arm-none-eabi/lib/thumb/v7e-m+fp/hard\libg.a(lib_a-memcpy.o)
                0x08000c68                memcpy
 *fill*         0x08000d9c       0x24 
 .text          0x08000dc0       0xdc d:/sysgcc/arm-eabi/bin/../lib/gcc/arm-none-eabi/10.3.1/../../../../arm-none-eabi/lib/thumb/v7e-m+fp/hard\libg.a(lib_a-strlen.o)
                0x08000dc0                strlen
 *fill*         0x08000e9c        0x4 
 .text          0x08000ea0       0xa0 d:/sysgcc/arm-eabi/bin/../lib/gcc/arm-none-eabi/10.3.1/../../../../arm-none-eabi/lib/thumb/v7e-m+fp/hard\libg.a(lib_a-memchr.o)
                0x08000ea0                memchr
 .text          0x08000f40      0x424 d:/sysgcc/arm-eabi/bin/../lib/gcc/arm-none-eabi/10.3.1/thumb/v7e-m+fp/hard\libgcc.a(_arm_muldivdf3.o)
                0x08000f40                __aeabi_dmul
                0x08000f40                __muldf3
                0x08001194                __divdf3
                0x08001194                __aeabi_ddiv
 .text          0x08001364      0x110 d:/sysgcc/arm-eabi/bin/../lib/gcc/arm-none-eabi/10.3.1/thumb/v7e-m+fp/hard\libgcc.a(_arm_cmpdf2.o)
                0x08001364                __gtdf2
                0x08001364                __gedf2
                0x0800136c                __ltdf2
                0x0800136c                __ledf2
                0x08001374                __nedf2
                0x08001374                __eqdf2
                0x08001374                __cmpdf2
                0x080013f0                __aeabi_cdrcmple
                0x08001400                __aeabi_cdcmpeq
                0x08001400                __aeabi_cdcmple
                0x08001410                __aeabi_dcmpeq
                0x08001424                __aeabi_dcmplt
                0x08001438                __aeabi_dcmple
                0x0800144c                __aeabi_dcmpge
                0x08001460                __aeabi_dcmpgt
 .text          0x08001474       0x2c d:/sysgcc/arm-eabi/bin/../lib/gcc/arm-none-eabi/10.3.1/thumb/v7e-m+fp/hard\libgcc.a(_arm_unorddf2.o)
                0x08001474                __unorddf2
                0x08001474                __aeabi_dcmpun
 .text          0x080014a0       0x40 d:/sysgcc/arm-eabi/bin/../lib/gcc/arm-none-eabi/10.3.1/thumb/v7e-m+fp/hard\libgcc.a(_arm_fixunsdfsi.o)
                0x080014a0                __aeabi_d2uiz
                0x080014a0                __fixunsdfsi
 .text          0x080014e0       0x30 d:/sysgcc/arm-eabi/bin/../lib/gcc/arm-none-eabi/10.3.1/thumb/v7e-m+fp/hard\libgcc.a(_fixdfdi.o)
                0x080014e0                __fixdfdi
                0x080014e0                __aeabi_d2lz
 .text          0x08001510       0x3c d:/sysgcc/arm-eabi/bin/../lib/gcc/arm-none-eabi/10.3.1/thumb/v7e-m+fp/hard\libgcc.a(_fixunsdfdi.o)
                0x08001510                __fixunsdfdi
                0x08001510                __aeabi_d2ulz
 *(.text*)
 .text.MX_ADC1_Init
                0x0800154c      0x110 CMakeFiles/foc.elf.dir/Core/Src/adc.c.obj
                0x0800154c                MX_ADC1_Init
 .text.MX_ADC2_Init
                0x0800165c       0x88 CMakeFiles/foc.elf.dir/Core/Src/adc.c.obj
                0x0800165c                MX_ADC2_Init
 .text.HAL_ADC_MspInit
                0x080016e4      0x12c CMakeFiles/foc.elf.dir/Core/Src/adc.c.obj
                0x080016e4                HAL_ADC_MspInit
 .text.StartDefaultTask
                0x08001810        0xe CMakeFiles/foc.elf.dir/Core/Src/app_freertos.c.obj
                0x08001810                StartDefaultTask
 .text.StartBtnScanTask
                0x0800181e        0xa CMakeFiles/foc.elf.dir/Core/Src/app_freertos.c.obj
                0x0800181e                StartBtnScanTask
 .text.StartSerialDataParseTask
                0x08001828       0x68 CMakeFiles/foc.elf.dir/Core/Src/app_freertos.c.obj
                0x08001828                StartSerialDataParseTask
 .text.vofa_cmd_parse
                0x08001890       0x1e CMakeFiles/foc.elf.dir/Core/Src/app_freertos.c.obj
 *fill*         0x080018ae        0x2 
 .text.MX_FREERTOS_Init
                0x080018b0      0x104 CMakeFiles/foc.elf.dir/Core/Src/app_freertos.c.obj
                0x080018b0                MX_FREERTOS_Init
 .text.HAL_TIM_PeriodElapsedCallback
                0x080019b4       0x38 CMakeFiles/foc.elf.dir/Core/Src/app_freertos.c.obj
                0x080019b4                HAL_TIM_PeriodElapsedCallback
 .text.HAL_ADCEx_InjectedConvCpltCallback
                0x080019ec      0x1cc CMakeFiles/foc.elf.dir/Core/Src/app_freertos.c.obj
                0x080019ec                HAL_ADCEx_InjectedConvCpltCallback
 .text.HAL_UARTEx_RxEventCallback
                0x08001bb8      0x10c CMakeFiles/foc.elf.dir/Core/Src/app_freertos.c.obj
                0x08001bb8                HAL_UARTEx_RxEventCallback
 .text.MX_DMA_Init
                0x08001cc4       0x54 CMakeFiles/foc.elf.dir/Core/Src/dma.c.obj
                0x08001cc4                MX_DMA_Init
 .text.MX_GPIO_Init
                0x08001d18      0x17c CMakeFiles/foc.elf.dir/Core/Src/gpio.c.obj
                0x08001d18                MX_GPIO_Init
 .text.Error_Handler
                0x08001e94        0x4 CMakeFiles/foc.elf.dir/Core/Src/main.c.obj
                0x08001e94                Error_Handler
 .text.SystemClock_Config
                0x08001e98       0x78 CMakeFiles/foc.elf.dir/Core/Src/main.c.obj
                0x08001e98                SystemClock_Config
 .text.main     0x08001f10       0x40 CMakeFiles/foc.elf.dir/Core/Src/main.c.obj
                0x08001f10                main
 .text.MX_SPI1_Init
                0x08001f50       0x50 CMakeFiles/foc.elf.dir/Core/Src/spi.c.obj
                0x08001f50                MX_SPI1_Init
 .text.MX_SPI3_Init
                0x08001fa0       0x4c CMakeFiles/foc.elf.dir/Core/Src/spi.c.obj
                0x08001fa0                MX_SPI3_Init
 .text.HAL_SPI_MspInit
                0x08001fec       0xb4 CMakeFiles/foc.elf.dir/Core/Src/spi.c.obj
                0x08001fec                HAL_SPI_MspInit
 .text.HAL_MspInit
                0x080020a0       0x44 CMakeFiles/foc.elf.dir/Core/Src/stm32g4xx_hal_msp.c.obj
                0x080020a0                HAL_MspInit
 .text.HAL_InitTick
                0x080020e4       0x94 CMakeFiles/foc.elf.dir/Core/Src/stm32g4xx_hal_timebase_tim.c.obj
                0x080020e4                HAL_InitTick
 .text.NMI_Handler
                0x08002178        0x8 CMakeFiles/foc.elf.dir/Core/Src/stm32g4xx_it.c.obj
                0x08002178                NMI_Handler
 .text.HardFault_Handler
                0x08002180        0x2 CMakeFiles/foc.elf.dir/Core/Src/stm32g4xx_it.c.obj
                0x08002180                HardFault_Handler
 .text.MemManage_Handler
                0x08002182        0x2 CMakeFiles/foc.elf.dir/Core/Src/stm32g4xx_it.c.obj
                0x08002182                MemManage_Handler
 .text.BusFault_Handler
                0x08002184        0x2 CMakeFiles/foc.elf.dir/Core/Src/stm32g4xx_it.c.obj
                0x08002184                BusFault_Handler
 .text.UsageFault_Handler
                0x08002186        0x2 CMakeFiles/foc.elf.dir/Core/Src/stm32g4xx_it.c.obj
                0x08002186                UsageFault_Handler
 .text.DebugMon_Handler
                0x08002188        0x2 CMakeFiles/foc.elf.dir/Core/Src/stm32g4xx_it.c.obj
                0x08002188                DebugMon_Handler
 *fill*         0x0800218a        0x2 
 .text.DMA1_Channel1_IRQHandler
                0x0800218c       0x10 CMakeFiles/foc.elf.dir/Core/Src/stm32g4xx_it.c.obj
                0x0800218c                DMA1_Channel1_IRQHandler
 .text.DMA1_Channel2_IRQHandler
                0x0800219c       0x10 CMakeFiles/foc.elf.dir/Core/Src/stm32g4xx_it.c.obj
                0x0800219c                DMA1_Channel2_IRQHandler
 .text.ADC1_2_IRQHandler
                0x080021ac       0x18 CMakeFiles/foc.elf.dir/Core/Src/stm32g4xx_it.c.obj
                0x080021ac                ADC1_2_IRQHandler
 .text.USB_LP_IRQHandler
                0x080021c4       0x10 CMakeFiles/foc.elf.dir/Core/Src/stm32g4xx_it.c.obj
                0x080021c4                USB_LP_IRQHandler
 .text.TIM1_TRG_COM_TIM17_IRQHandler
                0x080021d4       0x10 CMakeFiles/foc.elf.dir/Core/Src/stm32g4xx_it.c.obj
                0x080021d4                TIM1_TRG_COM_TIM17_IRQHandler
 .text.USART3_IRQHandler
                0x080021e4       0x10 CMakeFiles/foc.elf.dir/Core/Src/stm32g4xx_it.c.obj
                0x080021e4                USART3_IRQHandler
 .text.TIM6_DAC_IRQHandler
                0x080021f4       0x10 CMakeFiles/foc.elf.dir/Core/Src/stm32g4xx_it.c.obj
                0x080021f4                TIM6_DAC_IRQHandler
 .text.TIM20_UP_IRQHandler
                0x08002204       0x10 CMakeFiles/foc.elf.dir/Core/Src/stm32g4xx_it.c.obj
                0x08002204                TIM20_UP_IRQHandler
 .text._getpid  0x08002214        0x4 CMakeFiles/foc.elf.dir/Core/Src/syscalls.c.obj
                0x08002214                _getpid
 .text._kill    0x08002218       0x10 CMakeFiles/foc.elf.dir/Core/Src/syscalls.c.obj
                0x08002218                _kill
 .text._exit    0x08002228        0xc CMakeFiles/foc.elf.dir/Core/Src/syscalls.c.obj
                0x08002228                _exit
 .text._read    0x08002234       0x20 CMakeFiles/foc.elf.dir/Core/Src/syscalls.c.obj
                0x08002234                _read
 .text._write   0x08002254       0x1c CMakeFiles/foc.elf.dir/Core/Src/syscalls.c.obj
                0x08002254                _write
 .text._close   0x08002270        0x6 CMakeFiles/foc.elf.dir/Core/Src/syscalls.c.obj
                0x08002270                _close
 .text._fstat   0x08002276        0xa CMakeFiles/foc.elf.dir/Core/Src/syscalls.c.obj
                0x08002276                _fstat
 .text._isatty  0x08002280        0x4 CMakeFiles/foc.elf.dir/Core/Src/syscalls.c.obj
                0x08002280                _isatty
 .text._lseek   0x08002284        0x4 CMakeFiles/foc.elf.dir/Core/Src/syscalls.c.obj
                0x08002284                _lseek
 .text._sbrk    0x08002288       0x48 CMakeFiles/foc.elf.dir/Core/Src/sysmem.c.obj
                0x08002288                _sbrk
 .text.SystemInit
                0x080022d0       0x14 CMakeFiles/foc.elf.dir/Core/Src/system_stm32g4xx.c.obj
                0x080022d0                SystemInit
 .text.MX_TIM6_Init
                0x080022e4       0x50 CMakeFiles/foc.elf.dir/Core/Src/tim.c.obj
                0x080022e4                MX_TIM6_Init
 .text.HAL_TIM_Base_MspInit
                0x08002334       0x70 CMakeFiles/foc.elf.dir/Core/Src/tim.c.obj
                0x08002334                HAL_TIM_Base_MspInit
 .text.HAL_TIM_MspPostInit
                0x080023a4       0x98 CMakeFiles/foc.elf.dir/Core/Src/tim.c.obj
                0x080023a4                HAL_TIM_MspPostInit
 .text.MX_TIM1_Init
                0x0800243c      0x150 CMakeFiles/foc.elf.dir/Core/Src/tim.c.obj
                0x0800243c                MX_TIM1_Init
 .text.MX_USART3_UART_Init
                0x0800258c       0x6c CMakeFiles/foc.elf.dir/Core/Src/usart.c.obj
                0x0800258c                MX_USART3_UART_Init
 .text.HAL_UART_MspInit
                0x080025f8      0x10c CMakeFiles/foc.elf.dir/Core/Src/usart.c.obj
                0x080025f8                HAL_UART_MspInit
 .text.__io_putchar
                0x08002704       0x20 CMakeFiles/foc.elf.dir/Core/Src/usart.c.obj
                0x08002704                __io_putchar
 .text.Reset_Handler
                0x08002724       0x50 CMakeFiles/foc.elf.dir/Core/Startup/startup_stm32g474retx.s.obj
                0x08002724                Reset_Handler
 .text.Default_Handler
                0x08002774        0x2 CMakeFiles/foc.elf.dir/Core/Startup/startup_stm32g474retx.s.obj
                0x08002774                RTC_Alarm_IRQHandler
                0x08002774                EXTI2_IRQHandler
                0x08002774                TIM8_TRG_COM_IRQHandler
                0x08002774                TIM8_CC_IRQHandler
                0x08002774                HRTIM1_Master_IRQHandler
                0x08002774                SPI4_IRQHandler
                0x08002774                FDCAN3_IT0_IRQHandler
                0x08002774                TIM1_CC_IRQHandler
                0x08002774                HRTIM1_FLT_IRQHandler
                0x08002774                HRTIM1_TIMF_IRQHandler
                0x08002774                USB_HP_IRQHandler
                0x08002774                CORDIC_IRQHandler
                0x08002774                HRTIM1_TIMD_IRQHandler
                0x08002774                DMA2_Channel8_IRQHandler
                0x08002774                EXTI3_IRQHandler
                0x08002774                I2C3_ER_IRQHandler
                0x08002774                EXTI0_IRQHandler
                0x08002774                I2C2_EV_IRQHandler
                0x08002774                FPU_IRQHandler
                0x08002774                FDCAN1_IT1_IRQHandler
                0x08002774                TIM1_UP_TIM16_IRQHandler
                0x08002774                HRTIM1_TIME_IRQHandler
                0x08002774                SPI1_IRQHandler
                0x08002774                HRTIM1_TIMC_IRQHandler
                0x08002774                TIM8_UP_IRQHandler
                0x08002774                DMA2_Channel2_IRQHandler
                0x08002774                DMA1_Channel4_IRQHandler
                0x08002774                TIM20_TRG_COM_IRQHandler
                0x08002774                DMA1_Channel7_IRQHandler
                0x08002774                UART5_IRQHandler
                0x08002774                ADC3_IRQHandler
                0x08002774                TIM4_IRQHandler
                0x08002774                DMA2_Channel1_IRQHandler
                0x08002774                QUADSPI_IRQHandler
                0x08002774                I2C1_EV_IRQHandler
                0x08002774                DMA1_Channel6_IRQHandler
                0x08002774                UART4_IRQHandler
                0x08002774                DMA2_Channel4_IRQHandler
                0x08002774                TIM3_IRQHandler
                0x08002774                RCC_IRQHandler
                0x08002774                Default_Handler
                0x08002774                DMA2_Channel7_IRQHandler
                0x08002774                RTC_TAMP_LSECSS_IRQHandler
                0x08002774                FMAC_IRQHandler
                0x08002774                EXTI15_10_IRQHandler
                0x08002774                DMA1_Channel8_IRQHandler
                0x08002774                HRTIM1_TIMA_IRQHandler
                0x08002774                TIM7_DAC_IRQHandler
                0x08002774                FDCAN3_IT1_IRQHandler
                0x08002774                TIM5_IRQHandler
                0x08002774                UCPD1_IRQHandler
                0x08002774                I2C3_EV_IRQHandler
                0x08002774                EXTI9_5_IRQHandler
                0x08002774                RTC_WKUP_IRQHandler
                0x08002774                PVD_PVM_IRQHandler
                0x08002774                SPI2_IRQHandler
                0x08002774                ADC5_IRQHandler
                0x08002774                DMA2_Channel5_IRQHandler
                0x08002774                CRS_IRQHandler
                0x08002774                DMA1_Channel5_IRQHandler
                0x08002774                EXTI4_IRQHandler
                0x08002774                RNG_IRQHandler
                0x08002774                HRTIM1_TIMB_IRQHandler
                0x08002774                FDCAN2_IT1_IRQHandler
                0x08002774                DMA1_Channel3_IRQHandler
                0x08002774                ADC4_IRQHandler
                0x08002774                WWDG_IRQHandler
                0x08002774                I2C4_EV_IRQHandler
                0x08002774                FDCAN2_IT0_IRQHandler
                0x08002774                LPUART1_IRQHandler
                0x08002774                DMA2_Channel6_IRQHandler
                0x08002774                FDCAN1_IT0_IRQHandler
                0x08002774                TIM2_IRQHandler
                0x08002774                COMP7_IRQHandler
                0x08002774                COMP1_2_3_IRQHandler
                0x08002774                EXTI1_IRQHandler
                0x08002774                USART2_IRQHandler
                0x08002774                COMP4_5_6_IRQHandler
                0x08002774                TIM20_BRK_IRQHandler
                0x08002774                I2C2_ER_IRQHandler
                0x08002774                TIM8_BRK_IRQHandler
                0x08002774                FLASH_IRQHandler
                0x08002774                TIM20_CC_IRQHandler
                0x08002774                USART1_IRQHandler
                0x08002774                SPI3_IRQHandler
                0x08002774                I2C1_ER_IRQHandler
                0x08002774                FMC_IRQHandler
                0x08002774                LPTIM1_IRQHandler
                0x08002774                DMAMUX_OVR_IRQHandler
                0x08002774                I2C4_ER_IRQHandler
                0x08002774                USBWakeUp_IRQHandler
                0x08002774                SAI1_IRQHandler
                0x08002774                DMA2_Channel3_IRQHandler
                0x08002774                TIM1_BRK_TIM15_IRQHandler
 .text.HAL_Init
                0x08002776       0x1e CMakeFiles/foc.elf.dir/Drivers/STM32G4xx_HAL_Driver/Src/stm32g4xx_hal.c.obj
                0x08002776                HAL_Init
 .text.HAL_IncTick
                0x08002794       0x18 CMakeFiles/foc.elf.dir/Drivers/STM32G4xx_HAL_Driver/Src/stm32g4xx_hal.c.obj
                0x08002794                HAL_IncTick
 .text.HAL_GetTick
                0x080027ac        0xc CMakeFiles/foc.elf.dir/Drivers/STM32G4xx_HAL_Driver/Src/stm32g4xx_hal.c.obj
                0x080027ac                HAL_GetTick
 .text.HAL_Delay
                0x080027b8       0x28 CMakeFiles/foc.elf.dir/Drivers/STM32G4xx_HAL_Driver/Src/stm32g4xx_hal.c.obj
                0x080027b8                HAL_Delay
 .text.HAL_ADC_Init
                0x080027e0      0x29c CMakeFiles/foc.elf.dir/Drivers/STM32G4xx_HAL_Driver/Src/stm32g4xx_hal_adc.c.obj
                0x080027e0                HAL_ADC_Init
 .text.HAL_ADC_GetValue
                0x08002a7c        0x6 CMakeFiles/foc.elf.dir/Drivers/STM32G4xx_HAL_Driver/Src/stm32g4xx_hal_adc.c.obj
                0x08002a7c                HAL_ADC_GetValue
 .text.HAL_ADC_ConvCpltCallback
                0x08002a82        0x2 CMakeFiles/foc.elf.dir/Drivers/STM32G4xx_HAL_Driver/Src/stm32g4xx_hal_adc.c.obj
                0x08002a82                HAL_ADC_ConvCpltCallback
 .text.HAL_ADC_LevelOutOfWindowCallback
                0x08002a84        0x2 CMakeFiles/foc.elf.dir/Drivers/STM32G4xx_HAL_Driver/Src/stm32g4xx_hal_adc.c.obj
                0x08002a84                HAL_ADC_LevelOutOfWindowCallback
 .text.HAL_ADC_ErrorCallback
                0x08002a86        0x2 CMakeFiles/foc.elf.dir/Drivers/STM32G4xx_HAL_Driver/Src/stm32g4xx_hal_adc.c.obj
                0x08002a86                HAL_ADC_ErrorCallback
 .text.HAL_ADC_IRQHandler
                0x08002a88      0x2e4 CMakeFiles/foc.elf.dir/Drivers/STM32G4xx_HAL_Driver/Src/stm32g4xx_hal_adc.c.obj
                0x08002a88                HAL_ADC_IRQHandler
 .text.HAL_ADC_ConfigChannel
                0x08002d6c      0x538 CMakeFiles/foc.elf.dir/Drivers/STM32G4xx_HAL_Driver/Src/stm32g4xx_hal_adc.c.obj
                0x08002d6c                HAL_ADC_ConfigChannel
 .text.ADC_Enable
                0x080032a4       0xf8 CMakeFiles/foc.elf.dir/Drivers/STM32G4xx_HAL_Driver/Src/stm32g4xx_hal_adc.c.obj
                0x080032a4                ADC_Enable
 .text.HAL_ADC_Start
                0x0800339c      0x12c CMakeFiles/foc.elf.dir/Drivers/STM32G4xx_HAL_Driver/Src/stm32g4xx_hal_adc.c.obj
                0x0800339c                HAL_ADC_Start
 .text.ADC_Disable
                0x080034c8       0x94 CMakeFiles/foc.elf.dir/Drivers/STM32G4xx_HAL_Driver/Src/stm32g4xx_hal_adc.c.obj
                0x080034c8                ADC_Disable
 .text.HAL_ADCEx_Calibration_Start
                0x0800355c       0x9c CMakeFiles/foc.elf.dir/Drivers/STM32G4xx_HAL_Driver/Src/stm32g4xx_hal_adc_ex.c.obj
                0x0800355c                HAL_ADCEx_Calibration_Start
 .text.HAL_ADCEx_InjectedStart_IT
                0x080035f8      0x170 CMakeFiles/foc.elf.dir/Drivers/STM32G4xx_HAL_Driver/Src/stm32g4xx_hal_adc_ex.c.obj
                0x080035f8                HAL_ADCEx_InjectedStart_IT
 .text.HAL_ADCEx_InjectedGetValue
                0x08003768       0x38 CMakeFiles/foc.elf.dir/Drivers/STM32G4xx_HAL_Driver/Src/stm32g4xx_hal_adc_ex.c.obj
                0x08003768                HAL_ADCEx_InjectedGetValue
 .text.HAL_ADCEx_InjectedQueueOverflowCallback
                0x080037a0        0x2 CMakeFiles/foc.elf.dir/Drivers/STM32G4xx_HAL_Driver/Src/stm32g4xx_hal_adc_ex.c.obj
                0x080037a0                HAL_ADCEx_InjectedQueueOverflowCallback
 .text.HAL_ADCEx_LevelOutOfWindow2Callback
                0x080037a2        0x2 CMakeFiles/foc.elf.dir/Drivers/STM32G4xx_HAL_Driver/Src/stm32g4xx_hal_adc_ex.c.obj
                0x080037a2                HAL_ADCEx_LevelOutOfWindow2Callback
 .text.HAL_ADCEx_LevelOutOfWindow3Callback
                0x080037a4        0x2 CMakeFiles/foc.elf.dir/Drivers/STM32G4xx_HAL_Driver/Src/stm32g4xx_hal_adc_ex.c.obj
                0x080037a4                HAL_ADCEx_LevelOutOfWindow3Callback
 .text.HAL_ADCEx_EndOfSamplingCallback
                0x080037a6        0x2 CMakeFiles/foc.elf.dir/Drivers/STM32G4xx_HAL_Driver/Src/stm32g4xx_hal_adc_ex.c.obj
                0x080037a6                HAL_ADCEx_EndOfSamplingCallback
 .text.HAL_ADCEx_InjectedConfigChannel
                0x080037a8      0x670 CMakeFiles/foc.elf.dir/Drivers/STM32G4xx_HAL_Driver/Src/stm32g4xx_hal_adc_ex.c.obj
                0x080037a8                HAL_ADCEx_InjectedConfigChannel
 .text.HAL_ADCEx_MultiModeConfigChannel
                0x08003e18      0x1d4 CMakeFiles/foc.elf.dir/Drivers/STM32G4xx_HAL_Driver/Src/stm32g4xx_hal_adc_ex.c.obj
                0x08003e18                HAL_ADCEx_MultiModeConfigChannel
 .text.HAL_NVIC_SetPriorityGrouping
                0x08003fec       0x24 CMakeFiles/foc.elf.dir/Drivers/STM32G4xx_HAL_Driver/Src/stm32g4xx_hal_cortex.c.obj
                0x08003fec                HAL_NVIC_SetPriorityGrouping
 .text.HAL_NVIC_SetPriority
                0x08004010       0x70 CMakeFiles/foc.elf.dir/Drivers/STM32G4xx_HAL_Driver/Src/stm32g4xx_hal_cortex.c.obj
                0x08004010                HAL_NVIC_SetPriority
 .text.HAL_NVIC_EnableIRQ
                0x08004080       0x1c CMakeFiles/foc.elf.dir/Drivers/STM32G4xx_HAL_Driver/Src/stm32g4xx_hal_cortex.c.obj
                0x08004080                HAL_NVIC_EnableIRQ
 .text.DMA_SetConfig
                0x0800409c       0x42 CMakeFiles/foc.elf.dir/Drivers/STM32G4xx_HAL_Driver/Src/stm32g4xx_hal_dma.c.obj
 *fill*         0x080040de        0x2 
 .text.DMA_CalcDMAMUXChannelBaseAndMask
                0x080040e0       0x48 CMakeFiles/foc.elf.dir/Drivers/STM32G4xx_HAL_Driver/Src/stm32g4xx_hal_dma.c.obj
 .text.DMA_CalcDMAMUXRequestGenBaseAndMask
                0x08004128       0x28 CMakeFiles/foc.elf.dir/Drivers/STM32G4xx_HAL_Driver/Src/stm32g4xx_hal_dma.c.obj
 .text.HAL_DMA_Init
                0x08004150       0xd8 CMakeFiles/foc.elf.dir/Drivers/STM32G4xx_HAL_Driver/Src/stm32g4xx_hal_dma.c.obj
                0x08004150                HAL_DMA_Init
 .text.HAL_DMA_Start_IT
                0x08004228       0x94 CMakeFiles/foc.elf.dir/Drivers/STM32G4xx_HAL_Driver/Src/stm32g4xx_hal_dma.c.obj
                0x08004228                HAL_DMA_Start_IT
 .text.HAL_DMA_Abort
                0x080042bc       0x6c CMakeFiles/foc.elf.dir/Drivers/STM32G4xx_HAL_Driver/Src/stm32g4xx_hal_dma.c.obj
                0x080042bc                HAL_DMA_Abort
 .text.HAL_DMA_Abort_IT
                0x08004328       0x7e CMakeFiles/foc.elf.dir/Drivers/STM32G4xx_HAL_Driver/Src/stm32g4xx_hal_dma.c.obj
                0x08004328                HAL_DMA_Abort_IT
 .text.HAL_DMA_IRQHandler
                0x080043a6       0xc4 CMakeFiles/foc.elf.dir/Drivers/STM32G4xx_HAL_Driver/Src/stm32g4xx_hal_dma.c.obj
                0x080043a6                HAL_DMA_IRQHandler
 *fill*         0x0800446a        0x2 
 .text.FLASH_Program_DoubleWord
                0x0800446c       0x20 CMakeFiles/foc.elf.dir/Drivers/STM32G4xx_HAL_Driver/Src/stm32g4xx_hal_flash.c.obj
 .text.FLASH_Program_Fast
                0x0800448c       0x2c CMakeFiles/foc.elf.dir/Drivers/STM32G4xx_HAL_Driver/Src/stm32g4xx_hal_flash.c.obj
 .text.HAL_FLASH_Unlock
                0x080044b8       0x30 CMakeFiles/foc.elf.dir/Drivers/STM32G4xx_HAL_Driver/Src/stm32g4xx_hal_flash.c.obj
                0x080044b8                HAL_FLASH_Unlock
 .text.HAL_FLASH_Lock
                0x080044e8       0x1c CMakeFiles/foc.elf.dir/Drivers/STM32G4xx_HAL_Driver/Src/stm32g4xx_hal_flash.c.obj
                0x080044e8                HAL_FLASH_Lock
 .text.HAL_FLASH_GetError
                0x08004504        0xc CMakeFiles/foc.elf.dir/Drivers/STM32G4xx_HAL_Driver/Src/stm32g4xx_hal_flash.c.obj
                0x08004504                HAL_FLASH_GetError
 .text.FLASH_WaitForLastOperation
                0x08004510       0x60 CMakeFiles/foc.elf.dir/Drivers/STM32G4xx_HAL_Driver/Src/stm32g4xx_hal_flash.c.obj
                0x08004510                FLASH_WaitForLastOperation
 .text.HAL_FLASH_Program
                0x08004570       0xb0 CMakeFiles/foc.elf.dir/Drivers/STM32G4xx_HAL_Driver/Src/stm32g4xx_hal_flash.c.obj
                0x08004570                HAL_FLASH_Program
 .text.FLASH_MassErase
                0x08004620       0x4c CMakeFiles/foc.elf.dir/Drivers/STM32G4xx_HAL_Driver/Src/stm32g4xx_hal_flash_ex.c.obj
 .text.FLASH_PageErase
                0x0800466c       0x5c CMakeFiles/foc.elf.dir/Drivers/STM32G4xx_HAL_Driver/Src/stm32g4xx_hal_flash_ex.c.obj
                0x0800466c                FLASH_PageErase
 .text.FLASH_FlushCaches
                0x080046c8       0x64 CMakeFiles/foc.elf.dir/Drivers/STM32G4xx_HAL_Driver/Src/stm32g4xx_hal_flash_ex.c.obj
                0x080046c8                FLASH_FlushCaches
 .text.HAL_FLASHEx_Erase
                0x0800472c       0xf4 CMakeFiles/foc.elf.dir/Drivers/STM32G4xx_HAL_Driver/Src/stm32g4xx_hal_flash_ex.c.obj
                0x0800472c                HAL_FLASHEx_Erase
 .text.HAL_GPIO_Init
                0x08004820      0x1d4 CMakeFiles/foc.elf.dir/Drivers/STM32G4xx_HAL_Driver/Src/stm32g4xx_hal_gpio.c.obj
                0x08004820                HAL_GPIO_Init
 .text.HAL_GPIO_WritePin
                0x080049f4        0xa CMakeFiles/foc.elf.dir/Drivers/STM32G4xx_HAL_Driver/Src/stm32g4xx_hal_gpio.c.obj
                0x080049f4                HAL_GPIO_WritePin
 .text.HAL_PCD_EP_DB_Receive
                0x080049fe      0x118 CMakeFiles/foc.elf.dir/Drivers/STM32G4xx_HAL_Driver/Src/stm32g4xx_hal_pcd.c.obj
 .text.HAL_PCD_Init
                0x08004b16       0xb6 CMakeFiles/foc.elf.dir/Drivers/STM32G4xx_HAL_Driver/Src/stm32g4xx_hal_pcd.c.obj
                0x08004b16                HAL_PCD_Init
 .text.HAL_PCD_Start
                0x08004bcc       0x2a CMakeFiles/foc.elf.dir/Drivers/STM32G4xx_HAL_Driver/Src/stm32g4xx_hal_pcd.c.obj
                0x08004bcc                HAL_PCD_Start
 .text.HAL_PCD_EP_DB_Transmit
                0x08004bf6      0x414 CMakeFiles/foc.elf.dir/Drivers/STM32G4xx_HAL_Driver/Src/stm32g4xx_hal_pcd.c.obj
 .text.PCD_EP_ISR_Handler
                0x0800500a      0x52e CMakeFiles/foc.elf.dir/Drivers/STM32G4xx_HAL_Driver/Src/stm32g4xx_hal_pcd.c.obj
 .text.HAL_PCD_SetAddress
                0x08005538       0x26 CMakeFiles/foc.elf.dir/Drivers/STM32G4xx_HAL_Driver/Src/stm32g4xx_hal_pcd.c.obj
                0x08005538                HAL_PCD_SetAddress
 .text.HAL_PCD_IRQHandler
                0x0800555e      0x1b2 CMakeFiles/foc.elf.dir/Drivers/STM32G4xx_HAL_Driver/Src/stm32g4xx_hal_pcd.c.obj
                0x0800555e                HAL_PCD_IRQHandler
 .text.HAL_PCD_EP_Open
                0x08005710       0x84 CMakeFiles/foc.elf.dir/Drivers/STM32G4xx_HAL_Driver/Src/stm32g4xx_hal_pcd.c.obj
                0x08005710                HAL_PCD_EP_Open
 .text.HAL_PCD_EP_Close
                0x08005794       0x6c CMakeFiles/foc.elf.dir/Drivers/STM32G4xx_HAL_Driver/Src/stm32g4xx_hal_pcd.c.obj
                0x08005794                HAL_PCD_EP_Close
 .text.HAL_PCD_EP_Receive
                0x08005800       0x3a CMakeFiles/foc.elf.dir/Drivers/STM32G4xx_HAL_Driver/Src/stm32g4xx_hal_pcd.c.obj
                0x08005800                HAL_PCD_EP_Receive
 .text.HAL_PCD_EP_GetRxCount
                0x0800583a       0x12 CMakeFiles/foc.elf.dir/Drivers/STM32G4xx_HAL_Driver/Src/stm32g4xx_hal_pcd.c.obj
                0x0800583a                HAL_PCD_EP_GetRxCount
 .text.HAL_PCD_EP_Transmit
                0x0800584c       0x4c CMakeFiles/foc.elf.dir/Drivers/STM32G4xx_HAL_Driver/Src/stm32g4xx_hal_pcd.c.obj
                0x0800584c                HAL_PCD_EP_Transmit
 .text.HAL_PCD_EP_SetStall
                0x08005898       0x72 CMakeFiles/foc.elf.dir/Drivers/STM32G4xx_HAL_Driver/Src/stm32g4xx_hal_pcd.c.obj
                0x08005898                HAL_PCD_EP_SetStall
 .text.HAL_PCD_EP_ClrStall
                0x0800590a       0x7e CMakeFiles/foc.elf.dir/Drivers/STM32G4xx_HAL_Driver/Src/stm32g4xx_hal_pcd.c.obj
                0x0800590a                HAL_PCD_EP_ClrStall
 .text.HAL_PCDEx_PMAConfig
                0x08005988       0x38 CMakeFiles/foc.elf.dir/Drivers/STM32G4xx_HAL_Driver/Src/stm32g4xx_hal_pcd_ex.c.obj
                0x08005988                HAL_PCDEx_PMAConfig
 .text.HAL_PCDEx_ActivateLPM
                0x080059c0       0x2c CMakeFiles/foc.elf.dir/Drivers/STM32G4xx_HAL_Driver/Src/stm32g4xx_hal_pcd_ex.c.obj
                0x080059c0                HAL_PCDEx_ActivateLPM
 .text.HAL_PWREx_ControlVoltageScaling
                0x080059ec      0x10c CMakeFiles/foc.elf.dir/Drivers/STM32G4xx_HAL_Driver/Src/stm32g4xx_hal_pwr_ex.c.obj
                0x080059ec                HAL_PWREx_ControlVoltageScaling
 .text.HAL_PWREx_DisableUCPDDeadBattery
                0x08005af8       0x10 CMakeFiles/foc.elf.dir/Drivers/STM32G4xx_HAL_Driver/Src/stm32g4xx_hal_pwr_ex.c.obj
                0x08005af8                HAL_PWREx_DisableUCPDDeadBattery
 .text.RCC_GetSysClockFreqFromPLLSource
                0x08005b08       0x58 CMakeFiles/foc.elf.dir/Drivers/STM32G4xx_HAL_Driver/Src/stm32g4xx_hal_rcc.c.obj
 .text.HAL_RCC_OscConfig
                0x08005b60      0x4e4 CMakeFiles/foc.elf.dir/Drivers/STM32G4xx_HAL_Driver/Src/stm32g4xx_hal_rcc.c.obj
                0x08005b60                HAL_RCC_OscConfig
 .text.HAL_RCC_GetSysClockFreq
                0x08006044       0x88 CMakeFiles/foc.elf.dir/Drivers/STM32G4xx_HAL_Driver/Src/stm32g4xx_hal_rcc.c.obj
                0x08006044                HAL_RCC_GetSysClockFreq
 .text.HAL_RCC_ClockConfig
                0x080060cc      0x1f8 CMakeFiles/foc.elf.dir/Drivers/STM32G4xx_HAL_Driver/Src/stm32g4xx_hal_rcc.c.obj
                0x080060cc                HAL_RCC_ClockConfig
 .text.HAL_RCC_GetHCLKFreq
                0x080062c4        0xc CMakeFiles/foc.elf.dir/Drivers/STM32G4xx_HAL_Driver/Src/stm32g4xx_hal_rcc.c.obj
                0x080062c4                HAL_RCC_GetHCLKFreq
 .text.HAL_RCC_GetPCLK1Freq
                0x080062d0       0x24 CMakeFiles/foc.elf.dir/Drivers/STM32G4xx_HAL_Driver/Src/stm32g4xx_hal_rcc.c.obj
                0x080062d0                HAL_RCC_GetPCLK1Freq
 .text.HAL_RCC_GetPCLK2Freq
                0x080062f4       0x24 CMakeFiles/foc.elf.dir/Drivers/STM32G4xx_HAL_Driver/Src/stm32g4xx_hal_rcc.c.obj
                0x080062f4                HAL_RCC_GetPCLK2Freq
 .text.HAL_RCC_GetClockConfig
                0x08006318       0x3c CMakeFiles/foc.elf.dir/Drivers/STM32G4xx_HAL_Driver/Src/stm32g4xx_hal_rcc.c.obj
                0x08006318                HAL_RCC_GetClockConfig
 .text.HAL_RCC_EnableCSS
                0x08006354       0x10 CMakeFiles/foc.elf.dir/Drivers/STM32G4xx_HAL_Driver/Src/stm32g4xx_hal_rcc.c.obj
                0x08006354                HAL_RCC_EnableCSS
 .text.HAL_RCC_CSSCallback
                0x08006364        0x2 CMakeFiles/foc.elf.dir/Drivers/STM32G4xx_HAL_Driver/Src/stm32g4xx_hal_rcc.c.obj
                0x08006364                HAL_RCC_CSSCallback
 *fill*         0x08006366        0x2 
 .text.HAL_RCC_NMI_IRQHandler
                0x08006368       0x20 CMakeFiles/foc.elf.dir/Drivers/STM32G4xx_HAL_Driver/Src/stm32g4xx_hal_rcc.c.obj
                0x08006368                HAL_RCC_NMI_IRQHandler
 .text.HAL_RCCEx_PeriphCLKConfig
                0x08006388      0x378 CMakeFiles/foc.elf.dir/Drivers/STM32G4xx_HAL_Driver/Src/stm32g4xx_hal_rcc_ex.c.obj
                0x08006388                HAL_RCCEx_PeriphCLKConfig
 .text.SPI_WaitFlagStateUntilTimeout
                0x08006700       0xd4 CMakeFiles/foc.elf.dir/Drivers/STM32G4xx_HAL_Driver/Src/stm32g4xx_hal_spi.c.obj
 .text.SPI_WaitFifoStateUntilTimeout
                0x080067d4       0xf4 CMakeFiles/foc.elf.dir/Drivers/STM32G4xx_HAL_Driver/Src/stm32g4xx_hal_spi.c.obj
 .text.SPI_EndRxTxTransaction
                0x080068c8       0x62 CMakeFiles/foc.elf.dir/Drivers/STM32G4xx_HAL_Driver/Src/stm32g4xx_hal_spi.c.obj
 .text.HAL_SPI_Init
                0x0800692a       0xe8 CMakeFiles/foc.elf.dir/Drivers/STM32G4xx_HAL_Driver/Src/stm32g4xx_hal_spi.c.obj
                0x0800692a                HAL_SPI_Init
 .text.HAL_SPI_TransmitReceive
                0x08006a12      0x2ec CMakeFiles/foc.elf.dir/Drivers/STM32G4xx_HAL_Driver/Src/stm32g4xx_hal_spi.c.obj
                0x08006a12                HAL_SPI_TransmitReceive
 *fill*         0x08006cfe        0x2 
 .text.TIM_OC1_SetConfig
                0x08006d00       0xb0 CMakeFiles/foc.elf.dir/Drivers/STM32G4xx_HAL_Driver/Src/stm32g4xx_hal_tim.c.obj
 .text.TIM_OC3_SetConfig
                0x08006db0       0x9c CMakeFiles/foc.elf.dir/Drivers/STM32G4xx_HAL_Driver/Src/stm32g4xx_hal_tim.c.obj
 .text.TIM_OC4_SetConfig
                0x08006e4c       0x9c CMakeFiles/foc.elf.dir/Drivers/STM32G4xx_HAL_Driver/Src/stm32g4xx_hal_tim.c.obj
 .text.TIM_OC5_SetConfig
                0x08006ee8       0x70 CMakeFiles/foc.elf.dir/Drivers/STM32G4xx_HAL_Driver/Src/stm32g4xx_hal_tim.c.obj
 .text.TIM_OC6_SetConfig
                0x08006f58       0x74 CMakeFiles/foc.elf.dir/Drivers/STM32G4xx_HAL_Driver/Src/stm32g4xx_hal_tim.c.obj
 .text.TIM_TI1_ConfigInputStage
                0x08006fcc       0x26 CMakeFiles/foc.elf.dir/Drivers/STM32G4xx_HAL_Driver/Src/stm32g4xx_hal_tim.c.obj
 .text.TIM_TI2_ConfigInputStage
                0x08006ff2       0x28 CMakeFiles/foc.elf.dir/Drivers/STM32G4xx_HAL_Driver/Src/stm32g4xx_hal_tim.c.obj
 .text.TIM_ITRx_SetConfig
                0x0800701a       0x14 CMakeFiles/foc.elf.dir/Drivers/STM32G4xx_HAL_Driver/Src/stm32g4xx_hal_tim.c.obj
 *fill*         0x0800702e        0x2 
 .text.HAL_TIM_Base_Start_IT
                0x08007030       0x94 CMakeFiles/foc.elf.dir/Drivers/STM32G4xx_HAL_Driver/Src/stm32g4xx_hal_tim.c.obj
                0x08007030                HAL_TIM_Base_Start_IT
 .text.HAL_TIM_PWM_MspInit
                0x080070c4        0x2 CMakeFiles/foc.elf.dir/Drivers/STM32G4xx_HAL_Driver/Src/stm32g4xx_hal_tim.c.obj
                0x080070c4                HAL_TIM_PWM_MspInit
 .text.HAL_TIM_OC_DelayElapsedCallback
                0x080070c6        0x2 CMakeFiles/foc.elf.dir/Drivers/STM32G4xx_HAL_Driver/Src/stm32g4xx_hal_tim.c.obj
                0x080070c6                HAL_TIM_OC_DelayElapsedCallback
 .text.HAL_TIM_IC_CaptureCallback
                0x080070c8        0x2 CMakeFiles/foc.elf.dir/Drivers/STM32G4xx_HAL_Driver/Src/stm32g4xx_hal_tim.c.obj
                0x080070c8                HAL_TIM_IC_CaptureCallback
 .text.HAL_TIM_PWM_PulseFinishedCallback
                0x080070ca        0x2 CMakeFiles/foc.elf.dir/Drivers/STM32G4xx_HAL_Driver/Src/stm32g4xx_hal_tim.c.obj
                0x080070ca                HAL_TIM_PWM_PulseFinishedCallback
 .text.HAL_TIM_TriggerCallback
                0x080070cc        0x2 CMakeFiles/foc.elf.dir/Drivers/STM32G4xx_HAL_Driver/Src/stm32g4xx_hal_tim.c.obj
                0x080070cc                HAL_TIM_TriggerCallback
 .text.HAL_TIM_IRQHandler
                0x080070ce      0x1ea CMakeFiles/foc.elf.dir/Drivers/STM32G4xx_HAL_Driver/Src/stm32g4xx_hal_tim.c.obj
                0x080070ce                HAL_TIM_IRQHandler
 .text.TIM_Base_SetConfig
                0x080072b8       0xf0 CMakeFiles/foc.elf.dir/Drivers/STM32G4xx_HAL_Driver/Src/stm32g4xx_hal_tim.c.obj
                0x080072b8                TIM_Base_SetConfig
 .text.HAL_TIM_Base_Init
                0x080073a8       0x60 CMakeFiles/foc.elf.dir/Drivers/STM32G4xx_HAL_Driver/Src/stm32g4xx_hal_tim.c.obj
                0x080073a8                HAL_TIM_Base_Init
 .text.HAL_TIM_PWM_Init
                0x08007408       0x60 CMakeFiles/foc.elf.dir/Drivers/STM32G4xx_HAL_Driver/Src/stm32g4xx_hal_tim.c.obj
                0x08007408                HAL_TIM_PWM_Init
 .text.TIM_OC2_SetConfig
                0x08007468       0x9c CMakeFiles/foc.elf.dir/Drivers/STM32G4xx_HAL_Driver/Src/stm32g4xx_hal_tim.c.obj
                0x08007468                TIM_OC2_SetConfig
 .text.HAL_TIM_PWM_ConfigChannel
                0x08007504      0x13a CMakeFiles/foc.elf.dir/Drivers/STM32G4xx_HAL_Driver/Src/stm32g4xx_hal_tim.c.obj
                0x08007504                HAL_TIM_PWM_ConfigChannel
 .text.TIM_ETR_SetConfig
                0x0800763e       0x1a CMakeFiles/foc.elf.dir/Drivers/STM32G4xx_HAL_Driver/Src/stm32g4xx_hal_tim.c.obj
                0x0800763e                TIM_ETR_SetConfig
 .text.HAL_TIM_ConfigClockSource
                0x08007658      0x154 CMakeFiles/foc.elf.dir/Drivers/STM32G4xx_HAL_Driver/Src/stm32g4xx_hal_tim.c.obj
                0x08007658                HAL_TIM_ConfigClockSource
 .text.TIM_CCxChannelCmd
                0x080077ac       0x1e CMakeFiles/foc.elf.dir/Drivers/STM32G4xx_HAL_Driver/Src/stm32g4xx_hal_tim.c.obj
                0x080077ac                TIM_CCxChannelCmd
 *fill*         0x080077ca        0x2 
 .text.HAL_TIM_PWM_Start
                0x080077cc      0x170 CMakeFiles/foc.elf.dir/Drivers/STM32G4xx_HAL_Driver/Src/stm32g4xx_hal_tim.c.obj
                0x080077cc                HAL_TIM_PWM_Start
 .text.HAL_TIM_PWM_Stop
                0x0800793c       0xc0 CMakeFiles/foc.elf.dir/Drivers/STM32G4xx_HAL_Driver/Src/stm32g4xx_hal_tim.c.obj
                0x0800793c                HAL_TIM_PWM_Stop
 .text.TIM_CCxNChannelCmd
                0x080079fc       0x1e CMakeFiles/foc.elf.dir/Drivers/STM32G4xx_HAL_Driver/Src/stm32g4xx_hal_tim_ex.c.obj
 *fill*         0x08007a1a        0x2 
 .text.HAL_TIMEx_PWMN_Start
                0x08007a1c      0x104 CMakeFiles/foc.elf.dir/Drivers/STM32G4xx_HAL_Driver/Src/stm32g4xx_hal_tim_ex.c.obj
                0x08007a1c                HAL_TIMEx_PWMN_Start
 .text.HAL_TIMEx_PWMN_Stop
                0x08007b20       0x76 CMakeFiles/foc.elf.dir/Drivers/STM32G4xx_HAL_Driver/Src/stm32g4xx_hal_tim_ex.c.obj
                0x08007b20                HAL_TIMEx_PWMN_Stop
 *fill*         0x08007b96        0x2 
 .text.HAL_TIMEx_MasterConfigSynchronization
                0x08007b98       0xac CMakeFiles/foc.elf.dir/Drivers/STM32G4xx_HAL_Driver/Src/stm32g4xx_hal_tim_ex.c.obj
                0x08007b98                HAL_TIMEx_MasterConfigSynchronization
 .text.HAL_TIMEx_ConfigBreakDeadTime
                0x08007c44       0xa8 CMakeFiles/foc.elf.dir/Drivers/STM32G4xx_HAL_Driver/Src/stm32g4xx_hal_tim_ex.c.obj
                0x08007c44                HAL_TIMEx_ConfigBreakDeadTime
 .text.HAL_TIMEx_CommutCallback
                0x08007cec        0x2 CMakeFiles/foc.elf.dir/Drivers/STM32G4xx_HAL_Driver/Src/stm32g4xx_hal_tim_ex.c.obj
                0x08007cec                HAL_TIMEx_CommutCallback
 .text.HAL_TIMEx_BreakCallback
                0x08007cee        0x2 CMakeFiles/foc.elf.dir/Drivers/STM32G4xx_HAL_Driver/Src/stm32g4xx_hal_tim_ex.c.obj
                0x08007cee                HAL_TIMEx_BreakCallback
 .text.HAL_TIMEx_Break2Callback
                0x08007cf0        0x2 CMakeFiles/foc.elf.dir/Drivers/STM32G4xx_HAL_Driver/Src/stm32g4xx_hal_tim_ex.c.obj
                0x08007cf0                HAL_TIMEx_Break2Callback
 .text.HAL_TIMEx_EncoderIndexCallback
                0x08007cf2        0x2 CMakeFiles/foc.elf.dir/Drivers/STM32G4xx_HAL_Driver/Src/stm32g4xx_hal_tim_ex.c.obj
                0x08007cf2                HAL_TIMEx_EncoderIndexCallback
 .text.HAL_TIMEx_DirectionChangeCallback
                0x08007cf4        0x2 CMakeFiles/foc.elf.dir/Drivers/STM32G4xx_HAL_Driver/Src/stm32g4xx_hal_tim_ex.c.obj
                0x08007cf4                HAL_TIMEx_DirectionChangeCallback
 .text.HAL_TIMEx_IndexErrorCallback
                0x08007cf6        0x2 CMakeFiles/foc.elf.dir/Drivers/STM32G4xx_HAL_Driver/Src/stm32g4xx_hal_tim_ex.c.obj
                0x08007cf6                HAL_TIMEx_IndexErrorCallback
 .text.HAL_TIMEx_TransitionErrorCallback
                0x08007cf8        0x2 CMakeFiles/foc.elf.dir/Drivers/STM32G4xx_HAL_Driver/Src/stm32g4xx_hal_tim_ex.c.obj
                0x08007cf8                HAL_TIMEx_TransitionErrorCallback
 .text.UART_EndTxTransfer
                0x08007cfa       0x32 CMakeFiles/foc.elf.dir/Drivers/STM32G4xx_HAL_Driver/Src/stm32g4xx_hal_uart.c.obj
 .text.UART_EndRxTransfer
                0x08007d2c       0x56 CMakeFiles/foc.elf.dir/Drivers/STM32G4xx_HAL_Driver/Src/stm32g4xx_hal_uart.c.obj
 .text.HAL_UART_TxCpltCallback
                0x08007d82        0x2 CMakeFiles/foc.elf.dir/Drivers/STM32G4xx_HAL_Driver/Src/stm32g4xx_hal_uart.c.obj
                0x08007d82                HAL_UART_TxCpltCallback
 .text.UART_EndTransmit_IT
                0x08007d84       0x24 CMakeFiles/foc.elf.dir/Drivers/STM32G4xx_HAL_Driver/Src/stm32g4xx_hal_uart.c.obj
 .text.HAL_UART_RxCpltCallback
                0x08007da8        0x2 CMakeFiles/foc.elf.dir/Drivers/STM32G4xx_HAL_Driver/Src/stm32g4xx_hal_uart.c.obj
                0x08007da8                HAL_UART_RxCpltCallback
 .text.HAL_UART_RxHalfCpltCallback
                0x08007daa        0x2 CMakeFiles/foc.elf.dir/Drivers/STM32G4xx_HAL_Driver/Src/stm32g4xx_hal_uart.c.obj
                0x08007daa                HAL_UART_RxHalfCpltCallback
 .text.HAL_UART_ErrorCallback
                0x08007dac        0x2 CMakeFiles/foc.elf.dir/Drivers/STM32G4xx_HAL_Driver/Src/stm32g4xx_hal_uart.c.obj
                0x08007dac                HAL_UART_ErrorCallback
 .text.UART_DMAError
                0x08007dae       0x58 CMakeFiles/foc.elf.dir/Drivers/STM32G4xx_HAL_Driver/Src/stm32g4xx_hal_uart.c.obj
 .text.UART_DMAAbortOnError
                0x08007e06       0x14 CMakeFiles/foc.elf.dir/Drivers/STM32G4xx_HAL_Driver/Src/stm32g4xx_hal_uart.c.obj
 *fill*         0x08007e1a        0x2 
 .text.HAL_UART_IRQHandler
                0x08007e1c      0x348 CMakeFiles/foc.elf.dir/Drivers/STM32G4xx_HAL_Driver/Src/stm32g4xx_hal_uart.c.obj
                0x08007e1c                HAL_UART_IRQHandler
 .text.UART_DMARxHalfCplt
                0x08008164       0x20 CMakeFiles/foc.elf.dir/Drivers/STM32G4xx_HAL_Driver/Src/stm32g4xx_hal_uart.c.obj
 .text.UART_DMAReceiveCplt
                0x08008184       0x92 CMakeFiles/foc.elf.dir/Drivers/STM32G4xx_HAL_Driver/Src/stm32g4xx_hal_uart.c.obj
 *fill*         0x08008216        0x2 
 .text.UART_SetConfig
                0x08008218      0x388 CMakeFiles/foc.elf.dir/Drivers/STM32G4xx_HAL_Driver/Src/stm32g4xx_hal_uart.c.obj
                0x08008218                UART_SetConfig
 .text.UART_AdvFeatureConfig
                0x080085a0       0xca CMakeFiles/foc.elf.dir/Drivers/STM32G4xx_HAL_Driver/Src/stm32g4xx_hal_uart.c.obj
                0x080085a0                UART_AdvFeatureConfig
 .text.UART_WaitOnFlagUntilTimeout
                0x0800866a       0xa2 CMakeFiles/foc.elf.dir/Drivers/STM32G4xx_HAL_Driver/Src/stm32g4xx_hal_uart.c.obj
                0x0800866a                UART_WaitOnFlagUntilTimeout
 .text.HAL_UART_Transmit
                0x0800870c       0xd2 CMakeFiles/foc.elf.dir/Drivers/STM32G4xx_HAL_Driver/Src/stm32g4xx_hal_uart.c.obj
                0x0800870c                HAL_UART_Transmit
 .text.UART_CheckIdleState
                0x080087de       0xca CMakeFiles/foc.elf.dir/Drivers/STM32G4xx_HAL_Driver/Src/stm32g4xx_hal_uart.c.obj
                0x080087de                UART_CheckIdleState
 .text.HAL_UART_Init
                0x080088a8       0x66 CMakeFiles/foc.elf.dir/Drivers/STM32G4xx_HAL_Driver/Src/stm32g4xx_hal_uart.c.obj
                0x080088a8                HAL_UART_Init
 *fill*         0x0800890e        0x2 
 .text.UART_Start_Receive_DMA
                0x08008910       0xb0 CMakeFiles/foc.elf.dir/Drivers/STM32G4xx_HAL_Driver/Src/stm32g4xx_hal_uart.c.obj
                0x08008910                UART_Start_Receive_DMA
 .text.UARTEx_SetNbDataToProcess
                0x080089c0       0x4c CMakeFiles/foc.elf.dir/Drivers/STM32G4xx_HAL_Driver/Src/stm32g4xx_hal_uart_ex.c.obj
 .text.HAL_UARTEx_WakeupCallback
                0x08008a0c        0x2 CMakeFiles/foc.elf.dir/Drivers/STM32G4xx_HAL_Driver/Src/stm32g4xx_hal_uart_ex.c.obj
                0x08008a0c                HAL_UARTEx_WakeupCallback
 .text.HAL_UARTEx_RxFifoFullCallback
                0x08008a0e        0x2 CMakeFiles/foc.elf.dir/Drivers/STM32G4xx_HAL_Driver/Src/stm32g4xx_hal_uart_ex.c.obj
                0x08008a0e                HAL_UARTEx_RxFifoFullCallback
 .text.HAL_UARTEx_TxFifoEmptyCallback
                0x08008a10        0x2 CMakeFiles/foc.elf.dir/Drivers/STM32G4xx_HAL_Driver/Src/stm32g4xx_hal_uart_ex.c.obj
                0x08008a10                HAL_UARTEx_TxFifoEmptyCallback
 .text.HAL_UARTEx_DisableFifoMode
                0x08008a12       0x3e CMakeFiles/foc.elf.dir/Drivers/STM32G4xx_HAL_Driver/Src/stm32g4xx_hal_uart_ex.c.obj
                0x08008a12                HAL_UARTEx_DisableFifoMode
 .text.HAL_UARTEx_SetTxFifoThreshold
                0x08008a50       0x4a CMakeFiles/foc.elf.dir/Drivers/STM32G4xx_HAL_Driver/Src/stm32g4xx_hal_uart_ex.c.obj
                0x08008a50                HAL_UARTEx_SetTxFifoThreshold
 .text.HAL_UARTEx_SetRxFifoThreshold
                0x08008a9a       0x4a CMakeFiles/foc.elf.dir/Drivers/STM32G4xx_HAL_Driver/Src/stm32g4xx_hal_uart_ex.c.obj
                0x08008a9a                HAL_UARTEx_SetRxFifoThreshold
 .text.HAL_UARTEx_ReceiveToIdle_DMA
                0x08008ae4       0x50 CMakeFiles/foc.elf.dir/Drivers/STM32G4xx_HAL_Driver/Src/stm32g4xx_hal_uart_ex.c.obj
                0x08008ae4                HAL_UARTEx_ReceiveToIdle_DMA
 .text.USB_EnableGlobalInt
                0x08008b34       0x12 CMakeFiles/foc.elf.dir/Drivers/STM32G4xx_HAL_Driver/Src/stm32g4xx_ll_usb.c.obj
                0x08008b34                USB_EnableGlobalInt
 .text.USB_DisableGlobalInt
                0x08008b46       0x14 CMakeFiles/foc.elf.dir/Drivers/STM32G4xx_HAL_Driver/Src/stm32g4xx_ll_usb.c.obj
                0x08008b46                USB_DisableGlobalInt
 .text.USB_DevInit
                0x08008b5a       0x22 CMakeFiles/foc.elf.dir/Drivers/STM32G4xx_HAL_Driver/Src/stm32g4xx_ll_usb.c.obj
                0x08008b5a                USB_DevInit
 .text.USB_ActivateEndpoint
                0x08008b7c      0x3ce CMakeFiles/foc.elf.dir/Drivers/STM32G4xx_HAL_Driver/Src/stm32g4xx_ll_usb.c.obj
                0x08008b7c                USB_ActivateEndpoint
 .text.USB_DeactivateEndpoint
                0x08008f4a      0x1d6 CMakeFiles/foc.elf.dir/Drivers/STM32G4xx_HAL_Driver/Src/stm32g4xx_ll_usb.c.obj
                0x08008f4a                USB_DeactivateEndpoint
 .text.USB_EPSetStall
                0x08009120       0x4a CMakeFiles/foc.elf.dir/Drivers/STM32G4xx_HAL_Driver/Src/stm32g4xx_ll_usb.c.obj
                0x08009120                USB_EPSetStall
 .text.USB_EPClearStall
                0x0800916a       0xa2 CMakeFiles/foc.elf.dir/Drivers/STM32G4xx_HAL_Driver/Src/stm32g4xx_ll_usb.c.obj
                0x0800916a                USB_EPClearStall
 .text.USB_SetDevAddress
                0x0800920c        0xc CMakeFiles/foc.elf.dir/Drivers/STM32G4xx_HAL_Driver/Src/stm32g4xx_ll_usb.c.obj
                0x0800920c                USB_SetDevAddress
 .text.USB_DevConnect
                0x08009218       0x16 CMakeFiles/foc.elf.dir/Drivers/STM32G4xx_HAL_Driver/Src/stm32g4xx_ll_usb.c.obj
                0x08009218                USB_DevConnect
 .text.USB_ReadInterrupts
                0x0800922e        0x8 CMakeFiles/foc.elf.dir/Drivers/STM32G4xx_HAL_Driver/Src/stm32g4xx_ll_usb.c.obj
                0x0800922e                USB_ReadInterrupts
 .text.USB_WritePMA
                0x08009236       0x28 CMakeFiles/foc.elf.dir/Drivers/STM32G4xx_HAL_Driver/Src/stm32g4xx_ll_usb.c.obj
                0x08009236                USB_WritePMA
 .text.USB_EPStartXfer
                0x0800925e      0x7ce CMakeFiles/foc.elf.dir/Drivers/STM32G4xx_HAL_Driver/Src/stm32g4xx_ll_usb.c.obj
                0x0800925e                USB_EPStartXfer
 .text.USB_ReadPMA
                0x08009a2c       0x30 CMakeFiles/foc.elf.dir/Drivers/STM32G4xx_HAL_Driver/Src/stm32g4xx_ll_usb.c.obj
                0x08009a2c                USB_ReadPMA
 .text.USBD_CDC_EP0_RxReady
                0x08009a5c       0x36 CMakeFiles/foc.elf.dir/Middlewares/ST/STM32_USB_Device_Library/Class/CDC/Src/usbd_cdc.c.obj
 *fill*         0x08009a92        0x2 
 .text.USBD_CDC_GetFSCfgDesc
                0x08009a94        0xc CMakeFiles/foc.elf.dir/Middlewares/ST/STM32_USB_Device_Library/Class/CDC/Src/usbd_cdc.c.obj
 .text.USBD_CDC_GetHSCfgDesc
                0x08009aa0        0xc CMakeFiles/foc.elf.dir/Middlewares/ST/STM32_USB_Device_Library/Class/CDC/Src/usbd_cdc.c.obj
 .text.USBD_CDC_GetOtherSpeedCfgDesc
                0x08009aac        0xc CMakeFiles/foc.elf.dir/Middlewares/ST/STM32_USB_Device_Library/Class/CDC/Src/usbd_cdc.c.obj
 .text.USBD_CDC_GetDeviceQualifierDescriptor
                0x08009ab8        0xc CMakeFiles/foc.elf.dir/Middlewares/ST/STM32_USB_Device_Library/Class/CDC/Src/usbd_cdc.c.obj
                0x08009ab8                USBD_CDC_GetDeviceQualifierDescriptor
 .text.USBD_CDC_DataOut
                0x08009ac4       0x2a CMakeFiles/foc.elf.dir/Middlewares/ST/STM32_USB_Device_Library/Class/CDC/Src/usbd_cdc.c.obj
 .text.USBD_CDC_DataIn
                0x08009aee       0x6a CMakeFiles/foc.elf.dir/Middlewares/ST/STM32_USB_Device_Library/Class/CDC/Src/usbd_cdc.c.obj
 .text.USBD_CDC_Setup
                0x08009b58       0xf4 CMakeFiles/foc.elf.dir/Middlewares/ST/STM32_USB_Device_Library/Class/CDC/Src/usbd_cdc.c.obj
 .text.USBD_CDC_DeInit
                0x08009c4c       0x48 CMakeFiles/foc.elf.dir/Middlewares/ST/STM32_USB_Device_Library/Class/CDC/Src/usbd_cdc.c.obj
 .text.USBD_CDC_Init
                0x08009c94       0xc2 CMakeFiles/foc.elf.dir/Middlewares/ST/STM32_USB_Device_Library/Class/CDC/Src/usbd_cdc.c.obj
 .text.USBD_CDC_RegisterInterface
                0x08009d56        0xe CMakeFiles/foc.elf.dir/Middlewares/ST/STM32_USB_Device_Library/Class/CDC/Src/usbd_cdc.c.obj
                0x08009d56                USBD_CDC_RegisterInterface
 .text.USBD_CDC_SetTxBuffer
                0x08009d64       0x16 CMakeFiles/foc.elf.dir/Middlewares/ST/STM32_USB_Device_Library/Class/CDC/Src/usbd_cdc.c.obj
                0x08009d64                USBD_CDC_SetTxBuffer
 .text.USBD_CDC_SetRxBuffer
                0x08009d7a       0x12 CMakeFiles/foc.elf.dir/Middlewares/ST/STM32_USB_Device_Library/Class/CDC/Src/usbd_cdc.c.obj
                0x08009d7a                USBD_CDC_SetRxBuffer
 .text.USBD_CDC_TransmitPacket
                0x08009d8c       0x34 CMakeFiles/foc.elf.dir/Middlewares/ST/STM32_USB_Device_Library/Class/CDC/Src/usbd_cdc.c.obj
                0x08009d8c                USBD_CDC_TransmitPacket
 .text.USBD_CDC_ReceivePacket
                0x08009dc0       0x32 CMakeFiles/foc.elf.dir/Middlewares/ST/STM32_USB_Device_Library/Class/CDC/Src/usbd_cdc.c.obj
                0x08009dc0                USBD_CDC_ReceivePacket
 .text.USBD_Init
                0x08009df2       0x2e CMakeFiles/foc.elf.dir/Middlewares/ST/STM32_USB_Device_Library/Core/Src/usbd_core.c.obj
                0x08009df2                USBD_Init
 .text.USBD_RegisterClass
                0x08009e20       0x2e CMakeFiles/foc.elf.dir/Middlewares/ST/STM32_USB_Device_Library/Core/Src/usbd_core.c.obj
                0x08009e20                USBD_RegisterClass
 .text.USBD_Start
                0x08009e4e        0x8 CMakeFiles/foc.elf.dir/Middlewares/ST/STM32_USB_Device_Library/Core/Src/usbd_core.c.obj
                0x08009e4e                USBD_Start
 .text.USBD_SetClassConfig
                0x08009e56       0x12 CMakeFiles/foc.elf.dir/Middlewares/ST/STM32_USB_Device_Library/Core/Src/usbd_core.c.obj
                0x08009e56                USBD_SetClassConfig
 .text.USBD_ClrClassConfig
                0x08009e68       0x10 CMakeFiles/foc.elf.dir/Middlewares/ST/STM32_USB_Device_Library/Core/Src/usbd_core.c.obj
                0x08009e68                USBD_ClrClassConfig
 .text.USBD_LL_SetupStage
                0x08009e78       0x58 CMakeFiles/foc.elf.dir/Middlewares/ST/STM32_USB_Device_Library/Core/Src/usbd_core.c.obj
                0x08009e78                USBD_LL_SetupStage
 .text.USBD_LL_DataOutStage
                0x08009ed0       0x78 CMakeFiles/foc.elf.dir/Middlewares/ST/STM32_USB_Device_Library/Core/Src/usbd_core.c.obj
                0x08009ed0                USBD_LL_DataOutStage
 .text.USBD_LL_DataInStage
                0x08009f48       0xbe CMakeFiles/foc.elf.dir/Middlewares/ST/STM32_USB_Device_Library/Core/Src/usbd_core.c.obj
                0x08009f48                USBD_LL_DataInStage
 .text.USBD_LL_Reset
                0x0800a006       0x5a CMakeFiles/foc.elf.dir/Middlewares/ST/STM32_USB_Device_Library/Core/Src/usbd_core.c.obj
                0x0800a006                USBD_LL_Reset
 .text.USBD_LL_SetSpeed
                0x0800a060        0x6 CMakeFiles/foc.elf.dir/Middlewares/ST/STM32_USB_Device_Library/Core/Src/usbd_core.c.obj
                0x0800a060                USBD_LL_SetSpeed
 .text.USBD_LL_Suspend
                0x0800a066       0x14 CMakeFiles/foc.elf.dir/Middlewares/ST/STM32_USB_Device_Library/Core/Src/usbd_core.c.obj
                0x0800a066                USBD_LL_Suspend
 .text.USBD_LL_Resume
                0x0800a07a       0x1a CMakeFiles/foc.elf.dir/Middlewares/ST/STM32_USB_Device_Library/Core/Src/usbd_core.c.obj
                0x0800a07a                USBD_LL_Resume
 .text.USBD_LL_SOF
                0x0800a094       0x28 CMakeFiles/foc.elf.dir/Middlewares/ST/STM32_USB_Device_Library/Core/Src/usbd_core.c.obj
                0x0800a094                USBD_LL_SOF
 .text.USBD_GetLen
                0x0800a0bc       0x14 CMakeFiles/foc.elf.dir/Middlewares/ST/STM32_USB_Device_Library/Core/Src/usbd_ctlreq.c.obj
 .text.USBD_SetFeature
                0x0800a0d0       0x14 CMakeFiles/foc.elf.dir/Middlewares/ST/STM32_USB_Device_Library/Core/Src/usbd_ctlreq.c.obj
 .text.USBD_ParseSetupRequest
                0x0800a0e4       0x28 CMakeFiles/foc.elf.dir/Middlewares/ST/STM32_USB_Device_Library/Core/Src/usbd_ctlreq.c.obj
                0x0800a0e4                USBD_ParseSetupRequest
 .text.USBD_CtlError
                0x0800a10c       0x14 CMakeFiles/foc.elf.dir/Middlewares/ST/STM32_USB_Device_Library/Core/Src/usbd_ctlreq.c.obj
                0x0800a10c                USBD_CtlError
 .text.USBD_GetDescriptor
                0x0800a120      0x1ac CMakeFiles/foc.elf.dir/Middlewares/ST/STM32_USB_Device_Library/Core/Src/usbd_ctlreq.c.obj
 .text.USBD_SetAddress
                0x0800a2cc       0x50 CMakeFiles/foc.elf.dir/Middlewares/ST/STM32_USB_Device_Library/Core/Src/usbd_ctlreq.c.obj
 .text.USBD_SetConfig
                0x0800a31c       0xc8 CMakeFiles/foc.elf.dir/Middlewares/ST/STM32_USB_Device_Library/Core/Src/usbd_ctlreq.c.obj
 .text.USBD_GetConfig
                0x0800a3e4       0x40 CMakeFiles/foc.elf.dir/Middlewares/ST/STM32_USB_Device_Library/Core/Src/usbd_ctlreq.c.obj
 .text.USBD_GetStatus
                0x0800a424       0x38 CMakeFiles/foc.elf.dir/Middlewares/ST/STM32_USB_Device_Library/Core/Src/usbd_ctlreq.c.obj
 .text.USBD_ClrFeature
                0x0800a45c       0x26 CMakeFiles/foc.elf.dir/Middlewares/ST/STM32_USB_Device_Library/Core/Src/usbd_ctlreq.c.obj
 .text.USBD_StdDevReq
                0x0800a482       0x70 CMakeFiles/foc.elf.dir/Middlewares/ST/STM32_USB_Device_Library/Core/Src/usbd_ctlreq.c.obj
                0x0800a482                USBD_StdDevReq
 .text.USBD_StdItfReq
                0x0800a4f2       0x68 CMakeFiles/foc.elf.dir/Middlewares/ST/STM32_USB_Device_Library/Core/Src/usbd_ctlreq.c.obj
                0x0800a4f2                USBD_StdItfReq
 .text.USBD_StdEPReq
                0x0800a55a      0x1ec CMakeFiles/foc.elf.dir/Middlewares/ST/STM32_USB_Device_Library/Core/Src/usbd_ctlreq.c.obj
                0x0800a55a                USBD_StdEPReq
 .text.USBD_GetString
                0x0800a746       0x3a CMakeFiles/foc.elf.dir/Middlewares/ST/STM32_USB_Device_Library/Core/Src/usbd_ctlreq.c.obj
                0x0800a746                USBD_GetString
 .text.USBD_CtlSendData
                0x0800a780       0x1a CMakeFiles/foc.elf.dir/Middlewares/ST/STM32_USB_Device_Library/Core/Src/usbd_ioreq.c.obj
                0x0800a780                USBD_CtlSendData
 .text.USBD_CtlContinueSendData
                0x0800a79a       0x10 CMakeFiles/foc.elf.dir/Middlewares/ST/STM32_USB_Device_Library/Core/Src/usbd_ioreq.c.obj
                0x0800a79a                USBD_CtlContinueSendData
 .text.USBD_CtlPrepareRx
                0x0800a7aa       0x1e CMakeFiles/foc.elf.dir/Middlewares/ST/STM32_USB_Device_Library/Core/Src/usbd_ioreq.c.obj
                0x0800a7aa                USBD_CtlPrepareRx
 .text.USBD_CtlContinueRx
                0x0800a7c8       0x10 CMakeFiles/foc.elf.dir/Middlewares/ST/STM32_USB_Device_Library/Core/Src/usbd_ioreq.c.obj
                0x0800a7c8                USBD_CtlContinueRx
 .text.USBD_CtlSendStatus
                0x0800a7d8       0x16 CMakeFiles/foc.elf.dir/Middlewares/ST/STM32_USB_Device_Library/Core/Src/usbd_ioreq.c.obj
                0x0800a7d8                USBD_CtlSendStatus
 .text.USBD_CtlReceiveStatus
                0x0800a7ee       0x16 CMakeFiles/foc.elf.dir/Middlewares/ST/STM32_USB_Device_Library/Core/Src/usbd_ioreq.c.obj
                0x0800a7ee                USBD_CtlReceiveStatus
 .text.SysTick_Handler
                0x0800a804       0x18 CMakeFiles/foc.elf.dir/Middlewares/Third_Party/FreeRTOS/Source/CMSIS_RTOS_V2/cmsis_os2.c.obj
                0x0800a804                SysTick_Handler
 .text.osKernelInitialize
                0x0800a81c       0x24 CMakeFiles/foc.elf.dir/Middlewares/Third_Party/FreeRTOS/Source/CMSIS_RTOS_V2/cmsis_os2.c.obj
                0x0800a81c                osKernelInitialize
 .text.osKernelStart
                0x0800a840       0x38 CMakeFiles/foc.elf.dir/Middlewares/Third_Party/FreeRTOS/Source/CMSIS_RTOS_V2/cmsis_os2.c.obj
                0x0800a840                osKernelStart
 .text.osThreadNew
                0x0800a878       0xbe CMakeFiles/foc.elf.dir/Middlewares/Third_Party/FreeRTOS/Source/CMSIS_RTOS_V2/cmsis_os2.c.obj
                0x0800a878                osThreadNew
 .text.osDelay  0x0800a936       0x1c CMakeFiles/foc.elf.dir/Middlewares/Third_Party/FreeRTOS/Source/CMSIS_RTOS_V2/cmsis_os2.c.obj
                0x0800a936                osDelay
 *fill*         0x0800a952        0x2 
 .text.vApplicationGetIdleTaskMemory
                0x0800a954       0x18 CMakeFiles/foc.elf.dir/Middlewares/Third_Party/FreeRTOS/Source/CMSIS_RTOS_V2/cmsis_os2.c.obj
                0x0800a954                vApplicationGetIdleTaskMemory
 .text.vApplicationGetTimerTaskMemory
                0x0800a96c       0x18 CMakeFiles/foc.elf.dir/Middlewares/Third_Party/FreeRTOS/Source/CMSIS_RTOS_V2/cmsis_os2.c.obj
                0x0800a96c                vApplicationGetTimerTaskMemory
 .text.vListInitialise
                0x0800a984       0x16 CMakeFiles/foc.elf.dir/Middlewares/Third_Party/FreeRTOS/Source/list.c.obj
                0x0800a984                vListInitialise
 .text.vListInitialiseItem
                0x0800a99a        0x6 CMakeFiles/foc.elf.dir/Middlewares/Third_Party/FreeRTOS/Source/list.c.obj
                0x0800a99a                vListInitialiseItem
 .text.vListInsertEnd
                0x0800a9a0       0x16 CMakeFiles/foc.elf.dir/Middlewares/Third_Party/FreeRTOS/Source/list.c.obj
                0x0800a9a0                vListInsertEnd
 .text.vListInsert
                0x0800a9b6       0x32 CMakeFiles/foc.elf.dir/Middlewares/Third_Party/FreeRTOS/Source/list.c.obj
                0x0800a9b6                vListInsert
 .text.uxListRemove
                0x0800a9e8       0x26 CMakeFiles/foc.elf.dir/Middlewares/Third_Party/FreeRTOS/Source/list.c.obj
                0x0800a9e8                uxListRemove
 *fill*         0x0800aa0e        0x2 
 .text.prvTaskExitError
                0x0800aa10       0x40 CMakeFiles/foc.elf.dir/Middlewares/Third_Party/FreeRTOS/Source/portable/GCC/ARM_CM4F/port.c.obj
 .text.prvPortStartFirstTask
                0x0800aa50       0x28 CMakeFiles/foc.elf.dir/Middlewares/Third_Party/FreeRTOS/Source/portable/GCC/ARM_CM4F/port.c.obj
 .text.vPortEnableVFP
                0x0800aa78       0x14 CMakeFiles/foc.elf.dir/Middlewares/Third_Party/FreeRTOS/Source/portable/GCC/ARM_CM4F/port.c.obj
 .text.pxPortInitialiseStack
                0x0800aa8c       0x2c CMakeFiles/foc.elf.dir/Middlewares/Third_Party/FreeRTOS/Source/portable/GCC/ARM_CM4F/port.c.obj
                0x0800aa8c                pxPortInitialiseStack
 *fill*         0x0800aab8        0x8 
 .text.SVC_Handler
                0x0800aac0       0x24 CMakeFiles/foc.elf.dir/Middlewares/Third_Party/FreeRTOS/Source/portable/GCC/ARM_CM4F/port.c.obj
                0x0800aac0                SVC_Handler
 .text.vPortEnterCritical
                0x0800aae4       0x44 CMakeFiles/foc.elf.dir/Middlewares/Third_Party/FreeRTOS/Source/portable/GCC/ARM_CM4F/port.c.obj
                0x0800aae4                vPortEnterCritical
 .text.vPortExitCritical
                0x0800ab28       0x2c CMakeFiles/foc.elf.dir/Middlewares/Third_Party/FreeRTOS/Source/portable/GCC/ARM_CM4F/port.c.obj
                0x0800ab28                vPortExitCritical
 *fill*         0x0800ab54        0xc 
 .text.PendSV_Handler
                0x0800ab60       0x64 CMakeFiles/foc.elf.dir/Middlewares/Third_Party/FreeRTOS/Source/portable/GCC/ARM_CM4F/port.c.obj
                0x0800ab60                PendSV_Handler
 .text.xPortSysTickHandler
                0x0800abc4       0x2c CMakeFiles/foc.elf.dir/Middlewares/Third_Party/FreeRTOS/Source/portable/GCC/ARM_CM4F/port.c.obj
                0x0800abc4                xPortSysTickHandler
 .text.vPortSetupTimerInterrupt
                0x0800abf0       0x28 CMakeFiles/foc.elf.dir/Middlewares/Third_Party/FreeRTOS/Source/portable/GCC/ARM_CM4F/port.c.obj
                0x0800abf0                vPortSetupTimerInterrupt
 .text.xPortStartScheduler
                0x0800ac18      0x118 CMakeFiles/foc.elf.dir/Middlewares/Third_Party/FreeRTOS/Source/portable/GCC/ARM_CM4F/port.c.obj
                0x0800ac18                xPortStartScheduler
 .text.vPortValidateInterruptPriority
                0x0800ad30       0x5c CMakeFiles/foc.elf.dir/Middlewares/Third_Party/FreeRTOS/Source/portable/GCC/ARM_CM4F/port.c.obj
                0x0800ad30                vPortValidateInterruptPriority
 .text.prvHeapInit
                0x0800ad8c       0x64 CMakeFiles/foc.elf.dir/Middlewares/Third_Party/FreeRTOS/Source/portable/MemMang/heap_4.c.obj
 .text.prvInsertBlockIntoFreeList
                0x0800adf0       0x64 CMakeFiles/foc.elf.dir/Middlewares/Third_Party/FreeRTOS/Source/portable/MemMang/heap_4.c.obj
 .text.pvPortMalloc
                0x0800ae54       0xfc CMakeFiles/foc.elf.dir/Middlewares/Third_Party/FreeRTOS/Source/portable/MemMang/heap_4.c.obj
                0x0800ae54                pvPortMalloc
 .text.vPortFree
                0x0800af50       0x7c CMakeFiles/foc.elf.dir/Middlewares/Third_Party/FreeRTOS/Source/portable/MemMang/heap_4.c.obj
                0x0800af50                vPortFree
 .text.prvIsQueueFull
                0x0800afcc       0x1e CMakeFiles/foc.elf.dir/Middlewares/Third_Party/FreeRTOS/Source/queue.c.obj
 .text.prvIsQueueEmpty
                0x0800afea       0x1a CMakeFiles/foc.elf.dir/Middlewares/Third_Party/FreeRTOS/Source/queue.c.obj
 .text.prvCopyDataToQueue
                0x0800b004       0x76 CMakeFiles/foc.elf.dir/Middlewares/Third_Party/FreeRTOS/Source/queue.c.obj
 .text.prvCopyDataFromQueue
                0x0800b07a       0x24 CMakeFiles/foc.elf.dir/Middlewares/Third_Party/FreeRTOS/Source/queue.c.obj
 .text.prvUnlockQueue
                0x0800b09e       0x6e CMakeFiles/foc.elf.dir/Middlewares/Third_Party/FreeRTOS/Source/queue.c.obj
 .text.xQueueGenericReset
                0x0800b10c       0x84 CMakeFiles/foc.elf.dir/Middlewares/Third_Party/FreeRTOS/Source/queue.c.obj
                0x0800b10c                xQueueGenericReset
 .text.prvInitialiseNewQueue
                0x0800b190       0x22 CMakeFiles/foc.elf.dir/Middlewares/Third_Party/FreeRTOS/Source/queue.c.obj
 .text.xQueueGenericCreateStatic
                0x0800b1b2       0x94 CMakeFiles/foc.elf.dir/Middlewares/Third_Party/FreeRTOS/Source/queue.c.obj
                0x0800b1b2                xQueueGenericCreateStatic
 .text.xQueueGenericSend
                0x0800b246      0x188 CMakeFiles/foc.elf.dir/Middlewares/Third_Party/FreeRTOS/Source/queue.c.obj
                0x0800b246                xQueueGenericSend
 .text.xQueueGenericSendFromISR
                0x0800b3ce       0xce CMakeFiles/foc.elf.dir/Middlewares/Third_Party/FreeRTOS/Source/queue.c.obj
                0x0800b3ce                xQueueGenericSendFromISR
 .text.xQueueReceive
                0x0800b49c      0x15e CMakeFiles/foc.elf.dir/Middlewares/Third_Party/FreeRTOS/Source/queue.c.obj
                0x0800b49c                xQueueReceive
 *fill*         0x0800b5fa        0x2 
 .text.vQueueAddToRegistry
                0x0800b5fc       0x28 CMakeFiles/foc.elf.dir/Middlewares/Third_Party/FreeRTOS/Source/queue.c.obj
                0x0800b5fc                vQueueAddToRegistry
 .text.vQueueWaitForMessageRestricted
                0x0800b624       0x52 CMakeFiles/foc.elf.dir/Middlewares/Third_Party/FreeRTOS/Source/queue.c.obj
                0x0800b624                vQueueWaitForMessageRestricted
 *fill*         0x0800b676        0x2 
 .text.prvResetNextTaskUnblockTime
                0x0800b678       0x2c CMakeFiles/foc.elf.dir/Middlewares/Third_Party/FreeRTOS/Source/tasks.c.obj
 .text.prvInitialiseNewTask
                0x0800b6a4      0x106 CMakeFiles/foc.elf.dir/Middlewares/Third_Party/FreeRTOS/Source/tasks.c.obj
 *fill*         0x0800b7aa        0x2 
 .text.prvInitialiseTaskLists
                0x0800b7ac       0x68 CMakeFiles/foc.elf.dir/Middlewares/Third_Party/FreeRTOS/Source/tasks.c.obj
 .text.prvAddNewTaskToReadyList
                0x0800b814       0xac CMakeFiles/foc.elf.dir/Middlewares/Third_Party/FreeRTOS/Source/tasks.c.obj
 .text.prvDeleteTCB
                0x0800b8c0       0x40 CMakeFiles/foc.elf.dir/Middlewares/Third_Party/FreeRTOS/Source/tasks.c.obj
 .text.prvCheckTasksWaitingTermination
                0x0800b900       0x4c CMakeFiles/foc.elf.dir/Middlewares/Third_Party/FreeRTOS/Source/tasks.c.obj
 .text.prvIdleTask
                0x0800b94c       0x28 CMakeFiles/foc.elf.dir/Middlewares/Third_Party/FreeRTOS/Source/tasks.c.obj
 .text.prvAddCurrentTaskToDelayedList
                0x0800b974       0x7c CMakeFiles/foc.elf.dir/Middlewares/Third_Party/FreeRTOS/Source/tasks.c.obj
 .text.xTaskCreateStatic
                0x0800b9f0       0x7a CMakeFiles/foc.elf.dir/Middlewares/Third_Party/FreeRTOS/Source/tasks.c.obj
                0x0800b9f0                xTaskCreateStatic
 .text.xTaskCreate
                0x0800ba6a       0x6a CMakeFiles/foc.elf.dir/Middlewares/Third_Party/FreeRTOS/Source/tasks.c.obj
                0x0800ba6a                xTaskCreate
 .text.vTaskStartScheduler
                0x0800bad4       0xac CMakeFiles/foc.elf.dir/Middlewares/Third_Party/FreeRTOS/Source/tasks.c.obj
                0x0800bad4                vTaskStartScheduler
 .text.vTaskSuspendAll
                0x0800bb80       0x10 CMakeFiles/foc.elf.dir/Middlewares/Third_Party/FreeRTOS/Source/tasks.c.obj
                0x0800bb80                vTaskSuspendAll
 .text.xTaskGetTickCount
                0x0800bb90        0xc CMakeFiles/foc.elf.dir/Middlewares/Third_Party/FreeRTOS/Source/tasks.c.obj
                0x0800bb90                xTaskGetTickCount
 .text.xTaskIncrementTick
                0x0800bb9c      0x118 CMakeFiles/foc.elf.dir/Middlewares/Third_Party/FreeRTOS/Source/tasks.c.obj
                0x0800bb9c                xTaskIncrementTick
 .text.xTaskResumeAll
                0x0800bcb4       0xf8 CMakeFiles/foc.elf.dir/Middlewares/Third_Party/FreeRTOS/Source/tasks.c.obj
                0x0800bcb4                xTaskResumeAll
 .text.vTaskDelay
                0x0800bdac       0x4c CMakeFiles/foc.elf.dir/Middlewares/Third_Party/FreeRTOS/Source/tasks.c.obj
                0x0800bdac                vTaskDelay
 .text.vTaskSwitchContext
                0x0800bdf8       0xa0 CMakeFiles/foc.elf.dir/Middlewares/Third_Party/FreeRTOS/Source/tasks.c.obj
                0x0800bdf8                vTaskSwitchContext
 .text.vTaskPlaceOnEventList
                0x0800be98       0x30 CMakeFiles/foc.elf.dir/Middlewares/Third_Party/FreeRTOS/Source/tasks.c.obj
                0x0800be98                vTaskPlaceOnEventList
 .text.vTaskPlaceOnEventListRestricted
                0x0800bec8       0x38 CMakeFiles/foc.elf.dir/Middlewares/Third_Party/FreeRTOS/Source/tasks.c.obj
                0x0800bec8                vTaskPlaceOnEventListRestricted
 .text.xTaskRemoveFromEventList
                0x0800bf00       0x8c CMakeFiles/foc.elf.dir/Middlewares/Third_Party/FreeRTOS/Source/tasks.c.obj
                0x0800bf00                xTaskRemoveFromEventList
 .text.vTaskInternalSetTimeOutState
                0x0800bf8c       0x18 CMakeFiles/foc.elf.dir/Middlewares/Third_Party/FreeRTOS/Source/tasks.c.obj
                0x0800bf8c                vTaskInternalSetTimeOutState
 .text.xTaskCheckForTimeOut
                0x0800bfa4       0x84 CMakeFiles/foc.elf.dir/Middlewares/Third_Party/FreeRTOS/Source/tasks.c.obj
                0x0800bfa4                xTaskCheckForTimeOut
 .text.vTaskMissedYield
                0x0800c028        0xc CMakeFiles/foc.elf.dir/Middlewares/Third_Party/FreeRTOS/Source/tasks.c.obj
                0x0800c028                vTaskMissedYield
 .text.xTaskGetSchedulerState
                0x0800c034       0x20 CMakeFiles/foc.elf.dir/Middlewares/Third_Party/FreeRTOS/Source/tasks.c.obj
                0x0800c034                xTaskGetSchedulerState
 .text.xTaskPriorityDisinherit
                0x0800c054       0x90 CMakeFiles/foc.elf.dir/Middlewares/Third_Party/FreeRTOS/Source/tasks.c.obj
                0x0800c054                xTaskPriorityDisinherit
 .text.prvGetNextExpireTime
                0x0800c0e4       0x20 CMakeFiles/foc.elf.dir/Middlewares/Third_Party/FreeRTOS/Source/timers.c.obj
 .text.prvInsertTimerInActiveList
                0x0800c104       0x48 CMakeFiles/foc.elf.dir/Middlewares/Third_Party/FreeRTOS/Source/timers.c.obj
 .text.prvCheckForValidListAndQueue
                0x0800c14c       0x70 CMakeFiles/foc.elf.dir/Middlewares/Third_Party/FreeRTOS/Source/timers.c.obj
 .text.xTimerCreateTimerTask
                0x0800c1bc       0x64 CMakeFiles/foc.elf.dir/Middlewares/Third_Party/FreeRTOS/Source/timers.c.obj
                0x0800c1bc                xTimerCreateTimerTask
 .text.xTimerGenericCommand
                0x0800c220       0x6c CMakeFiles/foc.elf.dir/Middlewares/Third_Party/FreeRTOS/Source/timers.c.obj
                0x0800c220                xTimerGenericCommand
 .text.prvSwitchTimerLists
                0x0800c28c       0x7c CMakeFiles/foc.elf.dir/Middlewares/Third_Party/FreeRTOS/Source/timers.c.obj
 .text.prvSampleTimeNow
                0x0800c308       0x2c CMakeFiles/foc.elf.dir/Middlewares/Third_Party/FreeRTOS/Source/timers.c.obj
 .text.prvProcessExpiredTimer
                0x0800c334       0x6c CMakeFiles/foc.elf.dir/Middlewares/Third_Party/FreeRTOS/Source/timers.c.obj
 .text.prvProcessTimerOrBlockTask
                0x0800c3a0       0x74 CMakeFiles/foc.elf.dir/Middlewares/Third_Party/FreeRTOS/Source/timers.c.obj
 .text.prvProcessReceivedCommands
                0x0800c414      0x10c CMakeFiles/foc.elf.dir/Middlewares/Third_Party/FreeRTOS/Source/timers.c.obj
 .text.prvTimerTask
                0x0800c520       0x16 CMakeFiles/foc.elf.dir/Middlewares/Third_Party/FreeRTOS/Source/timers.c.obj
 *fill*         0x0800c536        0x2 
 .text.MX_USB_Device_Init
                0x0800c538       0x54 CMakeFiles/foc.elf.dir/USB_Device/App/usb_device.c.obj
                0x0800c538                MX_USB_Device_Init
 .text.CDC_DeInit_FS
                0x0800c58c        0x4 CMakeFiles/foc.elf.dir/USB_Device/App/usbd_cdc_if.c.obj
 .text.CDC_Control_FS
                0x0800c590        0x4 CMakeFiles/foc.elf.dir/USB_Device/App/usbd_cdc_if.c.obj
 .text.CDC_TransmitCplt_FS
                0x0800c594        0x4 CMakeFiles/foc.elf.dir/USB_Device/App/usbd_cdc_if.c.obj
 .text.CDC_Receive_FS
                0x0800c598       0x2c CMakeFiles/foc.elf.dir/USB_Device/App/usbd_cdc_if.c.obj
 .text.CDC_Init_FS
                0x0800c5c4       0x28 CMakeFiles/foc.elf.dir/USB_Device/App/usbd_cdc_if.c.obj
 .text.CDC_Transmit_FS
                0x0800c5ec       0x2c CMakeFiles/foc.elf.dir/USB_Device/App/usbd_cdc_if.c.obj
                0x0800c5ec                CDC_Transmit_FS
 .text.USBD_CDC_DeviceDescriptor
                0x0800c618        0xc CMakeFiles/foc.elf.dir/USB_Device/App/usbd_desc.c.obj
                0x0800c618                USBD_CDC_DeviceDescriptor
 .text.USBD_CDC_LangIDStrDescriptor
                0x0800c624        0xc CMakeFiles/foc.elf.dir/USB_Device/App/usbd_desc.c.obj
                0x0800c624                USBD_CDC_LangIDStrDescriptor
 .text.IntToUnicode
                0x0800c630       0x46 CMakeFiles/foc.elf.dir/USB_Device/App/usbd_desc.c.obj
 *fill*         0x0800c676        0x2 
 .text.Get_SerialNum
                0x0800c678       0x38 CMakeFiles/foc.elf.dir/USB_Device/App/usbd_desc.c.obj
 .text.USBD_CDC_SerialStrDescriptor
                0x0800c6b0       0x14 CMakeFiles/foc.elf.dir/USB_Device/App/usbd_desc.c.obj
                0x0800c6b0                USBD_CDC_SerialStrDescriptor
 .text.USBD_CDC_ProductStrDescriptor
                0x0800c6c4       0x24 CMakeFiles/foc.elf.dir/USB_Device/App/usbd_desc.c.obj
                0x0800c6c4                USBD_CDC_ProductStrDescriptor
 .text.USBD_CDC_ManufacturerStrDescriptor
                0x0800c6e8       0x1c CMakeFiles/foc.elf.dir/USB_Device/App/usbd_desc.c.obj
                0x0800c6e8                USBD_CDC_ManufacturerStrDescriptor
 .text.USBD_CDC_ConfigStrDescriptor
                0x0800c704       0x24 CMakeFiles/foc.elf.dir/USB_Device/App/usbd_desc.c.obj
                0x0800c704                USBD_CDC_ConfigStrDescriptor
 .text.USBD_CDC_InterfaceStrDescriptor
                0x0800c728       0x24 CMakeFiles/foc.elf.dir/USB_Device/App/usbd_desc.c.obj
                0x0800c728                USBD_CDC_InterfaceStrDescriptor
 .text.USBD_Get_USB_Status
                0x0800c74c       0x14 CMakeFiles/foc.elf.dir/USB_Device/Target/usbd_conf.c.obj
 .text.SystemClockConfig_Resume
                0x0800c760        0x8 CMakeFiles/foc.elf.dir/USB_Device/Target/usbd_conf.c.obj
 .text.HAL_PCD_MspInit
                0x0800c768       0x60 CMakeFiles/foc.elf.dir/USB_Device/Target/usbd_conf.c.obj
                0x0800c768                HAL_PCD_MspInit
 .text.HAL_PCD_SetupStageCallback
                0x0800c7c8       0x10 CMakeFiles/foc.elf.dir/USB_Device/Target/usbd_conf.c.obj
                0x0800c7c8                HAL_PCD_SetupStageCallback
 .text.HAL_PCD_DataOutStageCallback
                0x0800c7d8       0x18 CMakeFiles/foc.elf.dir/USB_Device/Target/usbd_conf.c.obj
                0x0800c7d8                HAL_PCD_DataOutStageCallback
 .text.HAL_PCD_DataInStageCallback
                0x0800c7f0       0x16 CMakeFiles/foc.elf.dir/USB_Device/Target/usbd_conf.c.obj
                0x0800c7f0                HAL_PCD_DataInStageCallback
 .text.HAL_PCD_SOFCallback
                0x0800c806        0xc CMakeFiles/foc.elf.dir/USB_Device/Target/usbd_conf.c.obj
                0x0800c806                HAL_PCD_SOFCallback
 .text.HAL_PCD_ResetCallback
                0x0800c812       0x24 CMakeFiles/foc.elf.dir/USB_Device/Target/usbd_conf.c.obj
                0x0800c812                HAL_PCD_ResetCallback
 *fill*         0x0800c836        0x2 
 .text.HAL_PCD_SuspendCallback
                0x0800c838       0x20 CMakeFiles/foc.elf.dir/USB_Device/Target/usbd_conf.c.obj
                0x0800c838                HAL_PCD_SuspendCallback
 .text.HAL_PCD_ResumeCallback
                0x0800c858       0x28 CMakeFiles/foc.elf.dir/USB_Device/Target/usbd_conf.c.obj
                0x0800c858                HAL_PCD_ResumeCallback
 .text.USBD_LL_Init
                0x0800c880       0x88 CMakeFiles/foc.elf.dir/USB_Device/Target/usbd_conf.c.obj
                0x0800c880                USBD_LL_Init
 .text.USBD_LL_Start
                0x0800c908       0x10 CMakeFiles/foc.elf.dir/USB_Device/Target/usbd_conf.c.obj
                0x0800c908                USBD_LL_Start
 .text.USBD_LL_OpenEP
                0x0800c918       0x16 CMakeFiles/foc.elf.dir/USB_Device/Target/usbd_conf.c.obj
                0x0800c918                USBD_LL_OpenEP
 .text.USBD_LL_CloseEP
                0x0800c92e       0x10 CMakeFiles/foc.elf.dir/USB_Device/Target/usbd_conf.c.obj
                0x0800c92e                USBD_LL_CloseEP
 .text.USBD_LL_StallEP
                0x0800c93e       0x10 CMakeFiles/foc.elf.dir/USB_Device/Target/usbd_conf.c.obj
                0x0800c93e                USBD_LL_StallEP
 .text.USBD_LL_ClearStallEP
                0x0800c94e       0x10 CMakeFiles/foc.elf.dir/USB_Device/Target/usbd_conf.c.obj
                0x0800c94e                USBD_LL_ClearStallEP
 .text.USBD_LL_IsStallEP
                0x0800c95e       0x2c CMakeFiles/foc.elf.dir/USB_Device/Target/usbd_conf.c.obj
                0x0800c95e                USBD_LL_IsStallEP
 .text.USBD_LL_SetUSBAddress
                0x0800c98a       0x10 CMakeFiles/foc.elf.dir/USB_Device/Target/usbd_conf.c.obj
                0x0800c98a                USBD_LL_SetUSBAddress
 .text.USBD_LL_Transmit
                0x0800c99a       0x10 CMakeFiles/foc.elf.dir/USB_Device/Target/usbd_conf.c.obj
                0x0800c99a                USBD_LL_Transmit
 .text.USBD_LL_PrepareReceive
                0x0800c9aa       0x10 CMakeFiles/foc.elf.dir/USB_Device/Target/usbd_conf.c.obj
                0x0800c9aa                USBD_LL_PrepareReceive
 .text.USBD_LL_GetRxDataSize
                0x0800c9ba        0xc CMakeFiles/foc.elf.dir/USB_Device/Target/usbd_conf.c.obj
                0x0800c9ba                USBD_LL_GetRxDataSize
 *fill*         0x0800c9c6        0x2 
 .text.HAL_PCDEx_LPM_Callback
                0x0800c9c8       0x48 CMakeFiles/foc.elf.dir/USB_Device/Target/usbd_conf.c.obj
                0x0800c9c8                HAL_PCDEx_LPM_Callback
 .text.USBD_static_malloc
                0x0800ca10        0x8 CMakeFiles/foc.elf.dir/USB_Device/Target/usbd_conf.c.obj
                0x0800ca10                USBD_static_malloc
 .text.USBD_static_free
                0x0800ca18        0x2 CMakeFiles/foc.elf.dir/USB_Device/Target/usbd_conf.c.obj
                0x0800ca18                USBD_static_free
 *fill*         0x0800ca1a        0x2 
 .text.ANTICOGGING_start
                0x0800ca1c       0x24 CMakeFiles/foc.elf.dir/dgm/anticogging.c.obj
                0x0800ca1c                ANTICOGGING_start
 .text.ANTICOGGING_end
                0x0800ca40       0x18 CMakeFiles/foc.elf.dir/dgm/anticogging.c.obj
                0x0800ca40                ANTICOGGING_end
 .text.ANTICOGGING_loop
                0x0800ca58      0x1e0 CMakeFiles/foc.elf.dir/dgm/anticogging.c.obj
                0x0800ca58                ANTICOGGING_loop
 .text.CALIBRATION_start
                0x0800cc38       0x54 CMakeFiles/foc.elf.dir/dgm/calibration.c.obj
                0x0800cc38                CALIBRATION_start
 .text.CALIBRATION_end
                0x0800cc8c       0x28 CMakeFiles/foc.elf.dir/dgm/calibration.c.obj
                0x0800cc8c                CALIBRATION_end
 .text.CALIBRATION_loop
                0x0800ccb4      0x620 CMakeFiles/foc.elf.dir/dgm/calibration.c.obj
                0x0800ccb4                CALIBRATION_loop
 .text.CONTROLLER_set_home
                0x0800d2d4       0x94 CMakeFiles/foc.elf.dir/dgm/controller.c.obj
                0x0800d2d4                CONTROLLER_set_home
 .text.CONTROLLER_sync_callback
                0x0800d368       0x64 CMakeFiles/foc.elf.dir/dgm/controller.c.obj
                0x0800d368                CONTROLLER_sync_callback
 .text.CONTROLLER_update_input_pos_filter_gain
                0x0800d3cc       0x38 CMakeFiles/foc.elf.dir/dgm/controller.c.obj
                0x0800d3cc                CONTROLLER_update_input_pos_filter_gain
 .text.CONTROLLER_init
                0x0800d404       0x14 CMakeFiles/foc.elf.dir/dgm/controller.c.obj
                0x0800d404                CONTROLLER_init
 .text.CONTROLLER_reset
                0x0800d418       0x6c CMakeFiles/foc.elf.dir/dgm/controller.c.obj
                0x0800d418                CONTROLLER_reset
 .text.CONTROLLER_loop
                0x0800d484      0x4cc CMakeFiles/foc.elf.dir/dgm/controller.c.obj
                0x0800d484                CONTROLLER_loop
 .text.ENCODER_init
                0x0800d950       0x40 CMakeFiles/foc.elf.dir/dgm/encoder.c.obj
                0x0800d950                ENCODER_init
 .text.ENCODER_sample
                0x0800d990       0x8c CMakeFiles/foc.elf.dir/dgm/encoder.c.obj
                0x0800d990                ENCODER_sample
 .text.ENCODER_loop
                0x0800da1c      0x2f4 CMakeFiles/foc.elf.dir/dgm/encoder.c.obj
                0x0800da1c                ENCODER_loop
 .text.FOC_update_current_ctrl_gain
                0x0800dd10       0x3c CMakeFiles/foc.elf.dir/dgm/foc.c.obj
                0x0800dd10                FOC_update_current_ctrl_gain
 .text.FOC_init
                0x0800dd4c       0x2c CMakeFiles/foc.elf.dir/dgm/foc.c.obj
                0x0800dd4c                FOC_init
 .text.FOC_arm  0x0800dd78       0x30 CMakeFiles/foc.elf.dir/dgm/foc.c.obj
                0x0800dd78                FOC_arm
 .text.FOC_disarm
                0x0800dda8       0x2c CMakeFiles/foc.elf.dir/dgm/foc.c.obj
                0x0800dda8                FOC_disarm
 .text.FOC_voltage
                0x0800ddd4      0x158 CMakeFiles/foc.elf.dir/dgm/foc.c.obj
                0x0800ddd4                FOC_voltage
 .text.FOC_current
                0x0800df2c      0x214 CMakeFiles/foc.elf.dir/dgm/foc.c.obj
                0x0800df2c                FOC_current
 .text.exit_state
                0x0800e140       0x9c CMakeFiles/foc.elf.dir/dgm/mc_task.c.obj
 .text.enter_state
                0x0800e1dc       0x64 CMakeFiles/foc.elf.dir/dgm/mc_task.c.obj
 .text.led_act_loop
                0x0800e240      0x1f0 CMakeFiles/foc.elf.dir/dgm/mc_task.c.obj
 .text.MCT_init
                0x0800e430       0x28 CMakeFiles/foc.elf.dir/dgm/mc_task.c.obj
                0x0800e430                MCT_init
 .text.MCT_reset_error
                0x0800e458       0x1c CMakeFiles/foc.elf.dir/dgm/mc_task.c.obj
                0x0800e458                MCT_reset_error
 .text.MCT_get_state
                0x0800e474        0xc CMakeFiles/foc.elf.dir/dgm/mc_task.c.obj
                0x0800e474                MCT_get_state
 .text.MCT_set_state
                0x0800e480       0xf4 CMakeFiles/foc.elf.dir/dgm/mc_task.c.obj
                0x0800e480                MCT_set_state
 .text.MCT_high_frequency_task
                0x0800e574      0x1c4 CMakeFiles/foc.elf.dir/dgm/mc_task.c.obj
                0x0800e574                MCT_high_frequency_task
 .text.MCT_safety_task
                0x0800e738       0x70 CMakeFiles/foc.elf.dir/dgm/mc_task.c.obj
                0x0800e738                MCT_safety_task
 .text.MCT_low_priority_task
                0x0800e7a8       0x64 CMakeFiles/foc.elf.dir/dgm/mc_task.c.obj
                0x0800e7a8                MCT_low_priority_task
 .text.PWMC_init
                0x0800e80c       0x7c CMakeFiles/foc.elf.dir/dgm/pwm_curr.c.obj
                0x0800e80c                PWMC_init
 .text.PWMC_SwitchOffPWM
                0x0800e888       0x3c CMakeFiles/foc.elf.dir/dgm/pwm_curr.c.obj
                0x0800e888                PWMC_SwitchOffPWM
 .text.PWMC_TurnOnLowSides
                0x0800e8c4       0x44 CMakeFiles/foc.elf.dir/dgm/pwm_curr.c.obj
                0x0800e8c4                PWMC_TurnOnLowSides
 .text.can_rx   0x0800e908       0x12 CMakeFiles/foc.elf.dir/dgm/serial.c.obj
 *fill*         0x0800e91a        0x2 
 .text.fill_value
                0x0800e91c       0xf0 CMakeFiles/foc.elf.dir/dgm/serial.c.obj
 .text.config_callback
                0x0800ea0c       0x5c CMakeFiles/foc.elf.dir/dgm/serial.c.obj
 .text.CAN_reset_rx_timeout
                0x0800ea68       0x14 CMakeFiles/foc.elf.dir/dgm/serial.c.obj
                0x0800ea68                CAN_reset_rx_timeout
 .text.CAN_reset_tx_timeout
                0x0800ea7c       0x14 CMakeFiles/foc.elf.dir/dgm/serial.c.obj
                0x0800ea7c                CAN_reset_tx_timeout
 .text.can_tx   0x0800ea90       0x10 CMakeFiles/foc.elf.dir/dgm/serial.c.obj
 .text.CAN_comm_loop
                0x0800eaa0       0x78 CMakeFiles/foc.elf.dir/dgm/serial.c.obj
                0x0800eaa0                CAN_comm_loop
 .text.parse_frame
                0x0800eb18      0x334 CMakeFiles/foc.elf.dir/dgm/serial.c.obj
 .text.CAN_receive_callback
                0x0800ee4c       0x28 CMakeFiles/foc.elf.dir/dgm/serial.c.obj
                0x0800ee4c                CAN_receive_callback
 .text.CAN_tx_statusword
                0x0800ee74       0x68 CMakeFiles/foc.elf.dir/dgm/serial.c.obj
                0x0800ee74                CAN_tx_statusword
 .text.CAN_calib_report
                0x0800eedc       0x44 CMakeFiles/foc.elf.dir/dgm/serial.c.obj
                0x0800eedc                CAN_calib_report
 .text.CAN_anticogging_report
                0x0800ef20       0x60 CMakeFiles/foc.elf.dir/dgm/serial.c.obj
                0x0800ef20                CAN_anticogging_report
 .text.TRAJ_plan
                0x0800ef80      0x21c CMakeFiles/foc.elf.dir/dgm/trapTraj.c.obj
                0x0800ef80                TRAJ_plan
 .text.TRAJ_eval
                0x0800f19c      0x10c CMakeFiles/foc.elf.dir/dgm/trapTraj.c.obj
                0x0800f19c                TRAJ_eval
 .text.USR_CONFIG_set_default_config
                0x0800f2a8      0x100 CMakeFiles/foc.elf.dir/dgm/usr_config.c.obj
                0x0800f2a8                USR_CONFIG_set_default_config
 .text.USR_CONFIG_erease_config
                0x0800f3a8       0x6c CMakeFiles/foc.elf.dir/dgm/usr_config.c.obj
                0x0800f3a8                USR_CONFIG_erease_config
 .text.USR_CONFIG_read_config
                0x0800f414       0x34 CMakeFiles/foc.elf.dir/dgm/usr_config.c.obj
                0x0800f414                USR_CONFIG_read_config
 .text.USR_CONFIG_save_config
                0x0800f448       0x80 CMakeFiles/foc.elf.dir/dgm/usr_config.c.obj
                0x0800f448                USR_CONFIG_save_config
 .text.USR_CONFIG_set_default_cogging_map
                0x0800f4c8       0x48 CMakeFiles/foc.elf.dir/dgm/usr_config.c.obj
                0x0800f4c8                USR_CONFIG_set_default_cogging_map
 .text.USR_CONFIG_erease_cogging_map
                0x0800f510       0x74 CMakeFiles/foc.elf.dir/dgm/usr_config.c.obj
                0x0800f510                USR_CONFIG_erease_cogging_map
 .text.USR_CONFIG_read_cogging_map
                0x0800f584       0x5c CMakeFiles/foc.elf.dir/dgm/usr_config.c.obj
                0x0800f584                USR_CONFIG_read_cogging_map
 .text.USR_CONFIG_save_cogging_map
                0x0800f5e0       0xac CMakeFiles/foc.elf.dir/dgm/usr_config.c.obj
                0x0800f5e0                USR_CONFIG_save_cogging_map
 .text.clarke_transform
                0x0800f68c       0x1c CMakeFiles/foc.elf.dir/dgm/util.c.obj
                0x0800f68c                clarke_transform
 .text.svm      0x0800f6a8      0x250 CMakeFiles/foc.elf.dir/dgm/util.c.obj
                0x0800f6a8                svm
 .text.sin_f32  0x0800f8f8       0x90 CMakeFiles/foc.elf.dir/dgm/util.c.obj
                0x0800f8f8                sin_f32
 .text.cos_f32  0x0800f988       0x98 CMakeFiles/foc.elf.dir/dgm/util.c.obj
                0x0800f988                cos_f32
 .text.park_transform
                0x0800fa20       0x50 CMakeFiles/foc.elf.dir/dgm/util.c.obj
                0x0800fa20                park_transform
 .text.inverse_park
                0x0800fa70       0x50 CMakeFiles/foc.elf.dir/dgm/util.c.obj
                0x0800fa70                inverse_park
 .text.crc32    0x0800fac0       0x30 CMakeFiles/foc.elf.dir/dgm/util.c.obj
                0x0800fac0                crc32
 .text.uint32_to_data
                0x0800faf0       0x18 CMakeFiles/foc.elf.dir/dgm/util.c.obj
                0x0800faf0                uint32_to_data
 .text.int32_to_data
                0x0800fb08       0x18 CMakeFiles/foc.elf.dir/dgm/util.c.obj
                0x0800fb08                int32_to_data
 .text.int16_to_data
                0x0800fb20        0xc CMakeFiles/foc.elf.dir/dgm/util.c.obj
                0x0800fb20                int16_to_data
 .text.float_to_data
                0x0800fb2c       0x22 CMakeFiles/foc.elf.dir/dgm/util.c.obj
                0x0800fb2c                float_to_data
 .text.data_to_int32
                0x0800fb4e       0x20 CMakeFiles/foc.elf.dir/dgm/util.c.obj
                0x0800fb4e                data_to_int32
 .text.data_to_float
                0x0800fb6e       0x22 CMakeFiles/foc.elf.dir/dgm/util.c.obj
                0x0800fb6e                data_to_float
 .text.lwrb_init
                0x0800fb90       0x24 CMakeFiles/foc.elf.dir/lwrb/lwrb.c.obj
                0x0800fb90                lwrb_init
 .text.lwrb_get_free
                0x0800fbb4       0x2a CMakeFiles/foc.elf.dir/lwrb/lwrb.c.obj
                0x0800fbb4                lwrb_get_free
 .text.lwrb_write
                0x0800fbde       0x94 CMakeFiles/foc.elf.dir/lwrb/lwrb.c.obj
                0x0800fbde                lwrb_write
 .text.lwrb_get_full
                0x0800fc72       0x2c CMakeFiles/foc.elf.dir/lwrb/lwrb.c.obj
                0x0800fc72                lwrb_get_full
 .text.lwrb_read
                0x0800fc9e       0x94 CMakeFiles/foc.elf.dir/lwrb/lwrb.c.obj
                0x0800fc9e                lwrb_read
 .text.lwrb_skip
                0x0800fd32       0x4a CMakeFiles/foc.elf.dir/lwrb/lwrb.c.obj
                0x0800fd32                lwrb_skip
 .text.lwrb_find
                0x0800fd7c       0xb2 CMakeFiles/foc.elf.dir/lwrb/lwrb.c.obj
                0x0800fd7c                lwrb_find
 *fill*         0x0800fe2e        0x2 
 .text.atof     0x0800fe30        0x8 d:/sysgcc/arm-eabi/bin/../lib/gcc/arm-none-eabi/10.3.1/../../../../arm-none-eabi/lib/thumb/v7e-m+fp/hard\libg.a(lib_a-atof.o)
                0x0800fe30                atof
 .text.__errno  0x0800fe38        0xc d:/sysgcc/arm-eabi/bin/../lib/gcc/arm-none-eabi/10.3.1/../../../../arm-none-eabi/lib/thumb/v7e-m+fp/hard\libg.a(lib_a-errno.o)
                0x0800fe38                __errno
 .text.__libc_init_array
                0x0800fe44       0x48 d:/sysgcc/arm-eabi/bin/../lib/gcc/arm-none-eabi/10.3.1/../../../../arm-none-eabi/lib/thumb/v7e-m+fp/hard\libg.a(lib_a-init.o)
                0x0800fe44                __libc_init_array
 .text.malloc   0x0800fe8c       0x10 d:/sysgcc/arm-eabi/bin/../lib/gcc/arm-none-eabi/10.3.1/../../../../arm-none-eabi/lib/thumb/v7e-m+fp/hard\libg.a(lib_a-malloc.o)
                0x0800fe8c                malloc
 .text.free     0x0800fe9c       0x10 d:/sysgcc/arm-eabi/bin/../lib/gcc/arm-none-eabi/10.3.1/../../../../arm-none-eabi/lib/thumb/v7e-m+fp/hard\libg.a(lib_a-malloc.o)
                0x0800fe9c                free
 .text._malloc_r
                0x0800feac      0x560 d:/sysgcc/arm-eabi/bin/../lib/gcc/arm-none-eabi/10.3.1/../../../../arm-none-eabi/lib/thumb/v7e-m+fp/hard\libg.a(lib_a-mallocr.o)
                0x0800feac                _malloc_r
 .text.memset   0x0801040c       0xa4 d:/sysgcc/arm-eabi/bin/../lib/gcc/arm-none-eabi/10.3.1/../../../../arm-none-eabi/lib/thumb/v7e-m+fp/hard\libg.a(lib_a-memset.o)
                0x0801040c                memset
 .text.__malloc_lock
                0x080104b0        0xc d:/sysgcc/arm-eabi/bin/../lib/gcc/arm-none-eabi/10.3.1/../../../../arm-none-eabi/lib/thumb/v7e-m+fp/hard\libg.a(lib_a-mlock.o)
                0x080104b0                __malloc_lock
 .text.__malloc_unlock
                0x080104bc        0xc d:/sysgcc/arm-eabi/bin/../lib/gcc/arm-none-eabi/10.3.1/../../../../arm-none-eabi/lib/thumb/v7e-m+fp/hard\libg.a(lib_a-mlock.o)
                0x080104bc                __malloc_unlock
 .text.printf   0x080104c8       0x28 d:/sysgcc/arm-eabi/bin/../lib/gcc/arm-none-eabi/10.3.1/../../../../arm-none-eabi/lib/thumb/v7e-m+fp/hard\libg.a(lib_a-printf.o)
                0x080104c8                printf
 .text._puts_r  0x080104f0       0x9c d:/sysgcc/arm-eabi/bin/../lib/gcc/arm-none-eabi/10.3.1/../../../../arm-none-eabi/lib/thumb/v7e-m+fp/hard\libg.a(lib_a-puts.o)
                0x080104f0                _puts_r
 .text.puts     0x0801058c       0x10 d:/sysgcc/arm-eabi/bin/../lib/gcc/arm-none-eabi/10.3.1/../../../../arm-none-eabi/lib/thumb/v7e-m+fp/hard\libg.a(lib_a-puts.o)
                0x0801058c                puts
 .text.cleanup_glue
                0x0801059c       0x48 d:/sysgcc/arm-eabi/bin/../lib/gcc/arm-none-eabi/10.3.1/../../../../arm-none-eabi/lib/thumb/v7e-m+fp/hard\libg.a(lib_a-reent.o)
                0x0801059c                cleanup_glue
 .text._reclaim_reent
                0x080105e4       0x90 d:/sysgcc/arm-eabi/bin/../lib/gcc/arm-none-eabi/10.3.1/../../../../arm-none-eabi/lib/thumb/v7e-m+fp/hard\libg.a(lib_a-reent.o)
                0x080105e4                _reclaim_reent
 .text._sbrk_r  0x08010674       0x24 d:/sysgcc/arm-eabi/bin/../lib/gcc/arm-none-eabi/10.3.1/../../../../arm-none-eabi/lib/thumb/v7e-m+fp/hard\libg.a(lib_a-sbrkr.o)
                0x08010674                _sbrk_r
 .text.two_way_long_needle
                0x08010698      0x2b4 d:/sysgcc/arm-eabi/bin/../lib/gcc/arm-none-eabi/10.3.1/../../../../arm-none-eabi/lib/thumb/v7e-m+fp/hard\libg.a(lib_a-strstr.o)
 .text.strstr   0x0801094c      0x168 d:/sysgcc/arm-eabi/bin/../lib/gcc/arm-none-eabi/10.3.1/../../../../arm-none-eabi/lib/thumb/v7e-m+fp/hard\libg.a(lib_a-strstr.o)
                0x0801094c                strstr
 *fill*         0x08010ab4        0x4 
 .text._strtod_l
                0x08010ab8      0xf50 d:/sysgcc/arm-eabi/bin/../lib/gcc/arm-none-eabi/10.3.1/../../../../arm-none-eabi/lib/thumb/v7e-m+fp/hard\libg.a(lib_a-strtod.o)
                0x08010ab8                _strtod_l
 .text.strtod   0x08011a08       0x20 d:/sysgcc/arm-eabi/bin/../lib/gcc/arm-none-eabi/10.3.1/../../../../arm-none-eabi/lib/thumb/v7e-m+fp/hard\libg.a(lib_a-strtod.o)
                0x08011a08                strtod
 .text._vfprintf_r
                0x08011a28     0x1b90 d:/sysgcc/arm-eabi/bin/../lib/gcc/arm-none-eabi/10.3.1/../../../../arm-none-eabi/lib/thumb/v7e-m+fp/hard\libg.a(lib_a-vfprintf.o)
                0x08011a28                _vfprintf_r
 .text.__sbprintf
                0x080135b8       0x80 d:/sysgcc/arm-eabi/bin/../lib/gcc/arm-none-eabi/10.3.1/../../../../arm-none-eabi/lib/thumb/v7e-m+fp/hard\libg.a(lib_a-vfprintf.o)
 .text.__swsetup_r
                0x08013638       0xd4 d:/sysgcc/arm-eabi/bin/../lib/gcc/arm-none-eabi/10.3.1/../../../../arm-none-eabi/lib/thumb/v7e-m+fp/hard\libg.a(lib_a-wsetup.o)
                0x08013638                __swsetup_r
 .text.startup.register_fini
                0x0801370c       0x14 d:/sysgcc/arm-eabi/bin/../lib/gcc/arm-none-eabi/10.3.1/../../../../arm-none-eabi/lib/thumb/v7e-m+fp/hard\libg.a(lib_a-__call_atexit.o)
 .text.atexit   0x08013720        0xc d:/sysgcc/arm-eabi/bin/../lib/gcc/arm-none-eabi/10.3.1/../../../../arm-none-eabi/lib/thumb/v7e-m+fp/hard\libg.a(lib_a-atexit.o)
                0x08013720                atexit
 .text.quorem   0x0801372c      0x128 d:/sysgcc/arm-eabi/bin/../lib/gcc/arm-none-eabi/10.3.1/../../../../arm-none-eabi/lib/thumb/v7e-m+fp/hard\libg.a(lib_a-dtoa.o)
 *fill*         0x08013854        0x4 
 .text._dtoa_r  0x08013858      0xf3c d:/sysgcc/arm-eabi/bin/../lib/gcc/arm-none-eabi/10.3.1/../../../../arm-none-eabi/lib/thumb/v7e-m+fp/hard\libg.a(lib_a-dtoa.o)
                0x08013858                _dtoa_r
 .text.__sflush_r
                0x08014794      0x130 d:/sysgcc/arm-eabi/bin/../lib/gcc/arm-none-eabi/10.3.1/../../../../arm-none-eabi/lib/thumb/v7e-m+fp/hard\libg.a(lib_a-fflush.o)
                0x08014794                __sflush_r
 .text._fflush_r
                0x080148c4       0x5c d:/sysgcc/arm-eabi/bin/../lib/gcc/arm-none-eabi/10.3.1/../../../../arm-none-eabi/lib/thumb/v7e-m+fp/hard\libg.a(lib_a-fflush.o)
                0x080148c4                _fflush_r
 .text._cleanup_r
                0x08014920        0xc d:/sysgcc/arm-eabi/bin/../lib/gcc/arm-none-eabi/10.3.1/../../../../arm-none-eabi/lib/thumb/v7e-m+fp/hard\libg.a(lib_a-findfp.o)
                0x08014920                _cleanup_r
 .text.__sinit  0x0801492c      0x10c d:/sysgcc/arm-eabi/bin/../lib/gcc/arm-none-eabi/10.3.1/../../../../arm-none-eabi/lib/thumb/v7e-m+fp/hard\libg.a(lib_a-findfp.o)
                0x0801492c                __sinit
 .text.__sfp_lock_acquire
                0x08014a38        0xc d:/sysgcc/arm-eabi/bin/../lib/gcc/arm-none-eabi/10.3.1/../../../../arm-none-eabi/lib/thumb/v7e-m+fp/hard\libg.a(lib_a-findfp.o)
                0x08014a38                __sfp_lock_acquire
 .text.__sfp_lock_release
                0x08014a44        0xc d:/sysgcc/arm-eabi/bin/../lib/gcc/arm-none-eabi/10.3.1/../../../../arm-none-eabi/lib/thumb/v7e-m+fp/hard\libg.a(lib_a-findfp.o)
                0x08014a44                __sfp_lock_release
 .text.__libc_fini_array
                0x08014a50       0x2c d:/sysgcc/arm-eabi/bin/../lib/gcc/arm-none-eabi/10.3.1/../../../../arm-none-eabi/lib/thumb/v7e-m+fp/hard\libg.a(lib_a-fini.o)
                0x08014a50                __libc_fini_array
 .text._malloc_trim_r
                0x08014a7c       0xa0 d:/sysgcc/arm-eabi/bin/../lib/gcc/arm-none-eabi/10.3.1/../../../../arm-none-eabi/lib/thumb/v7e-m+fp/hard\libg.a(lib_a-freer.o)
                0x08014a7c                _malloc_trim_r
 .text._free_r  0x08014b1c      0x20c d:/sysgcc/arm-eabi/bin/../lib/gcc/arm-none-eabi/10.3.1/../../../../arm-none-eabi/lib/thumb/v7e-m+fp/hard\libg.a(lib_a-freer.o)
                0x08014b1c                _free_r
 .text.__sfvwrite_r
                0x08014d28      0x2f0 d:/sysgcc/arm-eabi/bin/../lib/gcc/arm-none-eabi/10.3.1/../../../../arm-none-eabi/lib/thumb/v7e-m+fp/hard\libg.a(lib_a-fvwrite.o)
                0x08014d28                __sfvwrite_r
 .text._fwalk_reent
                0x08015018       0x48 d:/sysgcc/arm-eabi/bin/../lib/gcc/arm-none-eabi/10.3.1/../../../../arm-none-eabi/lib/thumb/v7e-m+fp/hard\libg.a(lib_a-fwalk.o)
                0x08015018                _fwalk_reent
 .text.rshift   0x08015060       0xa4 d:/sysgcc/arm-eabi/bin/../lib/gcc/arm-none-eabi/10.3.1/../../../../arm-none-eabi/lib/thumb/v7e-m+fp/hard\libg.a(lib_a-gdtoa-gethex.o)
 .text.__gethex
                0x08015104      0x5d8 d:/sysgcc/arm-eabi/bin/../lib/gcc/arm-none-eabi/10.3.1/../../../../arm-none-eabi/lib/thumb/v7e-m+fp/hard\libg.a(lib_a-gdtoa-gethex.o)
                0x08015104                __gethex
 .text.__match  0x080156dc       0x38 d:/sysgcc/arm-eabi/bin/../lib/gcc/arm-none-eabi/10.3.1/../../../../arm-none-eabi/lib/thumb/v7e-m+fp/hard\libg.a(lib_a-gdtoa-hexnan.o)
                0x080156dc                __match
 .text.__hexnan
                0x08015714      0x1ac d:/sysgcc/arm-eabi/bin/../lib/gcc/arm-none-eabi/10.3.1/../../../../arm-none-eabi/lib/thumb/v7e-m+fp/hard\libg.a(lib_a-gdtoa-hexnan.o)
                0x08015714                __hexnan
 .text.__locale_mb_cur_max
                0x080158c0        0xc d:/sysgcc/arm-eabi/bin/../lib/gcc/arm-none-eabi/10.3.1/../../../../arm-none-eabi/lib/thumb/v7e-m+fp/hard\libg.a(lib_a-locale.o)
                0x080158c0                __locale_mb_cur_max
 .text._localeconv_r
                0x080158cc        0x8 d:/sysgcc/arm-eabi/bin/../lib/gcc/arm-none-eabi/10.3.1/../../../../arm-none-eabi/lib/thumb/v7e-m+fp/hard\libg.a(lib_a-localeconv.o)
                0x080158cc                _localeconv_r
 .text.__retarget_lock_init_recursive
                0x080158d4        0x4 d:/sysgcc/arm-eabi/bin/../lib/gcc/arm-none-eabi/10.3.1/../../../../arm-none-eabi/lib/thumb/v7e-m+fp/hard\libg.a(lib_a-lock.o)
                0x080158d4                __retarget_lock_init_recursive
 .text.__retarget_lock_close_recursive
                0x080158d8        0x4 d:/sysgcc/arm-eabi/bin/../lib/gcc/arm-none-eabi/10.3.1/../../../../arm-none-eabi/lib/thumb/v7e-m+fp/hard\libg.a(lib_a-lock.o)
                0x080158d8                __retarget_lock_close_recursive
 .text.__retarget_lock_acquire_recursive
                0x080158dc        0x4 d:/sysgcc/arm-eabi/bin/../lib/gcc/arm-none-eabi/10.3.1/../../../../arm-none-eabi/lib/thumb/v7e-m+fp/hard\libg.a(lib_a-lock.o)
                0x080158dc                __retarget_lock_acquire_recursive
 .text.__retarget_lock_release_recursive
                0x080158e0        0x4 d:/sysgcc/arm-eabi/bin/../lib/gcc/arm-none-eabi/10.3.1/../../../../arm-none-eabi/lib/thumb/v7e-m+fp/hard\libg.a(lib_a-lock.o)
                0x080158e0                __retarget_lock_release_recursive
 .text.__smakebuf_r
                0x080158e4       0xe0 d:/sysgcc/arm-eabi/bin/../lib/gcc/arm-none-eabi/10.3.1/../../../../arm-none-eabi/lib/thumb/v7e-m+fp/hard\libg.a(lib_a-makebuf.o)
                0x080158e4                __smakebuf_r
 .text.__ascii_mbtowc
                0x080159c4       0x2c d:/sysgcc/arm-eabi/bin/../lib/gcc/arm-none-eabi/10.3.1/../../../../arm-none-eabi/lib/thumb/v7e-m+fp/hard\libg.a(lib_a-mbtowc_r.o)
                0x080159c4                __ascii_mbtowc
 .text.memcmp   0x080159f0       0x64 d:/sysgcc/arm-eabi/bin/../lib/gcc/arm-none-eabi/10.3.1/../../../../arm-none-eabi/lib/thumb/v7e-m+fp/hard\libg.a(lib_a-memcmp.o)
                0x080159f0                memcmp
 .text.memmove  0x08015a54       0xf8 d:/sysgcc/arm-eabi/bin/../lib/gcc/arm-none-eabi/10.3.1/../../../../arm-none-eabi/lib/thumb/v7e-m+fp/hard\libg.a(lib_a-memmove.o)
                0x08015a54                memmove
 .text._Balloc  0x08015b4c       0x4c d:/sysgcc/arm-eabi/bin/../lib/gcc/arm-none-eabi/10.3.1/../../../../arm-none-eabi/lib/thumb/v7e-m+fp/hard\libg.a(lib_a-mprec.o)
                0x08015b4c                _Balloc
 .text._Bfree   0x08015b98       0x14 d:/sysgcc/arm-eabi/bin/../lib/gcc/arm-none-eabi/10.3.1/../../../../arm-none-eabi/lib/thumb/v7e-m+fp/hard\libg.a(lib_a-mprec.o)
                0x08015b98                _Bfree
 .text.__multadd
                0x08015bac       0xa8 d:/sysgcc/arm-eabi/bin/../lib/gcc/arm-none-eabi/10.3.1/../../../../arm-none-eabi/lib/thumb/v7e-m+fp/hard\libg.a(lib_a-mprec.o)
                0x08015bac                __multadd
 .text.__s2b    0x08015c54       0xb4 d:/sysgcc/arm-eabi/bin/../lib/gcc/arm-none-eabi/10.3.1/../../../../arm-none-eabi/lib/thumb/v7e-m+fp/hard\libg.a(lib_a-mprec.o)
                0x08015c54                __s2b
 .text.__hi0bits
                0x08015d08       0x40 d:/sysgcc/arm-eabi/bin/../lib/gcc/arm-none-eabi/10.3.1/../../../../arm-none-eabi/lib/thumb/v7e-m+fp/hard\libg.a(lib_a-mprec.o)
                0x08015d08                __hi0bits
 .text.__lo0bits
                0x08015d48       0x60 d:/sysgcc/arm-eabi/bin/../lib/gcc/arm-none-eabi/10.3.1/../../../../arm-none-eabi/lib/thumb/v7e-m+fp/hard\libg.a(lib_a-mprec.o)
                0x08015d48                __lo0bits
 .text.__i2b    0x08015da8       0x5c d:/sysgcc/arm-eabi/bin/../lib/gcc/arm-none-eabi/10.3.1/../../../../arm-none-eabi/lib/thumb/v7e-m+fp/hard\libg.a(lib_a-mprec.o)
                0x08015da8                __i2b
 .text.__multiply
                0x08015e04      0x15c d:/sysgcc/arm-eabi/bin/../lib/gcc/arm-none-eabi/10.3.1/../../../../arm-none-eabi/lib/thumb/v7e-m+fp/hard\libg.a(lib_a-mprec.o)
                0x08015e04                __multiply
 .text.__pow5mult
                0x08015f60       0xc0 d:/sysgcc/arm-eabi/bin/../lib/gcc/arm-none-eabi/10.3.1/../../../../arm-none-eabi/lib/thumb/v7e-m+fp/hard\libg.a(lib_a-mprec.o)
                0x08015f60                __pow5mult
 .text.__lshift
                0x08016020       0xf0 d:/sysgcc/arm-eabi/bin/../lib/gcc/arm-none-eabi/10.3.1/../../../../arm-none-eabi/lib/thumb/v7e-m+fp/hard\libg.a(lib_a-mprec.o)
                0x08016020                __lshift
 .text.__mcmp   0x08016110       0x44 d:/sysgcc/arm-eabi/bin/../lib/gcc/arm-none-eabi/10.3.1/../../../../arm-none-eabi/lib/thumb/v7e-m+fp/hard\libg.a(lib_a-mprec.o)
                0x08016110                __mcmp
 .text.__mdiff  0x08016154      0x14c d:/sysgcc/arm-eabi/bin/../lib/gcc/arm-none-eabi/10.3.1/../../../../arm-none-eabi/lib/thumb/v7e-m+fp/hard\libg.a(lib_a-mprec.o)
                0x08016154                __mdiff
 .text.__ulp    0x080162a0       0x60 d:/sysgcc/arm-eabi/bin/../lib/gcc/arm-none-eabi/10.3.1/../../../../arm-none-eabi/lib/thumb/v7e-m+fp/hard\libg.a(lib_a-mprec.o)
                0x080162a0                __ulp
 .text.__b2d    0x08016300       0xc0 d:/sysgcc/arm-eabi/bin/../lib/gcc/arm-none-eabi/10.3.1/../../../../arm-none-eabi/lib/thumb/v7e-m+fp/hard\libg.a(lib_a-mprec.o)
                0x08016300                __b2d
 .text.__d2b    0x080163c0       0xd0 d:/sysgcc/arm-eabi/bin/../lib/gcc/arm-none-eabi/10.3.1/../../../../arm-none-eabi/lib/thumb/v7e-m+fp/hard\libg.a(lib_a-mprec.o)
                0x080163c0                __d2b
 .text.__ratio  0x08016490       0x5c d:/sysgcc/arm-eabi/bin/../lib/gcc/arm-none-eabi/10.3.1/../../../../arm-none-eabi/lib/thumb/v7e-m+fp/hard\libg.a(lib_a-mprec.o)
                0x08016490                __ratio
 .text.__copybits
                0x080164ec       0x5c d:/sysgcc/arm-eabi/bin/../lib/gcc/arm-none-eabi/10.3.1/../../../../arm-none-eabi/lib/thumb/v7e-m+fp/hard\libg.a(lib_a-mprec.o)
                0x080164ec                __copybits
 .text.__any_on
                0x08016548       0x64 d:/sysgcc/arm-eabi/bin/../lib/gcc/arm-none-eabi/10.3.1/../../../../arm-none-eabi/lib/thumb/v7e-m+fp/hard\libg.a(lib_a-mprec.o)
                0x08016548                __any_on
 .text._realloc_r
                0x080165ac      0x3d8 d:/sysgcc/arm-eabi/bin/../lib/gcc/arm-none-eabi/10.3.1/../../../../arm-none-eabi/lib/thumb/v7e-m+fp/hard\libg.a(lib_a-reallocr.o)
                0x080165ac                _realloc_r
 .text.frexp    0x08016984       0x6c d:/sysgcc/arm-eabi/bin/../lib/gcc/arm-none-eabi/10.3.1/../../../../arm-none-eabi/lib/thumb/v7e-m+fp/hard\libg.a(lib_a-s_frexp.o)
                0x08016984                frexp
 .text.nan      0x080169f0       0x10 d:/sysgcc/arm-eabi/bin/../lib/gcc/arm-none-eabi/10.3.1/../../../../arm-none-eabi/lib/thumb/v7e-m+fp/hard\libg.a(lib_a-s_nan.o)
                0x080169f0                nan
 .text.__sread  0x08016a00       0x24 d:/sysgcc/arm-eabi/bin/../lib/gcc/arm-none-eabi/10.3.1/../../../../arm-none-eabi/lib/thumb/v7e-m+fp/hard\libg.a(lib_a-stdio.o)
                0x08016a00                __sread
 .text.__swrite
                0x08016a24       0x40 d:/sysgcc/arm-eabi/bin/../lib/gcc/arm-none-eabi/10.3.1/../../../../arm-none-eabi/lib/thumb/v7e-m+fp/hard\libg.a(lib_a-stdio.o)
                0x08016a24                __swrite
 .text.__sseek  0x08016a64       0x20 d:/sysgcc/arm-eabi/bin/../lib/gcc/arm-none-eabi/10.3.1/../../../../arm-none-eabi/lib/thumb/v7e-m+fp/hard\libg.a(lib_a-stdio.o)
                0x08016a64                __sseek
 .text.__sclose
                0x08016a84        0x8 d:/sysgcc/arm-eabi/bin/../lib/gcc/arm-none-eabi/10.3.1/../../../../arm-none-eabi/lib/thumb/v7e-m+fp/hard\libg.a(lib_a-stdio.o)
                0x08016a84                __sclose
 .text.strchr   0x08016a8c       0xcc d:/sysgcc/arm-eabi/bin/../lib/gcc/arm-none-eabi/10.3.1/../../../../arm-none-eabi/lib/thumb/v7e-m+fp/hard\libg.a(lib_a-strchr.o)
                0x08016a8c                strchr
 .text.strncmp  0x08016b58       0x80 d:/sysgcc/arm-eabi/bin/../lib/gcc/arm-none-eabi/10.3.1/../../../../arm-none-eabi/lib/thumb/v7e-m+fp/hard\libg.a(lib_a-strncmp.o)
                0x08016b58                strncmp
 .text.strncpy  0x08016bd8       0x64 d:/sysgcc/arm-eabi/bin/../lib/gcc/arm-none-eabi/10.3.1/../../../../arm-none-eabi/lib/thumb/v7e-m+fp/hard\libg.a(lib_a-strncpy.o)
                0x08016bd8                strncpy
 .text.strnlen  0x08016c3c       0x24 d:/sysgcc/arm-eabi/bin/../lib/gcc/arm-none-eabi/10.3.1/../../../../arm-none-eabi/lib/thumb/v7e-m+fp/hard\libg.a(lib_a-strnlen.o)
                0x08016c3c                strnlen
 .text.__sprint_r.part.0
                0x08016c60       0x78 d:/sysgcc/arm-eabi/bin/../lib/gcc/arm-none-eabi/10.3.1/../../../../arm-none-eabi/lib/thumb/v7e-m+fp/hard\libg.a(lib_a-vfiprintf.o)
 .text.__sprint_r
                0x08016cd8       0x18 d:/sysgcc/arm-eabi/bin/../lib/gcc/arm-none-eabi/10.3.1/../../../../arm-none-eabi/lib/thumb/v7e-m+fp/hard\libg.a(lib_a-vfiprintf.o)
                0x08016cd8                __sprint_r
 .text._vfiprintf_r
                0x08016cf0      0xdfc d:/sysgcc/arm-eabi/bin/../lib/gcc/arm-none-eabi/10.3.1/../../../../arm-none-eabi/lib/thumb/v7e-m+fp/hard\libg.a(lib_a-vfiprintf.o)
                0x08016cf0                _vfiprintf_r
 .text.__sbprintf
                0x08017aec       0x80 d:/sysgcc/arm-eabi/bin/../lib/gcc/arm-none-eabi/10.3.1/../../../../arm-none-eabi/lib/thumb/v7e-m+fp/hard\libg.a(lib_a-vfiprintf.o)
 .text.__ascii_wctomb
                0x08017b6c       0x1c d:/sysgcc/arm-eabi/bin/../lib/gcc/arm-none-eabi/10.3.1/../../../../arm-none-eabi/lib/thumb/v7e-m+fp/hard\libg.a(lib_a-wctomb_r.o)
                0x08017b6c                __ascii_wctomb
 .text._write_r
                0x08017b88       0x2c d:/sysgcc/arm-eabi/bin/../lib/gcc/arm-none-eabi/10.3.1/../../../../arm-none-eabi/lib/thumb/v7e-m+fp/hard\libg.a(lib_a-writer.o)
                0x08017b88                _write_r
 .text.__register_exitproc
                0x08017bb4       0x8c d:/sysgcc/arm-eabi/bin/../lib/gcc/arm-none-eabi/10.3.1/../../../../arm-none-eabi/lib/thumb/v7e-m+fp/hard\libg.a(lib_a-__atexit.o)
                0x08017bb4                __register_exitproc
 .text.__assert_func
                0x08017c40       0x40 d:/sysgcc/arm-eabi/bin/../lib/gcc/arm-none-eabi/10.3.1/../../../../arm-none-eabi/lib/thumb/v7e-m+fp/hard\libg.a(lib_a-assert.o)
                0x08017c40                __assert_func
 .text._calloc_r
                0x08017c80       0x78 d:/sysgcc/arm-eabi/bin/../lib/gcc/arm-none-eabi/10.3.1/../../../../arm-none-eabi/lib/thumb/v7e-m+fp/hard\libg.a(lib_a-callocr.o)
                0x08017c80                _calloc_r
 .text._close_r
                0x08017cf8       0x24 d:/sysgcc/arm-eabi/bin/../lib/gcc/arm-none-eabi/10.3.1/../../../../arm-none-eabi/lib/thumb/v7e-m+fp/hard\libg.a(lib_a-closer.o)
                0x08017cf8                _close_r
 .text._fclose_r
                0x08017d1c       0xcc d:/sysgcc/arm-eabi/bin/../lib/gcc/arm-none-eabi/10.3.1/../../../../arm-none-eabi/lib/thumb/v7e-m+fp/hard\libg.a(lib_a-fclose.o)
                0x08017d1c                _fclose_r
 .text.fiprintf
                0x08017de8       0x28 d:/sysgcc/arm-eabi/bin/../lib/gcc/arm-none-eabi/10.3.1/../../../../arm-none-eabi/lib/thumb/v7e-m+fp/hard\libg.a(lib_a-fiprintf.o)
                0x08017de8                fiprintf
 .text.__fputwc
                0x08017e10       0xa8 d:/sysgcc/arm-eabi/bin/../lib/gcc/arm-none-eabi/10.3.1/../../../../arm-none-eabi/lib/thumb/v7e-m+fp/hard\libg.a(lib_a-fputwc.o)
                0x08017e10                __fputwc
 .text._fputwc_r
                0x08017eb8       0x68 d:/sysgcc/arm-eabi/bin/../lib/gcc/arm-none-eabi/10.3.1/../../../../arm-none-eabi/lib/thumb/v7e-m+fp/hard\libg.a(lib_a-fputwc.o)
                0x08017eb8                _fputwc_r
 .text._fstat_r
                0x08017f20       0x2c d:/sysgcc/arm-eabi/bin/../lib/gcc/arm-none-eabi/10.3.1/../../../../arm-none-eabi/lib/thumb/v7e-m+fp/hard\libg.a(lib_a-fstatr.o)
                0x08017f20                _fstat_r
 .text._isatty_r
                0x08017f4c       0x24 d:/sysgcc/arm-eabi/bin/../lib/gcc/arm-none-eabi/10.3.1/../../../../arm-none-eabi/lib/thumb/v7e-m+fp/hard\libg.a(lib_a-isattyr.o)
                0x08017f4c                _isatty_r
 .text._lseek_r
                0x08017f70       0x2c d:/sysgcc/arm-eabi/bin/../lib/gcc/arm-none-eabi/10.3.1/../../../../arm-none-eabi/lib/thumb/v7e-m+fp/hard\libg.a(lib_a-lseekr.o)
                0x08017f70                _lseek_r
 .text._read_r  0x08017f9c       0x2c d:/sysgcc/arm-eabi/bin/../lib/gcc/arm-none-eabi/10.3.1/../../../../arm-none-eabi/lib/thumb/v7e-m+fp/hard\libg.a(lib_a-readr.o)
                0x08017f9c                _read_r
 .text.__swbuf_r
                0x08017fc8       0xb0 d:/sysgcc/arm-eabi/bin/../lib/gcc/arm-none-eabi/10.3.1/../../../../arm-none-eabi/lib/thumb/v7e-m+fp/hard\libg.a(lib_a-wbuf.o)
                0x08017fc8                __swbuf_r
 .text._wcrtomb_r
                0x08018078       0x3c d:/sysgcc/arm-eabi/bin/../lib/gcc/arm-none-eabi/10.3.1/../../../../arm-none-eabi/lib/thumb/v7e-m+fp/hard\libg.a(lib_a-wcrtomb.o)
                0x08018078                _wcrtomb_r
 .text.abort    0x080180b4       0x10 d:/sysgcc/arm-eabi/bin/../lib/gcc/arm-none-eabi/10.3.1/../../../../arm-none-eabi/lib/thumb/v7e-m+fp/hard\libg.a(lib_a-abort.o)
                0x080180b4                abort
 .text.raise    0x080180c4       0x5c d:/sysgcc/arm-eabi/bin/../lib/gcc/arm-none-eabi/10.3.1/../../../../arm-none-eabi/lib/thumb/v7e-m+fp/hard\libg.a(lib_a-signal.o)
                0x080180c4                raise
 .text._kill_r  0x08018120       0x2c d:/sysgcc/arm-eabi/bin/../lib/gcc/arm-none-eabi/10.3.1/../../../../arm-none-eabi/lib/thumb/v7e-m+fp/hard\libg.a(lib_a-signalr.o)
                0x08018120                _kill_r
 .text._getpid_r
                0x0801814c        0x4 d:/sysgcc/arm-eabi/bin/../lib/gcc/arm-none-eabi/10.3.1/../../../../arm-none-eabi/lib/thumb/v7e-m+fp/hard\libg.a(lib_a-signalr.o)
                0x0801814c                _getpid_r
 .text.fmax     0x08018150       0x50 d:/sysgcc/arm-eabi/bin/../lib/gcc/arm-none-eabi/10.3.1/../../../../arm-none-eabi/lib/thumb/v7e-m+fp/hard\libm.a(lib_a-s_fmax.o)
                0x08018150                fmax
 .text.__fpclassifyd
                0x080181a0       0x54 d:/sysgcc/arm-eabi/bin/../lib/gcc/arm-none-eabi/10.3.1/../../../../arm-none-eabi/lib/thumb/v7e-m+fp/hard\libm.a(lib_a-s_fpclassify.o)
                0x080181a0                __fpclassifyd
 .text.round    0x080181f4       0xa0 d:/sysgcc/arm-eabi/bin/../lib/gcc/arm-none-eabi/10.3.1/../../../../arm-none-eabi/lib/thumb/v7e-m+fp/hard\libm.a(lib_a-s_round.o)
                0x080181f4                round
 .text.nearbyintf
                0x08018294        0x4 d:/sysgcc/arm-eabi/bin/../lib/gcc/arm-none-eabi/10.3.1/../../../../arm-none-eabi/lib/thumb/v7e-m+fp/hard\libm.a(lib_a-sf_nearbyint.o)
                0x08018294                nearbyintf
 .text.rintf    0x08018298       0xbc d:/sysgcc/arm-eabi/bin/../lib/gcc/arm-none-eabi/10.3.1/../../../../arm-none-eabi/lib/thumb/v7e-m+fp/hard\libm.a(lib_a-sf_rint.o)
                0x08018298                rintf
 .text.sqrtf    0x08018354       0x44 d:/sysgcc/arm-eabi/bin/../lib/gcc/arm-none-eabi/10.3.1/../../../../arm-none-eabi/lib/thumb/v7e-m+fp/hard\libm.a(lib_a-wf_sqrt.o)
                0x08018354                sqrtf
 .text.__ieee754_sqrtf
                0x08018398        0x8 d:/sysgcc/arm-eabi/bin/../lib/gcc/arm-none-eabi/10.3.1/../../../../arm-none-eabi/lib/thumb/v7e-m+fp/hard\libm.a(lib_a-ef_sqrt.o)
                0x08018398                __ieee754_sqrtf
 *(.glue_7)
 .glue_7        0x080183a0        0x0 linker stubs
 *(.glue_7t)
 .glue_7t       0x080183a0        0x0 linker stubs
 *(.eh_frame)
 .eh_frame      0x080183a0        0x0 d:/sysgcc/arm-eabi/bin/../lib/gcc/arm-none-eabi/10.3.1/thumb/v7e-m+fp/hard/crtbegin.o
 *(.init)
 .init          0x080183a0        0x4 d:/sysgcc/arm-eabi/bin/../lib/gcc/arm-none-eabi/10.3.1/thumb/v7e-m+fp/hard/crti.o
                0x080183a0                _init
 .init          0x080183a4        0x8 d:/sysgcc/arm-eabi/bin/../lib/gcc/arm-none-eabi/10.3.1/thumb/v7e-m+fp/hard/crtn.o
 *(.fini)
 .fini          0x080183ac        0x4 d:/sysgcc/arm-eabi/bin/../lib/gcc/arm-none-eabi/10.3.1/thumb/v7e-m+fp/hard/crti.o
                0x080183ac                _fini
 .fini          0x080183b0        0x8 d:/sysgcc/arm-eabi/bin/../lib/gcc/arm-none-eabi/10.3.1/thumb/v7e-m+fp/hard/crtn.o
                0x080183b8                . = ALIGN (0x4)
                0x080183b8                _etext = .

.vfp11_veneer   0x080183b8        0x0
 .vfp11_veneer  0x080183b8        0x0 linker stubs

.v4_bx          0x080183b8        0x0
 .v4_bx         0x080183b8        0x0 linker stubs

.iplt           0x080183b8        0x0
 .iplt          0x080183b8        0x0 d:/sysgcc/arm-eabi/bin/../lib/gcc/arm-none-eabi/10.3.1/thumb/v7e-m+fp/hard/crtbegin.o

.rodata         0x080183b8     0x14e8
                0x080183b8                . = ALIGN (0x4)
 *(.rodata)
 .rodata        0x080183b8        0x4 CMakeFiles/foc.elf.dir/dgm/encoder.c.obj
 .rodata        0x080183bc       0x10 CMakeFiles/foc.elf.dir/dgm/usr_config.c.obj
 *(.rodata*)
 .rodata.MX_FREERTOS_Init.str1.4
                0x080183cc       0x70 CMakeFiles/foc.elf.dir/Core/Src/app_freertos.c.obj
 .rodata.HAL_UARTEx_RxEventCallback.str1.4
                0x0801843c       0x45 CMakeFiles/foc.elf.dir/Core/Src/app_freertos.c.obj
 *fill*         0x08018481        0x3 
 .rodata.str1.4
                0x08018484       0x31 CMakeFiles/foc.elf.dir/Core/Src/app_freertos.c.obj
 *fill*         0x080184b5        0x3 
 .rodata.defaultTask_attributes
                0x080184b8       0x24 CMakeFiles/foc.elf.dir/Core/Src/app_freertos.c.obj
                0x080184b8                defaultTask_attributes
 .rodata.gBtnScanTask_attributes
                0x080184dc       0x24 CMakeFiles/foc.elf.dir/Core/Src/app_freertos.c.obj
                0x080184dc                gBtnScanTask_attributes
 .rodata.gSerialDataParseTask_attributes
                0x08018500       0x24 CMakeFiles/foc.elf.dir/Core/Src/app_freertos.c.obj
                0x08018500                gSerialDataParseTask_attributes
 .rodata.AHBPrescTable
                0x08018524       0x10 CMakeFiles/foc.elf.dir/Core/Src/system_stm32g4xx.c.obj
                0x08018524                AHBPrescTable
 .rodata.APBPrescTable
                0x08018534        0x8 CMakeFiles/foc.elf.dir/Core/Src/system_stm32g4xx.c.obj
                0x08018534                APBPrescTable
 .rodata.UARTPrescTable
                0x0801853c       0x18 CMakeFiles/foc.elf.dir/Drivers/STM32G4xx_HAL_Driver/Src/stm32g4xx_hal_uart.c.obj
                0x0801853c                UARTPrescTable
 .rodata.denominator.0
                0x08018554        0x8 CMakeFiles/foc.elf.dir/Drivers/STM32G4xx_HAL_Driver/Src/stm32g4xx_hal_uart_ex.c.obj
 .rodata.numerator.1
                0x0801855c        0x8 CMakeFiles/foc.elf.dir/Drivers/STM32G4xx_HAL_Driver/Src/stm32g4xx_hal_uart_ex.c.obj
 .rodata.vTaskStartScheduler.str1.4
                0x08018564        0x5 CMakeFiles/foc.elf.dir/Middlewares/Third_Party/FreeRTOS/Source/tasks.c.obj
 *fill*         0x08018569        0x3 
 .rodata.prvCheckForValidListAndQueue.str1.4
                0x0801856c        0x5 CMakeFiles/foc.elf.dir/Middlewares/Third_Party/FreeRTOS/Source/timers.c.obj
 *fill*         0x08018571        0x3 
 .rodata.xTimerCreateTimerTask.str1.4
                0x08018574        0x8 CMakeFiles/foc.elf.dir/Middlewares/Third_Party/FreeRTOS/Source/timers.c.obj
 .rodata.USBD_CDC_ProductStrDescriptor.str1.4
                0x0801857c       0x13 CMakeFiles/foc.elf.dir/USB_Device/App/usbd_desc.c.obj
 *fill*         0x0801858f        0x1 
 .rodata.USBD_CDC_ManufacturerStrDescriptor.str1.4
                0x08018590       0x1c CMakeFiles/foc.elf.dir/USB_Device/App/usbd_desc.c.obj
 .rodata.USBD_CDC_ConfigStrDescriptor.str1.4
                0x080185ac        0xb CMakeFiles/foc.elf.dir/USB_Device/App/usbd_desc.c.obj
 *fill*         0x080185b7        0x1 
 .rodata.USBD_CDC_InterfaceStrDescriptor.str1.4
                0x080185b8        0xe CMakeFiles/foc.elf.dir/USB_Device/App/usbd_desc.c.obj
 *fill*         0x080185c6        0x2 
 .rodata.exit_state.str1.4
                0x080185c8       0x17 CMakeFiles/foc.elf.dir/dgm/mc_task.c.obj
 *fill*         0x080185df        0x1 
 .rodata.enter_state.str1.4
                0x080185e0       0x18 CMakeFiles/foc.elf.dir/dgm/mc_task.c.obj
 .rodata.config_callback.str1.4
                0x080185f8       0x1c CMakeFiles/foc.elf.dir/dgm/serial.c.obj
 .rodata.USR_CONFIG_save_config.str1.4
                0x08018614       0x33 CMakeFiles/foc.elf.dir/dgm/usr_config.c.obj
 *fill*         0x08018647        0x1 
 .rodata.USR_CONFIG_set_default_cogging_map.str1.4
                0x08018648       0x37 CMakeFiles/foc.elf.dir/dgm/usr_config.c.obj
 *fill*         0x0801867f        0x1 
 .rodata.USR_CONFIG_read_cogging_map.str1.4
                0x08018680       0x28 CMakeFiles/foc.elf.dir/dgm/usr_config.c.obj
 .rodata.USR_CONFIG_save_cogging_map.str1.4
                0x080186a8       0x83 CMakeFiles/foc.elf.dir/dgm/usr_config.c.obj
 *fill*         0x0801872b        0x1 
 .rodata.crc32_table
                0x0801872c      0x400 CMakeFiles/foc.elf.dir/dgm/util.c.obj
 .rodata.sinTable_f32
                0x08018b2c      0x804 CMakeFiles/foc.elf.dir/dgm/util.c.obj
 .rodata._global_impure_ptr
                0x08019330        0x4 d:/sysgcc/arm-eabi/bin/../lib/gcc/arm-none-eabi/10.3.1/../../../../arm-none-eabi/lib/thumb/v7e-m+fp/hard\libg.a(lib_a-impure.o)
                0x08019330                _global_impure_ptr
 .rodata._puts_r.str1.4
                0x08019334        0x2 d:/sysgcc/arm-eabi/bin/../lib/gcc/arm-none-eabi/10.3.1/../../../../arm-none-eabi/lib/thumb/v7e-m+fp/hard\libg.a(lib_a-puts.o)
 *fill*         0x08019336        0x2 
 .rodata._strtod_l.str1.4
                0x08019338        0xf d:/sysgcc/arm-eabi/bin/../lib/gcc/arm-none-eabi/10.3.1/../../../../arm-none-eabi/lib/thumb/v7e-m+fp/hard\libg.a(lib_a-strtod.o)
                                 0x11 (size before relaxing)
 *fill*         0x08019347        0x1 
 .rodata.fpi.1  0x08019348       0x14 d:/sysgcc/arm-eabi/bin/../lib/gcc/arm-none-eabi/10.3.1/../../../../arm-none-eabi/lib/thumb/v7e-m+fp/hard\libg.a(lib_a-strtod.o)
 .rodata.fpinan.0
                0x0801935c       0x14 d:/sysgcc/arm-eabi/bin/../lib/gcc/arm-none-eabi/10.3.1/../../../../arm-none-eabi/lib/thumb/v7e-m+fp/hard\libg.a(lib_a-strtod.o)
 .rodata.tinytens
                0x08019370       0x28 d:/sysgcc/arm-eabi/bin/../lib/gcc/arm-none-eabi/10.3.1/../../../../arm-none-eabi/lib/thumb/v7e-m+fp/hard\libg.a(lib_a-strtod.o)
 .rodata._vfprintf_r.str1.4
                0x08019398       0x42 d:/sysgcc/arm-eabi/bin/../lib/gcc/arm-none-eabi/10.3.1/../../../../arm-none-eabi/lib/thumb/v7e-m+fp/hard\libg.a(lib_a-vfprintf.o)
 *fill*         0x080193da        0x2 
 .rodata.blanks.1
                0x080193dc       0x10 d:/sysgcc/arm-eabi/bin/../lib/gcc/arm-none-eabi/10.3.1/../../../../arm-none-eabi/lib/thumb/v7e-m+fp/hard\libg.a(lib_a-vfprintf.o)
 .rodata.zeroes.0
                0x080193ec       0x10 d:/sysgcc/arm-eabi/bin/../lib/gcc/arm-none-eabi/10.3.1/../../../../arm-none-eabi/lib/thumb/v7e-m+fp/hard\libg.a(lib_a-vfprintf.o)
 .rodata._dtoa_r.str1.4
                0x080193fc       0x71 d:/sysgcc/arm-eabi/bin/../lib/gcc/arm-none-eabi/10.3.1/../../../../arm-none-eabi/lib/thumb/v7e-m+fp/hard\libg.a(lib_a-dtoa.o)
                                 0x75 (size before relaxing)
 *fill*         0x0801946d        0x3 
 .rodata.__gethex.str1.4
                0x08019470       0x55 d:/sysgcc/arm-eabi/bin/../lib/gcc/arm-none-eabi/10.3.1/../../../../arm-none-eabi/lib/thumb/v7e-m+fp/hard\libg.a(lib_a-gdtoa-gethex.o)
                                 0x69 (size before relaxing)
 *fill*         0x080194c5        0x3 
 .rodata.__hexdig
                0x080194c8      0x100 d:/sysgcc/arm-eabi/bin/../lib/gcc/arm-none-eabi/10.3.1/../../../../arm-none-eabi/lib/thumb/v7e-m+fp/hard\libg.a(lib_a-gdtoa-gethex.o)
                0x080194c8                __hexdig
 .rodata.str1.4
                0x080195c8        0x2 d:/sysgcc/arm-eabi/bin/../lib/gcc/arm-none-eabi/10.3.1/../../../../arm-none-eabi/lib/thumb/v7e-m+fp/hard\libg.a(lib_a-lnumeric.o)
                                  0x5 (size before relaxing)
 *fill*         0x080195ca        0x2 
 .rodata._C_numeric_locale
                0x080195cc        0xc d:/sysgcc/arm-eabi/bin/../lib/gcc/arm-none-eabi/10.3.1/../../../../arm-none-eabi/lib/thumb/v7e-m+fp/hard\libg.a(lib_a-lnumeric.o)
                0x080195cc                _C_numeric_locale
 .rodata._setlocale_r.str1.4
                0x080195d8        0xa d:/sysgcc/arm-eabi/bin/../lib/gcc/arm-none-eabi/10.3.1/../../../../arm-none-eabi/lib/thumb/v7e-m+fp/hard\libg.a(lib_a-locale.o)
                                  0xd (size before relaxing)
 .rodata.str1.4
                0x080195e2        0x2 d:/sysgcc/arm-eabi/bin/../lib/gcc/arm-none-eabi/10.3.1/../../../../arm-none-eabi/lib/thumb/v7e-m+fp/hard\libg.a(lib_a-locale.o)
 *fill*         0x080195e2        0x2 
 .rodata.__multadd.str1.4
                0x080195e4       0x4e d:/sysgcc/arm-eabi/bin/../lib/gcc/arm-none-eabi/10.3.1/../../../../arm-none-eabi/lib/thumb/v7e-m+fp/hard\libg.a(lib_a-mprec.o)
                                 0x62 (size before relaxing)
 *fill*         0x08019632        0x6 
 .rodata.__mprec_bigtens
                0x08019638       0x28 d:/sysgcc/arm-eabi/bin/../lib/gcc/arm-none-eabi/10.3.1/../../../../arm-none-eabi/lib/thumb/v7e-m+fp/hard\libg.a(lib_a-mprec.o)
                0x08019638                __mprec_bigtens
 .rodata.__mprec_tens
                0x08019660       0xc8 d:/sysgcc/arm-eabi/bin/../lib/gcc/arm-none-eabi/10.3.1/../../../../arm-none-eabi/lib/thumb/v7e-m+fp/hard\libg.a(lib_a-mprec.o)
                0x08019660                __mprec_tens
 .rodata.p05.0  0x08019728        0xc d:/sysgcc/arm-eabi/bin/../lib/gcc/arm-none-eabi/10.3.1/../../../../arm-none-eabi/lib/thumb/v7e-m+fp/hard\libg.a(lib_a-mprec.o)
 .rodata._vfiprintf_r.str1.4
                0x08019734       0x2f d:/sysgcc/arm-eabi/bin/../lib/gcc/arm-none-eabi/10.3.1/../../../../arm-none-eabi/lib/thumb/v7e-m+fp/hard\libg.a(lib_a-vfiprintf.o)
 .rodata.blanks.1
                0x08019734       0x10 d:/sysgcc/arm-eabi/bin/../lib/gcc/arm-none-eabi/10.3.1/../../../../arm-none-eabi/lib/thumb/v7e-m+fp/hard\libg.a(lib_a-vfiprintf.o)
 .rodata.zeroes.0
                0x08019744       0x10 d:/sysgcc/arm-eabi/bin/../lib/gcc/arm-none-eabi/10.3.1/../../../../arm-none-eabi/lib/thumb/v7e-m+fp/hard\libg.a(lib_a-vfiprintf.o)
 .rodata.__assert_func.str1.4
                0x08019754       0x3f d:/sysgcc/arm-eabi/bin/../lib/gcc/arm-none-eabi/10.3.1/../../../../arm-none-eabi/lib/thumb/v7e-m+fp/hard\libg.a(lib_a-assert.o)
                                 0x43 (size before relaxing)
 *fill*         0x08019793        0x1 
 .rodata._ctype_
                0x08019794      0x101 d:/sysgcc/arm-eabi/bin/../lib/gcc/arm-none-eabi/10.3.1/../../../../arm-none-eabi/lib/thumb/v7e-m+fp/hard\libg.a(lib_a-ctype_.o)
                0x08019794                _ctype_
 *fill*         0x08019895        0x3 
 .rodata.TWO23  0x08019898        0x8 d:/sysgcc/arm-eabi/bin/../lib/gcc/arm-none-eabi/10.3.1/../../../../arm-none-eabi/lib/thumb/v7e-m+fp/hard\libm.a(lib_a-sf_rint.o)
                0x080198a0                . = ALIGN (0x4)

.ARM.extab      0x080198a0        0x0
                0x080198a0                . = ALIGN (0x4)
 *(.ARM.extab* .gnu.linkonce.armextab.*)
                0x080198a0                . = ALIGN (0x4)

.ARM            0x080198a0        0x8
                0x080198a0                . = ALIGN (0x4)
                0x080198a0                __exidx_start = .
 *(.ARM.exidx*)
 .ARM.exidx     0x080198a0        0x8 d:/sysgcc/arm-eabi/bin/../lib/gcc/arm-none-eabi/10.3.1/thumb/v7e-m+fp/hard\libgcc.a(_udivmoddi4.o)
                0x080198a8                __exidx_end = .
                0x080198a8                . = ALIGN (0x4)

.rel.dyn        0x080198a8        0x0
 .rel.iplt      0x080198a8        0x0 d:/sysgcc/arm-eabi/bin/../lib/gcc/arm-none-eabi/10.3.1/thumb/v7e-m+fp/hard/crtbegin.o

.preinit_array  0x080198a8        0x0
                0x080198a8                . = ALIGN (0x4)
                0x080198a8                PROVIDE (__preinit_array_start = .)
 *(.preinit_array*)
                0x080198a8                PROVIDE (__preinit_array_end = .)
                0x080198a8                . = ALIGN (0x4)

.init_array     0x080198a8        0x8
                0x080198a8                . = ALIGN (0x4)
                0x080198a8                PROVIDE (__init_array_start = .)
 *(SORT_BY_NAME(.init_array.*))
 .init_array.00000
                0x080198a8        0x4 d:/sysgcc/arm-eabi/bin/../lib/gcc/arm-none-eabi/10.3.1/../../../../arm-none-eabi/lib/thumb/v7e-m+fp/hard\libg.a(lib_a-__call_atexit.o)
 *(.init_array*)
 .init_array    0x080198ac        0x4 d:/sysgcc/arm-eabi/bin/../lib/gcc/arm-none-eabi/10.3.1/thumb/v7e-m+fp/hard/crtbegin.o
                0x080198b0                PROVIDE (__init_array_end = .)
                0x080198b0                . = ALIGN (0x4)

.fini_array     0x080198b0        0x4
                0x080198b0                . = ALIGN (0x4)
                0x080198b0                PROVIDE (__fini_array_start = .)
 *(SORT_BY_NAME(.fini_array.*))
 *(.fini_array*)
 .fini_array    0x080198b0        0x4 d:/sysgcc/arm-eabi/bin/../lib/gcc/arm-none-eabi/10.3.1/thumb/v7e-m+fp/hard/crtbegin.o
                0x080198b4                PROVIDE (__fini_array_end = .)
                0x080198b4                . = ALIGN (0x4)
                0x080198b4                _sidata = LOADADDR (.data)

.data           0x20000000      0xb8c load address 0x080198b4
                0x20000000                . = ALIGN (0x4)
                0x20000000                _sdata = .
 *(.data)
 *(.data*)
 .data.measCntCopy.0
                0x20000000        0x4 CMakeFiles/foc.elf.dir/Core/Src/app_freertos.c.obj
 .data.vfoaFrame
                0x20000004       0x2c CMakeFiles/foc.elf.dir/Core/Src/app_freertos.c.obj
                0x20000004                vfoaFrame
 .data.SystemCoreClock
                0x20000030        0x4 CMakeFiles/foc.elf.dir/Core/Src/system_stm32g4xx.c.obj
                0x20000030                SystemCoreClock
 .data.uwTickFreq
                0x20000034        0x4 CMakeFiles/foc.elf.dir/Drivers/STM32G4xx_HAL_Driver/Src/stm32g4xx_hal.c.obj
                0x20000034                uwTickFreq
 .data.uwTickPrio
                0x20000038        0x4 CMakeFiles/foc.elf.dir/Drivers/STM32G4xx_HAL_Driver/Src/stm32g4xx_hal.c.obj
                0x20000038                uwTickPrio
 .data.pFlash   0x2000003c       0x20 CMakeFiles/foc.elf.dir/Drivers/STM32G4xx_HAL_Driver/Src/stm32g4xx_hal_flash.c.obj
                0x2000003c                pFlash
 .data.USBD_CDC
                0x2000005c       0x38 CMakeFiles/foc.elf.dir/Middlewares/ST/STM32_USB_Device_Library/Class/CDC/Src/usbd_cdc.c.obj
                0x2000005c                USBD_CDC
 .data.USBD_CDC_CfgFSDesc
                0x20000094       0x43 CMakeFiles/foc.elf.dir/Middlewares/ST/STM32_USB_Device_Library/Class/CDC/Src/usbd_cdc.c.obj
 *fill*         0x200000d7        0x1 
 .data.USBD_CDC_CfgHSDesc
                0x200000d8       0x43 CMakeFiles/foc.elf.dir/Middlewares/ST/STM32_USB_Device_Library/Class/CDC/Src/usbd_cdc.c.obj
 *fill*         0x2000011b        0x1 
 .data.USBD_CDC_DeviceQualifierDesc
                0x2000011c        0xa CMakeFiles/foc.elf.dir/Middlewares/ST/STM32_USB_Device_Library/Class/CDC/Src/usbd_cdc.c.obj
 *fill*         0x20000126        0x2 
 .data.USBD_CDC_OtherSpeedCfgDesc
                0x20000128       0x43 CMakeFiles/foc.elf.dir/Middlewares/ST/STM32_USB_Device_Library/Class/CDC/Src/usbd_cdc.c.obj
 *fill*         0x2000016b        0x1 
 .data.uxCriticalNesting
                0x2000016c        0x4 CMakeFiles/foc.elf.dir/Middlewares/Third_Party/FreeRTOS/Source/portable/GCC/ARM_CM4F/port.c.obj
 .data.USBD_Interface_fops_FS
                0x20000170       0x14 CMakeFiles/foc.elf.dir/USB_Device/App/usbd_cdc_if.c.obj
                0x20000170                USBD_Interface_fops_FS
 .data.CDC_Desc
                0x20000184       0x20 CMakeFiles/foc.elf.dir/USB_Device/App/usbd_desc.c.obj
                0x20000184                CDC_Desc
 .data.USBD_CDC_DeviceDesc
                0x200001a4       0x12 CMakeFiles/foc.elf.dir/USB_Device/App/usbd_desc.c.obj
                0x200001a4                USBD_CDC_DeviceDesc
 *fill*         0x200001b6        0x2 
 .data.USBD_LangIDDesc
                0x200001b8        0x4 CMakeFiles/foc.elf.dir/USB_Device/App/usbd_desc.c.obj
                0x200001b8                USBD_LangIDDesc
 .data.USBD_StringSerial
                0x200001bc       0x1a CMakeFiles/foc.elf.dir/USB_Device/App/usbd_desc.c.obj
                0x200001bc                USBD_StringSerial
 .data.mNodeID  0x200001d6        0x1 CMakeFiles/foc.elf.dir/dgm/serial.c.obj
 *fill*         0x200001d7        0x1 
 .data._impure_ptr
                0x200001d8        0x4 d:/sysgcc/arm-eabi/bin/../lib/gcc/arm-none-eabi/10.3.1/../../../../arm-none-eabi/lib/thumb/v7e-m+fp/hard\libg.a(lib_a-impure.o)
                0x200001d8                _impure_ptr
 *fill*         0x200001dc        0x4 
 .data.impure_data
                0x200001e0      0x428 d:/sysgcc/arm-eabi/bin/../lib/gcc/arm-none-eabi/10.3.1/../../../../arm-none-eabi/lib/thumb/v7e-m+fp/hard\libg.a(lib_a-impure.o)
 .data.__malloc_av_
                0x20000608      0x408 d:/sysgcc/arm-eabi/bin/../lib/gcc/arm-none-eabi/10.3.1/../../../../arm-none-eabi/lib/thumb/v7e-m+fp/hard\libg.a(lib_a-mallocr.o)
                0x20000608                __malloc_av_
 .data.__malloc_sbrk_base
                0x20000a10        0x4 d:/sysgcc/arm-eabi/bin/../lib/gcc/arm-none-eabi/10.3.1/../../../../arm-none-eabi/lib/thumb/v7e-m+fp/hard\libg.a(lib_a-mallocr.o)
                0x20000a10                __malloc_sbrk_base
 .data.__malloc_trim_threshold
                0x20000a14        0x4 d:/sysgcc/arm-eabi/bin/../lib/gcc/arm-none-eabi/10.3.1/../../../../arm-none-eabi/lib/thumb/v7e-m+fp/hard\libg.a(lib_a-mallocr.o)
                0x20000a14                __malloc_trim_threshold
 .data.__atexit_recursive_mutex
                0x20000a18        0x4 d:/sysgcc/arm-eabi/bin/../lib/gcc/arm-none-eabi/10.3.1/../../../../arm-none-eabi/lib/thumb/v7e-m+fp/hard\libg.a(lib_a-__call_atexit.o)
                0x20000a18                __atexit_recursive_mutex
 .data.numempty
                0x20000a1c        0x2 d:/sysgcc/arm-eabi/bin/../lib/gcc/arm-none-eabi/10.3.1/../../../../arm-none-eabi/lib/thumb/v7e-m+fp/hard\libg.a(lib_a-lnumeric.o)
 *fill*         0x20000a1e        0x2 
 .data.__global_locale
                0x20000a20      0x16c d:/sysgcc/arm-eabi/bin/../lib/gcc/arm-none-eabi/10.3.1/../../../../arm-none-eabi/lib/thumb/v7e-m+fp/hard\libg.a(lib_a-locale.o)
                0x20000a20                __global_locale
 *(.RamFunc)
 *(.RamFunc*)
                0x20000b8c                . = ALIGN (0x4)
                0x20000b8c                _edata = .

.igot.plt       0x20000b8c        0x0 load address 0x0801a440
 .igot.plt      0x20000b8c        0x0 d:/sysgcc/arm-eabi/bin/../lib/gcc/arm-none-eabi/10.3.1/thumb/v7e-m+fp/hard/crtbegin.o
                0x20000b8c                . = ALIGN (0x4)

.bss            0x20000b90     0x7a10 load address 0x0801a440
                0x20000b90                _sbss = .
                0x20000b90                __bss_start__ = _sbss
 *(.bss)
 .bss           0x20000b90       0x1c d:/sysgcc/arm-eabi/bin/../lib/gcc/arm-none-eabi/10.3.1/thumb/v7e-m+fp/hard/crtbegin.o
 *(.bss*)
 .bss.HAL_RCC_ADC12_CLK_ENABLED
                0x20000bac        0x4 CMakeFiles/foc.elf.dir/Core/Src/adc.c.obj
 .bss.hadc1     0x20000bb0       0x6c CMakeFiles/foc.elf.dir/Core/Src/adc.c.obj
                0x20000bb0                hadc1
 .bss.hadc2     0x20000c1c       0x6c CMakeFiles/foc.elf.dir/Core/Src/adc.c.obj
                0x20000c1c                hadc2
 .bss.SystickCount
                0x20000c88        0x4 CMakeFiles/foc.elf.dir/Core/Src/app_freertos.c.obj
                0x20000c88                SystickCount
 .bss.adc_sum_a.3
                0x20000c8c        0x4 CMakeFiles/foc.elf.dir/Core/Src/app_freertos.c.obj
 .bss.adc_sum_b.2
                0x20000c90        0x4 CMakeFiles/foc.elf.dir/Core/Src/app_freertos.c.obj
 .bss.adc_sum_c.1
                0x20000c94        0x4 CMakeFiles/foc.elf.dir/Core/Src/app_freertos.c.obj
 .bss.defaultTaskHandle
                0x20000c98        0x4 CMakeFiles/foc.elf.dir/Core/Src/app_freertos.c.obj
                0x20000c98                defaultTaskHandle
 .bss.gBtnScanTaskHandle
                0x20000c9c        0x4 CMakeFiles/foc.elf.dir/Core/Src/app_freertos.c.obj
                0x20000c9c                gBtnScanTaskHandle
 .bss.gSerialDataParseTaskHandle
                0x20000ca0        0x4 CMakeFiles/foc.elf.dir/Core/Src/app_freertos.c.obj
                0x20000ca0                gSerialDataParseTaskHandle
 .bss.g_lwrb    0x20000ca4       0x14 CMakeFiles/foc.elf.dir/Core/Src/app_freertos.c.obj
                0x20000ca4                g_lwrb
 .bss.isCalcAdcOffsetOvered.4
                0x20000cb8        0x1 CMakeFiles/foc.elf.dir/Core/Src/app_freertos.c.obj
 *fill*         0x20000cb9        0x3 
 .bss.s_lwrbBuf
                0x20000cbc     0x1000 CMakeFiles/foc.elf.dir/Core/Src/app_freertos.c.obj
                0x20000cbc                s_lwrbBuf
 .bss.vofaCmdBuf
                0x20001cbc      0x400 CMakeFiles/foc.elf.dir/Core/Src/app_freertos.c.obj
                0x20001cbc                vofaCmdBuf
 .bss.hspi1     0x200020bc       0x64 CMakeFiles/foc.elf.dir/Core/Src/spi.c.obj
                0x200020bc                hspi1
 .bss.hspi3     0x20002120       0x64 CMakeFiles/foc.elf.dir/Core/Src/spi.c.obj
                0x20002120                hspi3
 .bss.htim20    0x20002184       0x4c CMakeFiles/foc.elf.dir/Core/Src/stm32g4xx_hal_timebase_tim.c.obj
                0x20002184                htim20
 .bss.__sbrk_heap_end
                0x200021d0        0x4 CMakeFiles/foc.elf.dir/Core/Src/sysmem.c.obj
 .bss.htim1     0x200021d4       0x4c CMakeFiles/foc.elf.dir/Core/Src/tim.c.obj
                0x200021d4                htim1
 .bss.htim6     0x20002220       0x4c CMakeFiles/foc.elf.dir/Core/Src/tim.c.obj
                0x20002220                htim6
 .bss.hdma_usart3_rx
                0x2000226c       0x60 CMakeFiles/foc.elf.dir/Core/Src/usart.c.obj
                0x2000226c                hdma_usart3_rx
 .bss.hdma_usart3_tx
                0x200022cc       0x60 CMakeFiles/foc.elf.dir/Core/Src/usart.c.obj
                0x200022cc                hdma_usart3_tx
 .bss.huart3    0x2000232c       0x94 CMakeFiles/foc.elf.dir/Core/Src/usart.c.obj
                0x2000232c                huart3
 .bss.uwTick    0x200023c0        0x4 CMakeFiles/foc.elf.dir/Drivers/STM32G4xx_HAL_Driver/Src/stm32g4xx_hal.c.obj
                0x200023c0                uwTick
 .bss.cfgidx.0  0x200023c4        0x1 CMakeFiles/foc.elf.dir/Middlewares/ST/STM32_USB_Device_Library/Core/Src/usbd_ctlreq.c.obj
 *fill*         0x200023c5        0x3 
 .bss.Idle_Stack.2
                0x200023c8      0x400 CMakeFiles/foc.elf.dir/Middlewares/Third_Party/FreeRTOS/Source/CMSIS_RTOS_V2/cmsis_os2.c.obj
 .bss.Idle_TCB.3
                0x200027c8      0x488 CMakeFiles/foc.elf.dir/Middlewares/Third_Party/FreeRTOS/Source/CMSIS_RTOS_V2/cmsis_os2.c.obj
 .bss.KernelState
                0x20002c50        0x4 CMakeFiles/foc.elf.dir/Middlewares/Third_Party/FreeRTOS/Source/CMSIS_RTOS_V2/cmsis_os2.c.obj
 .bss.Timer_Stack.0
                0x20002c54      0x800 CMakeFiles/foc.elf.dir/Middlewares/Third_Party/FreeRTOS/Source/CMSIS_RTOS_V2/cmsis_os2.c.obj
 *fill*         0x20003454        0x4 
 .bss.Timer_TCB.1
                0x20003458      0x488 CMakeFiles/foc.elf.dir/Middlewares/Third_Party/FreeRTOS/Source/CMSIS_RTOS_V2/cmsis_os2.c.obj
 .bss.ucMaxSysCallPriority
                0x200038e0        0x1 CMakeFiles/foc.elf.dir/Middlewares/Third_Party/FreeRTOS/Source/portable/GCC/ARM_CM4F/port.c.obj
 *fill*         0x200038e1        0x3 
 .bss.ulMaxPRIGROUPValue
                0x200038e4        0x4 CMakeFiles/foc.elf.dir/Middlewares/Third_Party/FreeRTOS/Source/portable/GCC/ARM_CM4F/port.c.obj
 .bss.pxEnd     0x200038e8        0x4 CMakeFiles/foc.elf.dir/Middlewares/Third_Party/FreeRTOS/Source/portable/MemMang/heap_4.c.obj
 .bss.ucHeap    0x200038ec     0x2800 CMakeFiles/foc.elf.dir/Middlewares/Third_Party/FreeRTOS/Source/portable/MemMang/heap_4.c.obj
 .bss.xBlockAllocatedBit
                0x200060ec        0x4 CMakeFiles/foc.elf.dir/Middlewares/Third_Party/FreeRTOS/Source/portable/MemMang/heap_4.c.obj
 .bss.xFreeBytesRemaining
                0x200060f0        0x4 CMakeFiles/foc.elf.dir/Middlewares/Third_Party/FreeRTOS/Source/portable/MemMang/heap_4.c.obj
 .bss.xMinimumEverFreeBytesRemaining
                0x200060f4        0x4 CMakeFiles/foc.elf.dir/Middlewares/Third_Party/FreeRTOS/Source/portable/MemMang/heap_4.c.obj
 .bss.xNumberOfSuccessfulAllocations
                0x200060f8        0x4 CMakeFiles/foc.elf.dir/Middlewares/Third_Party/FreeRTOS/Source/portable/MemMang/heap_4.c.obj
 .bss.xNumberOfSuccessfulFrees
                0x200060fc        0x4 CMakeFiles/foc.elf.dir/Middlewares/Third_Party/FreeRTOS/Source/portable/MemMang/heap_4.c.obj
 .bss.xStart    0x20006100        0x8 CMakeFiles/foc.elf.dir/Middlewares/Third_Party/FreeRTOS/Source/portable/MemMang/heap_4.c.obj
 .bss.xQueueRegistry
                0x20006108       0x40 CMakeFiles/foc.elf.dir/Middlewares/Third_Party/FreeRTOS/Source/queue.c.obj
                0x20006108                xQueueRegistry
 .bss.pxCurrentTCB
                0x20006148        0x4 CMakeFiles/foc.elf.dir/Middlewares/Third_Party/FreeRTOS/Source/tasks.c.obj
                0x20006148                pxCurrentTCB
 .bss.pxDelayedTaskList
                0x2000614c        0x4 CMakeFiles/foc.elf.dir/Middlewares/Third_Party/FreeRTOS/Source/tasks.c.obj
 .bss.pxOverflowDelayedTaskList
                0x20006150        0x4 CMakeFiles/foc.elf.dir/Middlewares/Third_Party/FreeRTOS/Source/tasks.c.obj
 .bss.pxReadyTasksLists
                0x20006154      0x460 CMakeFiles/foc.elf.dir/Middlewares/Third_Party/FreeRTOS/Source/tasks.c.obj
 .bss.uxCurrentNumberOfTasks
                0x200065b4        0x4 CMakeFiles/foc.elf.dir/Middlewares/Third_Party/FreeRTOS/Source/tasks.c.obj
 .bss.uxDeletedTasksWaitingCleanUp
                0x200065b8        0x4 CMakeFiles/foc.elf.dir/Middlewares/Third_Party/FreeRTOS/Source/tasks.c.obj
 .bss.uxSchedulerSuspended
                0x200065bc        0x4 CMakeFiles/foc.elf.dir/Middlewares/Third_Party/FreeRTOS/Source/tasks.c.obj
 .bss.uxTaskNumber
                0x200065c0        0x4 CMakeFiles/foc.elf.dir/Middlewares/Third_Party/FreeRTOS/Source/tasks.c.obj
 .bss.uxTopReadyPriority
                0x200065c4        0x4 CMakeFiles/foc.elf.dir/Middlewares/Third_Party/FreeRTOS/Source/tasks.c.obj
 .bss.xDelayedTaskList1
                0x200065c8       0x14 CMakeFiles/foc.elf.dir/Middlewares/Third_Party/FreeRTOS/Source/tasks.c.obj
 .bss.xDelayedTaskList2
                0x200065dc       0x14 CMakeFiles/foc.elf.dir/Middlewares/Third_Party/FreeRTOS/Source/tasks.c.obj
 .bss.xIdleTaskHandle
                0x200065f0        0x4 CMakeFiles/foc.elf.dir/Middlewares/Third_Party/FreeRTOS/Source/tasks.c.obj
 .bss.xNextTaskUnblockTime
                0x200065f4        0x4 CMakeFiles/foc.elf.dir/Middlewares/Third_Party/FreeRTOS/Source/tasks.c.obj
 .bss.xNumOfOverflows
                0x200065f8        0x4 CMakeFiles/foc.elf.dir/Middlewares/Third_Party/FreeRTOS/Source/tasks.c.obj
 .bss.xPendedTicks
                0x200065fc        0x4 CMakeFiles/foc.elf.dir/Middlewares/Third_Party/FreeRTOS/Source/tasks.c.obj
 .bss.xPendingReadyList
                0x20006600       0x14 CMakeFiles/foc.elf.dir/Middlewares/Third_Party/FreeRTOS/Source/tasks.c.obj
 .bss.xSchedulerRunning
                0x20006614        0x4 CMakeFiles/foc.elf.dir/Middlewares/Third_Party/FreeRTOS/Source/tasks.c.obj
 .bss.xSuspendedTaskList
                0x20006618       0x14 CMakeFiles/foc.elf.dir/Middlewares/Third_Party/FreeRTOS/Source/tasks.c.obj
 .bss.xTasksWaitingTermination
                0x2000662c       0x14 CMakeFiles/foc.elf.dir/Middlewares/Third_Party/FreeRTOS/Source/tasks.c.obj
 .bss.xTickCount
                0x20006640        0x4 CMakeFiles/foc.elf.dir/Middlewares/Third_Party/FreeRTOS/Source/tasks.c.obj
 .bss.xYieldPending
                0x20006644        0x4 CMakeFiles/foc.elf.dir/Middlewares/Third_Party/FreeRTOS/Source/tasks.c.obj
 .bss.pxCurrentTimerList
                0x20006648        0x4 CMakeFiles/foc.elf.dir/Middlewares/Third_Party/FreeRTOS/Source/timers.c.obj
 .bss.pxOverflowTimerList
                0x2000664c        0x4 CMakeFiles/foc.elf.dir/Middlewares/Third_Party/FreeRTOS/Source/timers.c.obj
 .bss.ucStaticTimerQueueStorage.1
                0x20006650       0xa0 CMakeFiles/foc.elf.dir/Middlewares/Third_Party/FreeRTOS/Source/timers.c.obj
 .bss.xActiveTimerList1
                0x200066f0       0x14 CMakeFiles/foc.elf.dir/Middlewares/Third_Party/FreeRTOS/Source/timers.c.obj
 .bss.xActiveTimerList2
                0x20006704       0x14 CMakeFiles/foc.elf.dir/Middlewares/Third_Party/FreeRTOS/Source/timers.c.obj
 .bss.xLastTime.2
                0x20006718        0x4 CMakeFiles/foc.elf.dir/Middlewares/Third_Party/FreeRTOS/Source/timers.c.obj
 .bss.xStaticTimerQueue.0
                0x2000671c       0x50 CMakeFiles/foc.elf.dir/Middlewares/Third_Party/FreeRTOS/Source/timers.c.obj
 .bss.xTimerQueue
                0x2000676c        0x4 CMakeFiles/foc.elf.dir/Middlewares/Third_Party/FreeRTOS/Source/timers.c.obj
 .bss.xTimerTaskHandle
                0x20006770        0x4 CMakeFiles/foc.elf.dir/Middlewares/Third_Party/FreeRTOS/Source/timers.c.obj
 .bss.hUsbDeviceFS
                0x20006774      0x2d0 CMakeFiles/foc.elf.dir/USB_Device/App/usb_device.c.obj
                0x20006774                hUsbDeviceFS
 .bss.UserRxBufferFS
                0x20006a44      0x800 CMakeFiles/foc.elf.dir/USB_Device/App/usbd_cdc_if.c.obj
                0x20006a44                UserRxBufferFS
 .bss.UserTxBufferFS
                0x20007244      0x800 CMakeFiles/foc.elf.dir/USB_Device/App/usbd_cdc_if.c.obj
                0x20007244                UserTxBufferFS
 .bss.USBD_StrDesc
                0x20007a44      0x200 CMakeFiles/foc.elf.dir/USB_Device/App/usbd_desc.c.obj
                0x20007a44                USBD_StrDesc
 .bss.hpcd_USB_FS
                0x20007c44      0x2dc CMakeFiles/foc.elf.dir/USB_Device/Target/usbd_conf.c.obj
                0x20007c44                hpcd_USB_FS
 .bss.mem.0     0x20007f20      0x220 CMakeFiles/foc.elf.dir/USB_Device/Target/usbd_conf.c.obj
 .bss.AnticoggingValid
                0x20008140        0x1 CMakeFiles/foc.elf.dir/dgm/anticogging.c.obj
                0x20008140                AnticoggingValid
 *fill*         0x20008141        0x3 
 .bss.mLoopCount
                0x20008144        0x4 CMakeFiles/foc.elf.dir/dgm/anticogging.c.obj
 .bss.mNumber   0x20008148        0x4 CMakeFiles/foc.elf.dir/dgm/anticogging.c.obj
 .bss.Ialphas.4
                0x2000814c        0x8 CMakeFiles/foc.elf.dir/dgm/calibration.c.obj
 .bss.loop_count.6
                0x20008154        0x4 CMakeFiles/foc.elf.dir/dgm/calibration.c.obj
 .bss.mCalibStep
                0x20008158        0x1 CMakeFiles/foc.elf.dir/dgm/calibration.c.obj
 *fill*         0x20008159        0x3 
 .bss.next_sample_time.0
                0x2000815c        0x4 CMakeFiles/foc.elf.dir/dgm/calibration.c.obj
 .bss.p_error_arr
                0x20008160        0x4 CMakeFiles/foc.elf.dir/dgm/calibration.c.obj
 .bss.phase_set.3
                0x20008164        0x4 CMakeFiles/foc.elf.dir/dgm/calibration.c.obj
 .bss.sample_count.1
                0x20008168        0x2 CMakeFiles/foc.elf.dir/dgm/calibration.c.obj
 *fill*         0x2000816a        0x2 
 .bss.start_count.2
                0x2000816c        0x4 CMakeFiles/foc.elf.dir/dgm/calibration.c.obj
 .bss.voltages.5
                0x20008170        0x8 CMakeFiles/foc.elf.dir/dgm/calibration.c.obj
 .bss.Controller
                0x20008178       0x34 CMakeFiles/foc.elf.dir/dgm/controller.c.obj
                0x20008178                Controller
 *fill*         0x200081ac        0x4 
 .bss.Encoder   0x200081b0       0x40 CMakeFiles/foc.elf.dir/dgm/encoder.c.obj
                0x200081b0                Encoder
 .bss.MT6816    0x200081f0        0xc CMakeFiles/foc.elf.dir/dgm/encoder.c.obj
                0x200081f0                MT6816
 .bss.Foc       0x200081fc       0x54 CMakeFiles/foc.elf.dir/dgm/foc.c.obj
                0x200081fc                Foc
 .bss.StatuswordNew
                0x20008250        0x8 CMakeFiles/foc.elf.dir/dgm/mc_task.c.obj
                0x20008250                StatuswordNew
 .bss.StatuswordOld
                0x20008258        0x8 CMakeFiles/foc.elf.dir/dgm/mc_task.c.obj
                0x20008258                StatuswordOld
 .bss.mChargeBootCapDelay
                0x20008260        0x2 CMakeFiles/foc.elf.dir/dgm/mc_task.c.obj
 *fill*         0x20008262        0x2 
 .bss.mFSM      0x20008264        0x3 CMakeFiles/foc.elf.dir/dgm/mc_task.c.obj
 *fill*         0x20008267        0x1 
 .bss.tick.0    0x20008268        0x2 CMakeFiles/foc.elf.dir/dgm/mc_task.c.obj
 *fill*         0x2000826a        0x2 
 .bss.tick_100Hz.1
                0x2000826c        0x4 CMakeFiles/foc.elf.dir/dgm/mc_task.c.obj
 .bss.adc_vbus  0x20008270        0x2 CMakeFiles/foc.elf.dir/dgm/pwm_curr.c.obj
                0x20008270                adc_vbus
 .bss.phase_a_adc_offset
                0x20008272        0x2 CMakeFiles/foc.elf.dir/dgm/pwm_curr.c.obj
                0x20008272                phase_a_adc_offset
 .bss.phase_b_adc_offset
                0x20008274        0x2 CMakeFiles/foc.elf.dir/dgm/pwm_curr.c.obj
                0x20008274                phase_b_adc_offset
 .bss.phase_c_adc_offset
                0x20008276        0x2 CMakeFiles/foc.elf.dir/dgm/pwm_curr.c.obj
                0x20008276                phase_c_adc_offset
 .bss.mRxTick   0x20008278        0x4 CMakeFiles/foc.elf.dir/dgm/serial.c.obj
 .bss.mTxTick   0x2000827c        0x4 CMakeFiles/foc.elf.dir/dgm/serial.c.obj
 .bss.Traj      0x20008280       0x40 CMakeFiles/foc.elf.dir/dgm/trapTraj.c.obj
                0x20008280                Traj
 .bss.UsrConfig
                0x200082c0      0x294 CMakeFiles/foc.elf.dir/dgm/usr_config.c.obj
                0x200082c0                UsrConfig
 .bss.pCoggingMap
                0x20008554        0x4 CMakeFiles/foc.elf.dir/dgm/usr_config.c.obj
                0x20008554                pCoggingMap
 .bss.__malloc_current_mallinfo
                0x20008558       0x28 d:/sysgcc/arm-eabi/bin/../lib/gcc/arm-none-eabi/10.3.1/../../../../arm-none-eabi/lib/thumb/v7e-m+fp/hard\libg.a(lib_a-mallocr.o)
                0x20008558                __malloc_current_mallinfo
 .bss.__malloc_max_sbrked_mem
                0x20008580        0x4 d:/sysgcc/arm-eabi/bin/../lib/gcc/arm-none-eabi/10.3.1/../../../../arm-none-eabi/lib/thumb/v7e-m+fp/hard\libg.a(lib_a-mallocr.o)
                0x20008580                __malloc_max_sbrked_mem
 .bss.__malloc_max_total_mem
                0x20008584        0x4 d:/sysgcc/arm-eabi/bin/../lib/gcc/arm-none-eabi/10.3.1/../../../../arm-none-eabi/lib/thumb/v7e-m+fp/hard\libg.a(lib_a-mallocr.o)
                0x20008584                __malloc_max_total_mem
 .bss.__malloc_top_pad
                0x20008588        0x4 d:/sysgcc/arm-eabi/bin/../lib/gcc/arm-none-eabi/10.3.1/../../../../arm-none-eabi/lib/thumb/v7e-m+fp/hard\libg.a(lib_a-mallocr.o)
                0x20008588                __malloc_top_pad
 .bss.errno     0x2000858c        0x4 d:/sysgcc/arm-eabi/bin/../lib/gcc/arm-none-eabi/10.3.1/../../../../arm-none-eabi/lib/thumb/v7e-m+fp/hard\libg.a(lib_a-reent.o)
                0x2000858c                errno
 .bss.__lock___atexit_recursive_mutex
                0x20008590        0x1 d:/sysgcc/arm-eabi/bin/../lib/gcc/arm-none-eabi/10.3.1/../../../../arm-none-eabi/lib/thumb/v7e-m+fp/hard\libg.a(lib_a-lock.o)
                0x20008590                __lock___atexit_recursive_mutex
 *fill*         0x20008591        0x3 
 .bss.__lock___malloc_recursive_mutex
                0x20008594        0x1 d:/sysgcc/arm-eabi/bin/../lib/gcc/arm-none-eabi/10.3.1/../../../../arm-none-eabi/lib/thumb/v7e-m+fp/hard\libg.a(lib_a-lock.o)
                0x20008594                __lock___malloc_recursive_mutex
 *fill*         0x20008595        0x3 
 .bss.__lock___sfp_recursive_mutex
                0x20008598        0x1 d:/sysgcc/arm-eabi/bin/../lib/gcc/arm-none-eabi/10.3.1/../../../../arm-none-eabi/lib/thumb/v7e-m+fp/hard\libg.a(lib_a-lock.o)
                0x20008598                __lock___sfp_recursive_mutex
 *fill*         0x20008599        0x3 
 .bss.__lock___sinit_recursive_mutex
                0x2000859c        0x1 d:/sysgcc/arm-eabi/bin/../lib/gcc/arm-none-eabi/10.3.1/../../../../arm-none-eabi/lib/thumb/v7e-m+fp/hard\libg.a(lib_a-lock.o)
                0x2000859c                __lock___sinit_recursive_mutex
 *(COMMON)
                0x200085a0                . = ALIGN (0x4)
 *fill*         0x2000859d        0x3 
                0x200085a0                _ebss = .
                0x200085a0                __bss_end__ = _ebss

._user_heap_stack
                0x200085a0     0x2000 load address 0x0801a440
                0x200085a0                . = ALIGN (0x8)
                [!provide]                PROVIDE (end = .)
                0x200085a0                PROVIDE (_end = .)
                0x200095a0                . = (. + _Min_Heap_Size)
 *fill*         0x200085a0     0x1000 
                0x2000a5a0                . = (. + _Min_Stack_Size)
 *fill*         0x200095a0     0x1000 
                0x2000a5a0                . = ALIGN (0x8)

/DISCARD/
 libc.a(*)
 libm.a(*)
 libgcc.a(*)

.ARM.attributes
                0x00000000       0x30
 *(.ARM.attributes)
 .ARM.attributes
                0x00000000       0x1e d:/sysgcc/arm-eabi/bin/../lib/gcc/arm-none-eabi/10.3.1/thumb/v7e-m+fp/hard/crti.o
 .ARM.attributes
                0x0000001e       0x34 d:/sysgcc/arm-eabi/bin/../lib/gcc/arm-none-eabi/10.3.1/thumb/v7e-m+fp/hard/crtbegin.o
 .ARM.attributes
                0x00000052       0x34 CMakeFiles/foc.elf.dir/Core/Src/adc.c.obj
 .ARM.attributes
                0x00000086       0x34 CMakeFiles/foc.elf.dir/Core/Src/app_freertos.c.obj
 .ARM.attributes
                0x000000ba       0x34 CMakeFiles/foc.elf.dir/Core/Src/dma.c.obj
 .ARM.attributes
                0x000000ee       0x34 CMakeFiles/foc.elf.dir/Core/Src/gpio.c.obj
 .ARM.attributes
                0x00000122       0x34 CMakeFiles/foc.elf.dir/Core/Src/main.c.obj
 .ARM.attributes
                0x00000156       0x34 CMakeFiles/foc.elf.dir/Core/Src/spi.c.obj
 .ARM.attributes
                0x0000018a       0x34 CMakeFiles/foc.elf.dir/Core/Src/stm32g4xx_hal_msp.c.obj
 .ARM.attributes
                0x000001be       0x34 CMakeFiles/foc.elf.dir/Core/Src/stm32g4xx_hal_timebase_tim.c.obj
 .ARM.attributes
                0x000001f2       0x34 CMakeFiles/foc.elf.dir/Core/Src/stm32g4xx_it.c.obj
 .ARM.attributes
                0x00000226       0x34 CMakeFiles/foc.elf.dir/Core/Src/syscalls.c.obj
 .ARM.attributes
                0x0000025a       0x34 CMakeFiles/foc.elf.dir/Core/Src/sysmem.c.obj
 .ARM.attributes
                0x0000028e       0x34 CMakeFiles/foc.elf.dir/Core/Src/system_stm32g4xx.c.obj
 .ARM.attributes
                0x000002c2       0x34 CMakeFiles/foc.elf.dir/Core/Src/tim.c.obj
 .ARM.attributes
                0x000002f6       0x34 CMakeFiles/foc.elf.dir/Core/Src/usart.c.obj
 .ARM.attributes
                0x0000032a       0x21 CMakeFiles/foc.elf.dir/Core/Startup/startup_stm32g474retx.s.obj
 .ARM.attributes
                0x0000034b       0x34 CMakeFiles/foc.elf.dir/Drivers/STM32G4xx_HAL_Driver/Src/stm32g4xx_hal.c.obj
 .ARM.attributes
                0x0000037f       0x34 CMakeFiles/foc.elf.dir/Drivers/STM32G4xx_HAL_Driver/Src/stm32g4xx_hal_adc.c.obj
 .ARM.attributes
                0x000003b3       0x34 CMakeFiles/foc.elf.dir/Drivers/STM32G4xx_HAL_Driver/Src/stm32g4xx_hal_adc_ex.c.obj
 .ARM.attributes
                0x000003e7       0x34 CMakeFiles/foc.elf.dir/Drivers/STM32G4xx_HAL_Driver/Src/stm32g4xx_hal_cortex.c.obj
 .ARM.attributes
                0x0000041b       0x34 CMakeFiles/foc.elf.dir/Drivers/STM32G4xx_HAL_Driver/Src/stm32g4xx_hal_dma.c.obj
 .ARM.attributes
                0x0000044f       0x34 CMakeFiles/foc.elf.dir/Drivers/STM32G4xx_HAL_Driver/Src/stm32g4xx_hal_flash.c.obj
 .ARM.attributes
                0x00000483       0x34 CMakeFiles/foc.elf.dir/Drivers/STM32G4xx_HAL_Driver/Src/stm32g4xx_hal_flash_ex.c.obj
 .ARM.attributes
                0x000004b7       0x34 CMakeFiles/foc.elf.dir/Drivers/STM32G4xx_HAL_Driver/Src/stm32g4xx_hal_gpio.c.obj
 .ARM.attributes
                0x000004eb       0x34 CMakeFiles/foc.elf.dir/Drivers/STM32G4xx_HAL_Driver/Src/stm32g4xx_hal_pcd.c.obj
 .ARM.attributes
                0x0000051f       0x34 CMakeFiles/foc.elf.dir/Drivers/STM32G4xx_HAL_Driver/Src/stm32g4xx_hal_pcd_ex.c.obj
 .ARM.attributes
                0x00000553       0x34 CMakeFiles/foc.elf.dir/Drivers/STM32G4xx_HAL_Driver/Src/stm32g4xx_hal_pwr_ex.c.obj
 .ARM.attributes
                0x00000587       0x34 CMakeFiles/foc.elf.dir/Drivers/STM32G4xx_HAL_Driver/Src/stm32g4xx_hal_rcc.c.obj
 .ARM.attributes
                0x000005bb       0x34 CMakeFiles/foc.elf.dir/Drivers/STM32G4xx_HAL_Driver/Src/stm32g4xx_hal_rcc_ex.c.obj
 .ARM.attributes
                0x000005ef       0x34 CMakeFiles/foc.elf.dir/Drivers/STM32G4xx_HAL_Driver/Src/stm32g4xx_hal_spi.c.obj
 .ARM.attributes
                0x00000623       0x34 CMakeFiles/foc.elf.dir/Drivers/STM32G4xx_HAL_Driver/Src/stm32g4xx_hal_tim.c.obj
 .ARM.attributes
                0x00000657       0x34 CMakeFiles/foc.elf.dir/Drivers/STM32G4xx_HAL_Driver/Src/stm32g4xx_hal_tim_ex.c.obj
 .ARM.attributes
                0x0000068b       0x34 CMakeFiles/foc.elf.dir/Drivers/STM32G4xx_HAL_Driver/Src/stm32g4xx_hal_uart.c.obj
 .ARM.attributes
                0x000006bf       0x34 CMakeFiles/foc.elf.dir/Drivers/STM32G4xx_HAL_Driver/Src/stm32g4xx_hal_uart_ex.c.obj
 .ARM.attributes
                0x000006f3       0x34 CMakeFiles/foc.elf.dir/Drivers/STM32G4xx_HAL_Driver/Src/stm32g4xx_ll_usb.c.obj
 .ARM.attributes
                0x00000727       0x34 CMakeFiles/foc.elf.dir/Middlewares/ST/STM32_USB_Device_Library/Class/CDC/Src/usbd_cdc.c.obj
 .ARM.attributes
                0x0000075b       0x34 CMakeFiles/foc.elf.dir/Middlewares/ST/STM32_USB_Device_Library/Core/Src/usbd_core.c.obj
 .ARM.attributes
                0x0000078f       0x34 CMakeFiles/foc.elf.dir/Middlewares/ST/STM32_USB_Device_Library/Core/Src/usbd_ctlreq.c.obj
 .ARM.attributes
                0x000007c3       0x34 CMakeFiles/foc.elf.dir/Middlewares/ST/STM32_USB_Device_Library/Core/Src/usbd_ioreq.c.obj
 .ARM.attributes
                0x000007f7       0x34 CMakeFiles/foc.elf.dir/Middlewares/Third_Party/FreeRTOS/Source/CMSIS_RTOS_V2/cmsis_os2.c.obj
 .ARM.attributes
                0x0000082b       0x34 CMakeFiles/foc.elf.dir/Middlewares/Third_Party/FreeRTOS/Source/list.c.obj
 .ARM.attributes
                0x0000085f       0x34 CMakeFiles/foc.elf.dir/Middlewares/Third_Party/FreeRTOS/Source/portable/GCC/ARM_CM4F/port.c.obj
 .ARM.attributes
                0x00000893       0x34 CMakeFiles/foc.elf.dir/Middlewares/Third_Party/FreeRTOS/Source/portable/MemMang/heap_4.c.obj
 .ARM.attributes
                0x000008c7       0x34 CMakeFiles/foc.elf.dir/Middlewares/Third_Party/FreeRTOS/Source/queue.c.obj
